{
	"contracts/lesson4/FuctionReturn.sol": {
		"Return": {
			"abi": [
				{
					"inputs": [],
					"name": "readReturn",
					"outputs": [],
					"stateMutability": "pure",
					"type": "function"
				},
				{
					"inputs": [],
					"name": "returnMultiple",
					"outputs": [
						{
							"internalType": "uint256",
							"name": "",
							"type": "uint256"
						},
						{
							"internalType": "bool",
							"name": "",
							"type": "bool"
						},
						{
							"internalType": "uint256[3]",
							"name": "",
							"type": "uint256[3]"
						}
					],
					"stateMutability": "pure",
					"type": "function"
				},
				{
					"inputs": [],
					"name": "returnNamed",
					"outputs": [
						{
							"internalType": "uint256",
							"name": "_number",
							"type": "uint256"
						},
						{
							"internalType": "bool",
							"name": "_bool",
							"type": "bool"
						},
						{
							"internalType": "uint256[3]",
							"name": "_array",
							"type": "uint256[3]"
						}
					],
					"stateMutability": "pure",
					"type": "function"
				},
				{
					"inputs": [],
					"name": "returnNamed2",
					"outputs": [
						{
							"internalType": "uint256",
							"name": "_number",
							"type": "uint256"
						},
						{
							"internalType": "bool",
							"name": "_bool",
							"type": "bool"
						},
						{
							"internalType": "uint256[3]",
							"name": "_array",
							"type": "uint256[3]"
						}
					],
					"stateMutability": "pure",
					"type": "function"
				},
				{
					"inputs": [],
					"name": "returnNamed3",
					"outputs": [
						{
							"internalType": "uint16",
							"name": "_number",
							"type": "uint16"
						}
					],
					"stateMutability": "pure",
					"type": "function"
				}
			],
			"devdoc": {
				"kind": "dev",
				"methods": {},
				"version": 1
			},
			"evm": {
				"assembly": "    /* \"contracts/lesson4/FuctionReturn.sol\":116:1168  contract Return {... */\n  mstore(0x40, 0x80)\n  callvalue\n  dup1\n  iszero\n  tag_1\n  jumpi\n  0x00\n  dup1\n  revert\ntag_1:\n  pop\n  dataSize(sub_0)\n  dup1\n  dataOffset(sub_0)\n  0x00\n  codecopy\n  0x00\n  return\nstop\n\nsub_0: assembly {\n        /* \"contracts/lesson4/FuctionReturn.sol\":116:1168  contract Return {... */\n      mstore(0x40, 0x80)\n      callvalue\n      dup1\n      iszero\n      tag_1\n      jumpi\n      0x00\n      dup1\n      revert\n    tag_1:\n      pop\n      jumpi(tag_2, lt(calldatasize, 0x04))\n      shr(0xe0, calldataload(0x00))\n      dup1\n      0x3dece511\n      eq\n      tag_3\n      jumpi\n      dup1\n      0x6f590330\n      eq\n      tag_4\n      jumpi\n      dup1\n      0x8552dc08\n      eq\n      tag_5\n      jumpi\n      dup1\n      0xcbdb30ab\n      eq\n      tag_6\n      jumpi\n      dup1\n      0xe61e4008\n      eq\n      tag_7\n      jumpi\n    tag_2:\n      0x00\n      dup1\n      revert\n        /* \"contracts/lesson4/FuctionReturn.sol\":322:506  function returnNamed() public pure returns(uint256 _number, bool _bool, uint256[3] memory _array){... */\n    tag_3:\n      tag_8\n      tag_9\n      jump\t// in\n    tag_8:\n      mload(0x40)\n      tag_10\n      swap4\n      swap3\n      swap2\n      swap1\n      tag_11\n      jump\t// in\n    tag_10:\n      mload(0x40)\n      dup1\n      swap2\n      sub\n      swap1\n      return\n        /* \"contracts/lesson4/FuctionReturn.sol\":845:1166  function readReturn() public pure{... */\n    tag_4:\n      tag_12\n      tag_13\n      jump\t// in\n    tag_12:\n      stop\n        /* \"contracts/lesson4/FuctionReturn.sol\":556:704  function returnNamed2() public pure returns(uint256 _number, bool _bool, uint256[3] memory _array){... */\n    tag_5:\n      tag_14\n      tag_15\n      jump\t// in\n    tag_14:\n      mload(0x40)\n      tag_16\n      swap4\n      swap3\n      swap2\n      swap1\n      tag_11\n      jump\t// in\n    tag_16:\n      mload(0x40)\n      dup1\n      swap2\n      sub\n      swap1\n      return\n        /* \"contracts/lesson4/FuctionReturn.sol\":710:798  function returnNamed3() public pure returns(uint16 _number){... */\n    tag_6:\n      tag_17\n      tag_18\n      jump\t// in\n    tag_17:\n      mload(0x40)\n      tag_19\n      swap2\n      swap1\n      tag_20\n      jump\t// in\n    tag_19:\n      mload(0x40)\n      dup1\n      swap2\n      sub\n      swap1\n      return\n        /* \"contracts/lesson4/FuctionReturn.sol\":164:293  function returnMultiple() public pure returns(uint256, bool, uint256[3] memory){... */\n    tag_7:\n      tag_21\n      tag_22\n      jump\t// in\n    tag_21:\n      mload(0x40)\n      tag_23\n      swap4\n      swap3\n      swap2\n      swap1\n      tag_11\n      jump\t// in\n    tag_23:\n      mload(0x40)\n      dup1\n      swap2\n      sub\n      swap1\n      return\n        /* \"contracts/lesson4/FuctionReturn.sol\":322:506  function returnNamed() public pure returns(uint256 _number, bool _bool, uint256[3] memory _array){... */\n    tag_9:\n        /* \"contracts/lesson4/FuctionReturn.sol\":365:380  uint256 _number */\n      0x00\n        /* \"contracts/lesson4/FuctionReturn.sol\":382:392  bool _bool */\n      dup1\n        /* \"contracts/lesson4/FuctionReturn.sol\":394:418  uint256[3] memory _array */\n      tag_24\n      tag_25\n      jump\t// in\n    tag_24:\n        /* \"contracts/lesson4/FuctionReturn.sol\":439:440  2 */\n      0x02\n        /* \"contracts/lesson4/FuctionReturn.sol\":429:440  _number = 2 */\n      swap3\n      pop\n        /* \"contracts/lesson4/FuctionReturn.sol\":458:463  false */\n      0x00\n        /* \"contracts/lesson4/FuctionReturn.sol\":450:463  _bool = false */\n      swap2\n      pop\n        /* \"contracts/lesson4/FuctionReturn.sol\":474:499  _array = [uint256(3),2,1] */\n      mload(0x40)\n      dup1\n      0x60\n      add\n      0x40\n      mstore\n      dup1\n        /* \"contracts/lesson4/FuctionReturn.sol\":492:493  3 */\n      0x03\n        /* \"contracts/lesson4/FuctionReturn.sol\":474:499  _array = [uint256(3),2,1] */\n      dup2\n      mstore\n      0x20\n      add\n        /* \"contracts/lesson4/FuctionReturn.sol\":495:496  2 */\n      0x02\n        /* \"contracts/lesson4/FuctionReturn.sol\":474:499  _array = [uint256(3),2,1] */\n      dup2\n      mstore\n      0x20\n      add\n        /* \"contracts/lesson4/FuctionReturn.sol\":497:498  1 */\n      0x01\n        /* \"contracts/lesson4/FuctionReturn.sol\":474:499  _array = [uint256(3),2,1] */\n      dup2\n      mstore\n      pop\n      swap1\n      pop\n        /* \"contracts/lesson4/FuctionReturn.sol\":322:506  function returnNamed() public pure returns(uint256 _number, bool _bool, uint256[3] memory _array){... */\n      swap1\n      swap2\n      swap3\n      jump\t// out\n        /* \"contracts/lesson4/FuctionReturn.sol\":845:1166  function readReturn() public pure{... */\n    tag_13:\n        /* \"contracts/lesson4/FuctionReturn.sol\":921:936  uint256 _number */\n      0x00\n        /* \"contracts/lesson4/FuctionReturn.sol\":946:956  bool _bool */\n      dup1\n        /* \"contracts/lesson4/FuctionReturn.sol\":966:977  bool _bool2 */\n      0x00\n        /* \"contracts/lesson4/FuctionReturn.sol\":987:1011  uint256[3] memory _array */\n      tag_28\n      tag_25\n      jump\t// in\n    tag_28:\n        /* \"contracts/lesson4/FuctionReturn.sol\":1048:1061  returnNamed() */\n      tag_29\n        /* \"contracts/lesson4/FuctionReturn.sol\":1048:1059  returnNamed */\n      tag_9\n        /* \"contracts/lesson4/FuctionReturn.sol\":1048:1061  returnNamed() */\n      jump\t// in\n    tag_29:\n        /* \"contracts/lesson4/FuctionReturn.sol\":1021:1061  (_number, _bool, _array) = returnNamed() */\n      dup1\n      swap4\n      pop\n      dup2\n      swap6\n      pop\n      dup3\n      swap7\n      pop\n      pop\n      pop\n      pop\n        /* \"contracts/lesson4/FuctionReturn.sol\":1146:1159  returnNamed() */\n      tag_30\n        /* \"contracts/lesson4/FuctionReturn.sol\":1146:1157  returnNamed */\n      tag_9\n        /* \"contracts/lesson4/FuctionReturn.sol\":1146:1159  returnNamed() */\n      jump\t// in\n    tag_30:\n        /* \"contracts/lesson4/FuctionReturn.sol\":1131:1159  (, _bool2, ) = returnNamed() */\n      swap1\n      swap2\n      pop\n      pop\n      dup1\n      swap3\n      pop\n      pop\n        /* \"contracts/lesson4/FuctionReturn.sol\":878:1166  {... */\n      pop\n      pop\n      pop\n      pop\n        /* \"contracts/lesson4/FuctionReturn.sol\":845:1166  function readReturn() public pure{... */\n      jump\t// out\n        /* \"contracts/lesson4/FuctionReturn.sol\":556:704  function returnNamed2() public pure returns(uint256 _number, bool _bool, uint256[3] memory _array){... */\n    tag_15:\n        /* \"contracts/lesson4/FuctionReturn.sol\":600:615  uint256 _number */\n      0x00\n        /* \"contracts/lesson4/FuctionReturn.sol\":617:627  bool _bool */\n      dup1\n        /* \"contracts/lesson4/FuctionReturn.sol\":629:653  uint256[3] memory _array */\n      tag_31\n      tag_25\n      jump\t// in\n    tag_31:\n        /* \"contracts/lesson4/FuctionReturn.sol\":671:672  1 */\n      0x01\n        /* \"contracts/lesson4/FuctionReturn.sol\":674:678  true */\n      dup1\n        /* \"contracts/lesson4/FuctionReturn.sol\":664:697  return(1, true, [uint256(1),2,5]) */\n      mload(0x40)\n      dup1\n      0x60\n      add\n      0x40\n      mstore\n      dup1\n        /* \"contracts/lesson4/FuctionReturn.sol\":689:690  1 */\n      0x01\n        /* \"contracts/lesson4/FuctionReturn.sol\":664:697  return(1, true, [uint256(1),2,5]) */\n      dup2\n      mstore\n      0x20\n      add\n        /* \"contracts/lesson4/FuctionReturn.sol\":692:693  2 */\n      0x02\n        /* \"contracts/lesson4/FuctionReturn.sol\":664:697  return(1, true, [uint256(1),2,5]) */\n      dup2\n      mstore\n      0x20\n      add\n        /* \"contracts/lesson4/FuctionReturn.sol\":694:695  5 */\n      0x05\n        /* \"contracts/lesson4/FuctionReturn.sol\":664:697  return(1, true, [uint256(1),2,5]) */\n      dup2\n      mstore\n      pop\n      swap3\n      pop\n      swap3\n      pop\n      swap3\n      pop\n        /* \"contracts/lesson4/FuctionReturn.sol\":556:704  function returnNamed2() public pure returns(uint256 _number, bool _bool, uint256[3] memory _array){... */\n      swap1\n      swap2\n      swap3\n      jump\t// out\n        /* \"contracts/lesson4/FuctionReturn.sol\":710:798  function returnNamed3() public pure returns(uint16 _number){... */\n    tag_18:\n        /* \"contracts/lesson4/FuctionReturn.sol\":754:768  uint16 _number */\n      0x00\n        /* \"contracts/lesson4/FuctionReturn.sol\":787:790  111 */\n      0x6f\n        /* \"contracts/lesson4/FuctionReturn.sol\":779:791  return (111) */\n      swap1\n      pop\n        /* \"contracts/lesson4/FuctionReturn.sol\":710:798  function returnNamed3() public pure returns(uint16 _number){... */\n      swap1\n      jump\t// out\n        /* \"contracts/lesson4/FuctionReturn.sol\":164:293  function returnMultiple() public pure returns(uint256, bool, uint256[3] memory){... */\n    tag_22:\n        /* \"contracts/lesson4/FuctionReturn.sol\":210:217  uint256 */\n      0x00\n        /* \"contracts/lesson4/FuctionReturn.sol\":219:223  bool */\n      dup1\n        /* \"contracts/lesson4/FuctionReturn.sol\":225:242  uint256[3] memory */\n      tag_34\n      tag_25\n      jump\t// in\n    tag_34:\n        /* \"contracts/lesson4/FuctionReturn.sol\":260:261  1 */\n      0x01\n        /* \"contracts/lesson4/FuctionReturn.sol\":263:267  true */\n      dup1\n        /* \"contracts/lesson4/FuctionReturn.sol\":253:286  return(1, true, [uint256(1),2,5]) */\n      mload(0x40)\n      dup1\n      0x60\n      add\n      0x40\n      mstore\n      dup1\n        /* \"contracts/lesson4/FuctionReturn.sol\":278:279  1 */\n      0x01\n        /* \"contracts/lesson4/FuctionReturn.sol\":253:286  return(1, true, [uint256(1),2,5]) */\n      dup2\n      mstore\n      0x20\n      add\n        /* \"contracts/lesson4/FuctionReturn.sol\":281:282  2 */\n      0x02\n        /* \"contracts/lesson4/FuctionReturn.sol\":253:286  return(1, true, [uint256(1),2,5]) */\n      dup2\n      mstore\n      0x20\n      add\n        /* \"contracts/lesson4/FuctionReturn.sol\":283:284  5 */\n      0x05\n        /* \"contracts/lesson4/FuctionReturn.sol\":253:286  return(1, true, [uint256(1),2,5]) */\n      dup2\n      mstore\n      pop\n      swap3\n      pop\n      swap3\n      pop\n      swap3\n      pop\n        /* \"contracts/lesson4/FuctionReturn.sol\":164:293  function returnMultiple() public pure returns(uint256, bool, uint256[3] memory){... */\n      swap1\n      swap2\n      swap3\n      jump\t// out\n    tag_25:\n      mload(0x40)\n      dup1\n      0x60\n      add\n      0x40\n      mstore\n      dup1\n      0x03\n      swap1\n      0x20\n      dup3\n      mul\n      dup1\n      calldatasize\n      dup4\n      calldatacopy\n      dup1\n      dup3\n      add\n      swap2\n      pop\n      pop\n      swap1\n      pop\n      pop\n      swap1\n      jump\t// out\n        /* \"#utility.yul\":7:84   */\n    tag_36:\n        /* \"#utility.yul\":44:51   */\n      0x00\n        /* \"#utility.yul\":73:78   */\n      dup2\n        /* \"#utility.yul\":62:78   */\n      swap1\n      pop\n        /* \"#utility.yul\":7:84   */\n      swap2\n      swap1\n      pop\n      jump\t// out\n        /* \"#utility.yul\":90:208   */\n    tag_37:\n        /* \"#utility.yul\":177:201   */\n      tag_52\n        /* \"#utility.yul\":195:200   */\n      dup2\n        /* \"#utility.yul\":177:201   */\n      tag_36\n      jump\t// in\n    tag_52:\n        /* \"#utility.yul\":172:175   */\n      dup3\n        /* \"#utility.yul\":165:202   */\n      mstore\n        /* \"#utility.yul\":90:208   */\n      pop\n      pop\n      jump\t// out\n        /* \"#utility.yul\":214:304   */\n    tag_38:\n        /* \"#utility.yul\":248:255   */\n      0x00\n        /* \"#utility.yul\":291:296   */\n      dup2\n        /* \"#utility.yul\":284:297   */\n      iszero\n        /* \"#utility.yul\":277:298   */\n      iszero\n        /* \"#utility.yul\":266:298   */\n      swap1\n      pop\n        /* \"#utility.yul\":214:304   */\n      swap2\n      swap1\n      pop\n      jump\t// out\n        /* \"#utility.yul\":310:419   */\n    tag_39:\n        /* \"#utility.yul\":391:412   */\n      tag_55\n        /* \"#utility.yul\":406:411   */\n      dup2\n        /* \"#utility.yul\":391:412   */\n      tag_38\n      jump\t// in\n    tag_55:\n        /* \"#utility.yul\":386:389   */\n      dup3\n        /* \"#utility.yul\":379:413   */\n      mstore\n        /* \"#utility.yul\":310:419   */\n      pop\n      pop\n      jump\t// out\n        /* \"#utility.yul\":425:529   */\n    tag_40:\n        /* \"#utility.yul\":490:496   */\n      0x00\n        /* \"#utility.yul\":518:522   */\n      0x03\n        /* \"#utility.yul\":508:522   */\n      swap1\n      pop\n        /* \"#utility.yul\":425:529   */\n      swap2\n      swap1\n      pop\n      jump\t// out\n        /* \"#utility.yul\":535:678   */\n    tag_41:\n        /* \"#utility.yul\":632:643   */\n      0x00\n        /* \"#utility.yul\":669:672   */\n      dup2\n        /* \"#utility.yul\":654:672   */\n      swap1\n      pop\n        /* \"#utility.yul\":535:678   */\n      swap3\n      swap2\n      pop\n      pop\n      jump\t// out\n        /* \"#utility.yul\":684:782   */\n    tag_42:\n        /* \"#utility.yul\":749:753   */\n      0x00\n        /* \"#utility.yul\":772:775   */\n      dup2\n        /* \"#utility.yul\":764:775   */\n      swap1\n      pop\n        /* \"#utility.yul\":684:782   */\n      swap2\n      swap1\n      pop\n      jump\t// out\n        /* \"#utility.yul\":788:896   */\n    tag_43:\n        /* \"#utility.yul\":865:889   */\n      tag_60\n        /* \"#utility.yul\":883:888   */\n      dup2\n        /* \"#utility.yul\":865:889   */\n      tag_36\n      jump\t// in\n    tag_60:\n        /* \"#utility.yul\":860:863   */\n      dup3\n        /* \"#utility.yul\":853:890   */\n      mstore\n        /* \"#utility.yul\":788:896   */\n      pop\n      pop\n      jump\t// out\n        /* \"#utility.yul\":902:1081   */\n    tag_44:\n        /* \"#utility.yul\":971:981   */\n      0x00\n        /* \"#utility.yul\":992:1038   */\n      tag_62\n        /* \"#utility.yul\":1034:1037   */\n      dup4\n        /* \"#utility.yul\":1026:1032   */\n      dup4\n        /* \"#utility.yul\":992:1038   */\n      tag_43\n      jump\t// in\n    tag_62:\n        /* \"#utility.yul\":1070:1074   */\n      0x20\n        /* \"#utility.yul\":1065:1068   */\n      dup4\n        /* \"#utility.yul\":1061:1075   */\n      add\n        /* \"#utility.yul\":1047:1075   */\n      swap1\n      pop\n        /* \"#utility.yul\":902:1081   */\n      swap3\n      swap2\n      pop\n      pop\n      jump\t// out\n        /* \"#utility.yul\":1087:1198   */\n    tag_45:\n        /* \"#utility.yul\":1155:1159   */\n      0x00\n        /* \"#utility.yul\":1187:1191   */\n      0x20\n        /* \"#utility.yul\":1182:1185   */\n      dup3\n        /* \"#utility.yul\":1178:1192   */\n      add\n        /* \"#utility.yul\":1170:1192   */\n      swap1\n      pop\n        /* \"#utility.yul\":1087:1198   */\n      swap2\n      swap1\n      pop\n      jump\t// out\n        /* \"#utility.yul\":1236:1930   */\n    tag_46:\n        /* \"#utility.yul\":1372:1424   */\n      tag_65\n        /* \"#utility.yul\":1418:1423   */\n      dup2\n        /* \"#utility.yul\":1372:1424   */\n      tag_40\n      jump\t// in\n    tag_65:\n        /* \"#utility.yul\":1440:1524   */\n      tag_66\n        /* \"#utility.yul\":1517:1523   */\n      dup2\n        /* \"#utility.yul\":1512:1515   */\n      dup5\n        /* \"#utility.yul\":1440:1524   */\n      tag_41\n      jump\t// in\n    tag_66:\n        /* \"#utility.yul\":1433:1524   */\n      swap3\n      pop\n        /* \"#utility.yul\":1548:1602   */\n      tag_67\n        /* \"#utility.yul\":1596:1601   */\n      dup3\n        /* \"#utility.yul\":1548:1602   */\n      tag_42\n      jump\t// in\n    tag_67:\n        /* \"#utility.yul\":1625:1632   */\n      dup1\n        /* \"#utility.yul\":1656:1657   */\n      0x00\n        /* \"#utility.yul\":1641:1923   */\n    tag_68:\n        /* \"#utility.yul\":1666:1672   */\n      dup4\n        /* \"#utility.yul\":1663:1664   */\n      dup2\n        /* \"#utility.yul\":1660:1673   */\n      lt\n        /* \"#utility.yul\":1641:1923   */\n      iszero\n      tag_70\n      jumpi\n        /* \"#utility.yul\":1742:1748   */\n      dup2\n        /* \"#utility.yul\":1736:1749   */\n      mload\n        /* \"#utility.yul\":1769:1832   */\n      tag_71\n        /* \"#utility.yul\":1828:1831   */\n      dup8\n        /* \"#utility.yul\":1813:1826   */\n      dup3\n        /* \"#utility.yul\":1769:1832   */\n      tag_44\n      jump\t// in\n    tag_71:\n        /* \"#utility.yul\":1762:1832   */\n      swap7\n      pop\n        /* \"#utility.yul\":1855:1913   */\n      tag_72\n        /* \"#utility.yul\":1906:1912   */\n      dup4\n        /* \"#utility.yul\":1855:1913   */\n      tag_45\n      jump\t// in\n    tag_72:\n        /* \"#utility.yul\":1845:1913   */\n      swap3\n      pop\n        /* \"#utility.yul\":1701:1923   */\n      pop\n        /* \"#utility.yul\":1688:1689   */\n      0x01\n        /* \"#utility.yul\":1685:1686   */\n      dup2\n        /* \"#utility.yul\":1681:1690   */\n      add\n        /* \"#utility.yul\":1676:1690   */\n      swap1\n      pop\n        /* \"#utility.yul\":1641:1923   */\n      jump(tag_68)\n    tag_70:\n        /* \"#utility.yul\":1645:1659   */\n      pop\n        /* \"#utility.yul\":1348:1930   */\n      pop\n      pop\n      pop\n        /* \"#utility.yul\":1236:1930   */\n      pop\n      pop\n      jump\t// out\n        /* \"#utility.yul\":1936:2459   */\n    tag_11:\n        /* \"#utility.yul\":2125:2129   */\n      0x00\n        /* \"#utility.yul\":2163:2166   */\n      0xa0\n        /* \"#utility.yul\":2152:2161   */\n      dup3\n        /* \"#utility.yul\":2148:2167   */\n      add\n        /* \"#utility.yul\":2140:2167   */\n      swap1\n      pop\n        /* \"#utility.yul\":2177:2248   */\n      tag_74\n        /* \"#utility.yul\":2245:2246   */\n      0x00\n        /* \"#utility.yul\":2234:2243   */\n      dup4\n        /* \"#utility.yul\":2230:2247   */\n      add\n        /* \"#utility.yul\":2221:2227   */\n      dup7\n        /* \"#utility.yul\":2177:2248   */\n      tag_37\n      jump\t// in\n    tag_74:\n        /* \"#utility.yul\":2258:2324   */\n      tag_75\n        /* \"#utility.yul\":2320:2322   */\n      0x20\n        /* \"#utility.yul\":2309:2318   */\n      dup4\n        /* \"#utility.yul\":2305:2323   */\n      add\n        /* \"#utility.yul\":2296:2302   */\n      dup6\n        /* \"#utility.yul\":2258:2324   */\n      tag_39\n      jump\t// in\n    tag_75:\n        /* \"#utility.yul\":2334:2452   */\n      tag_76\n        /* \"#utility.yul\":2448:2450   */\n      0x40\n        /* \"#utility.yul\":2437:2446   */\n      dup4\n        /* \"#utility.yul\":2433:2451   */\n      add\n        /* \"#utility.yul\":2424:2430   */\n      dup5\n        /* \"#utility.yul\":2334:2452   */\n      tag_46\n      jump\t// in\n    tag_76:\n        /* \"#utility.yul\":1936:2459   */\n      swap5\n      swap4\n      pop\n      pop\n      pop\n      pop\n      jump\t// out\n        /* \"#utility.yul\":2465:2554   */\n    tag_47:\n        /* \"#utility.yul\":2501:2508   */\n      0x00\n        /* \"#utility.yul\":2541:2547   */\n      0xffff\n        /* \"#utility.yul\":2534:2539   */\n      dup3\n        /* \"#utility.yul\":2530:2548   */\n      and\n        /* \"#utility.yul\":2519:2548   */\n      swap1\n      pop\n        /* \"#utility.yul\":2465:2554   */\n      swap2\n      swap1\n      pop\n      jump\t// out\n        /* \"#utility.yul\":2560:2675   */\n    tag_48:\n        /* \"#utility.yul\":2645:2668   */\n      tag_79\n        /* \"#utility.yul\":2662:2667   */\n      dup2\n        /* \"#utility.yul\":2645:2668   */\n      tag_47\n      jump\t// in\n    tag_79:\n        /* \"#utility.yul\":2640:2643   */\n      dup3\n        /* \"#utility.yul\":2633:2669   */\n      mstore\n        /* \"#utility.yul\":2560:2675   */\n      pop\n      pop\n      jump\t// out\n        /* \"#utility.yul\":2681:2899   */\n    tag_20:\n        /* \"#utility.yul\":2772:2776   */\n      0x00\n        /* \"#utility.yul\":2810:2812   */\n      0x20\n        /* \"#utility.yul\":2799:2808   */\n      dup3\n        /* \"#utility.yul\":2795:2813   */\n      add\n        /* \"#utility.yul\":2787:2813   */\n      swap1\n      pop\n        /* \"#utility.yul\":2823:2892   */\n      tag_81\n        /* \"#utility.yul\":2889:2890   */\n      0x00\n        /* \"#utility.yul\":2878:2887   */\n      dup4\n        /* \"#utility.yul\":2874:2891   */\n      add\n        /* \"#utility.yul\":2865:2871   */\n      dup5\n        /* \"#utility.yul\":2823:2892   */\n      tag_48\n      jump\t// in\n    tag_81:\n        /* \"#utility.yul\":2681:2899   */\n      swap3\n      swap2\n      pop\n      pop\n      jump\t// out\n\n    auxdata: 0xa2646970667358221220e49cb5da47c011bafc815d476a09866aca4d22cee11fbec089b471704808a73764736f6c634300081a0033\n}\n",
				"bytecode": {
					"linkReferences": {},
					"object": "6080604052348015600e575f80fd5b506103598061001c5f395ff3fe608060405234801561000f575f80fd5b5060043610610055575f3560e01c80633dece511146100595780636f590330146100795780638552dc0814610083578063cbdb30ab146100a3578063e61e4008146100c1575b5f80fd5b6100616100e1565b604051610070939291906102b9565b60405180910390f35b610081610117565b005b61008b61014c565b60405161009a939291906102b9565b60405180910390f35b6100ab610182565b6040516100b8919061030a565b60405180910390f35b6100c961018a565b6040516100d8939291906102b9565b60405180910390f35b5f806100eb6101c0565b600292505f91506040518060600160405280600381526020016002815260200160018152509050909192565b5f805f6101226101c0565b61012a6100e1565b80935081955082965050505061013e6100e1565b909150508092505050505050565b5f806101566101c0565b600180604051806060016040528060018152602001600281526020016005815250925092509250909192565b5f606f905090565b5f806101946101c0565b600180604051806060016040528060018152602001600281526020016005815250925092509250909192565b6040518060600160405280600390602082028036833780820191505090505090565b5f819050919050565b6101f4816101e2565b82525050565b5f8115159050919050565b61020e816101fa565b82525050565b5f60039050919050565b5f81905092915050565b5f819050919050565b61023a816101e2565b82525050565b5f61024b8383610231565b60208301905092915050565b5f602082019050919050565b61026c81610214565b610276818461021e565b925061028182610228565b805f5b838110156102b15781516102988782610240565b96506102a383610257565b925050600181019050610284565b505050505050565b5f60a0820190506102cc5f8301866101eb565b6102d96020830185610205565b6102e66040830184610263565b949350505050565b5f61ffff82169050919050565b610304816102ee565b82525050565b5f60208201905061031d5f8301846102fb565b9291505056fea2646970667358221220e49cb5da47c011bafc815d476a09866aca4d22cee11fbec089b471704808a73764736f6c634300081a0033",
					"opcodes": "PUSH1 0x80 PUSH1 0x40 MSTORE CALLVALUE DUP1 ISZERO PUSH1 0xE JUMPI PUSH0 DUP1 REVERT JUMPDEST POP PUSH2 0x359 DUP1 PUSH2 0x1C PUSH0 CODECOPY PUSH0 RETURN INVALID PUSH1 0x80 PUSH1 0x40 MSTORE CALLVALUE DUP1 ISZERO PUSH2 0xF JUMPI PUSH0 DUP1 REVERT JUMPDEST POP PUSH1 0x4 CALLDATASIZE LT PUSH2 0x55 JUMPI PUSH0 CALLDATALOAD PUSH1 0xE0 SHR DUP1 PUSH4 0x3DECE511 EQ PUSH2 0x59 JUMPI DUP1 PUSH4 0x6F590330 EQ PUSH2 0x79 JUMPI DUP1 PUSH4 0x8552DC08 EQ PUSH2 0x83 JUMPI DUP1 PUSH4 0xCBDB30AB EQ PUSH2 0xA3 JUMPI DUP1 PUSH4 0xE61E4008 EQ PUSH2 0xC1 JUMPI JUMPDEST PUSH0 DUP1 REVERT JUMPDEST PUSH2 0x61 PUSH2 0xE1 JUMP JUMPDEST PUSH1 0x40 MLOAD PUSH2 0x70 SWAP4 SWAP3 SWAP2 SWAP1 PUSH2 0x2B9 JUMP JUMPDEST PUSH1 0x40 MLOAD DUP1 SWAP2 SUB SWAP1 RETURN JUMPDEST PUSH2 0x81 PUSH2 0x117 JUMP JUMPDEST STOP JUMPDEST PUSH2 0x8B PUSH2 0x14C JUMP JUMPDEST PUSH1 0x40 MLOAD PUSH2 0x9A SWAP4 SWAP3 SWAP2 SWAP1 PUSH2 0x2B9 JUMP JUMPDEST PUSH1 0x40 MLOAD DUP1 SWAP2 SUB SWAP1 RETURN JUMPDEST PUSH2 0xAB PUSH2 0x182 JUMP JUMPDEST PUSH1 0x40 MLOAD PUSH2 0xB8 SWAP2 SWAP1 PUSH2 0x30A JUMP JUMPDEST PUSH1 0x40 MLOAD DUP1 SWAP2 SUB SWAP1 RETURN JUMPDEST PUSH2 0xC9 PUSH2 0x18A JUMP JUMPDEST PUSH1 0x40 MLOAD PUSH2 0xD8 SWAP4 SWAP3 SWAP2 SWAP1 PUSH2 0x2B9 JUMP JUMPDEST PUSH1 0x40 MLOAD DUP1 SWAP2 SUB SWAP1 RETURN JUMPDEST PUSH0 DUP1 PUSH2 0xEB PUSH2 0x1C0 JUMP JUMPDEST PUSH1 0x2 SWAP3 POP PUSH0 SWAP2 POP PUSH1 0x40 MLOAD DUP1 PUSH1 0x60 ADD PUSH1 0x40 MSTORE DUP1 PUSH1 0x3 DUP2 MSTORE PUSH1 0x20 ADD PUSH1 0x2 DUP2 MSTORE PUSH1 0x20 ADD PUSH1 0x1 DUP2 MSTORE POP SWAP1 POP SWAP1 SWAP2 SWAP3 JUMP JUMPDEST PUSH0 DUP1 PUSH0 PUSH2 0x122 PUSH2 0x1C0 JUMP JUMPDEST PUSH2 0x12A PUSH2 0xE1 JUMP JUMPDEST DUP1 SWAP4 POP DUP2 SWAP6 POP DUP3 SWAP7 POP POP POP POP PUSH2 0x13E PUSH2 0xE1 JUMP JUMPDEST SWAP1 SWAP2 POP POP DUP1 SWAP3 POP POP POP POP POP POP JUMP JUMPDEST PUSH0 DUP1 PUSH2 0x156 PUSH2 0x1C0 JUMP JUMPDEST PUSH1 0x1 DUP1 PUSH1 0x40 MLOAD DUP1 PUSH1 0x60 ADD PUSH1 0x40 MSTORE DUP1 PUSH1 0x1 DUP2 MSTORE PUSH1 0x20 ADD PUSH1 0x2 DUP2 MSTORE PUSH1 0x20 ADD PUSH1 0x5 DUP2 MSTORE POP SWAP3 POP SWAP3 POP SWAP3 POP SWAP1 SWAP2 SWAP3 JUMP JUMPDEST PUSH0 PUSH1 0x6F SWAP1 POP SWAP1 JUMP JUMPDEST PUSH0 DUP1 PUSH2 0x194 PUSH2 0x1C0 JUMP JUMPDEST PUSH1 0x1 DUP1 PUSH1 0x40 MLOAD DUP1 PUSH1 0x60 ADD PUSH1 0x40 MSTORE DUP1 PUSH1 0x1 DUP2 MSTORE PUSH1 0x20 ADD PUSH1 0x2 DUP2 MSTORE PUSH1 0x20 ADD PUSH1 0x5 DUP2 MSTORE POP SWAP3 POP SWAP3 POP SWAP3 POP SWAP1 SWAP2 SWAP3 JUMP JUMPDEST PUSH1 0x40 MLOAD DUP1 PUSH1 0x60 ADD PUSH1 0x40 MSTORE DUP1 PUSH1 0x3 SWAP1 PUSH1 0x20 DUP3 MUL DUP1 CALLDATASIZE DUP4 CALLDATACOPY DUP1 DUP3 ADD SWAP2 POP POP SWAP1 POP POP SWAP1 JUMP JUMPDEST PUSH0 DUP2 SWAP1 POP SWAP2 SWAP1 POP JUMP JUMPDEST PUSH2 0x1F4 DUP2 PUSH2 0x1E2 JUMP JUMPDEST DUP3 MSTORE POP POP JUMP JUMPDEST PUSH0 DUP2 ISZERO ISZERO SWAP1 POP SWAP2 SWAP1 POP JUMP JUMPDEST PUSH2 0x20E DUP2 PUSH2 0x1FA JUMP JUMPDEST DUP3 MSTORE POP POP JUMP JUMPDEST PUSH0 PUSH1 0x3 SWAP1 POP SWAP2 SWAP1 POP JUMP JUMPDEST PUSH0 DUP2 SWAP1 POP SWAP3 SWAP2 POP POP JUMP JUMPDEST PUSH0 DUP2 SWAP1 POP SWAP2 SWAP1 POP JUMP JUMPDEST PUSH2 0x23A DUP2 PUSH2 0x1E2 JUMP JUMPDEST DUP3 MSTORE POP POP JUMP JUMPDEST PUSH0 PUSH2 0x24B DUP4 DUP4 PUSH2 0x231 JUMP JUMPDEST PUSH1 0x20 DUP4 ADD SWAP1 POP SWAP3 SWAP2 POP POP JUMP JUMPDEST PUSH0 PUSH1 0x20 DUP3 ADD SWAP1 POP SWAP2 SWAP1 POP JUMP JUMPDEST PUSH2 0x26C DUP2 PUSH2 0x214 JUMP JUMPDEST PUSH2 0x276 DUP2 DUP5 PUSH2 0x21E JUMP JUMPDEST SWAP3 POP PUSH2 0x281 DUP3 PUSH2 0x228 JUMP JUMPDEST DUP1 PUSH0 JUMPDEST DUP4 DUP2 LT ISZERO PUSH2 0x2B1 JUMPI DUP2 MLOAD PUSH2 0x298 DUP8 DUP3 PUSH2 0x240 JUMP JUMPDEST SWAP7 POP PUSH2 0x2A3 DUP4 PUSH2 0x257 JUMP JUMPDEST SWAP3 POP POP PUSH1 0x1 DUP2 ADD SWAP1 POP PUSH2 0x284 JUMP JUMPDEST POP POP POP POP POP POP JUMP JUMPDEST PUSH0 PUSH1 0xA0 DUP3 ADD SWAP1 POP PUSH2 0x2CC PUSH0 DUP4 ADD DUP7 PUSH2 0x1EB JUMP JUMPDEST PUSH2 0x2D9 PUSH1 0x20 DUP4 ADD DUP6 PUSH2 0x205 JUMP JUMPDEST PUSH2 0x2E6 PUSH1 0x40 DUP4 ADD DUP5 PUSH2 0x263 JUMP JUMPDEST SWAP5 SWAP4 POP POP POP POP JUMP JUMPDEST PUSH0 PUSH2 0xFFFF DUP3 AND SWAP1 POP SWAP2 SWAP1 POP JUMP JUMPDEST PUSH2 0x304 DUP2 PUSH2 0x2EE JUMP JUMPDEST DUP3 MSTORE POP POP JUMP JUMPDEST PUSH0 PUSH1 0x20 DUP3 ADD SWAP1 POP PUSH2 0x31D PUSH0 DUP4 ADD DUP5 PUSH2 0x2FB JUMP JUMPDEST SWAP3 SWAP2 POP POP JUMP INVALID LOG2 PUSH5 0x6970667358 0x22 SLT KECCAK256 0xE4 SWAP13 0xB5 0xDA SELFBALANCE 0xC0 GT 0xBA 0xFC DUP2 TSTORE SELFBALANCE PUSH11 0x9866ACA4D22CEE11FBEC0 DUP10 0xB4 PUSH18 0x704808A73764736F6C634300081A00330000 "
				},
				"gasEstimates": {
					"creation": {
						"codeDepositCost": "171400",
						"executionCost": "212",
						"totalCost": "171612"
					},
					"external": {
						"readReturn()": "infinite",
						"returnMultiple()": "infinite",
						"returnNamed()": "infinite",
						"returnNamed2()": "infinite",
						"returnNamed3()": "382"
					}
				},
				"methodIdentifiers": {
					"readReturn()": "6f590330",
					"returnMultiple()": "e61e4008",
					"returnNamed()": "3dece511",
					"returnNamed2()": "8552dc08",
					"returnNamed3()": "cbdb30ab"
				}
			},
			"storageLayout": {
				"storage": [],
				"types": null
			},
			"userdoc": {
				"kind": "user",
				"methods": {},
				"version": 1
			}
		}
	}
}