{
	"contracts/lesson27/ABIEncode1.sol": {
		"ABIEncode": {
			"abi": [
				{
					"inputs": [
						{
							"internalType": "bytes",
							"name": "data",
							"type": "bytes"
						}
					],
					"name": "decode",
					"outputs": [
						{
							"internalType": "uint256",
							"name": "dx",
							"type": "uint256"
						},
						{
							"internalType": "address",
							"name": "daddr",
							"type": "address"
						},
						{
							"internalType": "string",
							"name": "dname",
							"type": "string"
						},
						{
							"internalType": "uint256[2]",
							"name": "darray",
							"type": "uint256[2]"
						}
					],
					"stateMutability": "pure",
					"type": "function"
				},
				{
					"inputs": [],
					"name": "encode",
					"outputs": [
						{
							"internalType": "bytes",
							"name": "result",
							"type": "bytes"
						}
					],
					"stateMutability": "view",
					"type": "function"
				},
				{
					"inputs": [],
					"name": "encodePacked",
					"outputs": [
						{
							"internalType": "bytes",
							"name": "result",
							"type": "bytes"
						}
					],
					"stateMutability": "view",
					"type": "function"
				},
				{
					"inputs": [],
					"name": "encodeWithSelector",
					"outputs": [
						{
							"internalType": "bytes",
							"name": "result",
							"type": "bytes"
						}
					],
					"stateMutability": "view",
					"type": "function"
				},
				{
					"inputs": [],
					"name": "encodeWithSignature",
					"outputs": [
						{
							"internalType": "bytes",
							"name": "result",
							"type": "bytes"
						}
					],
					"stateMutability": "view",
					"type": "function"
				}
			],
			"devdoc": {
				"kind": "dev",
				"methods": {},
				"version": 1
			},
			"evm": {
				"assembly": "    /* \"contracts/lesson27/ABIEncode1.sol\":58:1095  contract ABIEncode{... */\n  mstore(0x40, 0x80)\n    /* \"contracts/lesson27/ABIEncode1.sol\":91:93  10 */\n  0x0a\n    /* \"contracts/lesson27/ABIEncode1.sol\":82:93  uint x = 10 */\n  0x00\n  sstore\n    /* \"contracts/lesson27/ABIEncode1.sol\":114:156  0x7A58c0Be72BE218B41C608b7Fe7C5bB630736C71 */\n  0x7a58c0be72be218b41c608b7fe7c5bb630736c71\n    /* \"contracts/lesson27/ABIEncode1.sol\":99:156  address addr = 0x7A58c0Be72BE218B41C608b7Fe7C5bB630736C71 */\n  0x01\n  exp(0x0100, 0x00)\n  dup2\n  sload\n  dup2\n  0xffffffffffffffffffffffffffffffffffffffff\n  mul\n  not\n  and\n  swap1\n  dup4\n  0xffffffffffffffffffffffffffffffffffffffff\n  and\n  mul\n  or\n  swap1\n  sstore\n  pop\n    /* \"contracts/lesson27/ABIEncode1.sol\":162:182  string name = \"0xAA\" */\n  mload(0x40)\n  dup1\n  0x40\n  add\n  0x40\n  mstore\n  dup1\n  0x04\n  dup2\n  mstore\n  0x20\n  add\n  0x3078414100000000000000000000000000000000000000000000000000000000\n  dup2\n  mstore\n  pop\n  0x02\n  swap1\n  dup2\n  tag_1\n  swap2\n  swap1\n  tag_2\n  jump\t// in\ntag_1:\n  pop\n    /* \"contracts/lesson27/ABIEncode1.sol\":188:210  uint[2] array = [5, 6] */\n  mload(0x40)\n  dup1\n  0x40\n  add\n  0x40\n  mstore\n  dup1\n    /* \"contracts/lesson27/ABIEncode1.sol\":205:206  5 */\n  0x05\n    /* \"contracts/lesson27/ABIEncode1.sol\":188:210  uint[2] array = [5, 6] */\n  0xff\n  and\n  dup2\n  mstore\n  0x20\n  add\n    /* \"contracts/lesson27/ABIEncode1.sol\":208:209  6 */\n  0x06\n    /* \"contracts/lesson27/ABIEncode1.sol\":188:210  uint[2] array = [5, 6] */\n  0xff\n  and\n  dup2\n  mstore\n  pop\n  0x03\n  swap1\n  0x02\n  tag_3\n  swap3\n  swap2\n  swap1\n  tag_4\n  jump\t// in\ntag_3:\n  pop\n    /* \"contracts/lesson27/ABIEncode1.sol\":58:1095  contract ABIEncode{... */\n  callvalue\n  dup1\n  iszero\n  tag_5\n  jumpi\n  0x00\n  dup1\n  revert\ntag_5:\n  pop\n  jump(tag_6)\ntag_4:\n  dup3\n  0x02\n  dup2\n  add\n  swap3\n  dup3\n  iszero\n  tag_7\n  jumpi\n  swap2\n  0x20\n  mul\n  dup3\n  add\ntag_8:\n  dup3\n  dup2\n  gt\n  iszero\n  tag_9\n  jumpi\n  dup3\n  mload\n  dup3\n  swap1\n  0xff\n  and\n  swap1\n  sstore\n  swap2\n  0x20\n  add\n  swap2\n  swap1\n  0x01\n  add\n  swap1\n  jump(tag_8)\ntag_9:\ntag_7:\n  pop\n  swap1\n  pop\n  tag_10\n  swap2\n  swap1\n  tag_11\n  jump\t// in\ntag_10:\n  pop\n  swap1\n  jump\t// out\ntag_11:\ntag_12:\n  dup1\n  dup3\n  gt\n  iszero\n  tag_13\n  jumpi\n  0x00\n  dup2\n  0x00\n  swap1\n  sstore\n  pop\n  0x01\n  add\n  jump(tag_12)\ntag_13:\n  pop\n  swap1\n  jump\t// out\n    /* \"#utility.yul\":7:106   */\ntag_14:\n    /* \"#utility.yul\":59:65   */\n  0x00\n    /* \"#utility.yul\":93:98   */\n  dup2\n    /* \"#utility.yul\":87:99   */\n  mload\n    /* \"#utility.yul\":77:99   */\n  swap1\n  pop\n    /* \"#utility.yul\":7:106   */\n  swap2\n  swap1\n  pop\n  jump\t// out\n    /* \"#utility.yul\":112:292   */\ntag_15:\n    /* \"#utility.yul\":160:237   */\n  0x4e487b7100000000000000000000000000000000000000000000000000000000\n    /* \"#utility.yul\":157:158   */\n  0x00\n    /* \"#utility.yul\":150:238   */\n  mstore\n    /* \"#utility.yul\":257:261   */\n  0x41\n    /* \"#utility.yul\":254:255   */\n  0x04\n    /* \"#utility.yul\":247:262   */\n  mstore\n    /* \"#utility.yul\":281:285   */\n  0x24\n    /* \"#utility.yul\":278:279   */\n  0x00\n    /* \"#utility.yul\":271:286   */\n  revert\n    /* \"#utility.yul\":298:478   */\ntag_16:\n    /* \"#utility.yul\":346:423   */\n  0x4e487b7100000000000000000000000000000000000000000000000000000000\n    /* \"#utility.yul\":343:344   */\n  0x00\n    /* \"#utility.yul\":336:424   */\n  mstore\n    /* \"#utility.yul\":443:447   */\n  0x22\n    /* \"#utility.yul\":440:441   */\n  0x04\n    /* \"#utility.yul\":433:448   */\n  mstore\n    /* \"#utility.yul\":467:471   */\n  0x24\n    /* \"#utility.yul\":464:465   */\n  0x00\n    /* \"#utility.yul\":457:472   */\n  revert\n    /* \"#utility.yul\":484:804   */\ntag_17:\n    /* \"#utility.yul\":528:534   */\n  0x00\n    /* \"#utility.yul\":565:566   */\n  0x02\n    /* \"#utility.yul\":559:563   */\n  dup3\n    /* \"#utility.yul\":555:567   */\n  div\n    /* \"#utility.yul\":545:567   */\n  swap1\n  pop\n    /* \"#utility.yul\":612:613   */\n  0x01\n    /* \"#utility.yul\":606:610   */\n  dup3\n    /* \"#utility.yul\":602:614   */\n  and\n    /* \"#utility.yul\":633:651   */\n  dup1\n    /* \"#utility.yul\":623:704   */\n  tag_39\n  jumpi\n    /* \"#utility.yul\":689:693   */\n  0x7f\n    /* \"#utility.yul\":681:687   */\n  dup3\n    /* \"#utility.yul\":677:694   */\n  and\n    /* \"#utility.yul\":667:694   */\n  swap2\n  pop\n    /* \"#utility.yul\":623:704   */\ntag_39:\n    /* \"#utility.yul\":751:753   */\n  0x20\n    /* \"#utility.yul\":743:749   */\n  dup3\n    /* \"#utility.yul\":740:754   */\n  lt\n    /* \"#utility.yul\":720:738   */\n  dup2\n    /* \"#utility.yul\":717:755   */\n  sub\n    /* \"#utility.yul\":714:798   */\n  tag_40\n  jumpi\n    /* \"#utility.yul\":770:788   */\n  tag_41\n  tag_16\n  jump\t// in\ntag_41:\n    /* \"#utility.yul\":714:798   */\ntag_40:\n    /* \"#utility.yul\":535:804   */\n  pop\n    /* \"#utility.yul\":484:804   */\n  swap2\n  swap1\n  pop\n  jump\t// out\n    /* \"#utility.yul\":810:951   */\ntag_18:\n    /* \"#utility.yul\":859:863   */\n  0x00\n    /* \"#utility.yul\":882:885   */\n  dup2\n    /* \"#utility.yul\":874:885   */\n  swap1\n  pop\n    /* \"#utility.yul\":905:908   */\n  dup2\n    /* \"#utility.yul\":902:903   */\n  0x00\n    /* \"#utility.yul\":895:909   */\n  mstore\n    /* \"#utility.yul\":939:943   */\n  0x20\n    /* \"#utility.yul\":936:937   */\n  0x00\n    /* \"#utility.yul\":926:944   */\n  keccak256\n    /* \"#utility.yul\":918:944   */\n  swap1\n  pop\n    /* \"#utility.yul\":810:951   */\n  swap2\n  swap1\n  pop\n  jump\t// out\n    /* \"#utility.yul\":957:1050   */\ntag_19:\n    /* \"#utility.yul\":994:1000   */\n  0x00\n    /* \"#utility.yul\":1041:1043   */\n  0x20\n    /* \"#utility.yul\":1036:1038   */\n  0x1f\n    /* \"#utility.yul\":1029:1034   */\n  dup4\n    /* \"#utility.yul\":1025:1039   */\n  add\n    /* \"#utility.yul\":1021:1044   */\n  div\n    /* \"#utility.yul\":1011:1044   */\n  swap1\n  pop\n    /* \"#utility.yul\":957:1050   */\n  swap2\n  swap1\n  pop\n  jump\t// out\n    /* \"#utility.yul\":1056:1163   */\ntag_20:\n    /* \"#utility.yul\":1100:1108   */\n  0x00\n    /* \"#utility.yul\":1150:1155   */\n  dup3\n    /* \"#utility.yul\":1144:1148   */\n  dup3\n    /* \"#utility.yul\":1140:1156   */\n  shl\n    /* \"#utility.yul\":1119:1156   */\n  swap1\n  pop\n    /* \"#utility.yul\":1056:1163   */\n  swap3\n  swap2\n  pop\n  pop\n  jump\t// out\n    /* \"#utility.yul\":1169:1562   */\ntag_21:\n    /* \"#utility.yul\":1238:1244   */\n  0x00\n    /* \"#utility.yul\":1288:1289   */\n  0x08\n    /* \"#utility.yul\":1276:1286   */\n  dup4\n    /* \"#utility.yul\":1272:1290   */\n  mul\n    /* \"#utility.yul\":1311:1408   */\n  tag_46\n    /* \"#utility.yul\":1341:1407   */\n  0xffffffffffffffffffffffffffffffffffffffffffffffffffffffffffffffff\n    /* \"#utility.yul\":1330:1339   */\n  dup3\n    /* \"#utility.yul\":1311:1408   */\n  tag_20\n  jump\t// in\ntag_46:\n    /* \"#utility.yul\":1429:1468   */\n  tag_47\n    /* \"#utility.yul\":1459:1467   */\n  dup7\n    /* \"#utility.yul\":1448:1457   */\n  dup4\n    /* \"#utility.yul\":1429:1468   */\n  tag_20\n  jump\t// in\ntag_47:\n    /* \"#utility.yul\":1417:1468   */\n  swap6\n  pop\n    /* \"#utility.yul\":1501:1505   */\n  dup1\n    /* \"#utility.yul\":1497:1506   */\n  not\n    /* \"#utility.yul\":1490:1495   */\n  dup5\n    /* \"#utility.yul\":1486:1507   */\n  and\n    /* \"#utility.yul\":1477:1507   */\n  swap4\n  pop\n    /* \"#utility.yul\":1550:1554   */\n  dup1\n    /* \"#utility.yul\":1540:1548   */\n  dup7\n    /* \"#utility.yul\":1536:1555   */\n  and\n    /* \"#utility.yul\":1529:1534   */\n  dup5\n    /* \"#utility.yul\":1526:1556   */\n  or\n    /* \"#utility.yul\":1516:1556   */\n  swap3\n  pop\n    /* \"#utility.yul\":1245:1562   */\n  pop\n  pop\n    /* \"#utility.yul\":1169:1562   */\n  swap4\n  swap3\n  pop\n  pop\n  pop\n  jump\t// out\n    /* \"#utility.yul\":1568:1645   */\ntag_22:\n    /* \"#utility.yul\":1605:1612   */\n  0x00\n    /* \"#utility.yul\":1634:1639   */\n  dup2\n    /* \"#utility.yul\":1623:1639   */\n  swap1\n  pop\n    /* \"#utility.yul\":1568:1645   */\n  swap2\n  swap1\n  pop\n  jump\t// out\n    /* \"#utility.yul\":1651:1711   */\ntag_23:\n    /* \"#utility.yul\":1679:1682   */\n  0x00\n    /* \"#utility.yul\":1700:1705   */\n  dup2\n    /* \"#utility.yul\":1693:1705   */\n  swap1\n  pop\n    /* \"#utility.yul\":1651:1711   */\n  swap2\n  swap1\n  pop\n  jump\t// out\n    /* \"#utility.yul\":1717:1859   */\ntag_24:\n    /* \"#utility.yul\":1767:1776   */\n  0x00\n    /* \"#utility.yul\":1800:1853   */\n  tag_51\n    /* \"#utility.yul\":1818:1852   */\n  tag_52\n    /* \"#utility.yul\":1827:1851   */\n  tag_53\n    /* \"#utility.yul\":1845:1850   */\n  dup5\n    /* \"#utility.yul\":1827:1851   */\n  tag_22\n  jump\t// in\ntag_53:\n    /* \"#utility.yul\":1818:1852   */\n  tag_23\n  jump\t// in\ntag_52:\n    /* \"#utility.yul\":1800:1853   */\n  tag_22\n  jump\t// in\ntag_51:\n    /* \"#utility.yul\":1787:1853   */\n  swap1\n  pop\n    /* \"#utility.yul\":1717:1859   */\n  swap2\n  swap1\n  pop\n  jump\t// out\n    /* \"#utility.yul\":1865:1940   */\ntag_25:\n    /* \"#utility.yul\":1908:1911   */\n  0x00\n    /* \"#utility.yul\":1929:1934   */\n  dup2\n    /* \"#utility.yul\":1922:1934   */\n  swap1\n  pop\n    /* \"#utility.yul\":1865:1940   */\n  swap2\n  swap1\n  pop\n  jump\t// out\n    /* \"#utility.yul\":1946:2215   */\ntag_26:\n    /* \"#utility.yul\":2056:2095   */\n  tag_56\n    /* \"#utility.yul\":2087:2094   */\n  dup4\n    /* \"#utility.yul\":2056:2095   */\n  tag_24\n  jump\t// in\ntag_56:\n    /* \"#utility.yul\":2117:2208   */\n  tag_57\n    /* \"#utility.yul\":2166:2207   */\n  tag_58\n    /* \"#utility.yul\":2190:2206   */\n  dup3\n    /* \"#utility.yul\":2166:2207   */\n  tag_25\n  jump\t// in\ntag_58:\n    /* \"#utility.yul\":2158:2164   */\n  dup5\n    /* \"#utility.yul\":2151:2155   */\n  dup5\n    /* \"#utility.yul\":2145:2156   */\n  sload\n    /* \"#utility.yul\":2117:2208   */\n  tag_21\n  jump\t// in\ntag_57:\n    /* \"#utility.yul\":2111:2115   */\n  dup3\n    /* \"#utility.yul\":2104:2209   */\n  sstore\n    /* \"#utility.yul\":2022:2215   */\n  pop\n    /* \"#utility.yul\":1946:2215   */\n  pop\n  pop\n  pop\n  jump\t// out\n    /* \"#utility.yul\":2221:2294   */\ntag_27:\n    /* \"#utility.yul\":2266:2269   */\n  0x00\n    /* \"#utility.yul\":2221:2294   */\n  swap1\n  jump\t// out\n    /* \"#utility.yul\":2300:2489   */\ntag_28:\n    /* \"#utility.yul\":2377:2409   */\n  tag_61\n  tag_27\n  jump\t// in\ntag_61:\n    /* \"#utility.yul\":2418:2483   */\n  tag_62\n    /* \"#utility.yul\":2476:2482   */\n  dup2\n    /* \"#utility.yul\":2468:2474   */\n  dup5\n    /* \"#utility.yul\":2462:2466   */\n  dup5\n    /* \"#utility.yul\":2418:2483   */\n  tag_26\n  jump\t// in\ntag_62:\n    /* \"#utility.yul\":2353:2489   */\n  pop\n    /* \"#utility.yul\":2300:2489   */\n  pop\n  pop\n  jump\t// out\n    /* \"#utility.yul\":2495:2681   */\ntag_29:\n    /* \"#utility.yul\":2555:2675   */\ntag_64:\n    /* \"#utility.yul\":2572:2575   */\n  dup2\n    /* \"#utility.yul\":2565:2570   */\n  dup2\n    /* \"#utility.yul\":2562:2576   */\n  lt\n    /* \"#utility.yul\":2555:2675   */\n  iszero\n  tag_66\n  jumpi\n    /* \"#utility.yul\":2626:2665   */\n  tag_67\n    /* \"#utility.yul\":2663:2664   */\n  0x00\n    /* \"#utility.yul\":2656:2661   */\n  dup3\n    /* \"#utility.yul\":2626:2665   */\n  tag_28\n  jump\t// in\ntag_67:\n    /* \"#utility.yul\":2599:2600   */\n  0x01\n    /* \"#utility.yul\":2592:2597   */\n  dup2\n    /* \"#utility.yul\":2588:2601   */\n  add\n    /* \"#utility.yul\":2579:2601   */\n  swap1\n  pop\n    /* \"#utility.yul\":2555:2675   */\n  jump(tag_64)\ntag_66:\n    /* \"#utility.yul\":2495:2681   */\n  pop\n  pop\n  jump\t// out\n    /* \"#utility.yul\":2687:3230   */\ntag_30:\n    /* \"#utility.yul\":2788:2790   */\n  0x1f\n    /* \"#utility.yul\":2783:2786   */\n  dup3\n    /* \"#utility.yul\":2780:2791   */\n  gt\n    /* \"#utility.yul\":2777:3223   */\n  iszero\n  tag_69\n  jumpi\n    /* \"#utility.yul\":2822:2860   */\n  tag_70\n    /* \"#utility.yul\":2854:2859   */\n  dup2\n    /* \"#utility.yul\":2822:2860   */\n  tag_18\n  jump\t// in\ntag_70:\n    /* \"#utility.yul\":2906:2935   */\n  tag_71\n    /* \"#utility.yul\":2924:2934   */\n  dup5\n    /* \"#utility.yul\":2906:2935   */\n  tag_19\n  jump\t// in\ntag_71:\n    /* \"#utility.yul\":2896:2904   */\n  dup2\n    /* \"#utility.yul\":2892:2936   */\n  add\n    /* \"#utility.yul\":3089:3091   */\n  0x20\n    /* \"#utility.yul\":3077:3087   */\n  dup6\n    /* \"#utility.yul\":3074:3092   */\n  lt\n    /* \"#utility.yul\":3071:3120   */\n  iszero\n  tag_72\n  jumpi\n    /* \"#utility.yul\":3110:3118   */\n  dup2\n    /* \"#utility.yul\":3095:3118   */\n  swap1\n  pop\n    /* \"#utility.yul\":3071:3120   */\ntag_72:\n    /* \"#utility.yul\":3133:3213   */\n  tag_73\n    /* \"#utility.yul\":3189:3211   */\n  tag_74\n    /* \"#utility.yul\":3207:3210   */\n  dup6\n    /* \"#utility.yul\":3189:3211   */\n  tag_19\n  jump\t// in\ntag_74:\n    /* \"#utility.yul\":3179:3187   */\n  dup4\n    /* \"#utility.yul\":3175:3212   */\n  add\n    /* \"#utility.yul\":3162:3173   */\n  dup3\n    /* \"#utility.yul\":3133:3213   */\n  tag_29\n  jump\t// in\ntag_73:\n    /* \"#utility.yul\":2792:3223   */\n  pop\n  pop\n    /* \"#utility.yul\":2777:3223   */\ntag_69:\n    /* \"#utility.yul\":2687:3230   */\n  pop\n  pop\n  pop\n  jump\t// out\n    /* \"#utility.yul\":3236:3353   */\ntag_31:\n    /* \"#utility.yul\":3290:3298   */\n  0x00\n    /* \"#utility.yul\":3340:3345   */\n  dup3\n    /* \"#utility.yul\":3334:3338   */\n  dup3\n    /* \"#utility.yul\":3330:3346   */\n  shr\n    /* \"#utility.yul\":3309:3346   */\n  swap1\n  pop\n    /* \"#utility.yul\":3236:3353   */\n  swap3\n  swap2\n  pop\n  pop\n  jump\t// out\n    /* \"#utility.yul\":3359:3528   */\ntag_32:\n    /* \"#utility.yul\":3403:3409   */\n  0x00\n    /* \"#utility.yul\":3436:3487   */\n  tag_77\n    /* \"#utility.yul\":3484:3485   */\n  0x00\n    /* \"#utility.yul\":3480:3486   */\n  not\n    /* \"#utility.yul\":3472:3477   */\n  dup5\n    /* \"#utility.yul\":3469:3470   */\n  0x08\n    /* \"#utility.yul\":3465:3478   */\n  mul\n    /* \"#utility.yul\":3436:3487   */\n  tag_31\n  jump\t// in\ntag_77:\n    /* \"#utility.yul\":3432:3488   */\n  not\n    /* \"#utility.yul\":3517:3521   */\n  dup1\n    /* \"#utility.yul\":3511:3515   */\n  dup4\n    /* \"#utility.yul\":3507:3522   */\n  and\n    /* \"#utility.yul\":3497:3522   */\n  swap2\n  pop\n    /* \"#utility.yul\":3410:3528   */\n  pop\n    /* \"#utility.yul\":3359:3528   */\n  swap3\n  swap2\n  pop\n  pop\n  jump\t// out\n    /* \"#utility.yul\":3533:3828   */\ntag_33:\n    /* \"#utility.yul\":3609:3613   */\n  0x00\n    /* \"#utility.yul\":3755:3784   */\n  tag_79\n    /* \"#utility.yul\":3780:3783   */\n  dup4\n    /* \"#utility.yul\":3774:3778   */\n  dup4\n    /* \"#utility.yul\":3755:3784   */\n  tag_32\n  jump\t// in\ntag_79:\n    /* \"#utility.yul\":3747:3784   */\n  swap2\n  pop\n    /* \"#utility.yul\":3817:3820   */\n  dup3\n    /* \"#utility.yul\":3814:3815   */\n  0x02\n    /* \"#utility.yul\":3810:3821   */\n  mul\n    /* \"#utility.yul\":3804:3808   */\n  dup3\n    /* \"#utility.yul\":3801:3822   */\n  or\n    /* \"#utility.yul\":3793:3822   */\n  swap1\n  pop\n    /* \"#utility.yul\":3533:3828   */\n  swap3\n  swap2\n  pop\n  pop\n  jump\t// out\n    /* \"#utility.yul\":3833:5228   */\ntag_2:\n    /* \"#utility.yul\":3950:3987   */\n  tag_81\n    /* \"#utility.yul\":3983:3986   */\n  dup3\n    /* \"#utility.yul\":3950:3987   */\n  tag_14\n  jump\t// in\ntag_81:\n    /* \"#utility.yul\":4052:4070   */\n  0xffffffffffffffff\n    /* \"#utility.yul\":4044:4050   */\n  dup2\n    /* \"#utility.yul\":4041:4071   */\n  gt\n    /* \"#utility.yul\":4038:4094   */\n  iszero\n  tag_82\n  jumpi\n    /* \"#utility.yul\":4074:4092   */\n  tag_83\n  tag_15\n  jump\t// in\ntag_83:\n    /* \"#utility.yul\":4038:4094   */\ntag_82:\n    /* \"#utility.yul\":4118:4156   */\n  tag_84\n    /* \"#utility.yul\":4150:4154   */\n  dup3\n    /* \"#utility.yul\":4144:4155   */\n  sload\n    /* \"#utility.yul\":4118:4156   */\n  tag_17\n  jump\t// in\ntag_84:\n    /* \"#utility.yul\":4203:4270   */\n  tag_85\n    /* \"#utility.yul\":4263:4269   */\n  dup3\n    /* \"#utility.yul\":4255:4261   */\n  dup3\n    /* \"#utility.yul\":4249:4253   */\n  dup6\n    /* \"#utility.yul\":4203:4270   */\n  tag_30\n  jump\t// in\ntag_85:\n    /* \"#utility.yul\":4297:4298   */\n  0x00\n    /* \"#utility.yul\":4321:4325   */\n  0x20\n    /* \"#utility.yul\":4308:4325   */\n  swap1\n  pop\n    /* \"#utility.yul\":4353:4355   */\n  0x1f\n    /* \"#utility.yul\":4345:4351   */\n  dup4\n    /* \"#utility.yul\":4342:4356   */\n  gt\n    /* \"#utility.yul\":4370:4371   */\n  0x01\n    /* \"#utility.yul\":4365:4983   */\n  dup2\n  eq\n  tag_87\n  jumpi\n    /* \"#utility.yul\":5027:5028   */\n  0x00\n    /* \"#utility.yul\":5044:5050   */\n  dup5\n    /* \"#utility.yul\":5041:5118   */\n  iszero\n  tag_88\n  jumpi\n    /* \"#utility.yul\":5093:5102   */\n  dup3\n    /* \"#utility.yul\":5088:5091   */\n  dup8\n    /* \"#utility.yul\":5084:5103   */\n  add\n    /* \"#utility.yul\":5078:5104   */\n  mload\n    /* \"#utility.yul\":5069:5104   */\n  swap1\n  pop\n    /* \"#utility.yul\":5041:5118   */\ntag_88:\n    /* \"#utility.yul\":5144:5211   */\n  tag_89\n    /* \"#utility.yul\":5204:5210   */\n  dup6\n    /* \"#utility.yul\":5197:5202   */\n  dup3\n    /* \"#utility.yul\":5144:5211   */\n  tag_33\n  jump\t// in\ntag_89:\n    /* \"#utility.yul\":5138:5142   */\n  dup7\n    /* \"#utility.yul\":5131:5212   */\n  sstore\n    /* \"#utility.yul\":5000:5222   */\n  pop\n    /* \"#utility.yul\":4335:5222   */\n  jump(tag_86)\n    /* \"#utility.yul\":4365:4983   */\ntag_87:\n    /* \"#utility.yul\":4417:4421   */\n  0x1f\n    /* \"#utility.yul\":4413:4422   */\n  not\n    /* \"#utility.yul\":4405:4411   */\n  dup5\n    /* \"#utility.yul\":4401:4423   */\n  and\n    /* \"#utility.yul\":4451:4488   */\n  tag_90\n    /* \"#utility.yul\":4483:4487   */\n  dup7\n    /* \"#utility.yul\":4451:4488   */\n  tag_18\n  jump\t// in\ntag_90:\n    /* \"#utility.yul\":4510:4511   */\n  0x00\n    /* \"#utility.yul\":4524:4732   */\ntag_91:\n    /* \"#utility.yul\":4538:4545   */\n  dup3\n    /* \"#utility.yul\":4535:4536   */\n  dup2\n    /* \"#utility.yul\":4532:4546   */\n  lt\n    /* \"#utility.yul\":4524:4732   */\n  iszero\n  tag_93\n  jumpi\n    /* \"#utility.yul\":4617:4626   */\n  dup5\n    /* \"#utility.yul\":4612:4615   */\n  dup10\n    /* \"#utility.yul\":4608:4627   */\n  add\n    /* \"#utility.yul\":4602:4628   */\n  mload\n    /* \"#utility.yul\":4594:4600   */\n  dup3\n    /* \"#utility.yul\":4587:4629   */\n  sstore\n    /* \"#utility.yul\":4668:4669   */\n  0x01\n    /* \"#utility.yul\":4660:4666   */\n  dup3\n    /* \"#utility.yul\":4656:4670   */\n  add\n    /* \"#utility.yul\":4646:4670   */\n  swap2\n  pop\n    /* \"#utility.yul\":4715:4717   */\n  0x20\n    /* \"#utility.yul\":4704:4713   */\n  dup6\n    /* \"#utility.yul\":4700:4718   */\n  add\n    /* \"#utility.yul\":4687:4718   */\n  swap5\n  pop\n    /* \"#utility.yul\":4561:4565   */\n  0x20\n    /* \"#utility.yul\":4558:4559   */\n  dup2\n    /* \"#utility.yul\":4554:4566   */\n  add\n    /* \"#utility.yul\":4549:4566   */\n  swap1\n  pop\n    /* \"#utility.yul\":4524:4732   */\n  jump(tag_91)\ntag_93:\n    /* \"#utility.yul\":4760:4766   */\n  dup7\n    /* \"#utility.yul\":4751:4758   */\n  dup4\n    /* \"#utility.yul\":4748:4767   */\n  lt\n    /* \"#utility.yul\":4745:4924   */\n  iszero\n  tag_94\n  jumpi\n    /* \"#utility.yul\":4818:4827   */\n  dup5\n    /* \"#utility.yul\":4813:4816   */\n  dup10\n    /* \"#utility.yul\":4809:4828   */\n  add\n    /* \"#utility.yul\":4803:4829   */\n  mload\n    /* \"#utility.yul\":4861:4909   */\n  tag_95\n    /* \"#utility.yul\":4903:4907   */\n  0x1f\n    /* \"#utility.yul\":4895:4901   */\n  dup10\n    /* \"#utility.yul\":4891:4908   */\n  and\n    /* \"#utility.yul\":4880:4889   */\n  dup3\n    /* \"#utility.yul\":4861:4909   */\n  tag_32\n  jump\t// in\ntag_95:\n    /* \"#utility.yul\":4853:4859   */\n  dup4\n    /* \"#utility.yul\":4846:4910   */\n  sstore\n    /* \"#utility.yul\":4768:4924   */\n  pop\n    /* \"#utility.yul\":4745:4924   */\ntag_94:\n    /* \"#utility.yul\":4970:4971   */\n  0x01\n    /* \"#utility.yul\":4966:4967   */\n  0x02\n    /* \"#utility.yul\":4958:4964   */\n  dup9\n    /* \"#utility.yul\":4954:4968   */\n  mul\n    /* \"#utility.yul\":4950:4972   */\n  add\n    /* \"#utility.yul\":4944:4948   */\n  dup9\n    /* \"#utility.yul\":4937:4973   */\n  sstore\n    /* \"#utility.yul\":4372:4983   */\n  pop\n  pop\n  pop\n    /* \"#utility.yul\":4335:5222   */\ntag_86:\n  pop\n    /* \"#utility.yul\":3925:5228   */\n  pop\n  pop\n  pop\n    /* \"#utility.yul\":3833:5228   */\n  pop\n  pop\n  jump\t// out\n    /* \"contracts/lesson27/ABIEncode1.sol\":58:1095  contract ABIEncode{... */\ntag_6:\n  dataSize(sub_0)\n  dup1\n  dataOffset(sub_0)\n  0x00\n  codecopy\n  0x00\n  return\nstop\n\nsub_0: assembly {\n        /* \"contracts/lesson27/ABIEncode1.sol\":58:1095  contract ABIEncode{... */\n      mstore(0x40, 0x80)\n      callvalue\n      dup1\n      iszero\n      tag_1\n      jumpi\n      0x00\n      dup1\n      revert\n    tag_1:\n      pop\n      jumpi(tag_2, lt(calldatasize, 0x04))\n      shr(0xe0, calldataload(0x00))\n      dup1\n      0x53d9c506\n      eq\n      tag_3\n      jumpi\n      dup1\n      0xbd14598f\n      eq\n      tag_4\n      jumpi\n      dup1\n      0xd1bd363d\n      eq\n      tag_5\n      jumpi\n      dup1\n      0xe4f2a84a\n      eq\n      tag_6\n      jumpi\n      dup1\n      0xe5c5e9a3\n      eq\n      tag_7\n      jumpi\n    tag_2:\n      0x00\n      dup1\n      revert\n        /* \"contracts/lesson27/ABIEncode1.sol\":341:470  function encodePacked() public view returns(bytes memory result) {... */\n    tag_3:\n      tag_8\n      tag_9\n      jump\t// in\n    tag_8:\n      mload(0x40)\n      tag_10\n      swap2\n      swap1\n      tag_11\n      jump\t// in\n    tag_10:\n      mload(0x40)\n      dup1\n      swap2\n      sub\n      swap1\n      return\n        /* \"contracts/lesson27/ABIEncode1.sol\":218:335  function encode() public view returns(bytes memory result) {... */\n    tag_4:\n      tag_12\n      tag_13\n      jump\t// in\n    tag_12:\n      mload(0x40)\n      tag_14\n      swap2\n      swap1\n      tag_11\n      jump\t// in\n    tag_14:\n      mload(0x40)\n      dup1\n      swap2\n      sub\n      swap1\n      return\n        /* \"contracts/lesson27/ABIEncode1.sol\":667:869  function encodeWithSelector() public view returns(bytes memory result) {... */\n    tag_5:\n      tag_15\n      tag_16\n      jump\t// in\n    tag_15:\n      mload(0x40)\n      tag_17\n      swap2\n      swap1\n      tag_11\n      jump\t// in\n    tag_17:\n      mload(0x40)\n      dup1\n      swap2\n      sub\n      swap1\n      return\n        /* \"contracts/lesson27/ABIEncode1.sol\":476:661  function encodeWithSignature() public view returns(bytes memory result) {... */\n    tag_6:\n      tag_18\n      tag_19\n      jump\t// in\n    tag_18:\n      mload(0x40)\n      tag_20\n      swap2\n      swap1\n      tag_11\n      jump\t// in\n    tag_20:\n      mload(0x40)\n      dup1\n      swap2\n      sub\n      swap1\n      return\n        /* \"contracts/lesson27/ABIEncode1.sol\":874:1093  function decode(bytes memory data) public pure returns(uint dx, address daddr, string memory dname, uint[2] memory darray) {... */\n    tag_7:\n      tag_21\n      0x04\n      dup1\n      calldatasize\n      sub\n      dup2\n      add\n      swap1\n      tag_22\n      swap2\n      swap1\n      tag_23\n      jump\t// in\n    tag_22:\n      tag_24\n      jump\t// in\n    tag_21:\n      mload(0x40)\n      tag_25\n      swap5\n      swap4\n      swap3\n      swap2\n      swap1\n      tag_26\n      jump\t// in\n    tag_25:\n      mload(0x40)\n      dup1\n      swap2\n      sub\n      swap1\n      return\n        /* \"contracts/lesson27/ABIEncode1.sol\":341:470  function encodePacked() public view returns(bytes memory result) {... */\n    tag_9:\n        /* \"contracts/lesson27/ABIEncode1.sol\":385:404  bytes memory result */\n      0x60\n        /* \"contracts/lesson27/ABIEncode1.sol\":442:443  x */\n      sload(0x00)\n        /* \"contracts/lesson27/ABIEncode1.sol\":445:449  addr */\n      0x01\n      0x00\n      swap1\n      sload\n      swap1\n      0x0100\n      exp\n      swap1\n      div\n      0xffffffffffffffffffffffffffffffffffffffff\n      and\n        /* \"contracts/lesson27/ABIEncode1.sol\":451:455  name */\n      0x02\n        /* \"contracts/lesson27/ABIEncode1.sol\":457:462  array */\n      0x03\n        /* \"contracts/lesson27/ABIEncode1.sol\":425:463  abi.encodePacked(x, addr, name, array) */\n      add(0x20, mload(0x40))\n      tag_28\n      swap5\n      swap4\n      swap3\n      swap2\n      swap1\n      tag_29\n      jump\t// in\n    tag_28:\n      mload(0x40)\n      0x20\n      dup2\n      dup4\n      sub\n      sub\n      dup2\n      mstore\n      swap1\n      0x40\n      mstore\n        /* \"contracts/lesson27/ABIEncode1.sol\":416:463  result = abi.encodePacked(x, addr, name, array) */\n      swap1\n      pop\n        /* \"contracts/lesson27/ABIEncode1.sol\":341:470  function encodePacked() public view returns(bytes memory result) {... */\n      swap1\n      jump\t// out\n        /* \"contracts/lesson27/ABIEncode1.sol\":218:335  function encode() public view returns(bytes memory result) {... */\n    tag_13:\n        /* \"contracts/lesson27/ABIEncode1.sol\":256:275  bytes memory result */\n      0x60\n        /* \"contracts/lesson27/ABIEncode1.sol\":307:308  x */\n      sload(0x00)\n        /* \"contracts/lesson27/ABIEncode1.sol\":310:314  addr */\n      0x01\n      0x00\n      swap1\n      sload\n      swap1\n      0x0100\n      exp\n      swap1\n      div\n      0xffffffffffffffffffffffffffffffffffffffff\n      and\n        /* \"contracts/lesson27/ABIEncode1.sol\":316:320  name */\n      0x02\n        /* \"contracts/lesson27/ABIEncode1.sol\":322:327  array */\n      0x03\n        /* \"contracts/lesson27/ABIEncode1.sol\":296:328  abi.encode(x, addr, name, array) */\n      add(0x20, mload(0x40))\n      tag_31\n      swap5\n      swap4\n      swap3\n      swap2\n      swap1\n      tag_32\n      jump\t// in\n    tag_31:\n      mload(0x40)\n      0x20\n      dup2\n      dup4\n      sub\n      sub\n      dup2\n      mstore\n      swap1\n      0x40\n      mstore\n        /* \"contracts/lesson27/ABIEncode1.sol\":287:328  result = abi.encode(x, addr, name, array) */\n      swap1\n      pop\n        /* \"contracts/lesson27/ABIEncode1.sol\":218:335  function encode() public view returns(bytes memory result) {... */\n      swap1\n      jump\t// out\n        /* \"contracts/lesson27/ABIEncode1.sol\":667:869  function encodeWithSelector() public view returns(bytes memory result) {... */\n    tag_16:\n        /* \"contracts/lesson27/ABIEncode1.sol\":717:736  bytes memory result */\n      0x60\n        /* \"contracts/lesson27/ABIEncode1.sol\":787:838  keccak256(\"foo(uint256,address,string,uint256[2])\") */\n      0xe87082f1450a46f8f3150d7bda55bda41a2b08d68abde6797ccc68be30567335\n        /* \"contracts/lesson27/ABIEncode1.sol\":841:842  x */\n      sload(0x00)\n        /* \"contracts/lesson27/ABIEncode1.sol\":844:848  addr */\n      0x01\n      0x00\n      swap1\n      sload\n      swap1\n      0x0100\n      exp\n      swap1\n      div\n      0xffffffffffffffffffffffffffffffffffffffff\n      and\n        /* \"contracts/lesson27/ABIEncode1.sol\":850:854  name */\n      0x02\n        /* \"contracts/lesson27/ABIEncode1.sol\":856:861  array */\n      0x03\n        /* \"contracts/lesson27/ABIEncode1.sol\":757:862  abi.encodeWithSelector(bytes4(keccak256(\"foo(uint256,address,string,uint256[2])\")), x, addr, name, array) */\n      add(0x24, mload(0x40))\n      tag_34\n      swap5\n      swap4\n      swap3\n      swap2\n      swap1\n      tag_32\n      jump\t// in\n    tag_34:\n      mload(0x40)\n      0x20\n      dup2\n      dup4\n      sub\n      sub\n      dup2\n      mstore\n      swap1\n      0x40\n      mstore\n      swap1\n      not(0xffffffffffffffffffffffffffffffffffffffffffffffffffffffff)\n      and\n      0x20\n      dup3\n      add\n      dup1\n      mload\n      0xffffffffffffffffffffffffffffffffffffffffffffffffffffffff\n      dup4\n      dup2\n      dup4\n      and\n      or\n      dup4\n      mstore\n      pop\n      pop\n      pop\n      pop\n        /* \"contracts/lesson27/ABIEncode1.sol\":748:862  result = abi.encodeWithSelector(bytes4(keccak256(\"foo(uint256,address,string,uint256[2])\")), x, addr, name, array) */\n      swap1\n      pop\n        /* \"contracts/lesson27/ABIEncode1.sol\":667:869  function encodeWithSelector() public view returns(bytes memory result) {... */\n      swap1\n      jump\t// out\n        /* \"contracts/lesson27/ABIEncode1.sol\":476:661  function encodeWithSignature() public view returns(bytes memory result) {... */\n    tag_19:\n        /* \"contracts/lesson27/ABIEncode1.sol\":527:546  bytes memory result */\n      0x60\n        /* \"contracts/lesson27/ABIEncode1.sol\":633:634  x */\n      sload(0x00)\n        /* \"contracts/lesson27/ABIEncode1.sol\":636:640  addr */\n      0x01\n      0x00\n      swap1\n      sload\n      swap1\n      0x0100\n      exp\n      swap1\n      div\n      0xffffffffffffffffffffffffffffffffffffffff\n      and\n        /* \"contracts/lesson27/ABIEncode1.sol\":642:646  name */\n      0x02\n        /* \"contracts/lesson27/ABIEncode1.sol\":648:653  array */\n      0x03\n        /* \"contracts/lesson27/ABIEncode1.sol\":567:654  abi.encodeWithSignature(\"foo(uint256,address,string,uint256[2])\", x, addr, name, array) */\n      add(0x24, mload(0x40))\n      tag_36\n      swap5\n      swap4\n      swap3\n      swap2\n      swap1\n      tag_32\n      jump\t// in\n    tag_36:\n      mload(0x40)\n      0x20\n      dup2\n      dup4\n      sub\n      sub\n      dup2\n      mstore\n      swap1\n      0x40\n      mstore\n      and(not(0xffffffffffffffffffffffffffffffffffffffffffffffffffffffff), 0xe87082f100000000000000000000000000000000000000000000000000000000)\n      0x20\n      dup3\n      add\n      dup1\n      mload\n      0xffffffffffffffffffffffffffffffffffffffffffffffffffffffff\n      dup4\n      dup2\n      dup4\n      and\n      or\n      dup4\n      mstore\n      pop\n      pop\n      pop\n      pop\n        /* \"contracts/lesson27/ABIEncode1.sol\":558:654  result = abi.encodeWithSignature(\"foo(uint256,address,string,uint256[2])\", x, addr, name, array) */\n      swap1\n      pop\n        /* \"contracts/lesson27/ABIEncode1.sol\":476:661  function encodeWithSignature() public view returns(bytes memory result) {... */\n      swap1\n      jump\t// out\n        /* \"contracts/lesson27/ABIEncode1.sol\":874:1093  function decode(bytes memory data) public pure returns(uint dx, address daddr, string memory dname, uint[2] memory darray) {... */\n    tag_24:\n        /* \"contracts/lesson27/ABIEncode1.sol\":929:936  uint dx */\n      0x00\n        /* \"contracts/lesson27/ABIEncode1.sol\":938:951  address daddr */\n      dup1\n        /* \"contracts/lesson27/ABIEncode1.sol\":953:972  string memory dname */\n      0x60\n        /* \"contracts/lesson27/ABIEncode1.sol\":974:995  uint[2] memory darray */\n      tag_37\n      tag_38\n      jump\t// in\n    tag_37:\n        /* \"contracts/lesson27/ABIEncode1.sol\":1047:1051  data */\n      dup5\n        /* \"contracts/lesson27/ABIEncode1.sol\":1036:1086  abi.decode(data, (uint, address, string, uint[2])) */\n      dup1\n      0x20\n      add\n      swap1\n      mload\n      dup2\n      add\n      swap1\n      tag_40\n      swap2\n      swap1\n      tag_41\n      jump\t// in\n    tag_40:\n        /* \"contracts/lesson27/ABIEncode1.sol\":1007:1086  (dx, daddr, dname, darray) = abi.decode(data, (uint, address, string, uint[2])) */\n      dup1\n      swap5\n      pop\n      dup2\n      swap6\n      pop\n      dup3\n      swap7\n      pop\n      dup4\n      swap8\n      pop\n      pop\n      pop\n      pop\n      pop\n        /* \"contracts/lesson27/ABIEncode1.sol\":874:1093  function decode(bytes memory data) public pure returns(uint dx, address daddr, string memory dname, uint[2] memory darray) {... */\n      swap2\n      swap4\n      pop\n      swap2\n      swap4\n      jump\t// out\n    tag_38:\n      mload(0x40)\n      dup1\n      0x40\n      add\n      0x40\n      mstore\n      dup1\n      0x02\n      swap1\n      0x20\n      dup3\n      mul\n      dup1\n      calldatasize\n      dup4\n      calldatacopy\n      dup1\n      dup3\n      add\n      swap2\n      pop\n      pop\n      swap1\n      pop\n      pop\n      swap1\n      jump\t// out\n        /* \"#utility.yul\":7:105   */\n    tag_42:\n        /* \"#utility.yul\":58:64   */\n      0x00\n        /* \"#utility.yul\":92:97   */\n      dup2\n        /* \"#utility.yul\":86:98   */\n      mload\n        /* \"#utility.yul\":76:98   */\n      swap1\n      pop\n        /* \"#utility.yul\":7:105   */\n      swap2\n      swap1\n      pop\n      jump\t// out\n        /* \"#utility.yul\":111:279   */\n    tag_43:\n        /* \"#utility.yul\":194:205   */\n      0x00\n        /* \"#utility.yul\":228:234   */\n      dup3\n        /* \"#utility.yul\":223:226   */\n      dup3\n        /* \"#utility.yul\":216:235   */\n      mstore\n        /* \"#utility.yul\":268:272   */\n      0x20\n        /* \"#utility.yul\":263:266   */\n      dup3\n        /* \"#utility.yul\":259:273   */\n      add\n        /* \"#utility.yul\":244:273   */\n      swap1\n      pop\n        /* \"#utility.yul\":111:279   */\n      swap3\n      swap2\n      pop\n      pop\n      jump\t// out\n        /* \"#utility.yul\":285:424   */\n    tag_44:\n        /* \"#utility.yul\":374:380   */\n      dup3\n        /* \"#utility.yul\":369:372   */\n      dup2\n        /* \"#utility.yul\":364:367   */\n      dup4\n        /* \"#utility.yul\":358:381   */\n      mcopy\n        /* \"#utility.yul\":415:416   */\n      0x00\n        /* \"#utility.yul\":406:412   */\n      dup4\n        /* \"#utility.yul\":401:404   */\n      dup4\n        /* \"#utility.yul\":397:413   */\n      add\n        /* \"#utility.yul\":390:417   */\n      mstore\n        /* \"#utility.yul\":285:424   */\n      pop\n      pop\n      pop\n      jump\t// out\n        /* \"#utility.yul\":430:532   */\n    tag_45:\n        /* \"#utility.yul\":471:477   */\n      0x00\n        /* \"#utility.yul\":522:524   */\n      0x1f\n        /* \"#utility.yul\":518:525   */\n      not\n        /* \"#utility.yul\":513:515   */\n      0x1f\n        /* \"#utility.yul\":506:511   */\n      dup4\n        /* \"#utility.yul\":502:516   */\n      add\n        /* \"#utility.yul\":498:526   */\n      and\n        /* \"#utility.yul\":488:526   */\n      swap1\n      pop\n        /* \"#utility.yul\":430:532   */\n      swap2\n      swap1\n      pop\n      jump\t// out\n        /* \"#utility.yul\":538:911   */\n    tag_46:\n        /* \"#utility.yul\":624:627   */\n      0x00\n        /* \"#utility.yul\":652:690   */\n      tag_116\n        /* \"#utility.yul\":684:689   */\n      dup3\n        /* \"#utility.yul\":652:690   */\n      tag_42\n      jump\t// in\n    tag_116:\n        /* \"#utility.yul\":706:776   */\n      tag_117\n        /* \"#utility.yul\":769:775   */\n      dup2\n        /* \"#utility.yul\":764:767   */\n      dup6\n        /* \"#utility.yul\":706:776   */\n      tag_43\n      jump\t// in\n    tag_117:\n        /* \"#utility.yul\":699:776   */\n      swap4\n      pop\n        /* \"#utility.yul\":785:850   */\n      tag_118\n        /* \"#utility.yul\":843:849   */\n      dup2\n        /* \"#utility.yul\":838:841   */\n      dup6\n        /* \"#utility.yul\":831:835   */\n      0x20\n        /* \"#utility.yul\":824:829   */\n      dup7\n        /* \"#utility.yul\":820:836   */\n      add\n        /* \"#utility.yul\":785:850   */\n      tag_44\n      jump\t// in\n    tag_118:\n        /* \"#utility.yul\":875:904   */\n      tag_119\n        /* \"#utility.yul\":897:903   */\n      dup2\n        /* \"#utility.yul\":875:904   */\n      tag_45\n      jump\t// in\n    tag_119:\n        /* \"#utility.yul\":870:873   */\n      dup5\n        /* \"#utility.yul\":866:905   */\n      add\n        /* \"#utility.yul\":859:905   */\n      swap2\n      pop\n        /* \"#utility.yul\":628:911   */\n      pop\n        /* \"#utility.yul\":538:911   */\n      swap3\n      swap2\n      pop\n      pop\n      jump\t// out\n        /* \"#utility.yul\":917:1226   */\n    tag_11:\n        /* \"#utility.yul\":1028:1032   */\n      0x00\n        /* \"#utility.yul\":1066:1068   */\n      0x20\n        /* \"#utility.yul\":1055:1064   */\n      dup3\n        /* \"#utility.yul\":1051:1069   */\n      add\n        /* \"#utility.yul\":1043:1069   */\n      swap1\n      pop\n        /* \"#utility.yul\":1115:1124   */\n      dup2\n        /* \"#utility.yul\":1109:1113   */\n      dup2\n        /* \"#utility.yul\":1105:1125   */\n      sub\n        /* \"#utility.yul\":1101:1102   */\n      0x00\n        /* \"#utility.yul\":1090:1099   */\n      dup4\n        /* \"#utility.yul\":1086:1103   */\n      add\n        /* \"#utility.yul\":1079:1126   */\n      mstore\n        /* \"#utility.yul\":1143:1219   */\n      tag_121\n        /* \"#utility.yul\":1214:1218   */\n      dup2\n        /* \"#utility.yul\":1205:1211   */\n      dup5\n        /* \"#utility.yul\":1143:1219   */\n      tag_46\n      jump\t// in\n    tag_121:\n        /* \"#utility.yul\":1135:1219   */\n      swap1\n      pop\n        /* \"#utility.yul\":917:1226   */\n      swap3\n      swap2\n      pop\n      pop\n      jump\t// out\n        /* \"#utility.yul\":1232:1307   */\n    tag_47:\n        /* \"#utility.yul\":1265:1271   */\n      0x00\n        /* \"#utility.yul\":1298:1300   */\n      0x40\n        /* \"#utility.yul\":1292:1301   */\n      mload\n        /* \"#utility.yul\":1282:1301   */\n      swap1\n      pop\n        /* \"#utility.yul\":1232:1307   */\n      swap1\n      jump\t// out\n        /* \"#utility.yul\":1313:1430   */\n    tag_48:\n        /* \"#utility.yul\":1422:1423   */\n      0x00\n        /* \"#utility.yul\":1419:1420   */\n      dup1\n        /* \"#utility.yul\":1412:1424   */\n      revert\n        /* \"#utility.yul\":1436:1553   */\n    tag_49:\n        /* \"#utility.yul\":1545:1546   */\n      0x00\n        /* \"#utility.yul\":1542:1543   */\n      dup1\n        /* \"#utility.yul\":1535:1547   */\n      revert\n        /* \"#utility.yul\":1559:1676   */\n    tag_50:\n        /* \"#utility.yul\":1668:1669   */\n      0x00\n        /* \"#utility.yul\":1665:1666   */\n      dup1\n        /* \"#utility.yul\":1658:1670   */\n      revert\n        /* \"#utility.yul\":1682:1799   */\n    tag_51:\n        /* \"#utility.yul\":1791:1792   */\n      0x00\n        /* \"#utility.yul\":1788:1789   */\n      dup1\n        /* \"#utility.yul\":1781:1793   */\n      revert\n        /* \"#utility.yul\":1805:1985   */\n    tag_52:\n        /* \"#utility.yul\":1853:1930   */\n      0x4e487b7100000000000000000000000000000000000000000000000000000000\n        /* \"#utility.yul\":1850:1851   */\n      0x00\n        /* \"#utility.yul\":1843:1931   */\n      mstore\n        /* \"#utility.yul\":1950:1954   */\n      0x41\n        /* \"#utility.yul\":1947:1948   */\n      0x04\n        /* \"#utility.yul\":1940:1955   */\n      mstore\n        /* \"#utility.yul\":1974:1978   */\n      0x24\n        /* \"#utility.yul\":1971:1972   */\n      0x00\n        /* \"#utility.yul\":1964:1979   */\n      revert\n        /* \"#utility.yul\":1991:2272   */\n    tag_53:\n        /* \"#utility.yul\":2074:2101   */\n      tag_129\n        /* \"#utility.yul\":2096:2100   */\n      dup3\n        /* \"#utility.yul\":2074:2101   */\n      tag_45\n      jump\t// in\n    tag_129:\n        /* \"#utility.yul\":2066:2072   */\n      dup2\n        /* \"#utility.yul\":2062:2102   */\n      add\n        /* \"#utility.yul\":2204:2210   */\n      dup2\n        /* \"#utility.yul\":2192:2202   */\n      dup2\n        /* \"#utility.yul\":2189:2211   */\n      lt\n        /* \"#utility.yul\":2168:2186   */\n      0xffffffffffffffff\n        /* \"#utility.yul\":2156:2166   */\n      dup3\n        /* \"#utility.yul\":2153:2187   */\n      gt\n        /* \"#utility.yul\":2150:2212   */\n      or\n        /* \"#utility.yul\":2147:2235   */\n      iszero\n      tag_130\n      jumpi\n        /* \"#utility.yul\":2215:2233   */\n      tag_131\n      tag_52\n      jump\t// in\n    tag_131:\n        /* \"#utility.yul\":2147:2235   */\n    tag_130:\n        /* \"#utility.yul\":2255:2265   */\n      dup1\n        /* \"#utility.yul\":2251:2253   */\n      0x40\n        /* \"#utility.yul\":2244:2266   */\n      mstore\n        /* \"#utility.yul\":2034:2272   */\n      pop\n        /* \"#utility.yul\":1991:2272   */\n      pop\n      pop\n      jump\t// out\n        /* \"#utility.yul\":2278:2407   */\n    tag_54:\n        /* \"#utility.yul\":2312:2318   */\n      0x00\n        /* \"#utility.yul\":2339:2359   */\n      tag_133\n      tag_47\n      jump\t// in\n    tag_133:\n        /* \"#utility.yul\":2329:2359   */\n      swap1\n      pop\n        /* \"#utility.yul\":2368:2401   */\n      tag_134\n        /* \"#utility.yul\":2396:2400   */\n      dup3\n        /* \"#utility.yul\":2388:2394   */\n      dup3\n        /* \"#utility.yul\":2368:2401   */\n      tag_53\n      jump\t// in\n    tag_134:\n        /* \"#utility.yul\":2278:2407   */\n      swap2\n      swap1\n      pop\n      jump\t// out\n        /* \"#utility.yul\":2413:2720   */\n    tag_55:\n        /* \"#utility.yul\":2474:2478   */\n      0x00\n        /* \"#utility.yul\":2564:2582   */\n      0xffffffffffffffff\n        /* \"#utility.yul\":2556:2562   */\n      dup3\n        /* \"#utility.yul\":2553:2583   */\n      gt\n        /* \"#utility.yul\":2550:2606   */\n      iszero\n      tag_136\n      jumpi\n        /* \"#utility.yul\":2586:2604   */\n      tag_137\n      tag_52\n      jump\t// in\n    tag_137:\n        /* \"#utility.yul\":2550:2606   */\n    tag_136:\n        /* \"#utility.yul\":2624:2653   */\n      tag_138\n        /* \"#utility.yul\":2646:2652   */\n      dup3\n        /* \"#utility.yul\":2624:2653   */\n      tag_45\n      jump\t// in\n    tag_138:\n        /* \"#utility.yul\":2616:2653   */\n      swap1\n      pop\n        /* \"#utility.yul\":2708:2712   */\n      0x20\n        /* \"#utility.yul\":2702:2706   */\n      dup2\n        /* \"#utility.yul\":2698:2713   */\n      add\n        /* \"#utility.yul\":2690:2713   */\n      swap1\n      pop\n        /* \"#utility.yul\":2413:2720   */\n      swap2\n      swap1\n      pop\n      jump\t// out\n        /* \"#utility.yul\":2726:2874   */\n    tag_56:\n        /* \"#utility.yul\":2824:2830   */\n      dup3\n        /* \"#utility.yul\":2819:2822   */\n      dup2\n        /* \"#utility.yul\":2814:2817   */\n      dup4\n        /* \"#utility.yul\":2801:2831   */\n      calldatacopy\n        /* \"#utility.yul\":2865:2866   */\n      0x00\n        /* \"#utility.yul\":2856:2862   */\n      dup4\n        /* \"#utility.yul\":2851:2854   */\n      dup4\n        /* \"#utility.yul\":2847:2863   */\n      add\n        /* \"#utility.yul\":2840:2867   */\n      mstore\n        /* \"#utility.yul\":2726:2874   */\n      pop\n      pop\n      pop\n      jump\t// out\n        /* \"#utility.yul\":2880:3303   */\n    tag_57:\n        /* \"#utility.yul\":2957:2962   */\n      0x00\n        /* \"#utility.yul\":2982:3047   */\n      tag_141\n        /* \"#utility.yul\":2998:3046   */\n      tag_142\n        /* \"#utility.yul\":3039:3045   */\n      dup5\n        /* \"#utility.yul\":2998:3046   */\n      tag_55\n      jump\t// in\n    tag_142:\n        /* \"#utility.yul\":2982:3047   */\n      tag_54\n      jump\t// in\n    tag_141:\n        /* \"#utility.yul\":2973:3047   */\n      swap1\n      pop\n        /* \"#utility.yul\":3070:3076   */\n      dup3\n        /* \"#utility.yul\":3063:3068   */\n      dup2\n        /* \"#utility.yul\":3056:3077   */\n      mstore\n        /* \"#utility.yul\":3108:3112   */\n      0x20\n        /* \"#utility.yul\":3101:3106   */\n      dup2\n        /* \"#utility.yul\":3097:3113   */\n      add\n        /* \"#utility.yul\":3146:3149   */\n      dup5\n        /* \"#utility.yul\":3137:3143   */\n      dup5\n        /* \"#utility.yul\":3132:3135   */\n      dup5\n        /* \"#utility.yul\":3128:3144   */\n      add\n        /* \"#utility.yul\":3125:3150   */\n      gt\n        /* \"#utility.yul\":3122:3234   */\n      iszero\n      tag_143\n      jumpi\n        /* \"#utility.yul\":3153:3232   */\n      tag_144\n      tag_51\n      jump\t// in\n    tag_144:\n        /* \"#utility.yul\":3122:3234   */\n    tag_143:\n        /* \"#utility.yul\":3243:3297   */\n      tag_145\n        /* \"#utility.yul\":3290:3296   */\n      dup5\n        /* \"#utility.yul\":3285:3288   */\n      dup3\n        /* \"#utility.yul\":3280:3283   */\n      dup6\n        /* \"#utility.yul\":3243:3297   */\n      tag_56\n      jump\t// in\n    tag_145:\n        /* \"#utility.yul\":2963:3303   */\n      pop\n        /* \"#utility.yul\":2880:3303   */\n      swap4\n      swap3\n      pop\n      pop\n      pop\n      jump\t// out\n        /* \"#utility.yul\":3322:3660   */\n    tag_58:\n        /* \"#utility.yul\":3377:3382   */\n      0x00\n        /* \"#utility.yul\":3426:3429   */\n      dup3\n        /* \"#utility.yul\":3419:3423   */\n      0x1f\n        /* \"#utility.yul\":3411:3417   */\n      dup4\n        /* \"#utility.yul\":3407:3424   */\n      add\n        /* \"#utility.yul\":3403:3430   */\n      slt\n        /* \"#utility.yul\":3393:3515   */\n      tag_147\n      jumpi\n        /* \"#utility.yul\":3434:3513   */\n      tag_148\n      tag_50\n      jump\t// in\n    tag_148:\n        /* \"#utility.yul\":3393:3515   */\n    tag_147:\n        /* \"#utility.yul\":3551:3557   */\n      dup2\n        /* \"#utility.yul\":3538:3558   */\n      calldataload\n        /* \"#utility.yul\":3576:3654   */\n      tag_149\n        /* \"#utility.yul\":3650:3653   */\n      dup5\n        /* \"#utility.yul\":3642:3648   */\n      dup3\n        /* \"#utility.yul\":3635:3639   */\n      0x20\n        /* \"#utility.yul\":3627:3633   */\n      dup7\n        /* \"#utility.yul\":3623:3640   */\n      add\n        /* \"#utility.yul\":3576:3654   */\n      tag_57\n      jump\t// in\n    tag_149:\n        /* \"#utility.yul\":3567:3654   */\n      swap2\n      pop\n        /* \"#utility.yul\":3383:3660   */\n      pop\n        /* \"#utility.yul\":3322:3660   */\n      swap3\n      swap2\n      pop\n      pop\n      jump\t// out\n        /* \"#utility.yul\":3666:4173   */\n    tag_23:\n        /* \"#utility.yul\":3734:3740   */\n      0x00\n        /* \"#utility.yul\":3783:3785   */\n      0x20\n        /* \"#utility.yul\":3771:3780   */\n      dup3\n        /* \"#utility.yul\":3762:3769   */\n      dup5\n        /* \"#utility.yul\":3758:3781   */\n      sub\n        /* \"#utility.yul\":3754:3786   */\n      slt\n        /* \"#utility.yul\":3751:3870   */\n      iszero\n      tag_151\n      jumpi\n        /* \"#utility.yul\":3789:3868   */\n      tag_152\n      tag_48\n      jump\t// in\n    tag_152:\n        /* \"#utility.yul\":3751:3870   */\n    tag_151:\n        /* \"#utility.yul\":3937:3938   */\n      0x00\n        /* \"#utility.yul\":3926:3935   */\n      dup3\n        /* \"#utility.yul\":3922:3939   */\n      add\n        /* \"#utility.yul\":3909:3940   */\n      calldataload\n        /* \"#utility.yul\":3967:3985   */\n      0xffffffffffffffff\n        /* \"#utility.yul\":3959:3965   */\n      dup2\n        /* \"#utility.yul\":3956:3986   */\n      gt\n        /* \"#utility.yul\":3953:4070   */\n      iszero\n      tag_153\n      jumpi\n        /* \"#utility.yul\":3989:4068   */\n      tag_154\n      tag_49\n      jump\t// in\n    tag_154:\n        /* \"#utility.yul\":3953:4070   */\n    tag_153:\n        /* \"#utility.yul\":4094:4156   */\n      tag_155\n        /* \"#utility.yul\":4148:4155   */\n      dup5\n        /* \"#utility.yul\":4139:4145   */\n      dup3\n        /* \"#utility.yul\":4128:4137   */\n      dup6\n        /* \"#utility.yul\":4124:4146   */\n      add\n        /* \"#utility.yul\":4094:4156   */\n      tag_58\n      jump\t// in\n    tag_155:\n        /* \"#utility.yul\":4084:4156   */\n      swap2\n      pop\n        /* \"#utility.yul\":3880:4166   */\n      pop\n        /* \"#utility.yul\":3666:4173   */\n      swap3\n      swap2\n      pop\n      pop\n      jump\t// out\n        /* \"#utility.yul\":4179:4256   */\n    tag_59:\n        /* \"#utility.yul\":4216:4223   */\n      0x00\n        /* \"#utility.yul\":4245:4250   */\n      dup2\n        /* \"#utility.yul\":4234:4250   */\n      swap1\n      pop\n        /* \"#utility.yul\":4179:4256   */\n      swap2\n      swap1\n      pop\n      jump\t// out\n        /* \"#utility.yul\":4262:4380   */\n    tag_60:\n        /* \"#utility.yul\":4349:4373   */\n      tag_158\n        /* \"#utility.yul\":4367:4372   */\n      dup2\n        /* \"#utility.yul\":4349:4373   */\n      tag_59\n      jump\t// in\n    tag_158:\n        /* \"#utility.yul\":4344:4347   */\n      dup3\n        /* \"#utility.yul\":4337:4374   */\n      mstore\n        /* \"#utility.yul\":4262:4380   */\n      pop\n      pop\n      jump\t// out\n        /* \"#utility.yul\":4386:4512   */\n    tag_61:\n        /* \"#utility.yul\":4423:4430   */\n      0x00\n        /* \"#utility.yul\":4463:4505   */\n      0xffffffffffffffffffffffffffffffffffffffff\n        /* \"#utility.yul\":4456:4461   */\n      dup3\n        /* \"#utility.yul\":4452:4506   */\n      and\n        /* \"#utility.yul\":4441:4506   */\n      swap1\n      pop\n        /* \"#utility.yul\":4386:4512   */\n      swap2\n      swap1\n      pop\n      jump\t// out\n        /* \"#utility.yul\":4518:4614   */\n    tag_62:\n        /* \"#utility.yul\":4555:4562   */\n      0x00\n        /* \"#utility.yul\":4584:4608   */\n      tag_161\n        /* \"#utility.yul\":4602:4607   */\n      dup3\n        /* \"#utility.yul\":4584:4608   */\n      tag_61\n      jump\t// in\n    tag_161:\n        /* \"#utility.yul\":4573:4608   */\n      swap1\n      pop\n        /* \"#utility.yul\":4518:4614   */\n      swap2\n      swap1\n      pop\n      jump\t// out\n        /* \"#utility.yul\":4620:4738   */\n    tag_63:\n        /* \"#utility.yul\":4707:4731   */\n      tag_163\n        /* \"#utility.yul\":4725:4730   */\n      dup2\n        /* \"#utility.yul\":4707:4731   */\n      tag_62\n      jump\t// in\n    tag_163:\n        /* \"#utility.yul\":4702:4705   */\n      dup3\n        /* \"#utility.yul\":4695:4732   */\n      mstore\n        /* \"#utility.yul\":4620:4738   */\n      pop\n      pop\n      jump\t// out\n        /* \"#utility.yul\":4744:4843   */\n    tag_64:\n        /* \"#utility.yul\":4796:4802   */\n      0x00\n        /* \"#utility.yul\":4830:4835   */\n      dup2\n        /* \"#utility.yul\":4824:4836   */\n      mload\n        /* \"#utility.yul\":4814:4836   */\n      swap1\n      pop\n        /* \"#utility.yul\":4744:4843   */\n      swap2\n      swap1\n      pop\n      jump\t// out\n        /* \"#utility.yul\":4849:5018   */\n    tag_65:\n        /* \"#utility.yul\":4933:4944   */\n      0x00\n        /* \"#utility.yul\":4967:4973   */\n      dup3\n        /* \"#utility.yul\":4962:4965   */\n      dup3\n        /* \"#utility.yul\":4955:4974   */\n      mstore\n        /* \"#utility.yul\":5007:5011   */\n      0x20\n        /* \"#utility.yul\":5002:5005   */\n      dup3\n        /* \"#utility.yul\":4998:5012   */\n      add\n        /* \"#utility.yul\":4983:5012   */\n      swap1\n      pop\n        /* \"#utility.yul\":4849:5018   */\n      swap3\n      swap2\n      pop\n      pop\n      jump\t// out\n        /* \"#utility.yul\":5024:5401   */\n    tag_66:\n        /* \"#utility.yul\":5112:5115   */\n      0x00\n        /* \"#utility.yul\":5140:5179   */\n      tag_167\n        /* \"#utility.yul\":5173:5178   */\n      dup3\n        /* \"#utility.yul\":5140:5179   */\n      tag_64\n      jump\t// in\n    tag_167:\n        /* \"#utility.yul\":5195:5266   */\n      tag_168\n        /* \"#utility.yul\":5259:5265   */\n      dup2\n        /* \"#utility.yul\":5254:5257   */\n      dup6\n        /* \"#utility.yul\":5195:5266   */\n      tag_65\n      jump\t// in\n    tag_168:\n        /* \"#utility.yul\":5188:5266   */\n      swap4\n      pop\n        /* \"#utility.yul\":5275:5340   */\n      tag_169\n        /* \"#utility.yul\":5333:5339   */\n      dup2\n        /* \"#utility.yul\":5328:5331   */\n      dup6\n        /* \"#utility.yul\":5321:5325   */\n      0x20\n        /* \"#utility.yul\":5314:5319   */\n      dup7\n        /* \"#utility.yul\":5310:5326   */\n      add\n        /* \"#utility.yul\":5275:5340   */\n      tag_44\n      jump\t// in\n    tag_169:\n        /* \"#utility.yul\":5365:5394   */\n      tag_170\n        /* \"#utility.yul\":5387:5393   */\n      dup2\n        /* \"#utility.yul\":5365:5394   */\n      tag_45\n      jump\t// in\n    tag_170:\n        /* \"#utility.yul\":5360:5363   */\n      dup5\n        /* \"#utility.yul\":5356:5395   */\n      add\n        /* \"#utility.yul\":5349:5395   */\n      swap2\n      pop\n        /* \"#utility.yul\":5116:5401   */\n      pop\n        /* \"#utility.yul\":5024:5401   */\n      swap3\n      swap2\n      pop\n      pop\n      jump\t// out\n        /* \"#utility.yul\":5407:5511   */\n    tag_67:\n        /* \"#utility.yul\":5472:5478   */\n      0x00\n        /* \"#utility.yul\":5500:5504   */\n      0x02\n        /* \"#utility.yul\":5490:5504   */\n      swap1\n      pop\n        /* \"#utility.yul\":5407:5511   */\n      swap2\n      swap1\n      pop\n      jump\t// out\n        /* \"#utility.yul\":5517:5660   */\n    tag_68:\n        /* \"#utility.yul\":5614:5625   */\n      0x00\n        /* \"#utility.yul\":5651:5654   */\n      dup2\n        /* \"#utility.yul\":5636:5654   */\n      swap1\n      pop\n        /* \"#utility.yul\":5517:5660   */\n      swap3\n      swap2\n      pop\n      pop\n      jump\t// out\n        /* \"#utility.yul\":5666:5764   */\n    tag_69:\n        /* \"#utility.yul\":5731:5735   */\n      0x00\n        /* \"#utility.yul\":5754:5757   */\n      dup2\n        /* \"#utility.yul\":5746:5757   */\n      swap1\n      pop\n        /* \"#utility.yul\":5666:5764   */\n      swap2\n      swap1\n      pop\n      jump\t// out\n        /* \"#utility.yul\":5770:5878   */\n    tag_70:\n        /* \"#utility.yul\":5847:5871   */\n      tag_175\n        /* \"#utility.yul\":5865:5870   */\n      dup2\n        /* \"#utility.yul\":5847:5871   */\n      tag_59\n      jump\t// in\n    tag_175:\n        /* \"#utility.yul\":5842:5845   */\n      dup3\n        /* \"#utility.yul\":5835:5872   */\n      mstore\n        /* \"#utility.yul\":5770:5878   */\n      pop\n      pop\n      jump\t// out\n        /* \"#utility.yul\":5884:6063   */\n    tag_71:\n        /* \"#utility.yul\":5953:5963   */\n      0x00\n        /* \"#utility.yul\":5974:6020   */\n      tag_177\n        /* \"#utility.yul\":6016:6019   */\n      dup4\n        /* \"#utility.yul\":6008:6014   */\n      dup4\n        /* \"#utility.yul\":5974:6020   */\n      tag_70\n      jump\t// in\n    tag_177:\n        /* \"#utility.yul\":6052:6056   */\n      0x20\n        /* \"#utility.yul\":6047:6050   */\n      dup4\n        /* \"#utility.yul\":6043:6057   */\n      add\n        /* \"#utility.yul\":6029:6057   */\n      swap1\n      pop\n        /* \"#utility.yul\":5884:6063   */\n      swap3\n      swap2\n      pop\n      pop\n      jump\t// out\n        /* \"#utility.yul\":6069:6180   */\n    tag_72:\n        /* \"#utility.yul\":6137:6141   */\n      0x00\n        /* \"#utility.yul\":6169:6173   */\n      0x20\n        /* \"#utility.yul\":6164:6167   */\n      dup3\n        /* \"#utility.yul\":6160:6174   */\n      add\n        /* \"#utility.yul\":6152:6174   */\n      swap1\n      pop\n        /* \"#utility.yul\":6069:6180   */\n      swap2\n      swap1\n      pop\n      jump\t// out\n        /* \"#utility.yul\":6218:6912   */\n    tag_73:\n        /* \"#utility.yul\":6354:6406   */\n      tag_180\n        /* \"#utility.yul\":6400:6405   */\n      dup2\n        /* \"#utility.yul\":6354:6406   */\n      tag_67\n      jump\t// in\n    tag_180:\n        /* \"#utility.yul\":6422:6506   */\n      tag_181\n        /* \"#utility.yul\":6499:6505   */\n      dup2\n        /* \"#utility.yul\":6494:6497   */\n      dup5\n        /* \"#utility.yul\":6422:6506   */\n      tag_68\n      jump\t// in\n    tag_181:\n        /* \"#utility.yul\":6415:6506   */\n      swap3\n      pop\n        /* \"#utility.yul\":6530:6584   */\n      tag_182\n        /* \"#utility.yul\":6578:6583   */\n      dup3\n        /* \"#utility.yul\":6530:6584   */\n      tag_69\n      jump\t// in\n    tag_182:\n        /* \"#utility.yul\":6607:6614   */\n      dup1\n        /* \"#utility.yul\":6638:6639   */\n      0x00\n        /* \"#utility.yul\":6623:6905   */\n    tag_183:\n        /* \"#utility.yul\":6648:6654   */\n      dup4\n        /* \"#utility.yul\":6645:6646   */\n      dup2\n        /* \"#utility.yul\":6642:6655   */\n      lt\n        /* \"#utility.yul\":6623:6905   */\n      iszero\n      tag_185\n      jumpi\n        /* \"#utility.yul\":6724:6730   */\n      dup2\n        /* \"#utility.yul\":6718:6731   */\n      mload\n        /* \"#utility.yul\":6751:6814   */\n      tag_186\n        /* \"#utility.yul\":6810:6813   */\n      dup8\n        /* \"#utility.yul\":6795:6808   */\n      dup3\n        /* \"#utility.yul\":6751:6814   */\n      tag_71\n      jump\t// in\n    tag_186:\n        /* \"#utility.yul\":6744:6814   */\n      swap7\n      pop\n        /* \"#utility.yul\":6837:6895   */\n      tag_187\n        /* \"#utility.yul\":6888:6894   */\n      dup4\n        /* \"#utility.yul\":6837:6895   */\n      tag_72\n      jump\t// in\n    tag_187:\n        /* \"#utility.yul\":6827:6895   */\n      swap3\n      pop\n        /* \"#utility.yul\":6683:6905   */\n      pop\n        /* \"#utility.yul\":6670:6671   */\n      0x01\n        /* \"#utility.yul\":6667:6668   */\n      dup2\n        /* \"#utility.yul\":6663:6672   */\n      add\n        /* \"#utility.yul\":6658:6672   */\n      swap1\n      pop\n        /* \"#utility.yul\":6623:6905   */\n      jump(tag_183)\n    tag_185:\n        /* \"#utility.yul\":6627:6641   */\n      pop\n        /* \"#utility.yul\":6330:6912   */\n      pop\n      pop\n      pop\n        /* \"#utility.yul\":6218:6912   */\n      pop\n      pop\n      jump\t// out\n        /* \"#utility.yul\":6918:7654   */\n    tag_26:\n        /* \"#utility.yul\":7161:7165   */\n      0x00\n        /* \"#utility.yul\":7199:7202   */\n      0xa0\n        /* \"#utility.yul\":7188:7197   */\n      dup3\n        /* \"#utility.yul\":7184:7203   */\n      add\n        /* \"#utility.yul\":7176:7203   */\n      swap1\n      pop\n        /* \"#utility.yul\":7213:7284   */\n      tag_189\n        /* \"#utility.yul\":7281:7282   */\n      0x00\n        /* \"#utility.yul\":7270:7279   */\n      dup4\n        /* \"#utility.yul\":7266:7283   */\n      add\n        /* \"#utility.yul\":7257:7263   */\n      dup8\n        /* \"#utility.yul\":7213:7284   */\n      tag_60\n      jump\t// in\n    tag_189:\n        /* \"#utility.yul\":7294:7366   */\n      tag_190\n        /* \"#utility.yul\":7362:7364   */\n      0x20\n        /* \"#utility.yul\":7351:7360   */\n      dup4\n        /* \"#utility.yul\":7347:7365   */\n      add\n        /* \"#utility.yul\":7338:7344   */\n      dup7\n        /* \"#utility.yul\":7294:7366   */\n      tag_63\n      jump\t// in\n    tag_190:\n        /* \"#utility.yul\":7413:7422   */\n      dup2\n        /* \"#utility.yul\":7407:7411   */\n      dup2\n        /* \"#utility.yul\":7403:7423   */\n      sub\n        /* \"#utility.yul\":7398:7400   */\n      0x40\n        /* \"#utility.yul\":7387:7396   */\n      dup4\n        /* \"#utility.yul\":7383:7401   */\n      add\n        /* \"#utility.yul\":7376:7424   */\n      mstore\n        /* \"#utility.yul\":7441:7519   */\n      tag_191\n        /* \"#utility.yul\":7514:7518   */\n      dup2\n        /* \"#utility.yul\":7505:7511   */\n      dup6\n        /* \"#utility.yul\":7441:7519   */\n      tag_66\n      jump\t// in\n    tag_191:\n        /* \"#utility.yul\":7433:7519   */\n      swap1\n      pop\n        /* \"#utility.yul\":7529:7647   */\n      tag_192\n        /* \"#utility.yul\":7643:7645   */\n      0x60\n        /* \"#utility.yul\":7632:7641   */\n      dup4\n        /* \"#utility.yul\":7628:7646   */\n      add\n        /* \"#utility.yul\":7619:7625   */\n      dup5\n        /* \"#utility.yul\":7529:7647   */\n      tag_73\n      jump\t// in\n    tag_192:\n        /* \"#utility.yul\":6918:7654   */\n      swap6\n      swap5\n      pop\n      pop\n      pop\n      pop\n      pop\n      jump\t// out\n        /* \"#utility.yul\":7660:7739   */\n    tag_74:\n        /* \"#utility.yul\":7699:7706   */\n      0x00\n        /* \"#utility.yul\":7728:7733   */\n      dup2\n        /* \"#utility.yul\":7717:7733   */\n      swap1\n      pop\n        /* \"#utility.yul\":7660:7739   */\n      swap2\n      swap1\n      pop\n      jump\t// out\n        /* \"#utility.yul\":7745:7902   */\n    tag_75:\n        /* \"#utility.yul\":7850:7895   */\n      tag_195\n        /* \"#utility.yul\":7870:7894   */\n      tag_196\n        /* \"#utility.yul\":7888:7893   */\n      dup3\n        /* \"#utility.yul\":7870:7894   */\n      tag_59\n      jump\t// in\n    tag_196:\n        /* \"#utility.yul\":7850:7895   */\n      tag_74\n      jump\t// in\n    tag_195:\n        /* \"#utility.yul\":7845:7848   */\n      dup3\n        /* \"#utility.yul\":7838:7896   */\n      mstore\n        /* \"#utility.yul\":7745:7902   */\n      pop\n      pop\n      jump\t// out\n        /* \"#utility.yul\":7908:8002   */\n    tag_76:\n        /* \"#utility.yul\":7941:7949   */\n      0x00\n        /* \"#utility.yul\":7989:7994   */\n      dup2\n        /* \"#utility.yul\":7985:7987   */\n      0x60\n        /* \"#utility.yul\":7981:7995   */\n      shl\n        /* \"#utility.yul\":7960:7995   */\n      swap1\n      pop\n        /* \"#utility.yul\":7908:8002   */\n      swap2\n      swap1\n      pop\n      jump\t// out\n        /* \"#utility.yul\":8008:8102   */\n    tag_77:\n        /* \"#utility.yul\":8047:8054   */\n      0x00\n        /* \"#utility.yul\":8076:8096   */\n      tag_199\n        /* \"#utility.yul\":8090:8095   */\n      dup3\n        /* \"#utility.yul\":8076:8096   */\n      tag_76\n      jump\t// in\n    tag_199:\n        /* \"#utility.yul\":8065:8096   */\n      swap1\n      pop\n        /* \"#utility.yul\":8008:8102   */\n      swap2\n      swap1\n      pop\n      jump\t// out\n        /* \"#utility.yul\":8108:8208   */\n    tag_78:\n        /* \"#utility.yul\":8147:8154   */\n      0x00\n        /* \"#utility.yul\":8176:8202   */\n      tag_201\n        /* \"#utility.yul\":8196:8201   */\n      dup3\n        /* \"#utility.yul\":8176:8202   */\n      tag_77\n      jump\t// in\n    tag_201:\n        /* \"#utility.yul\":8165:8202   */\n      swap1\n      pop\n        /* \"#utility.yul\":8108:8208   */\n      swap2\n      swap1\n      pop\n      jump\t// out\n        /* \"#utility.yul\":8214:8371   */\n    tag_79:\n        /* \"#utility.yul\":8319:8364   */\n      tag_203\n        /* \"#utility.yul\":8339:8363   */\n      tag_204\n        /* \"#utility.yul\":8357:8362   */\n      dup3\n        /* \"#utility.yul\":8339:8363   */\n      tag_62\n      jump\t// in\n    tag_204:\n        /* \"#utility.yul\":8319:8364   */\n      tag_78\n      jump\t// in\n    tag_203:\n        /* \"#utility.yul\":8314:8317   */\n      dup3\n        /* \"#utility.yul\":8307:8365   */\n      mstore\n        /* \"#utility.yul\":8214:8371   */\n      pop\n      pop\n      jump\t// out\n        /* \"#utility.yul\":8377:8557   */\n    tag_80:\n        /* \"#utility.yul\":8425:8502   */\n      0x4e487b7100000000000000000000000000000000000000000000000000000000\n        /* \"#utility.yul\":8422:8423   */\n      0x00\n        /* \"#utility.yul\":8415:8503   */\n      mstore\n        /* \"#utility.yul\":8522:8526   */\n      0x22\n        /* \"#utility.yul\":8519:8520   */\n      0x04\n        /* \"#utility.yul\":8512:8527   */\n      mstore\n        /* \"#utility.yul\":8546:8550   */\n      0x24\n        /* \"#utility.yul\":8543:8544   */\n      0x00\n        /* \"#utility.yul\":8536:8551   */\n      revert\n        /* \"#utility.yul\":8563:8883   */\n    tag_81:\n        /* \"#utility.yul\":8607:8613   */\n      0x00\n        /* \"#utility.yul\":8644:8645   */\n      0x02\n        /* \"#utility.yul\":8638:8642   */\n      dup3\n        /* \"#utility.yul\":8634:8646   */\n      div\n        /* \"#utility.yul\":8624:8646   */\n      swap1\n      pop\n        /* \"#utility.yul\":8691:8692   */\n      0x01\n        /* \"#utility.yul\":8685:8689   */\n      dup3\n        /* \"#utility.yul\":8681:8693   */\n      and\n        /* \"#utility.yul\":8712:8730   */\n      dup1\n        /* \"#utility.yul\":8702:8783   */\n      tag_207\n      jumpi\n        /* \"#utility.yul\":8768:8772   */\n      0x7f\n        /* \"#utility.yul\":8760:8766   */\n      dup3\n        /* \"#utility.yul\":8756:8773   */\n      and\n        /* \"#utility.yul\":8746:8773   */\n      swap2\n      pop\n        /* \"#utility.yul\":8702:8783   */\n    tag_207:\n        /* \"#utility.yul\":8830:8832   */\n      0x20\n        /* \"#utility.yul\":8822:8828   */\n      dup3\n        /* \"#utility.yul\":8819:8833   */\n      lt\n        /* \"#utility.yul\":8799:8817   */\n      dup2\n        /* \"#utility.yul\":8796:8834   */\n      sub\n        /* \"#utility.yul\":8793:8877   */\n      tag_208\n      jumpi\n        /* \"#utility.yul\":8849:8867   */\n      tag_209\n      tag_80\n      jump\t// in\n    tag_209:\n        /* \"#utility.yul\":8793:8877   */\n    tag_208:\n        /* \"#utility.yul\":8614:8883   */\n      pop\n        /* \"#utility.yul\":8563:8883   */\n      swap2\n      swap1\n      pop\n      jump\t// out\n        /* \"#utility.yul\":8889:9037   */\n    tag_82:\n        /* \"#utility.yul\":8991:9002   */\n      0x00\n        /* \"#utility.yul\":9028:9031   */\n      dup2\n        /* \"#utility.yul\":9013:9031   */\n      swap1\n      pop\n        /* \"#utility.yul\":8889:9037   */\n      swap3\n      swap2\n      pop\n      pop\n      jump\t// out\n        /* \"#utility.yul\":9043:9184   */\n    tag_83:\n        /* \"#utility.yul\":9092:9096   */\n      0x00\n        /* \"#utility.yul\":9115:9118   */\n      dup2\n        /* \"#utility.yul\":9107:9118   */\n      swap1\n      pop\n        /* \"#utility.yul\":9138:9141   */\n      dup2\n        /* \"#utility.yul\":9135:9136   */\n      0x00\n        /* \"#utility.yul\":9128:9142   */\n      mstore\n        /* \"#utility.yul\":9172:9176   */\n      0x20\n        /* \"#utility.yul\":9169:9170   */\n      0x00\n        /* \"#utility.yul\":9159:9177   */\n      keccak256\n        /* \"#utility.yul\":9151:9177   */\n      swap1\n      pop\n        /* \"#utility.yul\":9043:9184   */\n      swap2\n      swap1\n      pop\n      jump\t// out\n        /* \"#utility.yul\":9214:10088   */\n    tag_84:\n        /* \"#utility.yul\":9317:9320   */\n      0x00\n        /* \"#utility.yul\":9354:9359   */\n      dup2\n        /* \"#utility.yul\":9348:9360   */\n      sload\n        /* \"#utility.yul\":9383:9419   */\n      tag_213\n        /* \"#utility.yul\":9409:9418   */\n      dup2\n        /* \"#utility.yul\":9383:9419   */\n      tag_81\n      jump\t// in\n    tag_213:\n        /* \"#utility.yul\":9435:9524   */\n      tag_214\n        /* \"#utility.yul\":9517:9523   */\n      dup2\n        /* \"#utility.yul\":9512:9515   */\n      dup7\n        /* \"#utility.yul\":9435:9524   */\n      tag_82\n      jump\t// in\n    tag_214:\n        /* \"#utility.yul\":9428:9524   */\n      swap5\n      pop\n        /* \"#utility.yul\":9555:9556   */\n      0x01\n        /* \"#utility.yul\":9544:9553   */\n      dup3\n        /* \"#utility.yul\":9540:9557   */\n      and\n        /* \"#utility.yul\":9571:9572   */\n      0x00\n        /* \"#utility.yul\":9566:9732   */\n      dup2\n      eq\n      tag_216\n      jumpi\n        /* \"#utility.yul\":9746:9747   */\n      0x01\n        /* \"#utility.yul\":9741:10082   */\n      dup2\n      eq\n      tag_217\n      jumpi\n        /* \"#utility.yul\":9533:10082   */\n      jump(tag_215)\n        /* \"#utility.yul\":9566:9732   */\n    tag_216:\n        /* \"#utility.yul\":9650:9654   */\n      0xff\n        /* \"#utility.yul\":9646:9655   */\n      not\n        /* \"#utility.yul\":9635:9644   */\n      dup4\n        /* \"#utility.yul\":9631:9656   */\n      and\n        /* \"#utility.yul\":9626:9629   */\n      dup7\n        /* \"#utility.yul\":9619:9657   */\n      mstore\n        /* \"#utility.yul\":9712:9718   */\n      dup2\n        /* \"#utility.yul\":9705:9719   */\n      iszero\n        /* \"#utility.yul\":9698:9720   */\n      iszero\n        /* \"#utility.yul\":9690:9696   */\n      dup3\n        /* \"#utility.yul\":9686:9721   */\n      mul\n        /* \"#utility.yul\":9681:9684   */\n      dup7\n        /* \"#utility.yul\":9677:9722   */\n      add\n        /* \"#utility.yul\":9670:9722   */\n      swap4\n      pop\n        /* \"#utility.yul\":9566:9732   */\n      jump(tag_215)\n        /* \"#utility.yul\":9741:10082   */\n    tag_217:\n        /* \"#utility.yul\":9808:9846   */\n      tag_218\n        /* \"#utility.yul\":9840:9845   */\n      dup6\n        /* \"#utility.yul\":9808:9846   */\n      tag_83\n      jump\t// in\n    tag_218:\n        /* \"#utility.yul\":9868:9869   */\n      0x00\n        /* \"#utility.yul\":9882:10036   */\n    tag_219:\n        /* \"#utility.yul\":9896:9902   */\n      dup4\n        /* \"#utility.yul\":9893:9894   */\n      dup2\n        /* \"#utility.yul\":9890:9903   */\n      lt\n        /* \"#utility.yul\":9882:10036   */\n      iszero\n      tag_221\n      jumpi\n        /* \"#utility.yul\":9970:9977   */\n      dup2\n        /* \"#utility.yul\":9964:9978   */\n      sload\n        /* \"#utility.yul\":9960:9961   */\n      dup2\n        /* \"#utility.yul\":9955:9958   */\n      dup10\n        /* \"#utility.yul\":9951:9962   */\n      add\n        /* \"#utility.yul\":9944:9979   */\n      mstore\n        /* \"#utility.yul\":10020:10021   */\n      0x01\n        /* \"#utility.yul\":10011:10018   */\n      dup3\n        /* \"#utility.yul\":10007:10022   */\n      add\n        /* \"#utility.yul\":9996:10022   */\n      swap2\n      pop\n        /* \"#utility.yul\":9918:9922   */\n      0x20\n        /* \"#utility.yul\":9915:9916   */\n      dup2\n        /* \"#utility.yul\":9911:9923   */\n      add\n        /* \"#utility.yul\":9906:9923   */\n      swap1\n      pop\n        /* \"#utility.yul\":9882:10036   */\n      jump(tag_219)\n    tag_221:\n        /* \"#utility.yul\":10065:10071   */\n      dup4\n        /* \"#utility.yul\":10060:10063   */\n      dup9\n        /* \"#utility.yul\":10056:10072   */\n      add\n        /* \"#utility.yul\":10049:10072   */\n      swap6\n      pop\n        /* \"#utility.yul\":9748:10082   */\n      pop\n      pop\n        /* \"#utility.yul\":9533:10082   */\n    tag_215:\n      pop\n        /* \"#utility.yul\":9321:10088   */\n      pop\n      pop\n        /* \"#utility.yul\":9214:10088   */\n      swap3\n      swap2\n      pop\n      pop\n      jump\t// out\n        /* \"#utility.yul\":10094:10195   */\n    tag_85:\n        /* \"#utility.yul\":10156:10162   */\n      0x00\n        /* \"#utility.yul\":10184:10188   */\n      0x02\n        /* \"#utility.yul\":10174:10188   */\n      swap1\n      pop\n        /* \"#utility.yul\":10094:10195   */\n      swap2\n      swap1\n      pop\n      jump\t// out\n        /* \"#utility.yul\":10201:10362   */\n    tag_86:\n        /* \"#utility.yul\":10316:10327   */\n      0x00\n        /* \"#utility.yul\":10353:10356   */\n      dup2\n        /* \"#utility.yul\":10338:10356   */\n      swap1\n      pop\n        /* \"#utility.yul\":10201:10362   */\n      swap3\n      swap2\n      pop\n      pop\n      jump\t// out\n        /* \"#utility.yul\":10368:10463   */\n    tag_87:\n        /* \"#utility.yul\":10430:10434   */\n      0x00\n        /* \"#utility.yul\":10453:10456   */\n      dup2\n        /* \"#utility.yul\":10445:10456   */\n      swap1\n      pop\n        /* \"#utility.yul\":10368:10463   */\n      swap2\n      swap1\n      pop\n      jump\t// out\n        /* \"#utility.yul\":10469:10585   */\n    tag_88:\n        /* \"#utility.yul\":10554:10578   */\n      tag_226\n        /* \"#utility.yul\":10572:10577   */\n      dup2\n        /* \"#utility.yul\":10554:10578   */\n      tag_59\n      jump\t// in\n    tag_226:\n        /* \"#utility.yul\":10549:10552   */\n      dup3\n        /* \"#utility.yul\":10542:10579   */\n      mstore\n        /* \"#utility.yul\":10469:10585   */\n      pop\n      pop\n      jump\t// out\n        /* \"#utility.yul\":10591:10786   */\n    tag_89:\n        /* \"#utility.yul\":10668:10678   */\n      0x00\n        /* \"#utility.yul\":10689:10743   */\n      tag_228\n        /* \"#utility.yul\":10739:10742   */\n      dup4\n        /* \"#utility.yul\":10731:10737   */\n      dup4\n        /* \"#utility.yul\":10689:10743   */\n      tag_88\n      jump\t// in\n    tag_228:\n        /* \"#utility.yul\":10775:10779   */\n      0x20\n        /* \"#utility.yul\":10770:10773   */\n      dup4\n        /* \"#utility.yul\":10766:10780   */\n      add\n        /* \"#utility.yul\":10752:10780   */\n      swap1\n      pop\n        /* \"#utility.yul\":10591:10786   */\n      swap3\n      swap2\n      pop\n      pop\n      jump\t// out\n        /* \"#utility.yul\":10792:10894   */\n    tag_90:\n        /* \"#utility.yul\":10834:10842   */\n      0x00\n        /* \"#utility.yul\":10881:10886   */\n      dup2\n        /* \"#utility.yul\":10878:10879   */\n      0x00\n        /* \"#utility.yul\":10874:10887   */\n      shr\n        /* \"#utility.yul\":10853:10887   */\n      swap1\n      pop\n        /* \"#utility.yul\":10792:10894   */\n      swap2\n      swap1\n      pop\n      jump\t// out\n        /* \"#utility.yul\":10900:10990   */\n    tag_91:\n        /* \"#utility.yul\":10950:10957   */\n      0x00\n        /* \"#utility.yul\":10979:10984   */\n      dup2\n        /* \"#utility.yul\":10968:10984   */\n      swap1\n      pop\n        /* \"#utility.yul\":10900:10990   */\n      swap2\n      swap1\n      pop\n      jump\t// out\n        /* \"#utility.yul\":10996:11162   */\n    tag_92:\n        /* \"#utility.yul\":11065:11070   */\n      0x00\n        /* \"#utility.yul\":11090:11156   */\n      tag_232\n        /* \"#utility.yul\":11121:11155   */\n      tag_233\n        /* \"#utility.yul\":11144:11154   */\n      dup4\n        /* \"#utility.yul\":11121:11155   */\n      tag_90\n      jump\t// in\n    tag_233:\n        /* \"#utility.yul\":11090:11156   */\n      tag_91\n      jump\t// in\n    tag_232:\n        /* \"#utility.yul\":11081:11156   */\n      swap1\n      pop\n        /* \"#utility.yul\":10996:11162   */\n      swap2\n      swap1\n      pop\n      jump\t// out\n        /* \"#utility.yul\":11168:11312   */\n    tag_93:\n        /* \"#utility.yul\":11223:11228   */\n      0x00\n        /* \"#utility.yul\":11248:11305   */\n      tag_235\n        /* \"#utility.yul\":11299:11303   */\n      dup3\n        /* \"#utility.yul\":11293:11304   */\n      sload\n        /* \"#utility.yul\":11248:11305   */\n      tag_92\n      jump\t// in\n    tag_235:\n        /* \"#utility.yul\":11239:11305   */\n      swap1\n      pop\n        /* \"#utility.yul\":11168:11312   */\n      swap2\n      swap1\n      pop\n      jump\t// out\n        /* \"#utility.yul\":11318:11426   */\n    tag_94:\n        /* \"#utility.yul\":11383:11387   */\n      0x00\n        /* \"#utility.yul\":11415:11419   */\n      0x01\n        /* \"#utility.yul\":11410:11413   */\n      dup3\n        /* \"#utility.yul\":11406:11420   */\n      add\n        /* \"#utility.yul\":11398:11420   */\n      swap1\n      pop\n        /* \"#utility.yul\":11318:11426   */\n      swap2\n      swap1\n      pop\n      jump\t// out\n        /* \"#utility.yul\":11464:12221   */\n    tag_95:\n        /* \"#utility.yul\":11615:11664   */\n      tag_238\n        /* \"#utility.yul\":11658:11663   */\n      dup2\n        /* \"#utility.yul\":11615:11664   */\n      tag_85\n      jump\t// in\n    tag_238:\n        /* \"#utility.yul\":11680:11782   */\n      tag_239\n        /* \"#utility.yul\":11775:11781   */\n      dup2\n        /* \"#utility.yul\":11770:11773   */\n      dup5\n        /* \"#utility.yul\":11680:11782   */\n      tag_86\n      jump\t// in\n    tag_239:\n        /* \"#utility.yul\":11673:11782   */\n      swap3\n      pop\n        /* \"#utility.yul\":11806:11857   */\n      tag_240\n        /* \"#utility.yul\":11851:11856   */\n      dup3\n        /* \"#utility.yul\":11806:11857   */\n      tag_87\n      jump\t// in\n    tag_240:\n        /* \"#utility.yul\":11880:11887   */\n      dup1\n        /* \"#utility.yul\":11911:11912   */\n      0x00\n        /* \"#utility.yul\":11896:12214   */\n    tag_241:\n        /* \"#utility.yul\":11921:11927   */\n      dup4\n        /* \"#utility.yul\":11918:11919   */\n      dup2\n        /* \"#utility.yul\":11915:11928   */\n      lt\n        /* \"#utility.yul\":11896:12214   */\n      iszero\n      tag_243\n      jumpi\n        /* \"#utility.yul\":11991:12035   */\n      tag_244\n        /* \"#utility.yul\":12028:12034   */\n      dup3\n        /* \"#utility.yul\":11991:12035   */\n      tag_93\n      jump\t// in\n    tag_244:\n        /* \"#utility.yul\":12055:12126   */\n      tag_245\n        /* \"#utility.yul\":12122:12125   */\n      dup8\n        /* \"#utility.yul\":12107:12120   */\n      dup3\n        /* \"#utility.yul\":12055:12126   */\n      tag_89\n      jump\t// in\n    tag_245:\n        /* \"#utility.yul\":12048:12126   */\n      swap7\n      pop\n        /* \"#utility.yul\":12149:12204   */\n      tag_246\n        /* \"#utility.yul\":12197:12203   */\n      dup4\n        /* \"#utility.yul\":12149:12204   */\n      tag_94\n      jump\t// in\n    tag_246:\n        /* \"#utility.yul\":12139:12204   */\n      swap3\n      pop\n        /* \"#utility.yul\":11956:12214   */\n      pop\n        /* \"#utility.yul\":11943:11944   */\n      0x01\n        /* \"#utility.yul\":11940:11941   */\n      dup2\n        /* \"#utility.yul\":11936:11945   */\n      add\n        /* \"#utility.yul\":11931:11945   */\n      swap1\n      pop\n        /* \"#utility.yul\":11896:12214   */\n      jump(tag_241)\n    tag_243:\n        /* \"#utility.yul\":11900:11914   */\n      pop\n        /* \"#utility.yul\":11591:12221   */\n      pop\n      pop\n      pop\n        /* \"#utility.yul\":11464:12221   */\n      pop\n      pop\n      jump\t// out\n        /* \"#utility.yul\":12227:13005   */\n    tag_29:\n        /* \"#utility.yul\":12483:12486   */\n      0x00\n        /* \"#utility.yul\":12498:12573   */\n      tag_248\n        /* \"#utility.yul\":12569:12572   */\n      dup3\n        /* \"#utility.yul\":12560:12566   */\n      dup8\n        /* \"#utility.yul\":12498:12573   */\n      tag_75\n      jump\t// in\n    tag_248:\n        /* \"#utility.yul\":12598:12600   */\n      0x20\n        /* \"#utility.yul\":12593:12596   */\n      dup3\n        /* \"#utility.yul\":12589:12601   */\n      add\n        /* \"#utility.yul\":12582:12601   */\n      swap2\n      pop\n        /* \"#utility.yul\":12611:12686   */\n      tag_249\n        /* \"#utility.yul\":12682:12685   */\n      dup3\n        /* \"#utility.yul\":12673:12679   */\n      dup7\n        /* \"#utility.yul\":12611:12686   */\n      tag_79\n      jump\t// in\n    tag_249:\n        /* \"#utility.yul\":12711:12713   */\n      0x14\n        /* \"#utility.yul\":12706:12709   */\n      dup3\n        /* \"#utility.yul\":12702:12714   */\n      add\n        /* \"#utility.yul\":12695:12714   */\n      swap2\n      pop\n        /* \"#utility.yul\":12731:12823   */\n      tag_250\n        /* \"#utility.yul\":12819:12822   */\n      dup3\n        /* \"#utility.yul\":12810:12816   */\n      dup6\n        /* \"#utility.yul\":12731:12823   */\n      tag_84\n      jump\t// in\n    tag_250:\n        /* \"#utility.yul\":12724:12823   */\n      swap2\n      pop\n        /* \"#utility.yul\":12833:12951   */\n      tag_251\n        /* \"#utility.yul\":12947:12950   */\n      dup3\n        /* \"#utility.yul\":12938:12944   */\n      dup5\n        /* \"#utility.yul\":12833:12951   */\n      tag_95\n      jump\t// in\n    tag_251:\n        /* \"#utility.yul\":12976:12978   */\n      0x40\n        /* \"#utility.yul\":12971:12974   */\n      dup3\n        /* \"#utility.yul\":12967:12979   */\n      add\n        /* \"#utility.yul\":12960:12979   */\n      swap2\n      pop\n        /* \"#utility.yul\":12996:12999   */\n      dup2\n        /* \"#utility.yul\":12989:12999   */\n      swap1\n      pop\n        /* \"#utility.yul\":12227:13005   */\n      swap6\n      swap5\n      pop\n      pop\n      pop\n      pop\n      pop\n      jump\t// out\n        /* \"#utility.yul\":13035:13866   */\n    tag_96:\n        /* \"#utility.yul\":13120:13123   */\n      0x00\n        /* \"#utility.yul\":13157:13162   */\n      dup2\n        /* \"#utility.yul\":13151:13163   */\n      sload\n        /* \"#utility.yul\":13186:13222   */\n      tag_253\n        /* \"#utility.yul\":13212:13221   */\n      dup2\n        /* \"#utility.yul\":13186:13222   */\n      tag_81\n      jump\t// in\n    tag_253:\n        /* \"#utility.yul\":13238:13309   */\n      tag_254\n        /* \"#utility.yul\":13302:13308   */\n      dup2\n        /* \"#utility.yul\":13297:13300   */\n      dup7\n        /* \"#utility.yul\":13238:13309   */\n      tag_65\n      jump\t// in\n    tag_254:\n        /* \"#utility.yul\":13231:13309   */\n      swap5\n      pop\n        /* \"#utility.yul\":13340:13341   */\n      0x01\n        /* \"#utility.yul\":13329:13338   */\n      dup3\n        /* \"#utility.yul\":13325:13342   */\n      and\n        /* \"#utility.yul\":13356:13357   */\n      0x00\n        /* \"#utility.yul\":13351:13515   */\n      dup2\n      eq\n      tag_256\n      jumpi\n        /* \"#utility.yul\":13529:13530   */\n      0x01\n        /* \"#utility.yul\":13524:13860   */\n      dup2\n      eq\n      tag_257\n      jumpi\n        /* \"#utility.yul\":13318:13860   */\n      jump(tag_255)\n        /* \"#utility.yul\":13351:13515   */\n    tag_256:\n        /* \"#utility.yul\":13435:13439   */\n      0xff\n        /* \"#utility.yul\":13431:13440   */\n      not\n        /* \"#utility.yul\":13420:13429   */\n      dup4\n        /* \"#utility.yul\":13416:13441   */\n      and\n        /* \"#utility.yul\":13411:13414   */\n      dup7\n        /* \"#utility.yul\":13404:13442   */\n      mstore\n        /* \"#utility.yul\":13495:13501   */\n      dup2\n        /* \"#utility.yul\":13488:13502   */\n      iszero\n        /* \"#utility.yul\":13481:13503   */\n      iszero\n        /* \"#utility.yul\":13475:13479   */\n      0x20\n        /* \"#utility.yul\":13471:13504   */\n      mul\n        /* \"#utility.yul\":13466:13469   */\n      dup7\n        /* \"#utility.yul\":13462:13505   */\n      add\n        /* \"#utility.yul\":13455:13505   */\n      swap4\n      pop\n        /* \"#utility.yul\":13351:13515   */\n      jump(tag_255)\n        /* \"#utility.yul\":13524:13860   */\n    tag_257:\n        /* \"#utility.yul\":13591:13629   */\n      tag_258\n        /* \"#utility.yul\":13623:13628   */\n      dup6\n        /* \"#utility.yul\":13591:13629   */\n      tag_83\n      jump\t// in\n    tag_258:\n        /* \"#utility.yul\":13651:13652   */\n      0x00\n        /* \"#utility.yul\":13665:13819   */\n    tag_259:\n        /* \"#utility.yul\":13679:13685   */\n      dup4\n        /* \"#utility.yul\":13676:13677   */\n      dup2\n        /* \"#utility.yul\":13673:13686   */\n      lt\n        /* \"#utility.yul\":13665:13819   */\n      iszero\n      tag_261\n      jumpi\n        /* \"#utility.yul\":13753:13760   */\n      dup2\n        /* \"#utility.yul\":13747:13761   */\n      sload\n        /* \"#utility.yul\":13743:13744   */\n      dup2\n        /* \"#utility.yul\":13738:13741   */\n      dup10\n        /* \"#utility.yul\":13734:13745   */\n      add\n        /* \"#utility.yul\":13727:13762   */\n      mstore\n        /* \"#utility.yul\":13803:13804   */\n      0x01\n        /* \"#utility.yul\":13794:13801   */\n      dup3\n        /* \"#utility.yul\":13790:13805   */\n      add\n        /* \"#utility.yul\":13779:13805   */\n      swap2\n      pop\n        /* \"#utility.yul\":13701:13705   */\n      0x20\n        /* \"#utility.yul\":13698:13699   */\n      dup2\n        /* \"#utility.yul\":13694:13706   */\n      add\n        /* \"#utility.yul\":13689:13706   */\n      swap1\n      pop\n        /* \"#utility.yul\":13665:13819   */\n      jump(tag_259)\n    tag_261:\n        /* \"#utility.yul\":13848:13849   */\n      dup1\n        /* \"#utility.yul\":13843:13846   */\n      dup9\n        /* \"#utility.yul\":13839:13850   */\n      add\n        /* \"#utility.yul\":13832:13850   */\n      swap6\n      pop\n        /* \"#utility.yul\":13531:13860   */\n      pop\n      pop\n        /* \"#utility.yul\":13318:13860   */\n    tag_255:\n      pop\n        /* \"#utility.yul\":13124:13866   */\n      pop\n      pop\n        /* \"#utility.yul\":13035:13866   */\n      swap3\n      swap2\n      pop\n      pop\n      jump\t// out\n        /* \"#utility.yul\":13904:14617   */\n    tag_97:\n        /* \"#utility.yul\":14037:14086   */\n      tag_263\n        /* \"#utility.yul\":14080:14085   */\n      dup2\n        /* \"#utility.yul\":14037:14086   */\n      tag_85\n      jump\t// in\n    tag_263:\n        /* \"#utility.yul\":14102:14186   */\n      tag_264\n        /* \"#utility.yul\":14179:14185   */\n      dup2\n        /* \"#utility.yul\":14174:14177   */\n      dup5\n        /* \"#utility.yul\":14102:14186   */\n      tag_68\n      jump\t// in\n    tag_264:\n        /* \"#utility.yul\":14095:14186   */\n      swap3\n      pop\n        /* \"#utility.yul\":14210:14261   */\n      tag_265\n        /* \"#utility.yul\":14255:14260   */\n      dup3\n        /* \"#utility.yul\":14210:14261   */\n      tag_87\n      jump\t// in\n    tag_265:\n        /* \"#utility.yul\":14284:14291   */\n      dup1\n        /* \"#utility.yul\":14315:14316   */\n      0x00\n        /* \"#utility.yul\":14300:14610   */\n    tag_266:\n        /* \"#utility.yul\":14325:14331   */\n      dup4\n        /* \"#utility.yul\":14322:14323   */\n      dup2\n        /* \"#utility.yul\":14319:14332   */\n      lt\n        /* \"#utility.yul\":14300:14610   */\n      iszero\n      tag_268\n      jumpi\n        /* \"#utility.yul\":14395:14439   */\n      tag_269\n        /* \"#utility.yul\":14432:14438   */\n      dup3\n        /* \"#utility.yul\":14395:14439   */\n      tag_93\n      jump\t// in\n    tag_269:\n        /* \"#utility.yul\":14459:14522   */\n      tag_270\n        /* \"#utility.yul\":14518:14521   */\n      dup8\n        /* \"#utility.yul\":14503:14516   */\n      dup3\n        /* \"#utility.yul\":14459:14522   */\n      tag_71\n      jump\t// in\n    tag_270:\n        /* \"#utility.yul\":14452:14522   */\n      swap7\n      pop\n        /* \"#utility.yul\":14545:14600   */\n      tag_271\n        /* \"#utility.yul\":14593:14599   */\n      dup4\n        /* \"#utility.yul\":14545:14600   */\n      tag_94\n      jump\t// in\n    tag_271:\n        /* \"#utility.yul\":14535:14600   */\n      swap3\n      pop\n        /* \"#utility.yul\":14360:14610   */\n      pop\n        /* \"#utility.yul\":14347:14348   */\n      0x01\n        /* \"#utility.yul\":14344:14345   */\n      dup2\n        /* \"#utility.yul\":14340:14349   */\n      add\n        /* \"#utility.yul\":14335:14349   */\n      swap1\n      pop\n        /* \"#utility.yul\":14300:14610   */\n      jump(tag_266)\n    tag_268:\n        /* \"#utility.yul\":14304:14318   */\n      pop\n        /* \"#utility.yul\":14013:14617   */\n      pop\n      pop\n      pop\n        /* \"#utility.yul\":13904:14617   */\n      pop\n      pop\n      jump\t// out\n        /* \"#utility.yul\":14623:15347   */\n    tag_32:\n        /* \"#utility.yul\":14860:14864   */\n      0x00\n        /* \"#utility.yul\":14898:14901   */\n      0xa0\n        /* \"#utility.yul\":14887:14896   */\n      dup3\n        /* \"#utility.yul\":14883:14902   */\n      add\n        /* \"#utility.yul\":14875:14902   */\n      swap1\n      pop\n        /* \"#utility.yul\":14912:14983   */\n      tag_273\n        /* \"#utility.yul\":14980:14981   */\n      0x00\n        /* \"#utility.yul\":14969:14978   */\n      dup4\n        /* \"#utility.yul\":14965:14982   */\n      add\n        /* \"#utility.yul\":14956:14962   */\n      dup8\n        /* \"#utility.yul\":14912:14983   */\n      tag_60\n      jump\t// in\n    tag_273:\n        /* \"#utility.yul\":14993:15065   */\n      tag_274\n        /* \"#utility.yul\":15061:15063   */\n      0x20\n        /* \"#utility.yul\":15050:15059   */\n      dup4\n        /* \"#utility.yul\":15046:15064   */\n      add\n        /* \"#utility.yul\":15037:15043   */\n      dup7\n        /* \"#utility.yul\":14993:15065   */\n      tag_63\n      jump\t// in\n    tag_274:\n        /* \"#utility.yul\":15112:15121   */\n      dup2\n        /* \"#utility.yul\":15106:15110   */\n      dup2\n        /* \"#utility.yul\":15102:15122   */\n      sub\n        /* \"#utility.yul\":15097:15099   */\n      0x40\n        /* \"#utility.yul\":15086:15095   */\n      dup4\n        /* \"#utility.yul\":15082:15100   */\n      add\n        /* \"#utility.yul\":15075:15123   */\n      mstore\n        /* \"#utility.yul\":15140:15215   */\n      tag_275\n        /* \"#utility.yul\":15210:15214   */\n      dup2\n        /* \"#utility.yul\":15201:15207   */\n      dup6\n        /* \"#utility.yul\":15140:15215   */\n      tag_96\n      jump\t// in\n    tag_275:\n        /* \"#utility.yul\":15132:15215   */\n      swap1\n      pop\n        /* \"#utility.yul\":15225:15340   */\n      tag_276\n        /* \"#utility.yul\":15336:15338   */\n      0x60\n        /* \"#utility.yul\":15325:15334   */\n      dup4\n        /* \"#utility.yul\":15321:15339   */\n      add\n        /* \"#utility.yul\":15312:15318   */\n      dup5\n        /* \"#utility.yul\":15225:15340   */\n      tag_97\n      jump\t// in\n    tag_276:\n        /* \"#utility.yul\":14623:15347   */\n      swap6\n      swap5\n      pop\n      pop\n      pop\n      pop\n      pop\n      jump\t// out\n        /* \"#utility.yul\":15353:15475   */\n    tag_98:\n        /* \"#utility.yul\":15426:15450   */\n      tag_278\n        /* \"#utility.yul\":15444:15449   */\n      dup2\n        /* \"#utility.yul\":15426:15450   */\n      tag_59\n      jump\t// in\n    tag_278:\n        /* \"#utility.yul\":15419:15424   */\n      dup2\n        /* \"#utility.yul\":15416:15451   */\n      eq\n        /* \"#utility.yul\":15406:15469   */\n      tag_279\n      jumpi\n        /* \"#utility.yul\":15465:15466   */\n      0x00\n        /* \"#utility.yul\":15462:15463   */\n      dup1\n        /* \"#utility.yul\":15455:15467   */\n      revert\n        /* \"#utility.yul\":15406:15469   */\n    tag_279:\n        /* \"#utility.yul\":15353:15475   */\n      pop\n      jump\t// out\n        /* \"#utility.yul\":15481:15624   */\n    tag_99:\n        /* \"#utility.yul\":15538:15543   */\n      0x00\n        /* \"#utility.yul\":15569:15575   */\n      dup2\n        /* \"#utility.yul\":15563:15576   */\n      mload\n        /* \"#utility.yul\":15554:15576   */\n      swap1\n      pop\n        /* \"#utility.yul\":15585:15618   */\n      tag_281\n        /* \"#utility.yul\":15612:15617   */\n      dup2\n        /* \"#utility.yul\":15585:15618   */\n      tag_98\n      jump\t// in\n    tag_281:\n        /* \"#utility.yul\":15481:15624   */\n      swap3\n      swap2\n      pop\n      pop\n      jump\t// out\n        /* \"#utility.yul\":15630:15734   */\n    tag_100:\n        /* \"#utility.yul\":15675:15682   */\n      0x00\n        /* \"#utility.yul\":15704:15728   */\n      tag_283\n        /* \"#utility.yul\":15722:15727   */\n      dup3\n        /* \"#utility.yul\":15704:15728   */\n      tag_61\n      jump\t// in\n    tag_283:\n        /* \"#utility.yul\":15693:15728   */\n      swap1\n      pop\n        /* \"#utility.yul\":15630:15734   */\n      swap2\n      swap1\n      pop\n      jump\t// out\n        /* \"#utility.yul\":15740:15878   */\n    tag_101:\n        /* \"#utility.yul\":15821:15853   */\n      tag_285\n        /* \"#utility.yul\":15847:15852   */\n      dup2\n        /* \"#utility.yul\":15821:15853   */\n      tag_100\n      jump\t// in\n    tag_285:\n        /* \"#utility.yul\":15814:15819   */\n      dup2\n        /* \"#utility.yul\":15811:15854   */\n      eq\n        /* \"#utility.yul\":15801:15872   */\n      tag_286\n      jumpi\n        /* \"#utility.yul\":15868:15869   */\n      0x00\n        /* \"#utility.yul\":15865:15866   */\n      dup1\n        /* \"#utility.yul\":15858:15870   */\n      revert\n        /* \"#utility.yul\":15801:15872   */\n    tag_286:\n        /* \"#utility.yul\":15740:15878   */\n      pop\n      jump\t// out\n        /* \"#utility.yul\":15884:16043   */\n    tag_102:\n        /* \"#utility.yul\":15949:15954   */\n      0x00\n        /* \"#utility.yul\":15980:15986   */\n      dup2\n        /* \"#utility.yul\":15974:15987   */\n      mload\n        /* \"#utility.yul\":15965:15987   */\n      swap1\n      pop\n        /* \"#utility.yul\":15996:16037   */\n      tag_288\n        /* \"#utility.yul\":16031:16036   */\n      dup2\n        /* \"#utility.yul\":15996:16037   */\n      tag_101\n      jump\t// in\n    tag_288:\n        /* \"#utility.yul\":15884:16043   */\n      swap3\n      swap2\n      pop\n      pop\n      jump\t// out\n        /* \"#utility.yul\":16049:16357   */\n    tag_103:\n        /* \"#utility.yul\":16111:16115   */\n      0x00\n        /* \"#utility.yul\":16201:16219   */\n      0xffffffffffffffff\n        /* \"#utility.yul\":16193:16199   */\n      dup3\n        /* \"#utility.yul\":16190:16220   */\n      gt\n        /* \"#utility.yul\":16187:16243   */\n      iszero\n      tag_290\n      jumpi\n        /* \"#utility.yul\":16223:16241   */\n      tag_291\n      tag_52\n      jump\t// in\n    tag_291:\n        /* \"#utility.yul\":16187:16243   */\n    tag_290:\n        /* \"#utility.yul\":16261:16290   */\n      tag_292\n        /* \"#utility.yul\":16283:16289   */\n      dup3\n        /* \"#utility.yul\":16261:16290   */\n      tag_45\n      jump\t// in\n    tag_292:\n        /* \"#utility.yul\":16253:16290   */\n      swap1\n      pop\n        /* \"#utility.yul\":16345:16349   */\n      0x20\n        /* \"#utility.yul\":16339:16343   */\n      dup2\n        /* \"#utility.yul\":16335:16350   */\n      add\n        /* \"#utility.yul\":16327:16350   */\n      swap1\n      pop\n        /* \"#utility.yul\":16049:16357   */\n      swap2\n      swap1\n      pop\n      jump\t// out\n        /* \"#utility.yul\":16363:16797   */\n    tag_104:\n        /* \"#utility.yul\":16452:16457   */\n      0x00\n        /* \"#utility.yul\":16477:16543   */\n      tag_294\n        /* \"#utility.yul\":16493:16542   */\n      tag_295\n        /* \"#utility.yul\":16535:16541   */\n      dup5\n        /* \"#utility.yul\":16493:16542   */\n      tag_103\n      jump\t// in\n    tag_295:\n        /* \"#utility.yul\":16477:16543   */\n      tag_54\n      jump\t// in\n    tag_294:\n        /* \"#utility.yul\":16468:16543   */\n      swap1\n      pop\n        /* \"#utility.yul\":16566:16572   */\n      dup3\n        /* \"#utility.yul\":16559:16564   */\n      dup2\n        /* \"#utility.yul\":16552:16573   */\n      mstore\n        /* \"#utility.yul\":16604:16608   */\n      0x20\n        /* \"#utility.yul\":16597:16602   */\n      dup2\n        /* \"#utility.yul\":16593:16609   */\n      add\n        /* \"#utility.yul\":16642:16645   */\n      dup5\n        /* \"#utility.yul\":16633:16639   */\n      dup5\n        /* \"#utility.yul\":16628:16631   */\n      dup5\n        /* \"#utility.yul\":16624:16640   */\n      add\n        /* \"#utility.yul\":16621:16646   */\n      gt\n        /* \"#utility.yul\":16618:16730   */\n      iszero\n      tag_296\n      jumpi\n        /* \"#utility.yul\":16649:16728   */\n      tag_297\n      tag_51\n      jump\t// in\n    tag_297:\n        /* \"#utility.yul\":16618:16730   */\n    tag_296:\n        /* \"#utility.yul\":16739:16791   */\n      tag_298\n        /* \"#utility.yul\":16784:16790   */\n      dup5\n        /* \"#utility.yul\":16779:16782   */\n      dup3\n        /* \"#utility.yul\":16774:16777   */\n      dup6\n        /* \"#utility.yul\":16739:16791   */\n      tag_44\n      jump\t// in\n    tag_298:\n        /* \"#utility.yul\":16458:16797   */\n      pop\n        /* \"#utility.yul\":16363:16797   */\n      swap4\n      swap3\n      pop\n      pop\n      pop\n      jump\t// out\n        /* \"#utility.yul\":16817:17172   */\n    tag_105:\n        /* \"#utility.yul\":16884:16889   */\n      0x00\n        /* \"#utility.yul\":16933:16936   */\n      dup3\n        /* \"#utility.yul\":16926:16930   */\n      0x1f\n        /* \"#utility.yul\":16918:16924   */\n      dup4\n        /* \"#utility.yul\":16914:16931   */\n      add\n        /* \"#utility.yul\":16910:16937   */\n      slt\n        /* \"#utility.yul\":16900:17022   */\n      tag_300\n      jumpi\n        /* \"#utility.yul\":16941:17020   */\n      tag_301\n      tag_50\n      jump\t// in\n    tag_301:\n        /* \"#utility.yul\":16900:17022   */\n    tag_300:\n        /* \"#utility.yul\":17051:17057   */\n      dup2\n        /* \"#utility.yul\":17045:17058   */\n      mload\n        /* \"#utility.yul\":17076:17166   */\n      tag_302\n        /* \"#utility.yul\":17162:17165   */\n      dup5\n        /* \"#utility.yul\":17154:17160   */\n      dup3\n        /* \"#utility.yul\":17147:17151   */\n      0x20\n        /* \"#utility.yul\":17139:17145   */\n      dup7\n        /* \"#utility.yul\":17135:17152   */\n      add\n        /* \"#utility.yul\":17076:17166   */\n      tag_104\n      jump\t// in\n    tag_302:\n        /* \"#utility.yul\":17067:17166   */\n      swap2\n      pop\n        /* \"#utility.yul\":16890:17172   */\n      pop\n        /* \"#utility.yul\":16817:17172   */\n      swap3\n      swap2\n      pop\n      pop\n      jump\t// out\n        /* \"#utility.yul\":17178:17427   */\n    tag_106:\n        /* \"#utility.yul\":17253:17257   */\n      0x00\n        /* \"#utility.yul\":17343:17361   */\n      0xffffffffffffffff\n        /* \"#utility.yul\":17335:17341   */\n      dup3\n        /* \"#utility.yul\":17332:17362   */\n      gt\n        /* \"#utility.yul\":17329:17385   */\n      iszero\n      tag_304\n      jumpi\n        /* \"#utility.yul\":17365:17383   */\n      tag_305\n      tag_52\n      jump\t// in\n    tag_305:\n        /* \"#utility.yul\":17329:17385   */\n    tag_304:\n        /* \"#utility.yul\":17415:17419   */\n      0x20\n        /* \"#utility.yul\":17407:17413   */\n      dup3\n        /* \"#utility.yul\":17403:17420   */\n      mul\n        /* \"#utility.yul\":17395:17420   */\n      swap1\n      pop\n        /* \"#utility.yul\":17178:17427   */\n      swap2\n      swap1\n      pop\n      jump\t// out\n        /* \"#utility.yul\":17433:17550   */\n    tag_107:\n        /* \"#utility.yul\":17542:17543   */\n      0x00\n        /* \"#utility.yul\":17539:17540   */\n      dup1\n        /* \"#utility.yul\":17532:17544   */\n      revert\n        /* \"#utility.yul\":17574:18239   */\n    tag_108:\n        /* \"#utility.yul\":17679:17684   */\n      0x00\n        /* \"#utility.yul\":17704:17783   */\n      tag_308\n        /* \"#utility.yul\":17720:17782   */\n      tag_309\n        /* \"#utility.yul\":17775:17781   */\n      dup5\n        /* \"#utility.yul\":17720:17782   */\n      tag_106\n      jump\t// in\n    tag_309:\n        /* \"#utility.yul\":17704:17783   */\n      tag_54\n      jump\t// in\n    tag_308:\n        /* \"#utility.yul\":17695:17783   */\n      swap1\n      pop\n        /* \"#utility.yul\":17803:17808   */\n      dup1\n        /* \"#utility.yul\":17856:17860   */\n      0x20\n        /* \"#utility.yul\":17848:17854   */\n      dup5\n        /* \"#utility.yul\":17844:17861   */\n      mul\n        /* \"#utility.yul\":17836:17842   */\n      dup4\n        /* \"#utility.yul\":17832:17862   */\n      add\n        /* \"#utility.yul\":17885:17888   */\n      dup6\n        /* \"#utility.yul\":17877:17883   */\n      dup2\n        /* \"#utility.yul\":17874:17889   */\n      gt\n        /* \"#utility.yul\":17871:17993   */\n      iszero\n      tag_310\n      jumpi\n        /* \"#utility.yul\":17904:17983   */\n      tag_311\n      tag_107\n      jump\t// in\n    tag_311:\n        /* \"#utility.yul\":17871:17993   */\n    tag_310:\n        /* \"#utility.yul\":18019:18025   */\n      dup4\n        /* \"#utility.yul\":18002:18233   */\n    tag_312:\n        /* \"#utility.yul\":18036:18042   */\n      dup2\n        /* \"#utility.yul\":18031:18034   */\n      dup2\n        /* \"#utility.yul\":18028:18043   */\n      lt\n        /* \"#utility.yul\":18002:18233   */\n      iszero\n      tag_314\n      jumpi\n        /* \"#utility.yul\":18111:18114   */\n      dup1\n        /* \"#utility.yul\":18140:18188   */\n      tag_315\n        /* \"#utility.yul\":18184:18187   */\n      dup9\n        /* \"#utility.yul\":18172:18182   */\n      dup3\n        /* \"#utility.yul\":18140:18188   */\n      tag_99\n      jump\t// in\n    tag_315:\n        /* \"#utility.yul\":18135:18138   */\n      dup5\n        /* \"#utility.yul\":18128:18189   */\n      mstore\n        /* \"#utility.yul\":18218:18222   */\n      0x20\n        /* \"#utility.yul\":18213:18216   */\n      dup5\n        /* \"#utility.yul\":18209:18223   */\n      add\n        /* \"#utility.yul\":18202:18223   */\n      swap4\n      pop\n        /* \"#utility.yul\":18078:18233   */\n      pop\n        /* \"#utility.yul\":18062:18066   */\n      0x20\n        /* \"#utility.yul\":18057:18060   */\n      dup2\n        /* \"#utility.yul\":18053:18067   */\n      add\n        /* \"#utility.yul\":18046:18067   */\n      swap1\n      pop\n        /* \"#utility.yul\":18002:18233   */\n      jump(tag_312)\n    tag_314:\n        /* \"#utility.yul\":18006:18027   */\n      pop\n        /* \"#utility.yul\":17685:18239   */\n      pop\n      pop\n        /* \"#utility.yul\":17574:18239   */\n      swap4\n      swap3\n      pop\n      pop\n      pop\n      jump\t// out\n        /* \"#utility.yul\":18263:18624   */\n    tag_109:\n        /* \"#utility.yul\":18343:18348   */\n      0x00\n        /* \"#utility.yul\":18392:18395   */\n      dup3\n        /* \"#utility.yul\":18385:18389   */\n      0x1f\n        /* \"#utility.yul\":18377:18383   */\n      dup4\n        /* \"#utility.yul\":18373:18390   */\n      add\n        /* \"#utility.yul\":18369:18396   */\n      slt\n        /* \"#utility.yul\":18359:18481   */\n      tag_317\n      jumpi\n        /* \"#utility.yul\":18400:18479   */\n      tag_318\n      tag_50\n      jump\t// in\n    tag_318:\n        /* \"#utility.yul\":18359:18481   */\n    tag_317:\n        /* \"#utility.yul\":18504:18508   */\n      0x02\n        /* \"#utility.yul\":18526:18618   */\n      tag_319\n        /* \"#utility.yul\":18614:18617   */\n      dup5\n        /* \"#utility.yul\":18606:18612   */\n      dup3\n        /* \"#utility.yul\":18598:18604   */\n      dup6\n        /* \"#utility.yul\":18526:18618   */\n      tag_108\n      jump\t// in\n    tag_319:\n        /* \"#utility.yul\":18517:18618   */\n      swap2\n      pop\n        /* \"#utility.yul\":18349:18624   */\n      pop\n        /* \"#utility.yul\":18263:18624   */\n      swap3\n      swap2\n      pop\n      pop\n      jump\t// out\n        /* \"#utility.yul\":18630:19685   */\n    tag_41:\n        /* \"#utility.yul\":18768:18774   */\n      0x00\n        /* \"#utility.yul\":18776:18782   */\n      dup1\n        /* \"#utility.yul\":18784:18790   */\n      0x00\n        /* \"#utility.yul\":18792:18798   */\n      dup1\n        /* \"#utility.yul\":18841:18844   */\n      0xa0\n        /* \"#utility.yul\":18829:18838   */\n      dup6\n        /* \"#utility.yul\":18820:18827   */\n      dup8\n        /* \"#utility.yul\":18816:18839   */\n      sub\n        /* \"#utility.yul\":18812:18845   */\n      slt\n        /* \"#utility.yul\":18809:18929   */\n      iszero\n      tag_321\n      jumpi\n        /* \"#utility.yul\":18848:18927   */\n      tag_322\n      tag_48\n      jump\t// in\n    tag_322:\n        /* \"#utility.yul\":18809:18929   */\n    tag_321:\n        /* \"#utility.yul\":18968:18969   */\n      0x00\n        /* \"#utility.yul\":18993:19057   */\n      tag_323\n        /* \"#utility.yul\":19049:19056   */\n      dup8\n        /* \"#utility.yul\":19040:19046   */\n      dup3\n        /* \"#utility.yul\":19029:19038   */\n      dup9\n        /* \"#utility.yul\":19025:19047   */\n      add\n        /* \"#utility.yul\":18993:19057   */\n      tag_99\n      jump\t// in\n    tag_323:\n        /* \"#utility.yul\":18983:19057   */\n      swap5\n      pop\n        /* \"#utility.yul\":18939:19067   */\n      pop\n        /* \"#utility.yul\":19106:19108   */\n      0x20\n        /* \"#utility.yul\":19132:19204   */\n      tag_324\n        /* \"#utility.yul\":19196:19203   */\n      dup8\n        /* \"#utility.yul\":19187:19193   */\n      dup3\n        /* \"#utility.yul\":19176:19185   */\n      dup9\n        /* \"#utility.yul\":19172:19194   */\n      add\n        /* \"#utility.yul\":19132:19204   */\n      tag_102\n      jump\t// in\n    tag_324:\n        /* \"#utility.yul\":19122:19204   */\n      swap4\n      pop\n        /* \"#utility.yul\":19077:19214   */\n      pop\n        /* \"#utility.yul\":19274:19276   */\n      0x40\n        /* \"#utility.yul\":19263:19272   */\n      dup6\n        /* \"#utility.yul\":19259:19277   */\n      add\n        /* \"#utility.yul\":19253:19278   */\n      mload\n        /* \"#utility.yul\":19305:19323   */\n      0xffffffffffffffff\n        /* \"#utility.yul\":19297:19303   */\n      dup2\n        /* \"#utility.yul\":19294:19324   */\n      gt\n        /* \"#utility.yul\":19291:19408   */\n      iszero\n      tag_325\n      jumpi\n        /* \"#utility.yul\":19327:19406   */\n      tag_326\n      tag_49\n      jump\t// in\n    tag_326:\n        /* \"#utility.yul\":19291:19408   */\n    tag_325:\n        /* \"#utility.yul\":19432:19506   */\n      tag_327\n        /* \"#utility.yul\":19498:19505   */\n      dup8\n        /* \"#utility.yul\":19489:19495   */\n      dup3\n        /* \"#utility.yul\":19478:19487   */\n      dup9\n        /* \"#utility.yul\":19474:19496   */\n      add\n        /* \"#utility.yul\":19432:19506   */\n      tag_105\n      jump\t// in\n    tag_327:\n        /* \"#utility.yul\":19422:19506   */\n      swap3\n      pop\n        /* \"#utility.yul\":19224:19516   */\n      pop\n        /* \"#utility.yul\":19555:19557   */\n      0x60\n        /* \"#utility.yul\":19581:19668   */\n      tag_328\n        /* \"#utility.yul\":19660:19667   */\n      dup8\n        /* \"#utility.yul\":19651:19657   */\n      dup3\n        /* \"#utility.yul\":19640:19649   */\n      dup9\n        /* \"#utility.yul\":19636:19658   */\n      add\n        /* \"#utility.yul\":19581:19668   */\n      tag_109\n      jump\t// in\n    tag_328:\n        /* \"#utility.yul\":19571:19668   */\n      swap2\n      pop\n        /* \"#utility.yul\":19526:19678   */\n      pop\n        /* \"#utility.yul\":18630:19685   */\n      swap3\n      swap6\n      swap2\n      swap5\n      pop\n      swap3\n      pop\n      jump\t// out\n\n    auxdata: 0xa2646970667358221220111b04075aa4668b2c0a4979f9ba7226cd003a34b6f6d95dc92963370ed1c88764736f6c634300081a0033\n}\n",
				"bytecode": {
					"linkReferences": {},
					"object": "6080604052600a5f55737a58c0be72be218b41c608b7fe7c5bb630736c7160015f6101000a81548173ffffffffffffffffffffffffffffffffffffffff021916908373ffffffffffffffffffffffffffffffffffffffff1602179055506040518060400160405280600481526020017f3078414100000000000000000000000000000000000000000000000000000000815250600290816100a0919061037a565b506040518060400160405280600560ff168152602001600660ff1681525060039060026100ce9291906100e0565b503480156100da575f80fd5b50610449565b8260028101928215610114579160200282015b82811115610113578251829060ff169055916020019190600101906100f3565b5b5090506101219190610125565b5090565b5b8082111561013c575f815f905550600101610126565b5090565b5f81519050919050565b7f4e487b71000000000000000000000000000000000000000000000000000000005f52604160045260245ffd5b7f4e487b71000000000000000000000000000000000000000000000000000000005f52602260045260245ffd5b5f60028204905060018216806101bb57607f821691505b6020821081036101ce576101cd610177565b5b50919050565b5f819050815f5260205f209050919050565b5f6020601f8301049050919050565b5f82821b905092915050565b5f600883026102307fffffffffffffffffffffffffffffffffffffffffffffffffffffffffffffffff826101f5565b61023a86836101f5565b95508019841693508086168417925050509392505050565b5f819050919050565b5f819050919050565b5f61027e61027961027484610252565b61025b565b610252565b9050919050565b5f819050919050565b61029783610264565b6102ab6102a382610285565b848454610201565b825550505050565b5f90565b6102bf6102b3565b6102ca81848461028e565b505050565b5b818110156102ed576102e25f826102b7565b6001810190506102d0565b5050565b601f82111561033257610303816101d4565b61030c846101e6565b8101602085101561031b578190505b61032f610327856101e6565b8301826102cf565b50505b505050565b5f82821c905092915050565b5f6103525f1984600802610337565b1980831691505092915050565b5f61036a8383610343565b9150826002028217905092915050565b61038382610140565b67ffffffffffffffff81111561039c5761039b61014a565b5b6103a682546101a4565b6103b18282856102f1565b5f60209050601f8311600181146103e2575f84156103d0578287015190505b6103da858261035f565b865550610441565b601f1984166103f0866101d4565b5f5b82811015610417578489015182556001820191506020850194506020810190506103f2565b868310156104345784890151610430601f891682610343565b8355505b6001600288020188555050505b505050505050565b610d4f806104565f395ff3fe608060405234801561000f575f80fd5b5060043610610055575f3560e01c806353d9c50614610059578063bd14598f14610077578063d1bd363d14610095578063e4f2a84a146100b3578063e5c5e9a3146100d1575b5f80fd5b610061610104565b60405161006e91906103ee565b60405180910390f35b61007f610155565b60405161008c91906103ee565b60405180910390f35b61009d6101a6565b6040516100aa91906103ee565b60405180910390f35b6100bb610266565b6040516100c891906103ee565b60405180910390f35b6100eb60048036038101906100e6919061054b565b610325565b6040516100fb94939291906106e0565b60405180910390f35b60605f5460015f9054906101000a900473ffffffffffffffffffffffffffffffffffffffff16600260036040516020016101419493929190610973565b604051602081830303815290604052905090565b60605f5460015f9054906101000a900473ffffffffffffffffffffffffffffffffffffffff16600260036040516020016101929493929190610a9a565b604051602081830303815290604052905090565b60607fe87082f1450a46f8f3150d7bda55bda41a2b08d68abde6797ccc68be305673355f5460015f9054906101000a900473ffffffffffffffffffffffffffffffffffffffff16600260036040516024016102049493929190610a9a565b604051602081830303815290604052907bffffffffffffffffffffffffffffffffffffffffffffffffffffffff19166020820180517bffffffffffffffffffffffffffffffffffffffffffffffffffffffff8381831617835250505050905090565b60605f5460015f9054906101000a900473ffffffffffffffffffffffffffffffffffffffff16600260036040516024016102a39493929190610a9a565b6040516020818303038152906040527fe87082f1000000000000000000000000000000000000000000000000000000007bffffffffffffffffffffffffffffffffffffffffffffffffffffffff19166020820180517bffffffffffffffffffffffffffffffffffffffffffffffffffffffff8381831617835250505050905090565b5f80606061033161035c565b848060200190518101906103459190610c99565b809450819550829650839750505050509193509193565b6040518060400160405280600290602082028036833780820191505090505090565b5f81519050919050565b5f82825260208201905092915050565b8281835e5f83830152505050565b5f601f19601f8301169050919050565b5f6103c08261037e565b6103ca8185610388565b93506103da818560208601610398565b6103e3816103a6565b840191505092915050565b5f6020820190508181035f83015261040681846103b6565b905092915050565b5f604051905090565b5f80fd5b5f80fd5b5f80fd5b5f80fd5b7f4e487b71000000000000000000000000000000000000000000000000000000005f52604160045260245ffd5b61045d826103a6565b810181811067ffffffffffffffff8211171561047c5761047b610427565b5b80604052505050565b5f61048e61040e565b905061049a8282610454565b919050565b5f67ffffffffffffffff8211156104b9576104b8610427565b5b6104c2826103a6565b9050602081019050919050565b828183375f83830152505050565b5f6104ef6104ea8461049f565b610485565b90508281526020810184848401111561050b5761050a610423565b5b6105168482856104cf565b509392505050565b5f82601f8301126105325761053161041f565b5b81356105428482602086016104dd565b91505092915050565b5f602082840312156105605761055f610417565b5b5f82013567ffffffffffffffff81111561057d5761057c61041b565b5b6105898482850161051e565b91505092915050565b5f819050919050565b6105a481610592565b82525050565b5f73ffffffffffffffffffffffffffffffffffffffff82169050919050565b5f6105d3826105aa565b9050919050565b6105e3816105c9565b82525050565b5f81519050919050565b5f82825260208201905092915050565b5f61060d826105e9565b61061781856105f3565b9350610627818560208601610398565b610630816103a6565b840191505092915050565b5f60029050919050565b5f81905092915050565b5f819050919050565b61066181610592565b82525050565b5f6106728383610658565b60208301905092915050565b5f602082019050919050565b6106938161063b565b61069d8184610645565b92506106a88261064f565b805f5b838110156106d85781516106bf8782610667565b96506106ca8361067e565b9250506001810190506106ab565b505050505050565b5f60a0820190506106f35f83018761059b565b61070060208301866105da565b81810360408301526107128185610603565b9050610721606083018461068a565b95945050505050565b5f819050919050565b61074461073f82610592565b61072a565b82525050565b5f8160601b9050919050565b5f6107608261074a565b9050919050565b5f61077182610756565b9050919050565b610789610784826105c9565b610767565b82525050565b7f4e487b71000000000000000000000000000000000000000000000000000000005f52602260045260245ffd5b5f60028204905060018216806107d357607f821691505b6020821081036107e6576107e561078f565b5b50919050565b5f81905092915050565b5f819050815f5260205f209050919050565b5f8154610814816107bc565b61081e81866107ec565b9450600182165f8114610838576001811461084d5761087f565b60ff198316865281151582028601935061087f565b610856856107f6565b5f5b8381101561087757815481890152600182019150602081019050610858565b838801955050505b50505092915050565b5f60029050919050565b5f81905092915050565b5f819050919050565b6108ae81610592565b82525050565b5f6108bf83836108a5565b60208301905092915050565b5f815f1c9050919050565b5f819050919050565b5f6108f16108ec836108cb565b6108d6565b9050919050565b5f61090382546108df565b9050919050565b5f600182019050919050565b61091f81610888565b6109298184610892565b92506109348261089c565b805f5b8381101561096b57610948826108f8565b61095287826108b4565b965061095d8361090a565b925050600181019050610937565b505050505050565b5f61097e8287610733565b60208201915061098e8286610778565b60148201915061099e8285610808565b91506109aa8284610916565b60408201915081905095945050505050565b5f81546109c8816107bc565b6109d281866105f3565b9450600182165f81146109ec5760018114610a0257610a34565b60ff198316865281151560200286019350610a34565b610a0b856107f6565b5f5b83811015610a2c57815481890152600182019150602081019050610a0d565b808801955050505b50505092915050565b610a4681610888565b610a508184610645565b9250610a5b8261089c565b805f5b83811015610a9257610a6f826108f8565b610a798782610667565b9650610a848361090a565b925050600181019050610a5e565b505050505050565b5f60a082019050610aad5f83018761059b565b610aba60208301866105da565b8181036040830152610acc81856109bc565b9050610adb6060830184610a3d565b95945050505050565b610aed81610592565b8114610af7575f80fd5b50565b5f81519050610b0881610ae4565b92915050565b5f610b18826105aa565b9050919050565b610b2881610b0e565b8114610b32575f80fd5b50565b5f81519050610b4381610b1f565b92915050565b5f67ffffffffffffffff821115610b6357610b62610427565b5b610b6c826103a6565b9050602081019050919050565b5f610b8b610b8684610b49565b610485565b905082815260208101848484011115610ba757610ba6610423565b5b610bb2848285610398565b509392505050565b5f82601f830112610bce57610bcd61041f565b5b8151610bde848260208601610b79565b91505092915050565b5f67ffffffffffffffff821115610c0157610c00610427565b5b602082029050919050565b5f80fd5b5f610c22610c1d84610be7565b610485565b90508060208402830185811115610c3c57610c3b610c0c565b5b835b81811015610c655780610c518882610afa565b845260208401935050602081019050610c3e565b5050509392505050565b5f82601f830112610c8357610c8261041f565b5b6002610c90848285610c10565b91505092915050565b5f805f8060a08587031215610cb157610cb0610417565b5b5f610cbe87828801610afa565b9450506020610ccf87828801610b35565b935050604085015167ffffffffffffffff811115610cf057610cef61041b565b5b610cfc87828801610bba565b9250506060610d0d87828801610c6f565b9150509295919450925056fea2646970667358221220111b04075aa4668b2c0a4979f9ba7226cd003a34b6f6d95dc92963370ed1c88764736f6c634300081a0033",
					"opcodes": "PUSH1 0x80 PUSH1 0x40 MSTORE PUSH1 0xA PUSH0 SSTORE PUSH20 0x7A58C0BE72BE218B41C608B7FE7C5BB630736C71 PUSH1 0x1 PUSH0 PUSH2 0x100 EXP DUP2 SLOAD DUP2 PUSH20 0xFFFFFFFFFFFFFFFFFFFFFFFFFFFFFFFFFFFFFFFF MUL NOT AND SWAP1 DUP4 PUSH20 0xFFFFFFFFFFFFFFFFFFFFFFFFFFFFFFFFFFFFFFFF AND MUL OR SWAP1 SSTORE POP PUSH1 0x40 MLOAD DUP1 PUSH1 0x40 ADD PUSH1 0x40 MSTORE DUP1 PUSH1 0x4 DUP2 MSTORE PUSH1 0x20 ADD PUSH32 0x3078414100000000000000000000000000000000000000000000000000000000 DUP2 MSTORE POP PUSH1 0x2 SWAP1 DUP2 PUSH2 0xA0 SWAP2 SWAP1 PUSH2 0x37A JUMP JUMPDEST POP PUSH1 0x40 MLOAD DUP1 PUSH1 0x40 ADD PUSH1 0x40 MSTORE DUP1 PUSH1 0x5 PUSH1 0xFF AND DUP2 MSTORE PUSH1 0x20 ADD PUSH1 0x6 PUSH1 0xFF AND DUP2 MSTORE POP PUSH1 0x3 SWAP1 PUSH1 0x2 PUSH2 0xCE SWAP3 SWAP2 SWAP1 PUSH2 0xE0 JUMP JUMPDEST POP CALLVALUE DUP1 ISZERO PUSH2 0xDA JUMPI PUSH0 DUP1 REVERT JUMPDEST POP PUSH2 0x449 JUMP JUMPDEST DUP3 PUSH1 0x2 DUP2 ADD SWAP3 DUP3 ISZERO PUSH2 0x114 JUMPI SWAP2 PUSH1 0x20 MUL DUP3 ADD JUMPDEST DUP3 DUP2 GT ISZERO PUSH2 0x113 JUMPI DUP3 MLOAD DUP3 SWAP1 PUSH1 0xFF AND SWAP1 SSTORE SWAP2 PUSH1 0x20 ADD SWAP2 SWAP1 PUSH1 0x1 ADD SWAP1 PUSH2 0xF3 JUMP JUMPDEST JUMPDEST POP SWAP1 POP PUSH2 0x121 SWAP2 SWAP1 PUSH2 0x125 JUMP JUMPDEST POP SWAP1 JUMP JUMPDEST JUMPDEST DUP1 DUP3 GT ISZERO PUSH2 0x13C JUMPI PUSH0 DUP2 PUSH0 SWAP1 SSTORE POP PUSH1 0x1 ADD PUSH2 0x126 JUMP JUMPDEST POP SWAP1 JUMP JUMPDEST PUSH0 DUP2 MLOAD SWAP1 POP SWAP2 SWAP1 POP JUMP JUMPDEST PUSH32 0x4E487B7100000000000000000000000000000000000000000000000000000000 PUSH0 MSTORE PUSH1 0x41 PUSH1 0x4 MSTORE PUSH1 0x24 PUSH0 REVERT JUMPDEST PUSH32 0x4E487B7100000000000000000000000000000000000000000000000000000000 PUSH0 MSTORE PUSH1 0x22 PUSH1 0x4 MSTORE PUSH1 0x24 PUSH0 REVERT JUMPDEST PUSH0 PUSH1 0x2 DUP3 DIV SWAP1 POP PUSH1 0x1 DUP3 AND DUP1 PUSH2 0x1BB JUMPI PUSH1 0x7F DUP3 AND SWAP2 POP JUMPDEST PUSH1 0x20 DUP3 LT DUP2 SUB PUSH2 0x1CE JUMPI PUSH2 0x1CD PUSH2 0x177 JUMP JUMPDEST JUMPDEST POP SWAP2 SWAP1 POP JUMP JUMPDEST PUSH0 DUP2 SWAP1 POP DUP2 PUSH0 MSTORE PUSH1 0x20 PUSH0 KECCAK256 SWAP1 POP SWAP2 SWAP1 POP JUMP JUMPDEST PUSH0 PUSH1 0x20 PUSH1 0x1F DUP4 ADD DIV SWAP1 POP SWAP2 SWAP1 POP JUMP JUMPDEST PUSH0 DUP3 DUP3 SHL SWAP1 POP SWAP3 SWAP2 POP POP JUMP JUMPDEST PUSH0 PUSH1 0x8 DUP4 MUL PUSH2 0x230 PUSH32 0xFFFFFFFFFFFFFFFFFFFFFFFFFFFFFFFFFFFFFFFFFFFFFFFFFFFFFFFFFFFFFFFF DUP3 PUSH2 0x1F5 JUMP JUMPDEST PUSH2 0x23A DUP7 DUP4 PUSH2 0x1F5 JUMP JUMPDEST SWAP6 POP DUP1 NOT DUP5 AND SWAP4 POP DUP1 DUP7 AND DUP5 OR SWAP3 POP POP POP SWAP4 SWAP3 POP POP POP JUMP JUMPDEST PUSH0 DUP2 SWAP1 POP SWAP2 SWAP1 POP JUMP JUMPDEST PUSH0 DUP2 SWAP1 POP SWAP2 SWAP1 POP JUMP JUMPDEST PUSH0 PUSH2 0x27E PUSH2 0x279 PUSH2 0x274 DUP5 PUSH2 0x252 JUMP JUMPDEST PUSH2 0x25B JUMP JUMPDEST PUSH2 0x252 JUMP JUMPDEST SWAP1 POP SWAP2 SWAP1 POP JUMP JUMPDEST PUSH0 DUP2 SWAP1 POP SWAP2 SWAP1 POP JUMP JUMPDEST PUSH2 0x297 DUP4 PUSH2 0x264 JUMP JUMPDEST PUSH2 0x2AB PUSH2 0x2A3 DUP3 PUSH2 0x285 JUMP JUMPDEST DUP5 DUP5 SLOAD PUSH2 0x201 JUMP JUMPDEST DUP3 SSTORE POP POP POP POP JUMP JUMPDEST PUSH0 SWAP1 JUMP JUMPDEST PUSH2 0x2BF PUSH2 0x2B3 JUMP JUMPDEST PUSH2 0x2CA DUP2 DUP5 DUP5 PUSH2 0x28E JUMP JUMPDEST POP POP POP JUMP JUMPDEST JUMPDEST DUP2 DUP2 LT ISZERO PUSH2 0x2ED JUMPI PUSH2 0x2E2 PUSH0 DUP3 PUSH2 0x2B7 JUMP JUMPDEST PUSH1 0x1 DUP2 ADD SWAP1 POP PUSH2 0x2D0 JUMP JUMPDEST POP POP JUMP JUMPDEST PUSH1 0x1F DUP3 GT ISZERO PUSH2 0x332 JUMPI PUSH2 0x303 DUP2 PUSH2 0x1D4 JUMP JUMPDEST PUSH2 0x30C DUP5 PUSH2 0x1E6 JUMP JUMPDEST DUP2 ADD PUSH1 0x20 DUP6 LT ISZERO PUSH2 0x31B JUMPI DUP2 SWAP1 POP JUMPDEST PUSH2 0x32F PUSH2 0x327 DUP6 PUSH2 0x1E6 JUMP JUMPDEST DUP4 ADD DUP3 PUSH2 0x2CF JUMP JUMPDEST POP POP JUMPDEST POP POP POP JUMP JUMPDEST PUSH0 DUP3 DUP3 SHR SWAP1 POP SWAP3 SWAP2 POP POP JUMP JUMPDEST PUSH0 PUSH2 0x352 PUSH0 NOT DUP5 PUSH1 0x8 MUL PUSH2 0x337 JUMP JUMPDEST NOT DUP1 DUP4 AND SWAP2 POP POP SWAP3 SWAP2 POP POP JUMP JUMPDEST PUSH0 PUSH2 0x36A DUP4 DUP4 PUSH2 0x343 JUMP JUMPDEST SWAP2 POP DUP3 PUSH1 0x2 MUL DUP3 OR SWAP1 POP SWAP3 SWAP2 POP POP JUMP JUMPDEST PUSH2 0x383 DUP3 PUSH2 0x140 JUMP JUMPDEST PUSH8 0xFFFFFFFFFFFFFFFF DUP2 GT ISZERO PUSH2 0x39C JUMPI PUSH2 0x39B PUSH2 0x14A JUMP JUMPDEST JUMPDEST PUSH2 0x3A6 DUP3 SLOAD PUSH2 0x1A4 JUMP JUMPDEST PUSH2 0x3B1 DUP3 DUP3 DUP6 PUSH2 0x2F1 JUMP JUMPDEST PUSH0 PUSH1 0x20 SWAP1 POP PUSH1 0x1F DUP4 GT PUSH1 0x1 DUP2 EQ PUSH2 0x3E2 JUMPI PUSH0 DUP5 ISZERO PUSH2 0x3D0 JUMPI DUP3 DUP8 ADD MLOAD SWAP1 POP JUMPDEST PUSH2 0x3DA DUP6 DUP3 PUSH2 0x35F JUMP JUMPDEST DUP7 SSTORE POP PUSH2 0x441 JUMP JUMPDEST PUSH1 0x1F NOT DUP5 AND PUSH2 0x3F0 DUP7 PUSH2 0x1D4 JUMP JUMPDEST PUSH0 JUMPDEST DUP3 DUP2 LT ISZERO PUSH2 0x417 JUMPI DUP5 DUP10 ADD MLOAD DUP3 SSTORE PUSH1 0x1 DUP3 ADD SWAP2 POP PUSH1 0x20 DUP6 ADD SWAP5 POP PUSH1 0x20 DUP2 ADD SWAP1 POP PUSH2 0x3F2 JUMP JUMPDEST DUP7 DUP4 LT ISZERO PUSH2 0x434 JUMPI DUP5 DUP10 ADD MLOAD PUSH2 0x430 PUSH1 0x1F DUP10 AND DUP3 PUSH2 0x343 JUMP JUMPDEST DUP4 SSTORE POP JUMPDEST PUSH1 0x1 PUSH1 0x2 DUP9 MUL ADD DUP9 SSTORE POP POP POP JUMPDEST POP POP POP POP POP POP JUMP JUMPDEST PUSH2 0xD4F DUP1 PUSH2 0x456 PUSH0 CODECOPY PUSH0 RETURN INVALID PUSH1 0x80 PUSH1 0x40 MSTORE CALLVALUE DUP1 ISZERO PUSH2 0xF JUMPI PUSH0 DUP1 REVERT JUMPDEST POP PUSH1 0x4 CALLDATASIZE LT PUSH2 0x55 JUMPI PUSH0 CALLDATALOAD PUSH1 0xE0 SHR DUP1 PUSH4 0x53D9C506 EQ PUSH2 0x59 JUMPI DUP1 PUSH4 0xBD14598F EQ PUSH2 0x77 JUMPI DUP1 PUSH4 0xD1BD363D EQ PUSH2 0x95 JUMPI DUP1 PUSH4 0xE4F2A84A EQ PUSH2 0xB3 JUMPI DUP1 PUSH4 0xE5C5E9A3 EQ PUSH2 0xD1 JUMPI JUMPDEST PUSH0 DUP1 REVERT JUMPDEST PUSH2 0x61 PUSH2 0x104 JUMP JUMPDEST PUSH1 0x40 MLOAD PUSH2 0x6E SWAP2 SWAP1 PUSH2 0x3EE JUMP JUMPDEST PUSH1 0x40 MLOAD DUP1 SWAP2 SUB SWAP1 RETURN JUMPDEST PUSH2 0x7F PUSH2 0x155 JUMP JUMPDEST PUSH1 0x40 MLOAD PUSH2 0x8C SWAP2 SWAP1 PUSH2 0x3EE JUMP JUMPDEST PUSH1 0x40 MLOAD DUP1 SWAP2 SUB SWAP1 RETURN JUMPDEST PUSH2 0x9D PUSH2 0x1A6 JUMP JUMPDEST PUSH1 0x40 MLOAD PUSH2 0xAA SWAP2 SWAP1 PUSH2 0x3EE JUMP JUMPDEST PUSH1 0x40 MLOAD DUP1 SWAP2 SUB SWAP1 RETURN JUMPDEST PUSH2 0xBB PUSH2 0x266 JUMP JUMPDEST PUSH1 0x40 MLOAD PUSH2 0xC8 SWAP2 SWAP1 PUSH2 0x3EE JUMP JUMPDEST PUSH1 0x40 MLOAD DUP1 SWAP2 SUB SWAP1 RETURN JUMPDEST PUSH2 0xEB PUSH1 0x4 DUP1 CALLDATASIZE SUB DUP2 ADD SWAP1 PUSH2 0xE6 SWAP2 SWAP1 PUSH2 0x54B JUMP JUMPDEST PUSH2 0x325 JUMP JUMPDEST PUSH1 0x40 MLOAD PUSH2 0xFB SWAP5 SWAP4 SWAP3 SWAP2 SWAP1 PUSH2 0x6E0 JUMP JUMPDEST PUSH1 0x40 MLOAD DUP1 SWAP2 SUB SWAP1 RETURN JUMPDEST PUSH1 0x60 PUSH0 SLOAD PUSH1 0x1 PUSH0 SWAP1 SLOAD SWAP1 PUSH2 0x100 EXP SWAP1 DIV PUSH20 0xFFFFFFFFFFFFFFFFFFFFFFFFFFFFFFFFFFFFFFFF AND PUSH1 0x2 PUSH1 0x3 PUSH1 0x40 MLOAD PUSH1 0x20 ADD PUSH2 0x141 SWAP5 SWAP4 SWAP3 SWAP2 SWAP1 PUSH2 0x973 JUMP JUMPDEST PUSH1 0x40 MLOAD PUSH1 0x20 DUP2 DUP4 SUB SUB DUP2 MSTORE SWAP1 PUSH1 0x40 MSTORE SWAP1 POP SWAP1 JUMP JUMPDEST PUSH1 0x60 PUSH0 SLOAD PUSH1 0x1 PUSH0 SWAP1 SLOAD SWAP1 PUSH2 0x100 EXP SWAP1 DIV PUSH20 0xFFFFFFFFFFFFFFFFFFFFFFFFFFFFFFFFFFFFFFFF AND PUSH1 0x2 PUSH1 0x3 PUSH1 0x40 MLOAD PUSH1 0x20 ADD PUSH2 0x192 SWAP5 SWAP4 SWAP3 SWAP2 SWAP1 PUSH2 0xA9A JUMP JUMPDEST PUSH1 0x40 MLOAD PUSH1 0x20 DUP2 DUP4 SUB SUB DUP2 MSTORE SWAP1 PUSH1 0x40 MSTORE SWAP1 POP SWAP1 JUMP JUMPDEST PUSH1 0x60 PUSH32 0xE87082F1450A46F8F3150D7BDA55BDA41A2B08D68ABDE6797CCC68BE30567335 PUSH0 SLOAD PUSH1 0x1 PUSH0 SWAP1 SLOAD SWAP1 PUSH2 0x100 EXP SWAP1 DIV PUSH20 0xFFFFFFFFFFFFFFFFFFFFFFFFFFFFFFFFFFFFFFFF AND PUSH1 0x2 PUSH1 0x3 PUSH1 0x40 MLOAD PUSH1 0x24 ADD PUSH2 0x204 SWAP5 SWAP4 SWAP3 SWAP2 SWAP1 PUSH2 0xA9A JUMP JUMPDEST PUSH1 0x40 MLOAD PUSH1 0x20 DUP2 DUP4 SUB SUB DUP2 MSTORE SWAP1 PUSH1 0x40 MSTORE SWAP1 PUSH28 0xFFFFFFFFFFFFFFFFFFFFFFFFFFFFFFFFFFFFFFFFFFFFFFFFFFFFFFFF NOT AND PUSH1 0x20 DUP3 ADD DUP1 MLOAD PUSH28 0xFFFFFFFFFFFFFFFFFFFFFFFFFFFFFFFFFFFFFFFFFFFFFFFFFFFFFFFF DUP4 DUP2 DUP4 AND OR DUP4 MSTORE POP POP POP POP SWAP1 POP SWAP1 JUMP JUMPDEST PUSH1 0x60 PUSH0 SLOAD PUSH1 0x1 PUSH0 SWAP1 SLOAD SWAP1 PUSH2 0x100 EXP SWAP1 DIV PUSH20 0xFFFFFFFFFFFFFFFFFFFFFFFFFFFFFFFFFFFFFFFF AND PUSH1 0x2 PUSH1 0x3 PUSH1 0x40 MLOAD PUSH1 0x24 ADD PUSH2 0x2A3 SWAP5 SWAP4 SWAP3 SWAP2 SWAP1 PUSH2 0xA9A JUMP JUMPDEST PUSH1 0x40 MLOAD PUSH1 0x20 DUP2 DUP4 SUB SUB DUP2 MSTORE SWAP1 PUSH1 0x40 MSTORE PUSH32 0xE87082F100000000000000000000000000000000000000000000000000000000 PUSH28 0xFFFFFFFFFFFFFFFFFFFFFFFFFFFFFFFFFFFFFFFFFFFFFFFFFFFFFFFF NOT AND PUSH1 0x20 DUP3 ADD DUP1 MLOAD PUSH28 0xFFFFFFFFFFFFFFFFFFFFFFFFFFFFFFFFFFFFFFFFFFFFFFFFFFFFFFFF DUP4 DUP2 DUP4 AND OR DUP4 MSTORE POP POP POP POP SWAP1 POP SWAP1 JUMP JUMPDEST PUSH0 DUP1 PUSH1 0x60 PUSH2 0x331 PUSH2 0x35C JUMP JUMPDEST DUP5 DUP1 PUSH1 0x20 ADD SWAP1 MLOAD DUP2 ADD SWAP1 PUSH2 0x345 SWAP2 SWAP1 PUSH2 0xC99 JUMP JUMPDEST DUP1 SWAP5 POP DUP2 SWAP6 POP DUP3 SWAP7 POP DUP4 SWAP8 POP POP POP POP POP SWAP2 SWAP4 POP SWAP2 SWAP4 JUMP JUMPDEST PUSH1 0x40 MLOAD DUP1 PUSH1 0x40 ADD PUSH1 0x40 MSTORE DUP1 PUSH1 0x2 SWAP1 PUSH1 0x20 DUP3 MUL DUP1 CALLDATASIZE DUP4 CALLDATACOPY DUP1 DUP3 ADD SWAP2 POP POP SWAP1 POP POP SWAP1 JUMP JUMPDEST PUSH0 DUP2 MLOAD SWAP1 POP SWAP2 SWAP1 POP JUMP JUMPDEST PUSH0 DUP3 DUP3 MSTORE PUSH1 0x20 DUP3 ADD SWAP1 POP SWAP3 SWAP2 POP POP JUMP JUMPDEST DUP3 DUP2 DUP4 MCOPY PUSH0 DUP4 DUP4 ADD MSTORE POP POP POP JUMP JUMPDEST PUSH0 PUSH1 0x1F NOT PUSH1 0x1F DUP4 ADD AND SWAP1 POP SWAP2 SWAP1 POP JUMP JUMPDEST PUSH0 PUSH2 0x3C0 DUP3 PUSH2 0x37E JUMP JUMPDEST PUSH2 0x3CA DUP2 DUP6 PUSH2 0x388 JUMP JUMPDEST SWAP4 POP PUSH2 0x3DA DUP2 DUP6 PUSH1 0x20 DUP7 ADD PUSH2 0x398 JUMP JUMPDEST PUSH2 0x3E3 DUP2 PUSH2 0x3A6 JUMP JUMPDEST DUP5 ADD SWAP2 POP POP SWAP3 SWAP2 POP POP JUMP JUMPDEST PUSH0 PUSH1 0x20 DUP3 ADD SWAP1 POP DUP2 DUP2 SUB PUSH0 DUP4 ADD MSTORE PUSH2 0x406 DUP2 DUP5 PUSH2 0x3B6 JUMP JUMPDEST SWAP1 POP SWAP3 SWAP2 POP POP JUMP JUMPDEST PUSH0 PUSH1 0x40 MLOAD SWAP1 POP SWAP1 JUMP JUMPDEST PUSH0 DUP1 REVERT JUMPDEST PUSH0 DUP1 REVERT JUMPDEST PUSH0 DUP1 REVERT JUMPDEST PUSH0 DUP1 REVERT JUMPDEST PUSH32 0x4E487B7100000000000000000000000000000000000000000000000000000000 PUSH0 MSTORE PUSH1 0x41 PUSH1 0x4 MSTORE PUSH1 0x24 PUSH0 REVERT JUMPDEST PUSH2 0x45D DUP3 PUSH2 0x3A6 JUMP JUMPDEST DUP2 ADD DUP2 DUP2 LT PUSH8 0xFFFFFFFFFFFFFFFF DUP3 GT OR ISZERO PUSH2 0x47C JUMPI PUSH2 0x47B PUSH2 0x427 JUMP JUMPDEST JUMPDEST DUP1 PUSH1 0x40 MSTORE POP POP POP JUMP JUMPDEST PUSH0 PUSH2 0x48E PUSH2 0x40E JUMP JUMPDEST SWAP1 POP PUSH2 0x49A DUP3 DUP3 PUSH2 0x454 JUMP JUMPDEST SWAP2 SWAP1 POP JUMP JUMPDEST PUSH0 PUSH8 0xFFFFFFFFFFFFFFFF DUP3 GT ISZERO PUSH2 0x4B9 JUMPI PUSH2 0x4B8 PUSH2 0x427 JUMP JUMPDEST JUMPDEST PUSH2 0x4C2 DUP3 PUSH2 0x3A6 JUMP JUMPDEST SWAP1 POP PUSH1 0x20 DUP2 ADD SWAP1 POP SWAP2 SWAP1 POP JUMP JUMPDEST DUP3 DUP2 DUP4 CALLDATACOPY PUSH0 DUP4 DUP4 ADD MSTORE POP POP POP JUMP JUMPDEST PUSH0 PUSH2 0x4EF PUSH2 0x4EA DUP5 PUSH2 0x49F JUMP JUMPDEST PUSH2 0x485 JUMP JUMPDEST SWAP1 POP DUP3 DUP2 MSTORE PUSH1 0x20 DUP2 ADD DUP5 DUP5 DUP5 ADD GT ISZERO PUSH2 0x50B JUMPI PUSH2 0x50A PUSH2 0x423 JUMP JUMPDEST JUMPDEST PUSH2 0x516 DUP5 DUP3 DUP6 PUSH2 0x4CF JUMP JUMPDEST POP SWAP4 SWAP3 POP POP POP JUMP JUMPDEST PUSH0 DUP3 PUSH1 0x1F DUP4 ADD SLT PUSH2 0x532 JUMPI PUSH2 0x531 PUSH2 0x41F JUMP JUMPDEST JUMPDEST DUP2 CALLDATALOAD PUSH2 0x542 DUP5 DUP3 PUSH1 0x20 DUP7 ADD PUSH2 0x4DD JUMP JUMPDEST SWAP2 POP POP SWAP3 SWAP2 POP POP JUMP JUMPDEST PUSH0 PUSH1 0x20 DUP3 DUP5 SUB SLT ISZERO PUSH2 0x560 JUMPI PUSH2 0x55F PUSH2 0x417 JUMP JUMPDEST JUMPDEST PUSH0 DUP3 ADD CALLDATALOAD PUSH8 0xFFFFFFFFFFFFFFFF DUP2 GT ISZERO PUSH2 0x57D JUMPI PUSH2 0x57C PUSH2 0x41B JUMP JUMPDEST JUMPDEST PUSH2 0x589 DUP5 DUP3 DUP6 ADD PUSH2 0x51E JUMP JUMPDEST SWAP2 POP POP SWAP3 SWAP2 POP POP JUMP JUMPDEST PUSH0 DUP2 SWAP1 POP SWAP2 SWAP1 POP JUMP JUMPDEST PUSH2 0x5A4 DUP2 PUSH2 0x592 JUMP JUMPDEST DUP3 MSTORE POP POP JUMP JUMPDEST PUSH0 PUSH20 0xFFFFFFFFFFFFFFFFFFFFFFFFFFFFFFFFFFFFFFFF DUP3 AND SWAP1 POP SWAP2 SWAP1 POP JUMP JUMPDEST PUSH0 PUSH2 0x5D3 DUP3 PUSH2 0x5AA JUMP JUMPDEST SWAP1 POP SWAP2 SWAP1 POP JUMP JUMPDEST PUSH2 0x5E3 DUP2 PUSH2 0x5C9 JUMP JUMPDEST DUP3 MSTORE POP POP JUMP JUMPDEST PUSH0 DUP2 MLOAD SWAP1 POP SWAP2 SWAP1 POP JUMP JUMPDEST PUSH0 DUP3 DUP3 MSTORE PUSH1 0x20 DUP3 ADD SWAP1 POP SWAP3 SWAP2 POP POP JUMP JUMPDEST PUSH0 PUSH2 0x60D DUP3 PUSH2 0x5E9 JUMP JUMPDEST PUSH2 0x617 DUP2 DUP6 PUSH2 0x5F3 JUMP JUMPDEST SWAP4 POP PUSH2 0x627 DUP2 DUP6 PUSH1 0x20 DUP7 ADD PUSH2 0x398 JUMP JUMPDEST PUSH2 0x630 DUP2 PUSH2 0x3A6 JUMP JUMPDEST DUP5 ADD SWAP2 POP POP SWAP3 SWAP2 POP POP JUMP JUMPDEST PUSH0 PUSH1 0x2 SWAP1 POP SWAP2 SWAP1 POP JUMP JUMPDEST PUSH0 DUP2 SWAP1 POP SWAP3 SWAP2 POP POP JUMP JUMPDEST PUSH0 DUP2 SWAP1 POP SWAP2 SWAP1 POP JUMP JUMPDEST PUSH2 0x661 DUP2 PUSH2 0x592 JUMP JUMPDEST DUP3 MSTORE POP POP JUMP JUMPDEST PUSH0 PUSH2 0x672 DUP4 DUP4 PUSH2 0x658 JUMP JUMPDEST PUSH1 0x20 DUP4 ADD SWAP1 POP SWAP3 SWAP2 POP POP JUMP JUMPDEST PUSH0 PUSH1 0x20 DUP3 ADD SWAP1 POP SWAP2 SWAP1 POP JUMP JUMPDEST PUSH2 0x693 DUP2 PUSH2 0x63B JUMP JUMPDEST PUSH2 0x69D DUP2 DUP5 PUSH2 0x645 JUMP JUMPDEST SWAP3 POP PUSH2 0x6A8 DUP3 PUSH2 0x64F JUMP JUMPDEST DUP1 PUSH0 JUMPDEST DUP4 DUP2 LT ISZERO PUSH2 0x6D8 JUMPI DUP2 MLOAD PUSH2 0x6BF DUP8 DUP3 PUSH2 0x667 JUMP JUMPDEST SWAP7 POP PUSH2 0x6CA DUP4 PUSH2 0x67E JUMP JUMPDEST SWAP3 POP POP PUSH1 0x1 DUP2 ADD SWAP1 POP PUSH2 0x6AB JUMP JUMPDEST POP POP POP POP POP POP JUMP JUMPDEST PUSH0 PUSH1 0xA0 DUP3 ADD SWAP1 POP PUSH2 0x6F3 PUSH0 DUP4 ADD DUP8 PUSH2 0x59B JUMP JUMPDEST PUSH2 0x700 PUSH1 0x20 DUP4 ADD DUP7 PUSH2 0x5DA JUMP JUMPDEST DUP2 DUP2 SUB PUSH1 0x40 DUP4 ADD MSTORE PUSH2 0x712 DUP2 DUP6 PUSH2 0x603 JUMP JUMPDEST SWAP1 POP PUSH2 0x721 PUSH1 0x60 DUP4 ADD DUP5 PUSH2 0x68A JUMP JUMPDEST SWAP6 SWAP5 POP POP POP POP POP JUMP JUMPDEST PUSH0 DUP2 SWAP1 POP SWAP2 SWAP1 POP JUMP JUMPDEST PUSH2 0x744 PUSH2 0x73F DUP3 PUSH2 0x592 JUMP JUMPDEST PUSH2 0x72A JUMP JUMPDEST DUP3 MSTORE POP POP JUMP JUMPDEST PUSH0 DUP2 PUSH1 0x60 SHL SWAP1 POP SWAP2 SWAP1 POP JUMP JUMPDEST PUSH0 PUSH2 0x760 DUP3 PUSH2 0x74A JUMP JUMPDEST SWAP1 POP SWAP2 SWAP1 POP JUMP JUMPDEST PUSH0 PUSH2 0x771 DUP3 PUSH2 0x756 JUMP JUMPDEST SWAP1 POP SWAP2 SWAP1 POP JUMP JUMPDEST PUSH2 0x789 PUSH2 0x784 DUP3 PUSH2 0x5C9 JUMP JUMPDEST PUSH2 0x767 JUMP JUMPDEST DUP3 MSTORE POP POP JUMP JUMPDEST PUSH32 0x4E487B7100000000000000000000000000000000000000000000000000000000 PUSH0 MSTORE PUSH1 0x22 PUSH1 0x4 MSTORE PUSH1 0x24 PUSH0 REVERT JUMPDEST PUSH0 PUSH1 0x2 DUP3 DIV SWAP1 POP PUSH1 0x1 DUP3 AND DUP1 PUSH2 0x7D3 JUMPI PUSH1 0x7F DUP3 AND SWAP2 POP JUMPDEST PUSH1 0x20 DUP3 LT DUP2 SUB PUSH2 0x7E6 JUMPI PUSH2 0x7E5 PUSH2 0x78F JUMP JUMPDEST JUMPDEST POP SWAP2 SWAP1 POP JUMP JUMPDEST PUSH0 DUP2 SWAP1 POP SWAP3 SWAP2 POP POP JUMP JUMPDEST PUSH0 DUP2 SWAP1 POP DUP2 PUSH0 MSTORE PUSH1 0x20 PUSH0 KECCAK256 SWAP1 POP SWAP2 SWAP1 POP JUMP JUMPDEST PUSH0 DUP2 SLOAD PUSH2 0x814 DUP2 PUSH2 0x7BC JUMP JUMPDEST PUSH2 0x81E DUP2 DUP7 PUSH2 0x7EC JUMP JUMPDEST SWAP5 POP PUSH1 0x1 DUP3 AND PUSH0 DUP2 EQ PUSH2 0x838 JUMPI PUSH1 0x1 DUP2 EQ PUSH2 0x84D JUMPI PUSH2 0x87F JUMP JUMPDEST PUSH1 0xFF NOT DUP4 AND DUP7 MSTORE DUP2 ISZERO ISZERO DUP3 MUL DUP7 ADD SWAP4 POP PUSH2 0x87F JUMP JUMPDEST PUSH2 0x856 DUP6 PUSH2 0x7F6 JUMP JUMPDEST PUSH0 JUMPDEST DUP4 DUP2 LT ISZERO PUSH2 0x877 JUMPI DUP2 SLOAD DUP2 DUP10 ADD MSTORE PUSH1 0x1 DUP3 ADD SWAP2 POP PUSH1 0x20 DUP2 ADD SWAP1 POP PUSH2 0x858 JUMP JUMPDEST DUP4 DUP9 ADD SWAP6 POP POP POP JUMPDEST POP POP POP SWAP3 SWAP2 POP POP JUMP JUMPDEST PUSH0 PUSH1 0x2 SWAP1 POP SWAP2 SWAP1 POP JUMP JUMPDEST PUSH0 DUP2 SWAP1 POP SWAP3 SWAP2 POP POP JUMP JUMPDEST PUSH0 DUP2 SWAP1 POP SWAP2 SWAP1 POP JUMP JUMPDEST PUSH2 0x8AE DUP2 PUSH2 0x592 JUMP JUMPDEST DUP3 MSTORE POP POP JUMP JUMPDEST PUSH0 PUSH2 0x8BF DUP4 DUP4 PUSH2 0x8A5 JUMP JUMPDEST PUSH1 0x20 DUP4 ADD SWAP1 POP SWAP3 SWAP2 POP POP JUMP JUMPDEST PUSH0 DUP2 PUSH0 SHR SWAP1 POP SWAP2 SWAP1 POP JUMP JUMPDEST PUSH0 DUP2 SWAP1 POP SWAP2 SWAP1 POP JUMP JUMPDEST PUSH0 PUSH2 0x8F1 PUSH2 0x8EC DUP4 PUSH2 0x8CB JUMP JUMPDEST PUSH2 0x8D6 JUMP JUMPDEST SWAP1 POP SWAP2 SWAP1 POP JUMP JUMPDEST PUSH0 PUSH2 0x903 DUP3 SLOAD PUSH2 0x8DF JUMP JUMPDEST SWAP1 POP SWAP2 SWAP1 POP JUMP JUMPDEST PUSH0 PUSH1 0x1 DUP3 ADD SWAP1 POP SWAP2 SWAP1 POP JUMP JUMPDEST PUSH2 0x91F DUP2 PUSH2 0x888 JUMP JUMPDEST PUSH2 0x929 DUP2 DUP5 PUSH2 0x892 JUMP JUMPDEST SWAP3 POP PUSH2 0x934 DUP3 PUSH2 0x89C JUMP JUMPDEST DUP1 PUSH0 JUMPDEST DUP4 DUP2 LT ISZERO PUSH2 0x96B JUMPI PUSH2 0x948 DUP3 PUSH2 0x8F8 JUMP JUMPDEST PUSH2 0x952 DUP8 DUP3 PUSH2 0x8B4 JUMP JUMPDEST SWAP7 POP PUSH2 0x95D DUP4 PUSH2 0x90A JUMP JUMPDEST SWAP3 POP POP PUSH1 0x1 DUP2 ADD SWAP1 POP PUSH2 0x937 JUMP JUMPDEST POP POP POP POP POP POP JUMP JUMPDEST PUSH0 PUSH2 0x97E DUP3 DUP8 PUSH2 0x733 JUMP JUMPDEST PUSH1 0x20 DUP3 ADD SWAP2 POP PUSH2 0x98E DUP3 DUP7 PUSH2 0x778 JUMP JUMPDEST PUSH1 0x14 DUP3 ADD SWAP2 POP PUSH2 0x99E DUP3 DUP6 PUSH2 0x808 JUMP JUMPDEST SWAP2 POP PUSH2 0x9AA DUP3 DUP5 PUSH2 0x916 JUMP JUMPDEST PUSH1 0x40 DUP3 ADD SWAP2 POP DUP2 SWAP1 POP SWAP6 SWAP5 POP POP POP POP POP JUMP JUMPDEST PUSH0 DUP2 SLOAD PUSH2 0x9C8 DUP2 PUSH2 0x7BC JUMP JUMPDEST PUSH2 0x9D2 DUP2 DUP7 PUSH2 0x5F3 JUMP JUMPDEST SWAP5 POP PUSH1 0x1 DUP3 AND PUSH0 DUP2 EQ PUSH2 0x9EC JUMPI PUSH1 0x1 DUP2 EQ PUSH2 0xA02 JUMPI PUSH2 0xA34 JUMP JUMPDEST PUSH1 0xFF NOT DUP4 AND DUP7 MSTORE DUP2 ISZERO ISZERO PUSH1 0x20 MUL DUP7 ADD SWAP4 POP PUSH2 0xA34 JUMP JUMPDEST PUSH2 0xA0B DUP6 PUSH2 0x7F6 JUMP JUMPDEST PUSH0 JUMPDEST DUP4 DUP2 LT ISZERO PUSH2 0xA2C JUMPI DUP2 SLOAD DUP2 DUP10 ADD MSTORE PUSH1 0x1 DUP3 ADD SWAP2 POP PUSH1 0x20 DUP2 ADD SWAP1 POP PUSH2 0xA0D JUMP JUMPDEST DUP1 DUP9 ADD SWAP6 POP POP POP JUMPDEST POP POP POP SWAP3 SWAP2 POP POP JUMP JUMPDEST PUSH2 0xA46 DUP2 PUSH2 0x888 JUMP JUMPDEST PUSH2 0xA50 DUP2 DUP5 PUSH2 0x645 JUMP JUMPDEST SWAP3 POP PUSH2 0xA5B DUP3 PUSH2 0x89C JUMP JUMPDEST DUP1 PUSH0 JUMPDEST DUP4 DUP2 LT ISZERO PUSH2 0xA92 JUMPI PUSH2 0xA6F DUP3 PUSH2 0x8F8 JUMP JUMPDEST PUSH2 0xA79 DUP8 DUP3 PUSH2 0x667 JUMP JUMPDEST SWAP7 POP PUSH2 0xA84 DUP4 PUSH2 0x90A JUMP JUMPDEST SWAP3 POP POP PUSH1 0x1 DUP2 ADD SWAP1 POP PUSH2 0xA5E JUMP JUMPDEST POP POP POP POP POP POP JUMP JUMPDEST PUSH0 PUSH1 0xA0 DUP3 ADD SWAP1 POP PUSH2 0xAAD PUSH0 DUP4 ADD DUP8 PUSH2 0x59B JUMP JUMPDEST PUSH2 0xABA PUSH1 0x20 DUP4 ADD DUP7 PUSH2 0x5DA JUMP JUMPDEST DUP2 DUP2 SUB PUSH1 0x40 DUP4 ADD MSTORE PUSH2 0xACC DUP2 DUP6 PUSH2 0x9BC JUMP JUMPDEST SWAP1 POP PUSH2 0xADB PUSH1 0x60 DUP4 ADD DUP5 PUSH2 0xA3D JUMP JUMPDEST SWAP6 SWAP5 POP POP POP POP POP JUMP JUMPDEST PUSH2 0xAED DUP2 PUSH2 0x592 JUMP JUMPDEST DUP2 EQ PUSH2 0xAF7 JUMPI PUSH0 DUP1 REVERT JUMPDEST POP JUMP JUMPDEST PUSH0 DUP2 MLOAD SWAP1 POP PUSH2 0xB08 DUP2 PUSH2 0xAE4 JUMP JUMPDEST SWAP3 SWAP2 POP POP JUMP JUMPDEST PUSH0 PUSH2 0xB18 DUP3 PUSH2 0x5AA JUMP JUMPDEST SWAP1 POP SWAP2 SWAP1 POP JUMP JUMPDEST PUSH2 0xB28 DUP2 PUSH2 0xB0E JUMP JUMPDEST DUP2 EQ PUSH2 0xB32 JUMPI PUSH0 DUP1 REVERT JUMPDEST POP JUMP JUMPDEST PUSH0 DUP2 MLOAD SWAP1 POP PUSH2 0xB43 DUP2 PUSH2 0xB1F JUMP JUMPDEST SWAP3 SWAP2 POP POP JUMP JUMPDEST PUSH0 PUSH8 0xFFFFFFFFFFFFFFFF DUP3 GT ISZERO PUSH2 0xB63 JUMPI PUSH2 0xB62 PUSH2 0x427 JUMP JUMPDEST JUMPDEST PUSH2 0xB6C DUP3 PUSH2 0x3A6 JUMP JUMPDEST SWAP1 POP PUSH1 0x20 DUP2 ADD SWAP1 POP SWAP2 SWAP1 POP JUMP JUMPDEST PUSH0 PUSH2 0xB8B PUSH2 0xB86 DUP5 PUSH2 0xB49 JUMP JUMPDEST PUSH2 0x485 JUMP JUMPDEST SWAP1 POP DUP3 DUP2 MSTORE PUSH1 0x20 DUP2 ADD DUP5 DUP5 DUP5 ADD GT ISZERO PUSH2 0xBA7 JUMPI PUSH2 0xBA6 PUSH2 0x423 JUMP JUMPDEST JUMPDEST PUSH2 0xBB2 DUP5 DUP3 DUP6 PUSH2 0x398 JUMP JUMPDEST POP SWAP4 SWAP3 POP POP POP JUMP JUMPDEST PUSH0 DUP3 PUSH1 0x1F DUP4 ADD SLT PUSH2 0xBCE JUMPI PUSH2 0xBCD PUSH2 0x41F JUMP JUMPDEST JUMPDEST DUP2 MLOAD PUSH2 0xBDE DUP5 DUP3 PUSH1 0x20 DUP7 ADD PUSH2 0xB79 JUMP JUMPDEST SWAP2 POP POP SWAP3 SWAP2 POP POP JUMP JUMPDEST PUSH0 PUSH8 0xFFFFFFFFFFFFFFFF DUP3 GT ISZERO PUSH2 0xC01 JUMPI PUSH2 0xC00 PUSH2 0x427 JUMP JUMPDEST JUMPDEST PUSH1 0x20 DUP3 MUL SWAP1 POP SWAP2 SWAP1 POP JUMP JUMPDEST PUSH0 DUP1 REVERT JUMPDEST PUSH0 PUSH2 0xC22 PUSH2 0xC1D DUP5 PUSH2 0xBE7 JUMP JUMPDEST PUSH2 0x485 JUMP JUMPDEST SWAP1 POP DUP1 PUSH1 0x20 DUP5 MUL DUP4 ADD DUP6 DUP2 GT ISZERO PUSH2 0xC3C JUMPI PUSH2 0xC3B PUSH2 0xC0C JUMP JUMPDEST JUMPDEST DUP4 JUMPDEST DUP2 DUP2 LT ISZERO PUSH2 0xC65 JUMPI DUP1 PUSH2 0xC51 DUP9 DUP3 PUSH2 0xAFA JUMP JUMPDEST DUP5 MSTORE PUSH1 0x20 DUP5 ADD SWAP4 POP POP PUSH1 0x20 DUP2 ADD SWAP1 POP PUSH2 0xC3E JUMP JUMPDEST POP POP POP SWAP4 SWAP3 POP POP POP JUMP JUMPDEST PUSH0 DUP3 PUSH1 0x1F DUP4 ADD SLT PUSH2 0xC83 JUMPI PUSH2 0xC82 PUSH2 0x41F JUMP JUMPDEST JUMPDEST PUSH1 0x2 PUSH2 0xC90 DUP5 DUP3 DUP6 PUSH2 0xC10 JUMP JUMPDEST SWAP2 POP POP SWAP3 SWAP2 POP POP JUMP JUMPDEST PUSH0 DUP1 PUSH0 DUP1 PUSH1 0xA0 DUP6 DUP8 SUB SLT ISZERO PUSH2 0xCB1 JUMPI PUSH2 0xCB0 PUSH2 0x417 JUMP JUMPDEST JUMPDEST PUSH0 PUSH2 0xCBE DUP8 DUP3 DUP9 ADD PUSH2 0xAFA JUMP JUMPDEST SWAP5 POP POP PUSH1 0x20 PUSH2 0xCCF DUP8 DUP3 DUP9 ADD PUSH2 0xB35 JUMP JUMPDEST SWAP4 POP POP PUSH1 0x40 DUP6 ADD MLOAD PUSH8 0xFFFFFFFFFFFFFFFF DUP2 GT ISZERO PUSH2 0xCF0 JUMPI PUSH2 0xCEF PUSH2 0x41B JUMP JUMPDEST JUMPDEST PUSH2 0xCFC DUP8 DUP3 DUP9 ADD PUSH2 0xBBA JUMP JUMPDEST SWAP3 POP POP PUSH1 0x60 PUSH2 0xD0D DUP8 DUP3 DUP9 ADD PUSH2 0xC6F JUMP JUMPDEST SWAP2 POP POP SWAP3 SWAP6 SWAP2 SWAP5 POP SWAP3 POP JUMP INVALID LOG2 PUSH5 0x6970667358 0x22 SLT KECCAK256 GT SHL DIV SMOD GAS LOG4 PUSH7 0x8B2C0A4979F9BA PUSH19 0x26CD003A34B6F6D95DC92963370ED1C8876473 PUSH16 0x6C634300081A00330000000000000000 "
				},
				"gasEstimates": {
					"creation": {
						"codeDepositCost": "681400",
						"executionCost": "infinite",
						"totalCost": "infinite"
					},
					"external": {
						"decode(bytes)": "infinite",
						"encode()": "infinite",
						"encodePacked()": "infinite",
						"encodeWithSelector()": "infinite",
						"encodeWithSignature()": "infinite"
					}
				},
				"methodIdentifiers": {
					"decode(bytes)": "e5c5e9a3",
					"encode()": "bd14598f",
					"encodePacked()": "53d9c506",
					"encodeWithSelector()": "d1bd363d",
					"encodeWithSignature()": "e4f2a84a"
				}
			},
			"storageLayout": {
				"storage": [
					{
						"astId": 4,
						"contract": "contracts/lesson27/ABIEncode1.sol:ABIEncode",
						"label": "x",
						"offset": 0,
						"slot": "0",
						"type": "t_uint256"
					},
					{
						"astId": 7,
						"contract": "contracts/lesson27/ABIEncode1.sol:ABIEncode",
						"label": "addr",
						"offset": 0,
						"slot": "1",
						"type": "t_address"
					},
					{
						"astId": 10,
						"contract": "contracts/lesson27/ABIEncode1.sol:ABIEncode",
						"label": "name",
						"offset": 0,
						"slot": "2",
						"type": "t_string_storage"
					},
					{
						"astId": 17,
						"contract": "contracts/lesson27/ABIEncode1.sol:ABIEncode",
						"label": "array",
						"offset": 0,
						"slot": "3",
						"type": "t_array(t_uint256)2_storage"
					}
				],
				"types": {
					"t_address": {
						"encoding": "inplace",
						"label": "address",
						"numberOfBytes": "20"
					},
					"t_array(t_uint256)2_storage": {
						"base": "t_uint256",
						"encoding": "inplace",
						"label": "uint256[2]",
						"numberOfBytes": "64"
					},
					"t_string_storage": {
						"encoding": "bytes",
						"label": "string",
						"numberOfBytes": "32"
					},
					"t_uint256": {
						"encoding": "inplace",
						"label": "uint256",
						"numberOfBytes": "32"
					}
				}
			},
			"userdoc": {
				"kind": "user",
				"methods": {},
				"version": 1
			}
		}
	}
}