{
	"contracts/lesson26/DeleteContract.sol": {
		"DeleteContract": {
			"abi": [
				{
					"inputs": [],
					"stateMutability": "payable",
					"type": "constructor"
				},
				{
					"inputs": [],
					"name": "deleteContract",
					"outputs": [],
					"stateMutability": "nonpayable",
					"type": "function"
				},
				{
					"inputs": [],
					"name": "getBalance",
					"outputs": [
						{
							"internalType": "uint256",
							"name": "balance",
							"type": "uint256"
						}
					],
					"stateMutability": "view",
					"type": "function"
				},
				{
					"inputs": [],
					"name": "value",
					"outputs": [
						{
							"internalType": "uint256",
							"name": "",
							"type": "uint256"
						}
					],
					"stateMutability": "view",
					"type": "function"
				},
				{
					"stateMutability": "payable",
					"type": "receive"
				}
			],
			"devdoc": {
				"kind": "dev",
				"methods": {},
				"version": 1
			},
			"evm": {
				"assembly": "    /* \"contracts/lesson26/DeleteContract.sol\":140:542  contract DeleteContract {... */\n  mstore(0x40, 0x80)\n    /* \"contracts/lesson26/DeleteContract.sol\":191:193  10 */\n  0x0a\n    /* \"contracts/lesson26/DeleteContract.sol\":171:193  uint public value = 10 */\n  0x00\n  sstore\n    /* \"contracts/lesson26/DeleteContract.sol\":140:542  contract DeleteContract {... */\n  dataSize(sub_0)\n  dup1\n  dataOffset(sub_0)\n  0x00\n  codecopy\n  0x00\n  return\nstop\n\nsub_0: assembly {\n        /* \"contracts/lesson26/DeleteContract.sol\":140:542  contract DeleteContract {... */\n      mstore(0x40, 0x80)\n      jumpi(tag_1, lt(calldatasize, 0x04))\n      shr(0xe0, calldataload(0x00))\n      dup1\n      0x12065fe0\n      eq\n      tag_3\n      jumpi\n      dup1\n      0x3fa4f245\n      eq\n      tag_4\n      jumpi\n      dup1\n      0x5a58cd4c\n      eq\n      tag_5\n      jumpi\n      jump(tag_2)\n    tag_1:\n      jumpi(tag_2, calldatasize)\n      stop\n    tag_2:\n      0x00\n      dup1\n      revert\n        /* \"contracts/lesson26/DeleteContract.sol\":435:540  function getBalance() external view returns(uint balance){... */\n    tag_3:\n      callvalue\n      dup1\n      iszero\n      tag_8\n      jumpi\n      0x00\n      dup1\n      revert\n    tag_8:\n      pop\n      tag_9\n      tag_10\n      jump\t// in\n    tag_9:\n      mload(0x40)\n      tag_11\n      swap2\n      swap1\n      tag_12\n      jump\t// in\n    tag_11:\n      mload(0x40)\n      dup1\n      swap2\n      sub\n      swap1\n      return\n        /* \"contracts/lesson26/DeleteContract.sol\":171:193  uint public value = 10 */\n    tag_4:\n      callvalue\n      dup1\n      iszero\n      tag_13\n      jumpi\n      0x00\n      dup1\n      revert\n    tag_13:\n      pop\n      tag_14\n      tag_15\n      jump\t// in\n    tag_14:\n      mload(0x40)\n      tag_16\n      swap2\n      swap1\n      tag_12\n      jump\t// in\n    tag_16:\n      mload(0x40)\n      dup1\n      swap2\n      sub\n      swap1\n      return\n        /* \"contracts/lesson26/DeleteContract.sol\":265:429  function deleteContract() external {... */\n    tag_5:\n      callvalue\n      dup1\n      iszero\n      tag_17\n      jumpi\n      0x00\n      dup1\n      revert\n    tag_17:\n      pop\n      tag_18\n      tag_19\n      jump\t// in\n    tag_18:\n      stop\n        /* \"contracts/lesson26/DeleteContract.sol\":435:540  function getBalance() external view returns(uint balance){... */\n    tag_10:\n        /* \"contracts/lesson26/DeleteContract.sol\":479:491  uint balance */\n      0x00\n        /* \"contracts/lesson26/DeleteContract.sol\":512:533  address(this).balance */\n      selfbalance\n        /* \"contracts/lesson26/DeleteContract.sol\":502:533  balance = address(this).balance */\n      swap1\n      pop\n        /* \"contracts/lesson26/DeleteContract.sol\":435:540  function getBalance() external view returns(uint balance){... */\n      swap1\n      jump\t// out\n        /* \"contracts/lesson26/DeleteContract.sol\":171:193  uint public value = 10 */\n    tag_15:\n      sload(0x00)\n      dup2\n      jump\t// out\n        /* \"contracts/lesson26/DeleteContract.sol\":265:429  function deleteContract() external {... */\n    tag_19:\n        /* \"contracts/lesson26/DeleteContract.sol\":410:420  msg.sender */\n      caller\n        /* \"contracts/lesson26/DeleteContract.sol\":389:422  selfdestruct(payable(msg.sender)) */\n      0xffffffffffffffffffffffffffffffffffffffff\n      and\n      selfdestruct\n        /* \"#utility.yul\":7:84   */\n    tag_22:\n        /* \"#utility.yul\":44:51   */\n      0x00\n        /* \"#utility.yul\":73:78   */\n      dup2\n        /* \"#utility.yul\":62:78   */\n      swap1\n      pop\n        /* \"#utility.yul\":7:84   */\n      swap2\n      swap1\n      pop\n      jump\t// out\n        /* \"#utility.yul\":90:208   */\n    tag_23:\n        /* \"#utility.yul\":177:201   */\n      tag_27\n        /* \"#utility.yul\":195:200   */\n      dup2\n        /* \"#utility.yul\":177:201   */\n      tag_22\n      jump\t// in\n    tag_27:\n        /* \"#utility.yul\":172:175   */\n      dup3\n        /* \"#utility.yul\":165:202   */\n      mstore\n        /* \"#utility.yul\":90:208   */\n      pop\n      pop\n      jump\t// out\n        /* \"#utility.yul\":214:436   */\n    tag_12:\n        /* \"#utility.yul\":307:311   */\n      0x00\n        /* \"#utility.yul\":345:347   */\n      0x20\n        /* \"#utility.yul\":334:343   */\n      dup3\n        /* \"#utility.yul\":330:348   */\n      add\n        /* \"#utility.yul\":322:348   */\n      swap1\n      pop\n        /* \"#utility.yul\":358:429   */\n      tag_29\n        /* \"#utility.yul\":426:427   */\n      0x00\n        /* \"#utility.yul\":415:424   */\n      dup4\n        /* \"#utility.yul\":411:428   */\n      add\n        /* \"#utility.yul\":402:408   */\n      dup5\n        /* \"#utility.yul\":358:429   */\n      tag_23\n      jump\t// in\n    tag_29:\n        /* \"#utility.yul\":214:436   */\n      swap3\n      swap2\n      pop\n      pop\n      jump\t// out\n\n    auxdata: 0xa2646970667358221220666e08bdfbbec56e0024f155dd41f321d925fc3758e0b4e87261c7937ce7919f64736f6c634300081a0033\n}\n",
				"bytecode": {
					"linkReferences": {},
					"object": "6080604052600a5f55610121806100155f395ff3fe6080604052600436106032575f3560e01c806312065fe014603c5780633fa4f2451460615780635a58cd4c146086576038565b36603857005b5f80fd5b3480156046575f80fd5b50604d6099565b6040516058919060d4565b60405180910390f35b348015606b575f80fd5b50607260a0565b604051607d919060d4565b60405180910390f35b3480156090575f80fd5b50609760a5565b005b5f47905090565b5f5481565b3373ffffffffffffffffffffffffffffffffffffffff16ff5b5f819050919050565b60ce8160be565b82525050565b5f60208201905060e55f83018460c7565b9291505056fea2646970667358221220666e08bdfbbec56e0024f155dd41f321d925fc3758e0b4e87261c7937ce7919f64736f6c634300081a0033",
					"opcodes": "PUSH1 0x80 PUSH1 0x40 MSTORE PUSH1 0xA PUSH0 SSTORE PUSH2 0x121 DUP1 PUSH2 0x15 PUSH0 CODECOPY PUSH0 RETURN INVALID PUSH1 0x80 PUSH1 0x40 MSTORE PUSH1 0x4 CALLDATASIZE LT PUSH1 0x32 JUMPI PUSH0 CALLDATALOAD PUSH1 0xE0 SHR DUP1 PUSH4 0x12065FE0 EQ PUSH1 0x3C JUMPI DUP1 PUSH4 0x3FA4F245 EQ PUSH1 0x61 JUMPI DUP1 PUSH4 0x5A58CD4C EQ PUSH1 0x86 JUMPI PUSH1 0x38 JUMP JUMPDEST CALLDATASIZE PUSH1 0x38 JUMPI STOP JUMPDEST PUSH0 DUP1 REVERT JUMPDEST CALLVALUE DUP1 ISZERO PUSH1 0x46 JUMPI PUSH0 DUP1 REVERT JUMPDEST POP PUSH1 0x4D PUSH1 0x99 JUMP JUMPDEST PUSH1 0x40 MLOAD PUSH1 0x58 SWAP2 SWAP1 PUSH1 0xD4 JUMP JUMPDEST PUSH1 0x40 MLOAD DUP1 SWAP2 SUB SWAP1 RETURN JUMPDEST CALLVALUE DUP1 ISZERO PUSH1 0x6B JUMPI PUSH0 DUP1 REVERT JUMPDEST POP PUSH1 0x72 PUSH1 0xA0 JUMP JUMPDEST PUSH1 0x40 MLOAD PUSH1 0x7D SWAP2 SWAP1 PUSH1 0xD4 JUMP JUMPDEST PUSH1 0x40 MLOAD DUP1 SWAP2 SUB SWAP1 RETURN JUMPDEST CALLVALUE DUP1 ISZERO PUSH1 0x90 JUMPI PUSH0 DUP1 REVERT JUMPDEST POP PUSH1 0x97 PUSH1 0xA5 JUMP JUMPDEST STOP JUMPDEST PUSH0 SELFBALANCE SWAP1 POP SWAP1 JUMP JUMPDEST PUSH0 SLOAD DUP2 JUMP JUMPDEST CALLER PUSH20 0xFFFFFFFFFFFFFFFFFFFFFFFFFFFFFFFFFFFFFFFF AND SELFDESTRUCT JUMPDEST PUSH0 DUP2 SWAP1 POP SWAP2 SWAP1 POP JUMP JUMPDEST PUSH1 0xCE DUP2 PUSH1 0xBE JUMP JUMPDEST DUP3 MSTORE POP POP JUMP JUMPDEST PUSH0 PUSH1 0x20 DUP3 ADD SWAP1 POP PUSH1 0xE5 PUSH0 DUP4 ADD DUP5 PUSH1 0xC7 JUMP JUMPDEST SWAP3 SWAP2 POP POP JUMP INVALID LOG2 PUSH5 0x6970667358 0x22 SLT KECCAK256 PUSH7 0x6E08BDFBBEC56E STOP 0x24 CALL SSTORE 0xDD COINBASE RETURN 0x21 0xD9 0x25 0xFC CALLDATACOPY PC 0xE0 0xB4 0xE8 PUSH19 0x61C7937CE7919F64736F6C634300081A003300 "
				},
				"gasEstimates": {
					"creation": {
						"codeDepositCost": "57800",
						"executionCost": "22190",
						"totalCost": "79990"
					},
					"external": {
						"deleteContract()": "27764",
						"getBalance()": "312",
						"value()": "2424"
					}
				},
				"methodIdentifiers": {
					"deleteContract()": "5a58cd4c",
					"getBalance()": "12065fe0",
					"value()": "3fa4f245"
				}
			},
			"storageLayout": {
				"storage": [
					{
						"astId": 4,
						"contract": "contracts/lesson26/DeleteContract.sol:DeleteContract",
						"label": "value",
						"offset": 0,
						"slot": "0",
						"type": "t_uint256"
					}
				],
				"types": {
					"t_uint256": {
						"encoding": "inplace",
						"label": "uint256",
						"numberOfBytes": "32"
					}
				}
			},
			"userdoc": {
				"kind": "user",
				"methods": {},
				"version": 1
			}
		}
	}
}