{
	"contracts/lesson29/Selector.sol": {
		"Selector": {
			"abi": [
				{
					"anonymous": false,
					"inputs": [
						{
							"indexed": false,
							"internalType": "bytes",
							"name": "data",
							"type": "bytes"
						}
					],
					"name": "Log",
					"type": "event"
				},
				{
					"anonymous": false,
					"inputs": [
						{
							"indexed": false,
							"internalType": "bytes4",
							"name": "",
							"type": "bytes4"
						}
					],
					"name": "SelectorEvent",
					"type": "event"
				},
				{
					"inputs": [],
					"name": "callWithSignature",
					"outputs": [],
					"stateMutability": "nonpayable",
					"type": "function"
				},
				{
					"inputs": [
						{
							"internalType": "uint256",
							"name": "param1",
							"type": "uint256"
						},
						{
							"internalType": "bool",
							"name": "param2",
							"type": "bool"
						}
					],
					"name": "elementaryParamSelector",
					"outputs": [
						{
							"internalType": "bytes4",
							"name": "selectorWithElementaryParam",
							"type": "bytes4"
						}
					],
					"stateMutability": "nonpayable",
					"type": "function"
				},
				{
					"inputs": [
						{
							"internalType": "uint256[3]",
							"name": "param1",
							"type": "uint256[3]"
						}
					],
					"name": "fixedSizeParamSelector",
					"outputs": [
						{
							"internalType": "bytes4",
							"name": "selectorWithFixedSizeParam",
							"type": "bytes4"
						}
					],
					"stateMutability": "nonpayable",
					"type": "function"
				},
				{
					"inputs": [
						{
							"internalType": "contract DemoContract",
							"name": "demo",
							"type": "address"
						},
						{
							"components": [
								{
									"internalType": "uint256",
									"name": "uid",
									"type": "uint256"
								},
								{
									"internalType": "bytes",
									"name": "name",
									"type": "bytes"
								}
							],
							"internalType": "struct Selector.User",
							"name": "user",
							"type": "tuple"
						},
						{
							"internalType": "uint256[]",
							"name": "count",
							"type": "uint256[]"
						},
						{
							"internalType": "enum Selector.School",
							"name": "mySchool",
							"type": "uint8"
						}
					],
					"name": "mappingParamSelector",
					"outputs": [
						{
							"internalType": "bytes4",
							"name": "selectorWithMappingParam",
							"type": "bytes4"
						}
					],
					"stateMutability": "nonpayable",
					"type": "function"
				},
				{
					"inputs": [
						{
							"internalType": "address",
							"name": "",
							"type": "address"
						}
					],
					"name": "mint",
					"outputs": [],
					"stateMutability": "nonpayable",
					"type": "function"
				},
				{
					"inputs": [],
					"name": "mintSelector",
					"outputs": [
						{
							"internalType": "bytes4",
							"name": "mSelector",
							"type": "bytes4"
						}
					],
					"stateMutability": "pure",
					"type": "function"
				},
				{
					"inputs": [
						{
							"internalType": "uint256[]",
							"name": "param1",
							"type": "uint256[]"
						},
						{
							"internalType": "string",
							"name": "param2",
							"type": "string"
						}
					],
					"name": "nonFixedSizeParamSelector",
					"outputs": [
						{
							"internalType": "bytes4",
							"name": "selectorWithNonFixedSizeParam",
							"type": "bytes4"
						}
					],
					"stateMutability": "nonpayable",
					"type": "function"
				},
				{
					"inputs": [],
					"name": "nonParamSelector",
					"outputs": [
						{
							"internalType": "bytes4",
							"name": "selectorWithNonParam",
							"type": "bytes4"
						}
					],
					"stateMutability": "nonpayable",
					"type": "function"
				}
			],
			"devdoc": {
				"kind": "dev",
				"methods": {},
				"version": 1
			},
			"evm": {
				"assembly": "    /* \"contracts/lesson29/Selector.sol\":107:4190  contract Selector{... */\n  mstore(0x40, 0x80)\n  callvalue\n  dup1\n  iszero\n  tag_1\n  jumpi\n  0x00\n  dup1\n  revert\ntag_1:\n  pop\n  dataSize(sub_0)\n  dup1\n  dataOffset(sub_0)\n  0x00\n  codecopy\n  0x00\n  return\nstop\n\nsub_0: assembly {\n        /* \"contracts/lesson29/Selector.sol\":107:4190  contract Selector{... */\n      mstore(0x40, 0x80)\n      callvalue\n      dup1\n      iszero\n      tag_1\n      jumpi\n      0x00\n      dup1\n      revert\n    tag_1:\n      pop\n      jumpi(tag_2, lt(calldatasize, 0x04))\n      shr(0xe0, calldataload(0x00))\n      dup1\n      0x6a627842\n      gt\n      tag_11\n      jumpi\n      dup1\n      0x6a627842\n      eq\n      tag_7\n      jumpi\n      dup1\n      0xe355b0ce\n      eq\n      tag_8\n      jumpi\n      dup1\n      0xead6b8bd\n      eq\n      tag_9\n      jumpi\n      dup1\n      0xf0ca01de\n      eq\n      tag_10\n      jumpi\n      jump(tag_2)\n    tag_11:\n      dup1\n      0x03817936\n      eq\n      tag_3\n      jumpi\n      dup1\n      0x046dab16\n      eq\n      tag_4\n      jumpi\n      dup1\n      0x3ec37834\n      eq\n      tag_5\n      jumpi\n      dup1\n      0x59ebea23\n      eq\n      tag_6\n      jumpi\n    tag_2:\n      0x00\n      dup1\n      revert\n        /* \"contracts/lesson29/Selector.sol\":790:986  function nonParamSelector() external returns(bytes4 selectorWithNonParam){... */\n    tag_3:\n      tag_12\n      tag_13\n      jump\t// in\n    tag_12:\n      mload(0x40)\n      tag_14\n      swap2\n      swap1\n      tag_15\n      jump\t// in\n    tag_14:\n      mload(0x40)\n      dup1\n      swap2\n      sub\n      swap1\n      return\n        /* \"contracts/lesson29/Selector.sol\":576:697  function mintSelector() external pure returns(bytes4 mSelector){... */\n    tag_4:\n      tag_16\n      tag_17\n      jump\t// in\n    tag_16:\n      mload(0x40)\n      tag_18\n      swap2\n      swap1\n      tag_15\n      jump\t// in\n    tag_18:\n      mload(0x40)\n      dup1\n      swap2\n      sub\n      swap1\n      return\n        /* \"contracts/lesson29/Selector.sol\":1138:1401  function elementaryParamSelector(uint256 param1, bool param2) external returns(bytes4 selectorWithElementaryParam){... */\n    tag_5:\n      tag_19\n      0x04\n      dup1\n      calldatasize\n      sub\n      dup2\n      add\n      swap1\n      tag_20\n      swap2\n      swap1\n      tag_21\n      jump\t// in\n    tag_20:\n      tag_22\n      jump\t// in\n    tag_19:\n      mload(0x40)\n      tag_23\n      swap2\n      swap1\n      tag_15\n      jump\t// in\n    tag_23:\n      mload(0x40)\n      dup1\n      swap2\n      sub\n      swap1\n      return\n        /* \"contracts/lesson29/Selector.sol\":2899:4188  function callWithSignature() external{... */\n    tag_6:\n      tag_24\n      tag_25\n      jump\t// in\n    tag_24:\n      stop\n        /* \"contracts/lesson29/Selector.sol\":437:510  function mint(address /*to*/) external{... */\n    tag_7:\n      tag_26\n      0x04\n      dup1\n      calldatasize\n      sub\n      dup2\n      add\n      swap1\n      tag_27\n      swap2\n      swap1\n      tag_28\n      jump\t// in\n    tag_27:\n      tag_29\n      jump\t// in\n    tag_26:\n      stop\n        /* \"contracts/lesson29/Selector.sol\":2529:2856  function mappingParamSelector(DemoContract demo, User memory user, uint256[] memory count, School mySchool) external returns(bytes4 selectorWithMappingParam){... */\n    tag_8:\n      tag_30\n      0x04\n      dup1\n      calldatasize\n      sub\n      dup2\n      add\n      swap1\n      tag_31\n      swap2\n      swap1\n      tag_32\n      jump\t// in\n    tag_31:\n      tag_33\n      jump\t// in\n    tag_30:\n      mload(0x40)\n      tag_34\n      swap2\n      swap1\n      tag_15\n      jump\t// in\n    tag_34:\n      mload(0x40)\n      dup1\n      swap2\n      sub\n      swap1\n      return\n        /* \"contracts/lesson29/Selector.sol\":1551:1805  function fixedSizeParamSelector(uint256[3] memory param1) external returns(bytes4 selectorWithFixedSizeParam){... */\n    tag_9:\n      tag_35\n      0x04\n      dup1\n      calldatasize\n      sub\n      dup2\n      add\n      swap1\n      tag_36\n      swap2\n      swap1\n      tag_37\n      jump\t// in\n    tag_36:\n      tag_38\n      jump\t// in\n    tag_35:\n      mload(0x40)\n      tag_39\n      swap2\n      swap1\n      tag_15\n      jump\t// in\n    tag_39:\n      mload(0x40)\n      dup1\n      swap2\n      sub\n      swap1\n      return\n        /* \"contracts/lesson29/Selector.sol\":1985:2277  function nonFixedSizeParamSelector(uint256[] memory param1,string memory param2) external returns(bytes4 selectorWithNonFixedSizeParam){... */\n    tag_10:\n      tag_40\n      0x04\n      dup1\n      calldatasize\n      sub\n      dup2\n      add\n      swap1\n      tag_41\n      swap2\n      swap1\n      tag_42\n      jump\t// in\n    tag_41:\n      tag_43\n      jump\t// in\n    tag_40:\n      mload(0x40)\n      tag_44\n      swap2\n      swap1\n      tag_15\n      jump\t// in\n    tag_44:\n      mload(0x40)\n      dup1\n      swap2\n      sub\n      swap1\n      return\n        /* \"contracts/lesson29/Selector.sol\":790:986  function nonParamSelector() external returns(bytes4 selectorWithNonParam){... */\n    tag_13:\n        /* \"contracts/lesson29/Selector.sol\":835:862  bytes4 selectorWithNonParam */\n      0x00\n        /* \"contracts/lesson29/Selector.sol\":878:923  SelectorEvent(this.nonParamSelector.selector) */\n      0x87c76683e354abe8640b03c72d02c9175d9a00a6c0101d5bc4be081b9b8199eb\n        /* \"contracts/lesson29/Selector.sol\":892:922  this.nonParamSelector.selector */\n      shl(0xe0, 0x03817936)\n        /* \"contracts/lesson29/Selector.sol\":878:923  SelectorEvent(this.nonParamSelector.selector) */\n      mload(0x40)\n      tag_46\n      swap2\n      swap1\n      tag_15\n      jump\t// in\n    tag_46:\n      mload(0x40)\n      dup1\n      swap2\n      sub\n      swap1\n      log1\n        /* \"contracts/lesson29/Selector.sol\":947:978  keccak256(\"nonParamSelector()\") */\n      0x038179367d802aca924f17568b786520678fa7955b6cd468a00dd90b7cfbab40\n        /* \"contracts/lesson29/Selector.sol\":933:979  return bytes4(keccak256(\"nonParamSelector()\")) */\n      swap1\n      pop\n        /* \"contracts/lesson29/Selector.sol\":790:986  function nonParamSelector() external returns(bytes4 selectorWithNonParam){... */\n      swap1\n      jump\t// out\n        /* \"contracts/lesson29/Selector.sol\":576:697  function mintSelector() external pure returns(bytes4 mSelector){... */\n    tag_17:\n        /* \"contracts/lesson29/Selector.sol\":622:638  bytes4 mSelector */\n      0x00\n        /* \"contracts/lesson29/Selector.sol\":663:689  keccak256(\"mint(address)\") */\n      0x6a627842f752de95745ef8f3ca67858982b5f585d752f8163e5855050041cb3c\n        /* \"contracts/lesson29/Selector.sol\":649:690  return bytes4(keccak256(\"mint(address)\")) */\n      swap1\n      pop\n        /* \"contracts/lesson29/Selector.sol\":576:697  function mintSelector() external pure returns(bytes4 mSelector){... */\n      swap1\n      jump\t// out\n        /* \"contracts/lesson29/Selector.sol\":1138:1401  function elementaryParamSelector(uint256 param1, bool param2) external returns(bytes4 selectorWithElementaryParam){... */\n    tag_22:\n        /* \"contracts/lesson29/Selector.sol\":1217:1251  bytes4 selectorWithElementaryParam */\n      0x00\n        /* \"contracts/lesson29/Selector.sol\":1267:1319  SelectorEvent(this.elementaryParamSelector.selector) */\n      0x87c76683e354abe8640b03c72d02c9175d9a00a6c0101d5bc4be081b9b8199eb\n        /* \"contracts/lesson29/Selector.sol\":1281:1318  this.elementaryParamSelector.selector */\n      shl(0xe0, 0x3ec37834)\n        /* \"contracts/lesson29/Selector.sol\":1267:1319  SelectorEvent(this.elementaryParamSelector.selector) */\n      mload(0x40)\n      tag_49\n      swap2\n      swap1\n      tag_15\n      jump\t// in\n    tag_49:\n      mload(0x40)\n      dup1\n      swap2\n      sub\n      swap1\n      log1\n        /* \"contracts/lesson29/Selector.sol\":1343:1393  keccak256(\"elementaryParamSelector(uint256,bool)\") */\n      0x3ec3783488bfc90ed98dc398cd67f30f42b252c8ce7d59a4dce63a149c452548\n        /* \"contracts/lesson29/Selector.sol\":1329:1394  return bytes4(keccak256(\"elementaryParamSelector(uint256,bool)\")) */\n      swap1\n      pop\n        /* \"contracts/lesson29/Selector.sol\":1138:1401  function elementaryParamSelector(uint256 param1, bool param2) external returns(bytes4 selectorWithElementaryParam){... */\n      swap3\n      swap2\n      pop\n      pop\n      jump\t// out\n        /* \"contracts/lesson29/Selector.sol\":2899:4188  function callWithSignature() external{... */\n    tag_25:\n        /* \"contracts/lesson29/Selector.sol\":2980:3003  uint256[] memory param1 */\n      0x00\n        /* \"contracts/lesson29/Selector.sol\":3020:3021  3 */\n      0x03\n        /* \"contracts/lesson29/Selector.sol\":3006:3022  new uint256[](3) */\n      0xffffffffffffffff\n      dup2\n      gt\n      iszero\n      tag_51\n      jumpi\n      tag_52\n      tag_53\n      jump\t// in\n    tag_52:\n    tag_51:\n      mload(0x40)\n      swap1\n      dup1\n      dup3\n      mstore\n      dup1\n      0x20\n      mul\n      0x20\n      add\n      dup3\n      add\n      0x40\n      mstore\n      dup1\n      iszero\n      tag_54\n      jumpi\n      dup2\n      0x20\n      add\n      0x20\n      dup3\n      mul\n      dup1\n      calldatasize\n      dup4\n      calldatacopy\n      dup1\n      dup3\n      add\n      swap2\n      pop\n      pop\n      swap1\n      pop\n    tag_54:\n      pop\n        /* \"contracts/lesson29/Selector.sol\":2980:3022  uint256[] memory param1 = new uint256[](3) */\n      swap1\n      pop\n        /* \"contracts/lesson29/Selector.sol\":3044:3045  1 */\n      0x01\n        /* \"contracts/lesson29/Selector.sol\":3032:3038  param1 */\n      dup2\n        /* \"contracts/lesson29/Selector.sol\":3039:3040  0 */\n      0x00\n        /* \"contracts/lesson29/Selector.sol\":3032:3041  param1[0] */\n      dup2\n      mload\n      dup2\n      lt\n      tag_55\n      jumpi\n      tag_56\n      tag_57\n      jump\t// in\n    tag_56:\n    tag_55:\n      0x20\n      mul\n      0x20\n      add\n      add\n        /* \"contracts/lesson29/Selector.sol\":3032:3045  param1[0] = 1 */\n      dup2\n      dup2\n      mstore\n      pop\n      pop\n        /* \"contracts/lesson29/Selector.sol\":3067:3068  2 */\n      0x02\n        /* \"contracts/lesson29/Selector.sol\":3055:3061  param1 */\n      dup2\n        /* \"contracts/lesson29/Selector.sol\":3062:3063  1 */\n      0x01\n        /* \"contracts/lesson29/Selector.sol\":3055:3064  param1[1] */\n      dup2\n      mload\n      dup2\n      lt\n      tag_58\n      jumpi\n      tag_59\n      tag_57\n      jump\t// in\n    tag_59:\n    tag_58:\n      0x20\n      mul\n      0x20\n      add\n      add\n        /* \"contracts/lesson29/Selector.sol\":3055:3068  param1[1] = 2 */\n      dup2\n      dup2\n      mstore\n      pop\n      pop\n        /* \"contracts/lesson29/Selector.sol\":3090:3091  3 */\n      0x03\n        /* \"contracts/lesson29/Selector.sol\":3078:3084  param1 */\n      dup2\n        /* \"contracts/lesson29/Selector.sol\":3085:3086  2 */\n      0x02\n        /* \"contracts/lesson29/Selector.sol\":3078:3087  param1[2] */\n      dup2\n      mload\n      dup2\n      lt\n      tag_60\n      jumpi\n      tag_61\n      tag_57\n      jump\t// in\n    tag_61:\n    tag_60:\n      0x20\n      mul\n      0x20\n      add\n      add\n        /* \"contracts/lesson29/Selector.sol\":3078:3091  param1[2] = 3 */\n      dup2\n      dup2\n      mstore\n      pop\n      pop\n        /* \"contracts/lesson29/Selector.sol\":3129:3145  User memory user */\n      tag_62\n      tag_63\n      jump\t// in\n    tag_62:\n        /* \"contracts/lesson29/Selector.sol\":3166:3167  1 */\n      0x01\n        /* \"contracts/lesson29/Selector.sol\":3155:3159  user */\n      dup2\n        /* \"contracts/lesson29/Selector.sol\":3155:3163  user.uid */\n      0x00\n      add\n        /* \"contracts/lesson29/Selector.sol\":3155:3167  user.uid = 1 */\n      dup2\n      dup2\n      mstore\n      pop\n      pop\n        /* \"contracts/lesson29/Selector.sol\":3177:3197  user.name = \"0xa0b1\" */\n      mload(0x40)\n      dup1\n      0x40\n      add\n      0x40\n      mstore\n      dup1\n      0x06\n      dup2\n      mstore\n      0x20\n      add\n      0x3078613062310000000000000000000000000000000000000000000000000000\n      dup2\n      mstore\n      pop\n        /* \"contracts/lesson29/Selector.sol\":3177:3181  user */\n      dup2\n        /* \"contracts/lesson29/Selector.sol\":3177:3186  user.name */\n      0x20\n      add\n        /* \"contracts/lesson29/Selector.sol\":3177:3197  user.name = \"0xa0b1\" */\n      dup2\n      swap1\n      mstore\n      pop\n        /* \"contracts/lesson29/Selector.sol\":3330:3343  bool success0 */\n      0x00\n        /* \"contracts/lesson29/Selector.sol\":3345:3363  bytes memory data0 */\n      dup1\n        /* \"contracts/lesson29/Selector.sol\":3375:3379  this */\n      address\n        /* \"contracts/lesson29/Selector.sol\":3367:3385  address(this).call */\n      0xffffffffffffffffffffffffffffffffffffffff\n      and\n        /* \"contracts/lesson29/Selector.sol\":3409:3419  0x03817936 */\n      0x03817936\n        /* \"contracts/lesson29/Selector.sol\":3386:3420  abi.encodeWithSelector(0x03817936) */\n      add(0x24, mload(0x40))\n      mload(0x40)\n      0x20\n      dup2\n      dup4\n      sub\n      sub\n      dup2\n      mstore\n      swap1\n      0x40\n      mstore\n      swap1\n      0xe0\n      shl\n      0x20\n      dup3\n      add\n      dup1\n      mload\n      0xffffffffffffffffffffffffffffffffffffffffffffffffffffffff\n      dup4\n      dup2\n      dup4\n      and\n      or\n      dup4\n      mstore\n      pop\n      pop\n      pop\n      pop\n        /* \"contracts/lesson29/Selector.sol\":3367:3421  address(this).call(abi.encodeWithSelector(0x03817936)) */\n      mload(0x40)\n      tag_64\n      swap2\n      swap1\n      tag_65\n      jump\t// in\n    tag_64:\n      0x00\n      mload(0x40)\n      dup1\n      dup4\n      sub\n      dup2\n      0x00\n      dup7\n      gas\n      call\n      swap2\n      pop\n      pop\n      returndatasize\n      dup1\n      0x00\n      dup2\n      eq\n      tag_68\n      jumpi\n      mload(0x40)\n      swap2\n      pop\n      and(add(returndatasize, 0x3f), not(0x1f))\n      dup3\n      add\n      0x40\n      mstore\n      returndatasize\n      dup3\n      mstore\n      returndatasize\n      0x00\n      0x20\n      dup5\n      add\n      returndatacopy\n      jump(tag_67)\n    tag_68:\n      0x60\n      swap2\n      pop\n    tag_67:\n      pop\n        /* \"contracts/lesson29/Selector.sol\":3329:3421  (bool success0, bytes memory data0) = address(this).call(abi.encodeWithSelector(0x03817936)) */\n      swap2\n      pop\n      swap2\n      pop\n        /* \"contracts/lesson29/Selector.sol\":3479:3492  bool success1 */\n      0x00\n        /* \"contracts/lesson29/Selector.sol\":3494:3512  bytes memory data1 */\n      dup1\n        /* \"contracts/lesson29/Selector.sol\":3524:3528  this */\n      address\n        /* \"contracts/lesson29/Selector.sol\":3516:3534  address(this).call */\n      0xffffffffffffffffffffffffffffffffffffffff\n      and\n        /* \"contracts/lesson29/Selector.sol\":3558:3568  0x3ec37834 */\n      0x3ec37834\n        /* \"contracts/lesson29/Selector.sol\":3570:3571  1 */\n      0x01\n        /* \"contracts/lesson29/Selector.sol\":3573:3574  0 */\n      0x00\n        /* \"contracts/lesson29/Selector.sol\":3535:3575  abi.encodeWithSelector(0x3ec37834, 1, 0) */\n      add(0x24, mload(0x40))\n      tag_69\n      swap3\n      swap2\n      swap1\n      tag_70\n      jump\t// in\n    tag_69:\n      mload(0x40)\n      0x20\n      dup2\n      dup4\n      sub\n      sub\n      dup2\n      mstore\n      swap1\n      0x40\n      mstore\n      swap1\n      0xe0\n      shl\n      0x20\n      dup3\n      add\n      dup1\n      mload\n      0xffffffffffffffffffffffffffffffffffffffffffffffffffffffff\n      dup4\n      dup2\n      dup4\n      and\n      or\n      dup4\n      mstore\n      pop\n      pop\n      pop\n      pop\n        /* \"contracts/lesson29/Selector.sol\":3516:3576  address(this).call(abi.encodeWithSelector(0x3ec37834, 1, 0)) */\n      mload(0x40)\n      tag_71\n      swap2\n      swap1\n      tag_65\n      jump\t// in\n    tag_71:\n      0x00\n      mload(0x40)\n      dup1\n      dup4\n      sub\n      dup2\n      0x00\n      dup7\n      gas\n      call\n      swap2\n      pop\n      pop\n      returndatasize\n      dup1\n      0x00\n      dup2\n      eq\n      tag_74\n      jumpi\n      mload(0x40)\n      swap2\n      pop\n      and(add(returndatasize, 0x3f), not(0x1f))\n      dup3\n      add\n      0x40\n      mstore\n      returndatasize\n      dup3\n      mstore\n      returndatasize\n      0x00\n      0x20\n      dup5\n      add\n      returndatacopy\n      jump(tag_73)\n    tag_74:\n      0x60\n      swap2\n      pop\n    tag_73:\n      pop\n        /* \"contracts/lesson29/Selector.sol\":3478:3576  (bool success1, bytes memory data1) = address(this).call(abi.encodeWithSelector(0x3ec37834, 1, 0)) */\n      swap2\n      pop\n      swap2\n      pop\n        /* \"contracts/lesson29/Selector.sol\":3633:3646  bool success2 */\n      0x00\n        /* \"contracts/lesson29/Selector.sol\":3648:3666  bytes memory data2 */\n      dup1\n        /* \"contracts/lesson29/Selector.sol\":3678:3682  this */\n      address\n        /* \"contracts/lesson29/Selector.sol\":3670:3688  address(this).call */\n      0xffffffffffffffffffffffffffffffffffffffff\n      and\n        /* \"contracts/lesson29/Selector.sol\":3712:3722  0xead6b8bd */\n      0xead6b8bd\n        /* \"contracts/lesson29/Selector.sol\":3689:3732  abi.encodeWithSelector(0xead6b8bd, [1,2,3]) */\n      mload(0x40)\n      dup1\n      0x60\n      add\n      0x40\n      mstore\n      dup1\n        /* \"contracts/lesson29/Selector.sol\":3725:3726  1 */\n      0x01\n        /* \"contracts/lesson29/Selector.sol\":3689:3732  abi.encodeWithSelector(0xead6b8bd, [1,2,3]) */\n      0xff\n      and\n      dup2\n      mstore\n      0x20\n      add\n        /* \"contracts/lesson29/Selector.sol\":3727:3728  2 */\n      0x02\n        /* \"contracts/lesson29/Selector.sol\":3689:3732  abi.encodeWithSelector(0xead6b8bd, [1,2,3]) */\n      0xff\n      and\n      dup2\n      mstore\n      0x20\n      add\n        /* \"contracts/lesson29/Selector.sol\":3729:3730  3 */\n      0x03\n        /* \"contracts/lesson29/Selector.sol\":3689:3732  abi.encodeWithSelector(0xead6b8bd, [1,2,3]) */\n      0xff\n      and\n      dup2\n      mstore\n      pop\n      add(0x24, mload(0x40))\n      tag_75\n      swap2\n      swap1\n      tag_76\n      jump\t// in\n    tag_75:\n      mload(0x40)\n      0x20\n      dup2\n      dup4\n      sub\n      sub\n      dup2\n      mstore\n      swap1\n      0x40\n      mstore\n      swap1\n      0xe0\n      shl\n      0x20\n      dup3\n      add\n      dup1\n      mload\n      0xffffffffffffffffffffffffffffffffffffffffffffffffffffffff\n      dup4\n      dup2\n      dup4\n      and\n      or\n      dup4\n      mstore\n      pop\n      pop\n      pop\n      pop\n        /* \"contracts/lesson29/Selector.sol\":3670:3733  address(this).call(abi.encodeWithSelector(0xead6b8bd, [1,2,3])) */\n      mload(0x40)\n      tag_77\n      swap2\n      swap1\n      tag_65\n      jump\t// in\n    tag_77:\n      0x00\n      mload(0x40)\n      dup1\n      dup4\n      sub\n      dup2\n      0x00\n      dup7\n      gas\n      call\n      swap2\n      pop\n      pop\n      returndatasize\n      dup1\n      0x00\n      dup2\n      eq\n      tag_80\n      jumpi\n      mload(0x40)\n      swap2\n      pop\n      and(add(returndatasize, 0x3f), not(0x1f))\n      dup3\n      add\n      0x40\n      mstore\n      returndatasize\n      dup3\n      mstore\n      returndatasize\n      0x00\n      0x20\n      dup5\n      add\n      returndatacopy\n      jump(tag_79)\n    tag_80:\n      0x60\n      swap2\n      pop\n    tag_79:\n      pop\n        /* \"contracts/lesson29/Selector.sol\":3632:3733  (bool success2, bytes memory data2) = address(this).call(abi.encodeWithSelector(0xead6b8bd, [1,2,3])) */\n      swap2\n      pop\n      swap2\n      pop\n        /* \"contracts/lesson29/Selector.sol\":3793:3806  bool success3 */\n      0x00\n        /* \"contracts/lesson29/Selector.sol\":3808:3826  bytes memory data3 */\n      dup1\n        /* \"contracts/lesson29/Selector.sol\":3838:3842  this */\n      address\n        /* \"contracts/lesson29/Selector.sol\":3830:3848  address(this).call */\n      0xffffffffffffffffffffffffffffffffffffffff\n      and\n        /* \"contracts/lesson29/Selector.sol\":3872:3882  0xf0ca01de */\n      0xf0ca01de\n        /* \"contracts/lesson29/Selector.sol\":3884:3890  param1 */\n      dup12\n        /* \"contracts/lesson29/Selector.sol\":3849:3898  abi.encodeWithSelector(0xf0ca01de, param1, \"abc\") */\n      add(0x24, mload(0x40))\n      tag_81\n      swap2\n      swap1\n      tag_82\n      jump\t// in\n    tag_81:\n      mload(0x40)\n      0x20\n      dup2\n      dup4\n      sub\n      sub\n      dup2\n      mstore\n      swap1\n      0x40\n      mstore\n      swap1\n      0xe0\n      shl\n      0x20\n      dup3\n      add\n      dup1\n      mload\n      0xffffffffffffffffffffffffffffffffffffffffffffffffffffffff\n      dup4\n      dup2\n      dup4\n      and\n      or\n      dup4\n      mstore\n      pop\n      pop\n      pop\n      pop\n        /* \"contracts/lesson29/Selector.sol\":3830:3899  address(this).call(abi.encodeWithSelector(0xf0ca01de, param1, \"abc\")) */\n      mload(0x40)\n      tag_83\n      swap2\n      swap1\n      tag_65\n      jump\t// in\n    tag_83:\n      0x00\n      mload(0x40)\n      dup1\n      dup4\n      sub\n      dup2\n      0x00\n      dup7\n      gas\n      call\n      swap2\n      pop\n      pop\n      returndatasize\n      dup1\n      0x00\n      dup2\n      eq\n      tag_86\n      jumpi\n      mload(0x40)\n      swap2\n      pop\n      and(add(returndatasize, 0x3f), not(0x1f))\n      dup3\n      add\n      0x40\n      mstore\n      returndatasize\n      dup3\n      mstore\n      returndatasize\n      0x00\n      0x20\n      dup5\n      add\n      returndatacopy\n      jump(tag_85)\n    tag_86:\n      0x60\n      swap2\n      pop\n    tag_85:\n      pop\n        /* \"contracts/lesson29/Selector.sol\":3792:3899  (bool success3, bytes memory data3) = address(this).call(abi.encodeWithSelector(0xf0ca01de, param1, \"abc\")) */\n      swap2\n      pop\n      swap2\n      pop\n        /* \"contracts/lesson29/Selector.sol\":3954:3967  bool success4 */\n      0x00\n        /* \"contracts/lesson29/Selector.sol\":3969:3987  bytes memory data4 */\n      dup1\n        /* \"contracts/lesson29/Selector.sol\":3999:4003  this */\n      address\n        /* \"contracts/lesson29/Selector.sol\":3991:4009  address(this).call */\n      0xffffffffffffffffffffffffffffffffffffffff\n      and\n        /* \"contracts/lesson29/Selector.sol\":4033:4043  0xe355b0ce */\n      0xe355b0ce\n        /* \"contracts/lesson29/Selector.sol\":4045:4087  0x9D7f74d0C41E726EC95884E0e97Fa6129e3b5E99 */\n      0x9d7f74d0c41e726ec95884e0e97fa6129e3b5e99\n        /* \"contracts/lesson29/Selector.sol\":4089:4093  user */\n      dup14\n        /* \"contracts/lesson29/Selector.sol\":4095:4101  param1 */\n      dup16\n        /* \"contracts/lesson29/Selector.sol\":4103:4104  1 */\n      0x01\n        /* \"contracts/lesson29/Selector.sol\":4010:4105  abi.encodeWithSelector(0xe355b0ce, 0x9D7f74d0C41E726EC95884E0e97Fa6129e3b5E99, user, param1, 1) */\n      add(0x24, mload(0x40))\n      tag_87\n      swap5\n      swap4\n      swap3\n      swap2\n      swap1\n      tag_88\n      jump\t// in\n    tag_87:\n      mload(0x40)\n      0x20\n      dup2\n      dup4\n      sub\n      sub\n      dup2\n      mstore\n      swap1\n      0x40\n      mstore\n      swap1\n      0xe0\n      shl\n      0x20\n      dup3\n      add\n      dup1\n      mload\n      0xffffffffffffffffffffffffffffffffffffffffffffffffffffffff\n      dup4\n      dup2\n      dup4\n      and\n      or\n      dup4\n      mstore\n      pop\n      pop\n      pop\n      pop\n        /* \"contracts/lesson29/Selector.sol\":3991:4106  address(this).call(abi.encodeWithSelector(0xe355b0ce, 0x9D7f74d0C41E726EC95884E0e97Fa6129e3b5E99, user, param1, 1)) */\n      mload(0x40)\n      tag_89\n      swap2\n      swap1\n      tag_65\n      jump\t// in\n    tag_89:\n      0x00\n      mload(0x40)\n      dup1\n      dup4\n      sub\n      dup2\n      0x00\n      dup7\n      gas\n      call\n      swap2\n      pop\n      pop\n      returndatasize\n      dup1\n      0x00\n      dup2\n      eq\n      tag_92\n      jumpi\n      mload(0x40)\n      swap2\n      pop\n      and(add(returndatasize, 0x3f), not(0x1f))\n      dup3\n      add\n      0x40\n      mstore\n      returndatasize\n      dup3\n      mstore\n      returndatasize\n      0x00\n      0x20\n      dup5\n      add\n      returndatacopy\n      jump(tag_91)\n    tag_92:\n      0x60\n      swap2\n      pop\n    tag_91:\n      pop\n        /* \"contracts/lesson29/Selector.sol\":3953:4106  (bool success4, bytes memory data4) = address(this).call(abi.encodeWithSelector(0xe355b0ce, 0x9D7f74d0C41E726EC95884E0e97Fa6129e3b5E99, user, param1, 1)) */\n      swap2\n      pop\n      swap2\n      pop\n        /* \"contracts/lesson29/Selector.sol\":4124:4132  success0 */\n      dup10\n        /* \"contracts/lesson29/Selector.sol\":4124:4144  success0 && success1 */\n      dup1\n      iszero\n      tag_93\n      jumpi\n      pop\n        /* \"contracts/lesson29/Selector.sol\":4136:4144  success1 */\n      dup8\n        /* \"contracts/lesson29/Selector.sol\":4124:4144  success0 && success1 */\n    tag_93:\n        /* \"contracts/lesson29/Selector.sol\":4124:4156  success0 && success1 && success2 */\n      dup1\n      iszero\n      tag_94\n      jumpi\n      pop\n        /* \"contracts/lesson29/Selector.sol\":4148:4156  success2 */\n      dup6\n        /* \"contracts/lesson29/Selector.sol\":4124:4156  success0 && success1 && success2 */\n    tag_94:\n        /* \"contracts/lesson29/Selector.sol\":4124:4168  success0 && success1 && success2 && success3 */\n      dup1\n      iszero\n      tag_95\n      jumpi\n      pop\n        /* \"contracts/lesson29/Selector.sol\":4160:4168  success3 */\n      dup4\n        /* \"contracts/lesson29/Selector.sol\":4124:4168  success0 && success1 && success2 && success3 */\n    tag_95:\n        /* \"contracts/lesson29/Selector.sol\":4124:4180  success0 && success1 && success2 && success3 && success4 */\n      dup1\n      iszero\n      tag_96\n      jumpi\n      pop\n        /* \"contracts/lesson29/Selector.sol\":4172:4180  success4 */\n      dup2\n        /* \"contracts/lesson29/Selector.sol\":4124:4180  success0 && success1 && success2 && success3 && success4 */\n    tag_96:\n        /* \"contracts/lesson29/Selector.sol\":4116:4181  require(success0 && success1 && success2 && success3 && success4) */\n      tag_97\n      jumpi\n      0x00\n      dup1\n      revert\n    tag_97:\n        /* \"contracts/lesson29/Selector.sol\":2936:4188  {... */\n      pop\n      pop\n      pop\n      pop\n      pop\n      pop\n      pop\n      pop\n      pop\n      pop\n      pop\n      pop\n        /* \"contracts/lesson29/Selector.sol\":2899:4188  function callWithSignature() external{... */\n      jump\t// out\n        /* \"contracts/lesson29/Selector.sol\":437:510  function mint(address /*to*/) external{... */\n    tag_29:\n        /* \"contracts/lesson29/Selector.sol\":490:503  Log(msg.data) */\n      0xafabcf2dd47e06a477a89e49c03f8ebe8e0a7e94f775b25bbb24227c9d0110b2\n        /* \"contracts/lesson29/Selector.sol\":494:502  msg.data */\n      0x00\n      calldatasize\n        /* \"contracts/lesson29/Selector.sol\":490:503  Log(msg.data) */\n      mload(0x40)\n      tag_99\n      swap3\n      swap2\n      swap1\n      tag_100\n      jump\t// in\n    tag_99:\n      mload(0x40)\n      dup1\n      swap2\n      sub\n      swap1\n      log1\n        /* \"contracts/lesson29/Selector.sol\":437:510  function mint(address /*to*/) external{... */\n      pop\n      jump\t// out\n        /* \"contracts/lesson29/Selector.sol\":2529:2856  function mappingParamSelector(DemoContract demo, User memory user, uint256[] memory count, School mySchool) external returns(bytes4 selectorWithMappingParam){... */\n    tag_33:\n        /* \"contracts/lesson29/Selector.sol\":2654:2685  bytes4 selectorWithMappingParam */\n      0x00\n        /* \"contracts/lesson29/Selector.sol\":2701:2750  SelectorEvent(this.mappingParamSelector.selector) */\n      0x87c76683e354abe8640b03c72d02c9175d9a00a6c0101d5bc4be081b9b8199eb\n        /* \"contracts/lesson29/Selector.sol\":2715:2749  this.mappingParamSelector.selector */\n      shl(0xe0, 0xe355b0ce)\n        /* \"contracts/lesson29/Selector.sol\":2701:2750  SelectorEvent(this.mappingParamSelector.selector) */\n      mload(0x40)\n      tag_102\n      swap2\n      swap1\n      tag_15\n      jump\t// in\n    tag_102:\n      mload(0x40)\n      dup1\n      swap2\n      sub\n      swap1\n      log1\n        /* \"contracts/lesson29/Selector.sol\":2774:2848  keccak256(\"mappingParamSelector(address,(uint256,bytes),uint256[],uint8)\") */\n      0xe355b0ceecdc5a85bc460808aed3b4d8eaa7935dbf79d2db6ffcf71e5c352576\n        /* \"contracts/lesson29/Selector.sol\":2760:2849  return bytes4(keccak256(\"mappingParamSelector(address,(uint256,bytes),uint256[],uint8)\")) */\n      swap1\n      pop\n        /* \"contracts/lesson29/Selector.sol\":2529:2856  function mappingParamSelector(DemoContract demo, User memory user, uint256[] memory count, School mySchool) external returns(bytes4 selectorWithMappingParam){... */\n      swap5\n      swap4\n      pop\n      pop\n      pop\n      pop\n      jump\t// out\n        /* \"contracts/lesson29/Selector.sol\":1551:1805  function fixedSizeParamSelector(uint256[3] memory param1) external returns(bytes4 selectorWithFixedSizeParam){... */\n    tag_38:\n        /* \"contracts/lesson29/Selector.sol\":1626:1659  bytes4 selectorWithFixedSizeParam */\n      0x00\n        /* \"contracts/lesson29/Selector.sol\":1675:1726  SelectorEvent(this.fixedSizeParamSelector.selector) */\n      0x87c76683e354abe8640b03c72d02c9175d9a00a6c0101d5bc4be081b9b8199eb\n        /* \"contracts/lesson29/Selector.sol\":1689:1725  this.fixedSizeParamSelector.selector */\n      shl(0xe0, 0xead6b8bd)\n        /* \"contracts/lesson29/Selector.sol\":1675:1726  SelectorEvent(this.fixedSizeParamSelector.selector) */\n      mload(0x40)\n      tag_104\n      swap2\n      swap1\n      tag_15\n      jump\t// in\n    tag_104:\n      mload(0x40)\n      dup1\n      swap2\n      sub\n      swap1\n      log1\n        /* \"contracts/lesson29/Selector.sol\":1750:1797  keccak256(\"fixedSizeParamSelector(uint256[3])\") */\n      0xead6b8bdece33532847146a6fe63967e794ef7c18f3b888ae6fb3aebb4ef1b95\n        /* \"contracts/lesson29/Selector.sol\":1736:1798  return bytes4(keccak256(\"fixedSizeParamSelector(uint256[3])\")) */\n      swap1\n      pop\n        /* \"contracts/lesson29/Selector.sol\":1551:1805  function fixedSizeParamSelector(uint256[3] memory param1) external returns(bytes4 selectorWithFixedSizeParam){... */\n      swap2\n      swap1\n      pop\n      jump\t// out\n        /* \"contracts/lesson29/Selector.sol\":1985:2277  function nonFixedSizeParamSelector(uint256[] memory param1,string memory param2) external returns(bytes4 selectorWithNonFixedSizeParam){... */\n    tag_43:\n        /* \"contracts/lesson29/Selector.sol\":2083:2119  bytes4 selectorWithNonFixedSizeParam */\n      0x00\n        /* \"contracts/lesson29/Selector.sol\":2135:2189  SelectorEvent(this.nonFixedSizeParamSelector.selector) */\n      0x87c76683e354abe8640b03c72d02c9175d9a00a6c0101d5bc4be081b9b8199eb\n        /* \"contracts/lesson29/Selector.sol\":2149:2188  this.nonFixedSizeParamSelector.selector */\n      shl(0xe0, 0xf0ca01de)\n        /* \"contracts/lesson29/Selector.sol\":2135:2189  SelectorEvent(this.nonFixedSizeParamSelector.selector) */\n      mload(0x40)\n      tag_106\n      swap2\n      swap1\n      tag_15\n      jump\t// in\n    tag_106:\n      mload(0x40)\n      dup1\n      swap2\n      sub\n      swap1\n      log1\n        /* \"contracts/lesson29/Selector.sol\":2213:2269  keccak256(\"nonFixedSizeParamSelector(uint256[],string)\") */\n      0xf0ca01de95639524000d6ff4e9309b96c7f67f7961bf24b33f8b20e85f6ad977\n        /* \"contracts/lesson29/Selector.sol\":2199:2270  return bytes4(keccak256(\"nonFixedSizeParamSelector(uint256[],string)\")) */\n      swap1\n      pop\n        /* \"contracts/lesson29/Selector.sol\":1985:2277  function nonFixedSizeParamSelector(uint256[] memory param1,string memory param2) external returns(bytes4 selectorWithNonFixedSizeParam){... */\n      swap3\n      swap2\n      pop\n      pop\n      jump\t// out\n    tag_63:\n      mload(0x40)\n      dup1\n      0x40\n      add\n      0x40\n      mstore\n      dup1\n      0x00\n      dup2\n      mstore\n      0x20\n      add\n      0x60\n      dup2\n      mstore\n      pop\n      swap1\n      jump\t// out\n        /* \"#utility.yul\":7:156   */\n    tag_107:\n        /* \"#utility.yul\":43:50   */\n      0x00\n        /* \"#utility.yul\":83:149   */\n      0xffffffff00000000000000000000000000000000000000000000000000000000\n        /* \"#utility.yul\":76:81   */\n      dup3\n        /* \"#utility.yul\":72:150   */\n      and\n        /* \"#utility.yul\":61:150   */\n      swap1\n      pop\n        /* \"#utility.yul\":7:156   */\n      swap2\n      swap1\n      pop\n      jump\t// out\n        /* \"#utility.yul\":162:277   */\n    tag_108:\n        /* \"#utility.yul\":247:270   */\n      tag_187\n        /* \"#utility.yul\":264:269   */\n      dup2\n        /* \"#utility.yul\":247:270   */\n      tag_107\n      jump\t// in\n    tag_187:\n        /* \"#utility.yul\":242:245   */\n      dup3\n        /* \"#utility.yul\":235:271   */\n      mstore\n        /* \"#utility.yul\":162:277   */\n      pop\n      pop\n      jump\t// out\n        /* \"#utility.yul\":283:501   */\n    tag_15:\n        /* \"#utility.yul\":374:378   */\n      0x00\n        /* \"#utility.yul\":412:414   */\n      0x20\n        /* \"#utility.yul\":401:410   */\n      dup3\n        /* \"#utility.yul\":397:415   */\n      add\n        /* \"#utility.yul\":389:415   */\n      swap1\n      pop\n        /* \"#utility.yul\":425:494   */\n      tag_189\n        /* \"#utility.yul\":491:492   */\n      0x00\n        /* \"#utility.yul\":480:489   */\n      dup4\n        /* \"#utility.yul\":476:493   */\n      add\n        /* \"#utility.yul\":467:473   */\n      dup5\n        /* \"#utility.yul\":425:494   */\n      tag_108\n      jump\t// in\n    tag_189:\n        /* \"#utility.yul\":283:501   */\n      swap3\n      swap2\n      pop\n      pop\n      jump\t// out\n        /* \"#utility.yul\":507:582   */\n    tag_109:\n        /* \"#utility.yul\":540:546   */\n      0x00\n        /* \"#utility.yul\":573:575   */\n      0x40\n        /* \"#utility.yul\":567:576   */\n      mload\n        /* \"#utility.yul\":557:576   */\n      swap1\n      pop\n        /* \"#utility.yul\":507:582   */\n      swap1\n      jump\t// out\n        /* \"#utility.yul\":588:705   */\n    tag_110:\n        /* \"#utility.yul\":697:698   */\n      0x00\n        /* \"#utility.yul\":694:695   */\n      dup1\n        /* \"#utility.yul\":687:699   */\n      revert\n        /* \"#utility.yul\":711:828   */\n    tag_111:\n        /* \"#utility.yul\":820:821   */\n      0x00\n        /* \"#utility.yul\":817:818   */\n      dup1\n        /* \"#utility.yul\":810:822   */\n      revert\n        /* \"#utility.yul\":834:911   */\n    tag_112:\n        /* \"#utility.yul\":871:878   */\n      0x00\n        /* \"#utility.yul\":900:905   */\n      dup2\n        /* \"#utility.yul\":889:905   */\n      swap1\n      pop\n        /* \"#utility.yul\":834:911   */\n      swap2\n      swap1\n      pop\n      jump\t// out\n        /* \"#utility.yul\":917:1039   */\n    tag_113:\n        /* \"#utility.yul\":990:1014   */\n      tag_195\n        /* \"#utility.yul\":1008:1013   */\n      dup2\n        /* \"#utility.yul\":990:1014   */\n      tag_112\n      jump\t// in\n    tag_195:\n        /* \"#utility.yul\":983:988   */\n      dup2\n        /* \"#utility.yul\":980:1015   */\n      eq\n        /* \"#utility.yul\":970:1033   */\n      tag_196\n      jumpi\n        /* \"#utility.yul\":1029:1030   */\n      0x00\n        /* \"#utility.yul\":1026:1027   */\n      dup1\n        /* \"#utility.yul\":1019:1031   */\n      revert\n        /* \"#utility.yul\":970:1033   */\n    tag_196:\n        /* \"#utility.yul\":917:1039   */\n      pop\n      jump\t// out\n        /* \"#utility.yul\":1045:1184   */\n    tag_114:\n        /* \"#utility.yul\":1091:1096   */\n      0x00\n        /* \"#utility.yul\":1129:1135   */\n      dup2\n        /* \"#utility.yul\":1116:1136   */\n      calldataload\n        /* \"#utility.yul\":1107:1136   */\n      swap1\n      pop\n        /* \"#utility.yul\":1145:1178   */\n      tag_198\n        /* \"#utility.yul\":1172:1177   */\n      dup2\n        /* \"#utility.yul\":1145:1178   */\n      tag_113\n      jump\t// in\n    tag_198:\n        /* \"#utility.yul\":1045:1184   */\n      swap3\n      swap2\n      pop\n      pop\n      jump\t// out\n        /* \"#utility.yul\":1190:1280   */\n    tag_115:\n        /* \"#utility.yul\":1224:1231   */\n      0x00\n        /* \"#utility.yul\":1267:1272   */\n      dup2\n        /* \"#utility.yul\":1260:1273   */\n      iszero\n        /* \"#utility.yul\":1253:1274   */\n      iszero\n        /* \"#utility.yul\":1242:1274   */\n      swap1\n      pop\n        /* \"#utility.yul\":1190:1280   */\n      swap2\n      swap1\n      pop\n      jump\t// out\n        /* \"#utility.yul\":1286:1402   */\n    tag_116:\n        /* \"#utility.yul\":1356:1377   */\n      tag_201\n        /* \"#utility.yul\":1371:1376   */\n      dup2\n        /* \"#utility.yul\":1356:1377   */\n      tag_115\n      jump\t// in\n    tag_201:\n        /* \"#utility.yul\":1349:1354   */\n      dup2\n        /* \"#utility.yul\":1346:1378   */\n      eq\n        /* \"#utility.yul\":1336:1396   */\n      tag_202\n      jumpi\n        /* \"#utility.yul\":1392:1393   */\n      0x00\n        /* \"#utility.yul\":1389:1390   */\n      dup1\n        /* \"#utility.yul\":1382:1394   */\n      revert\n        /* \"#utility.yul\":1336:1396   */\n    tag_202:\n        /* \"#utility.yul\":1286:1402   */\n      pop\n      jump\t// out\n        /* \"#utility.yul\":1408:1541   */\n    tag_117:\n        /* \"#utility.yul\":1451:1456   */\n      0x00\n        /* \"#utility.yul\":1489:1495   */\n      dup2\n        /* \"#utility.yul\":1476:1496   */\n      calldataload\n        /* \"#utility.yul\":1467:1496   */\n      swap1\n      pop\n        /* \"#utility.yul\":1505:1535   */\n      tag_204\n        /* \"#utility.yul\":1529:1534   */\n      dup2\n        /* \"#utility.yul\":1505:1535   */\n      tag_116\n      jump\t// in\n    tag_204:\n        /* \"#utility.yul\":1408:1541   */\n      swap3\n      swap2\n      pop\n      pop\n      jump\t// out\n        /* \"#utility.yul\":1547:2015   */\n    tag_21:\n        /* \"#utility.yul\":1612:1618   */\n      0x00\n        /* \"#utility.yul\":1620:1626   */\n      dup1\n        /* \"#utility.yul\":1669:1671   */\n      0x40\n        /* \"#utility.yul\":1657:1666   */\n      dup4\n        /* \"#utility.yul\":1648:1655   */\n      dup6\n        /* \"#utility.yul\":1644:1667   */\n      sub\n        /* \"#utility.yul\":1640:1672   */\n      slt\n        /* \"#utility.yul\":1637:1756   */\n      iszero\n      tag_206\n      jumpi\n        /* \"#utility.yul\":1675:1754   */\n      tag_207\n      tag_110\n      jump\t// in\n    tag_207:\n        /* \"#utility.yul\":1637:1756   */\n    tag_206:\n        /* \"#utility.yul\":1795:1796   */\n      0x00\n        /* \"#utility.yul\":1820:1873   */\n      tag_208\n        /* \"#utility.yul\":1865:1872   */\n      dup6\n        /* \"#utility.yul\":1856:1862   */\n      dup3\n        /* \"#utility.yul\":1845:1854   */\n      dup7\n        /* \"#utility.yul\":1841:1863   */\n      add\n        /* \"#utility.yul\":1820:1873   */\n      tag_114\n      jump\t// in\n    tag_208:\n        /* \"#utility.yul\":1810:1873   */\n      swap3\n      pop\n        /* \"#utility.yul\":1766:1883   */\n      pop\n        /* \"#utility.yul\":1922:1924   */\n      0x20\n        /* \"#utility.yul\":1948:1998   */\n      tag_209\n        /* \"#utility.yul\":1990:1997   */\n      dup6\n        /* \"#utility.yul\":1981:1987   */\n      dup3\n        /* \"#utility.yul\":1970:1979   */\n      dup7\n        /* \"#utility.yul\":1966:1988   */\n      add\n        /* \"#utility.yul\":1948:1998   */\n      tag_117\n      jump\t// in\n    tag_209:\n        /* \"#utility.yul\":1938:1998   */\n      swap2\n      pop\n        /* \"#utility.yul\":1893:2008   */\n      pop\n        /* \"#utility.yul\":1547:2015   */\n      swap3\n      pop\n      swap3\n      swap1\n      pop\n      jump\t// out\n        /* \"#utility.yul\":2021:2147   */\n    tag_118:\n        /* \"#utility.yul\":2058:2065   */\n      0x00\n        /* \"#utility.yul\":2098:2140   */\n      0xffffffffffffffffffffffffffffffffffffffff\n        /* \"#utility.yul\":2091:2096   */\n      dup3\n        /* \"#utility.yul\":2087:2141   */\n      and\n        /* \"#utility.yul\":2076:2141   */\n      swap1\n      pop\n        /* \"#utility.yul\":2021:2147   */\n      swap2\n      swap1\n      pop\n      jump\t// out\n        /* \"#utility.yul\":2153:2249   */\n    tag_119:\n        /* \"#utility.yul\":2190:2197   */\n      0x00\n        /* \"#utility.yul\":2219:2243   */\n      tag_212\n        /* \"#utility.yul\":2237:2242   */\n      dup3\n        /* \"#utility.yul\":2219:2243   */\n      tag_118\n      jump\t// in\n    tag_212:\n        /* \"#utility.yul\":2208:2243   */\n      swap1\n      pop\n        /* \"#utility.yul\":2153:2249   */\n      swap2\n      swap1\n      pop\n      jump\t// out\n        /* \"#utility.yul\":2255:2377   */\n    tag_120:\n        /* \"#utility.yul\":2328:2352   */\n      tag_214\n        /* \"#utility.yul\":2346:2351   */\n      dup2\n        /* \"#utility.yul\":2328:2352   */\n      tag_119\n      jump\t// in\n    tag_214:\n        /* \"#utility.yul\":2321:2326   */\n      dup2\n        /* \"#utility.yul\":2318:2353   */\n      eq\n        /* \"#utility.yul\":2308:2371   */\n      tag_215\n      jumpi\n        /* \"#utility.yul\":2367:2368   */\n      0x00\n        /* \"#utility.yul\":2364:2365   */\n      dup1\n        /* \"#utility.yul\":2357:2369   */\n      revert\n        /* \"#utility.yul\":2308:2371   */\n    tag_215:\n        /* \"#utility.yul\":2255:2377   */\n      pop\n      jump\t// out\n        /* \"#utility.yul\":2383:2522   */\n    tag_121:\n        /* \"#utility.yul\":2429:2434   */\n      0x00\n        /* \"#utility.yul\":2467:2473   */\n      dup2\n        /* \"#utility.yul\":2454:2474   */\n      calldataload\n        /* \"#utility.yul\":2445:2474   */\n      swap1\n      pop\n        /* \"#utility.yul\":2483:2516   */\n      tag_217\n        /* \"#utility.yul\":2510:2515   */\n      dup2\n        /* \"#utility.yul\":2483:2516   */\n      tag_120\n      jump\t// in\n    tag_217:\n        /* \"#utility.yul\":2383:2522   */\n      swap3\n      swap2\n      pop\n      pop\n      jump\t// out\n        /* \"#utility.yul\":2528:2857   */\n    tag_28:\n        /* \"#utility.yul\":2587:2593   */\n      0x00\n        /* \"#utility.yul\":2636:2638   */\n      0x20\n        /* \"#utility.yul\":2624:2633   */\n      dup3\n        /* \"#utility.yul\":2615:2622   */\n      dup5\n        /* \"#utility.yul\":2611:2634   */\n      sub\n        /* \"#utility.yul\":2607:2639   */\n      slt\n        /* \"#utility.yul\":2604:2723   */\n      iszero\n      tag_219\n      jumpi\n        /* \"#utility.yul\":2642:2721   */\n      tag_220\n      tag_110\n      jump\t// in\n    tag_220:\n        /* \"#utility.yul\":2604:2723   */\n    tag_219:\n        /* \"#utility.yul\":2762:2763   */\n      0x00\n        /* \"#utility.yul\":2787:2840   */\n      tag_221\n        /* \"#utility.yul\":2832:2839   */\n      dup5\n        /* \"#utility.yul\":2823:2829   */\n      dup3\n        /* \"#utility.yul\":2812:2821   */\n      dup6\n        /* \"#utility.yul\":2808:2830   */\n      add\n        /* \"#utility.yul\":2787:2840   */\n      tag_121\n      jump\t// in\n    tag_221:\n        /* \"#utility.yul\":2777:2840   */\n      swap2\n      pop\n        /* \"#utility.yul\":2733:2850   */\n      pop\n        /* \"#utility.yul\":2528:2857   */\n      swap3\n      swap2\n      pop\n      pop\n      jump\t// out\n        /* \"#utility.yul\":2863:2977   */\n    tag_122:\n        /* \"#utility.yul\":2918:2925   */\n      0x00\n        /* \"#utility.yul\":2947:2971   */\n      tag_223\n        /* \"#utility.yul\":2965:2970   */\n      dup3\n        /* \"#utility.yul\":2947:2971   */\n      tag_119\n      jump\t// in\n    tag_223:\n        /* \"#utility.yul\":2936:2971   */\n      swap1\n      pop\n        /* \"#utility.yul\":2863:2977   */\n      swap2\n      swap1\n      pop\n      jump\t// out\n        /* \"#utility.yul\":2983:3141   */\n    tag_123:\n        /* \"#utility.yul\":3074:3116   */\n      tag_225\n        /* \"#utility.yul\":3110:3115   */\n      dup2\n        /* \"#utility.yul\":3074:3116   */\n      tag_122\n      jump\t// in\n    tag_225:\n        /* \"#utility.yul\":3067:3072   */\n      dup2\n        /* \"#utility.yul\":3064:3117   */\n      eq\n        /* \"#utility.yul\":3054:3135   */\n      tag_226\n      jumpi\n        /* \"#utility.yul\":3131:3132   */\n      0x00\n        /* \"#utility.yul\":3128:3129   */\n      dup1\n        /* \"#utility.yul\":3121:3133   */\n      revert\n        /* \"#utility.yul\":3054:3135   */\n    tag_226:\n        /* \"#utility.yul\":2983:3141   */\n      pop\n      jump\t// out\n        /* \"#utility.yul\":3147:3322   */\n    tag_124:\n        /* \"#utility.yul\":3211:3216   */\n      0x00\n        /* \"#utility.yul\":3249:3255   */\n      dup2\n        /* \"#utility.yul\":3236:3256   */\n      calldataload\n        /* \"#utility.yul\":3227:3256   */\n      swap1\n      pop\n        /* \"#utility.yul\":3265:3316   */\n      tag_228\n        /* \"#utility.yul\":3310:3315   */\n      dup2\n        /* \"#utility.yul\":3265:3316   */\n      tag_123\n      jump\t// in\n    tag_228:\n        /* \"#utility.yul\":3147:3322   */\n      swap3\n      swap2\n      pop\n      pop\n      jump\t// out\n        /* \"#utility.yul\":3328:3445   */\n    tag_125:\n        /* \"#utility.yul\":3437:3438   */\n      0x00\n        /* \"#utility.yul\":3434:3435   */\n      dup1\n        /* \"#utility.yul\":3427:3439   */\n      revert\n        /* \"#utility.yul\":3451:3553   */\n    tag_126:\n        /* \"#utility.yul\":3492:3498   */\n      0x00\n        /* \"#utility.yul\":3543:3545   */\n      0x1f\n        /* \"#utility.yul\":3539:3546   */\n      not\n        /* \"#utility.yul\":3534:3536   */\n      0x1f\n        /* \"#utility.yul\":3527:3532   */\n      dup4\n        /* \"#utility.yul\":3523:3537   */\n      add\n        /* \"#utility.yul\":3519:3547   */\n      and\n        /* \"#utility.yul\":3509:3547   */\n      swap1\n      pop\n        /* \"#utility.yul\":3451:3553   */\n      swap2\n      swap1\n      pop\n      jump\t// out\n        /* \"#utility.yul\":3559:3739   */\n    tag_53:\n        /* \"#utility.yul\":3607:3684   */\n      0x4e487b7100000000000000000000000000000000000000000000000000000000\n        /* \"#utility.yul\":3604:3605   */\n      0x00\n        /* \"#utility.yul\":3597:3685   */\n      mstore\n        /* \"#utility.yul\":3704:3708   */\n      0x41\n        /* \"#utility.yul\":3701:3702   */\n      0x04\n        /* \"#utility.yul\":3694:3709   */\n      mstore\n        /* \"#utility.yul\":3728:3732   */\n      0x24\n        /* \"#utility.yul\":3725:3726   */\n      0x00\n        /* \"#utility.yul\":3718:3733   */\n      revert\n        /* \"#utility.yul\":3745:4026   */\n    tag_127:\n        /* \"#utility.yul\":3828:3855   */\n      tag_233\n        /* \"#utility.yul\":3850:3854   */\n      dup3\n        /* \"#utility.yul\":3828:3855   */\n      tag_126\n      jump\t// in\n    tag_233:\n        /* \"#utility.yul\":3820:3826   */\n      dup2\n        /* \"#utility.yul\":3816:3856   */\n      add\n        /* \"#utility.yul\":3958:3964   */\n      dup2\n        /* \"#utility.yul\":3946:3956   */\n      dup2\n        /* \"#utility.yul\":3943:3965   */\n      lt\n        /* \"#utility.yul\":3922:3940   */\n      0xffffffffffffffff\n        /* \"#utility.yul\":3910:3920   */\n      dup3\n        /* \"#utility.yul\":3907:3941   */\n      gt\n        /* \"#utility.yul\":3904:3966   */\n      or\n        /* \"#utility.yul\":3901:3989   */\n      iszero\n      tag_234\n      jumpi\n        /* \"#utility.yul\":3969:3987   */\n      tag_235\n      tag_53\n      jump\t// in\n    tag_235:\n        /* \"#utility.yul\":3901:3989   */\n    tag_234:\n        /* \"#utility.yul\":4009:4019   */\n      dup1\n        /* \"#utility.yul\":4005:4007   */\n      0x40\n        /* \"#utility.yul\":3998:4020   */\n      mstore\n        /* \"#utility.yul\":3788:4026   */\n      pop\n        /* \"#utility.yul\":3745:4026   */\n      pop\n      pop\n      jump\t// out\n        /* \"#utility.yul\":4032:4161   */\n    tag_128:\n        /* \"#utility.yul\":4066:4072   */\n      0x00\n        /* \"#utility.yul\":4093:4113   */\n      tag_237\n      tag_109\n      jump\t// in\n    tag_237:\n        /* \"#utility.yul\":4083:4113   */\n      swap1\n      pop\n        /* \"#utility.yul\":4122:4155   */\n      tag_238\n        /* \"#utility.yul\":4150:4154   */\n      dup3\n        /* \"#utility.yul\":4142:4148   */\n      dup3\n        /* \"#utility.yul\":4122:4155   */\n      tag_127\n      jump\t// in\n    tag_238:\n        /* \"#utility.yul\":4032:4161   */\n      swap2\n      swap1\n      pop\n      jump\t// out\n        /* \"#utility.yul\":4167:4284   */\n    tag_129:\n        /* \"#utility.yul\":4276:4277   */\n      0x00\n        /* \"#utility.yul\":4273:4274   */\n      dup1\n        /* \"#utility.yul\":4266:4278   */\n      revert\n        /* \"#utility.yul\":4290:4407   */\n    tag_130:\n        /* \"#utility.yul\":4399:4400   */\n      0x00\n        /* \"#utility.yul\":4396:4397   */\n      dup1\n        /* \"#utility.yul\":4389:4401   */\n      revert\n        /* \"#utility.yul\":4413:4530   */\n    tag_131:\n        /* \"#utility.yul\":4522:4523   */\n      0x00\n        /* \"#utility.yul\":4519:4520   */\n      dup1\n        /* \"#utility.yul\":4512:4524   */\n      revert\n        /* \"#utility.yul\":4536:4843   */\n    tag_132:\n        /* \"#utility.yul\":4597:4601   */\n      0x00\n        /* \"#utility.yul\":4687:4705   */\n      0xffffffffffffffff\n        /* \"#utility.yul\":4679:4685   */\n      dup3\n        /* \"#utility.yul\":4676:4706   */\n      gt\n        /* \"#utility.yul\":4673:4729   */\n      iszero\n      tag_243\n      jumpi\n        /* \"#utility.yul\":4709:4727   */\n      tag_244\n      tag_53\n      jump\t// in\n    tag_244:\n        /* \"#utility.yul\":4673:4729   */\n    tag_243:\n        /* \"#utility.yul\":4747:4776   */\n      tag_245\n        /* \"#utility.yul\":4769:4775   */\n      dup3\n        /* \"#utility.yul\":4747:4776   */\n      tag_126\n      jump\t// in\n    tag_245:\n        /* \"#utility.yul\":4739:4776   */\n      swap1\n      pop\n        /* \"#utility.yul\":4831:4835   */\n      0x20\n        /* \"#utility.yul\":4825:4829   */\n      dup2\n        /* \"#utility.yul\":4821:4836   */\n      add\n        /* \"#utility.yul\":4813:4836   */\n      swap1\n      pop\n        /* \"#utility.yul\":4536:4843   */\n      swap2\n      swap1\n      pop\n      jump\t// out\n        /* \"#utility.yul\":4849:4997   */\n    tag_133:\n        /* \"#utility.yul\":4947:4953   */\n      dup3\n        /* \"#utility.yul\":4942:4945   */\n      dup2\n        /* \"#utility.yul\":4937:4940   */\n      dup4\n        /* \"#utility.yul\":4924:4954   */\n      calldatacopy\n        /* \"#utility.yul\":4988:4989   */\n      0x00\n        /* \"#utility.yul\":4979:4985   */\n      dup4\n        /* \"#utility.yul\":4974:4977   */\n      dup4\n        /* \"#utility.yul\":4970:4986   */\n      add\n        /* \"#utility.yul\":4963:4990   */\n      mstore\n        /* \"#utility.yul\":4849:4997   */\n      pop\n      pop\n      pop\n      jump\t// out\n        /* \"#utility.yul\":5003:5426   */\n    tag_134:\n        /* \"#utility.yul\":5080:5085   */\n      0x00\n        /* \"#utility.yul\":5105:5170   */\n      tag_248\n        /* \"#utility.yul\":5121:5169   */\n      tag_249\n        /* \"#utility.yul\":5162:5168   */\n      dup5\n        /* \"#utility.yul\":5121:5169   */\n      tag_132\n      jump\t// in\n    tag_249:\n        /* \"#utility.yul\":5105:5170   */\n      tag_128\n      jump\t// in\n    tag_248:\n        /* \"#utility.yul\":5096:5170   */\n      swap1\n      pop\n        /* \"#utility.yul\":5193:5199   */\n      dup3\n        /* \"#utility.yul\":5186:5191   */\n      dup2\n        /* \"#utility.yul\":5179:5200   */\n      mstore\n        /* \"#utility.yul\":5231:5235   */\n      0x20\n        /* \"#utility.yul\":5224:5229   */\n      dup2\n        /* \"#utility.yul\":5220:5236   */\n      add\n        /* \"#utility.yul\":5269:5272   */\n      dup5\n        /* \"#utility.yul\":5260:5266   */\n      dup5\n        /* \"#utility.yul\":5255:5258   */\n      dup5\n        /* \"#utility.yul\":5251:5267   */\n      add\n        /* \"#utility.yul\":5248:5273   */\n      gt\n        /* \"#utility.yul\":5245:5357   */\n      iszero\n      tag_250\n      jumpi\n        /* \"#utility.yul\":5276:5355   */\n      tag_251\n      tag_131\n      jump\t// in\n    tag_251:\n        /* \"#utility.yul\":5245:5357   */\n    tag_250:\n        /* \"#utility.yul\":5366:5420   */\n      tag_252\n        /* \"#utility.yul\":5413:5419   */\n      dup5\n        /* \"#utility.yul\":5408:5411   */\n      dup3\n        /* \"#utility.yul\":5403:5406   */\n      dup6\n        /* \"#utility.yul\":5366:5420   */\n      tag_133\n      jump\t// in\n    tag_252:\n        /* \"#utility.yul\":5086:5426   */\n      pop\n        /* \"#utility.yul\":5003:5426   */\n      swap4\n      swap3\n      pop\n      pop\n      pop\n      jump\t// out\n        /* \"#utility.yul\":5445:5783   */\n    tag_135:\n        /* \"#utility.yul\":5500:5505   */\n      0x00\n        /* \"#utility.yul\":5549:5552   */\n      dup3\n        /* \"#utility.yul\":5542:5546   */\n      0x1f\n        /* \"#utility.yul\":5534:5540   */\n      dup4\n        /* \"#utility.yul\":5530:5547   */\n      add\n        /* \"#utility.yul\":5526:5553   */\n      slt\n        /* \"#utility.yul\":5516:5638   */\n      tag_254\n      jumpi\n        /* \"#utility.yul\":5557:5636   */\n      tag_255\n      tag_130\n      jump\t// in\n    tag_255:\n        /* \"#utility.yul\":5516:5638   */\n    tag_254:\n        /* \"#utility.yul\":5674:5680   */\n      dup2\n        /* \"#utility.yul\":5661:5681   */\n      calldataload\n        /* \"#utility.yul\":5699:5777   */\n      tag_256\n        /* \"#utility.yul\":5773:5776   */\n      dup5\n        /* \"#utility.yul\":5765:5771   */\n      dup3\n        /* \"#utility.yul\":5758:5762   */\n      0x20\n        /* \"#utility.yul\":5750:5756   */\n      dup7\n        /* \"#utility.yul\":5746:5763   */\n      add\n        /* \"#utility.yul\":5699:5777   */\n      tag_134\n      jump\t// in\n    tag_256:\n        /* \"#utility.yul\":5690:5777   */\n      swap2\n      pop\n        /* \"#utility.yul\":5506:5783   */\n      pop\n        /* \"#utility.yul\":5445:5783   */\n      swap3\n      swap2\n      pop\n      pop\n      jump\t// out\n        /* \"#utility.yul\":5817:6554   */\n    tag_136:\n        /* \"#utility.yul\":5886:5891   */\n      0x00\n        /* \"#utility.yul\":5930:5934   */\n      0x40\n        /* \"#utility.yul\":5918:5927   */\n      dup3\n        /* \"#utility.yul\":5913:5916   */\n      dup5\n        /* \"#utility.yul\":5909:5928   */\n      sub\n        /* \"#utility.yul\":5905:5935   */\n      slt\n        /* \"#utility.yul\":5902:6019   */\n      iszero\n      tag_258\n      jumpi\n        /* \"#utility.yul\":5938:6017   */\n      tag_259\n      tag_125\n      jump\t// in\n    tag_259:\n        /* \"#utility.yul\":5902:6019   */\n    tag_258:\n        /* \"#utility.yul\":6037:6058   */\n      tag_260\n        /* \"#utility.yul\":6053:6057   */\n      0x40\n        /* \"#utility.yul\":6037:6058   */\n      tag_128\n      jump\t// in\n    tag_260:\n        /* \"#utility.yul\":6028:6058   */\n      swap1\n      pop\n        /* \"#utility.yul\":6116:6117   */\n      0x00\n        /* \"#utility.yul\":6156:6205   */\n      tag_261\n        /* \"#utility.yul\":6201:6204   */\n      dup5\n        /* \"#utility.yul\":6192:6198   */\n      dup3\n        /* \"#utility.yul\":6181:6190   */\n      dup6\n        /* \"#utility.yul\":6177:6199   */\n      add\n        /* \"#utility.yul\":6156:6205   */\n      tag_114\n      jump\t// in\n    tag_261:\n        /* \"#utility.yul\":6149:6153   */\n      0x00\n        /* \"#utility.yul\":6142:6147   */\n      dup4\n        /* \"#utility.yul\":6138:6154   */\n      add\n        /* \"#utility.yul\":6131:6206   */\n      mstore\n        /* \"#utility.yul\":6068:6217   */\n      pop\n        /* \"#utility.yul\":6304:6306   */\n      0x20\n        /* \"#utility.yul\":6293:6302   */\n      dup3\n        /* \"#utility.yul\":6289:6307   */\n      add\n        /* \"#utility.yul\":6276:6308   */\n      calldataload\n        /* \"#utility.yul\":6335:6353   */\n      0xffffffffffffffff\n        /* \"#utility.yul\":6327:6333   */\n      dup2\n        /* \"#utility.yul\":6324:6354   */\n      gt\n        /* \"#utility.yul\":6321:6438   */\n      iszero\n      tag_262\n      jumpi\n        /* \"#utility.yul\":6357:6436   */\n      tag_263\n      tag_129\n      jump\t// in\n    tag_263:\n        /* \"#utility.yul\":6321:6438   */\n    tag_262:\n        /* \"#utility.yul\":6477:6535   */\n      tag_264\n        /* \"#utility.yul\":6531:6534   */\n      dup5\n        /* \"#utility.yul\":6522:6528   */\n      dup3\n        /* \"#utility.yul\":6511:6520   */\n      dup6\n        /* \"#utility.yul\":6507:6529   */\n      add\n        /* \"#utility.yul\":6477:6535   */\n      tag_135\n      jump\t// in\n    tag_264:\n        /* \"#utility.yul\":6470:6474   */\n      0x20\n        /* \"#utility.yul\":6463:6468   */\n      dup4\n        /* \"#utility.yul\":6459:6475   */\n      add\n        /* \"#utility.yul\":6452:6536   */\n      mstore\n        /* \"#utility.yul\":6227:6547   */\n      pop\n        /* \"#utility.yul\":5817:6554   */\n      swap3\n      swap2\n      pop\n      pop\n      jump\t// out\n        /* \"#utility.yul\":6560:6871   */\n    tag_137:\n        /* \"#utility.yul\":6637:6641   */\n      0x00\n        /* \"#utility.yul\":6727:6745   */\n      0xffffffffffffffff\n        /* \"#utility.yul\":6719:6725   */\n      dup3\n        /* \"#utility.yul\":6716:6746   */\n      gt\n        /* \"#utility.yul\":6713:6769   */\n      iszero\n      tag_266\n      jumpi\n        /* \"#utility.yul\":6749:6767   */\n      tag_267\n      tag_53\n      jump\t// in\n    tag_267:\n        /* \"#utility.yul\":6713:6769   */\n    tag_266:\n        /* \"#utility.yul\":6799:6803   */\n      0x20\n        /* \"#utility.yul\":6791:6797   */\n      dup3\n        /* \"#utility.yul\":6787:6804   */\n      mul\n        /* \"#utility.yul\":6779:6804   */\n      swap1\n      pop\n        /* \"#utility.yul\":6859:6863   */\n      0x20\n        /* \"#utility.yul\":6853:6857   */\n      dup2\n        /* \"#utility.yul\":6849:6864   */\n      add\n        /* \"#utility.yul\":6841:6864   */\n      swap1\n      pop\n        /* \"#utility.yul\":6560:6871   */\n      swap2\n      swap1\n      pop\n      jump\t// out\n        /* \"#utility.yul\":6877:6994   */\n    tag_138:\n        /* \"#utility.yul\":6986:6987   */\n      0x00\n        /* \"#utility.yul\":6983:6984   */\n      dup1\n        /* \"#utility.yul\":6976:6988   */\n      revert\n        /* \"#utility.yul\":7017:7727   */\n    tag_139:\n        /* \"#utility.yul\":7113:7118   */\n      0x00\n        /* \"#utility.yul\":7138:7219   */\n      tag_270\n        /* \"#utility.yul\":7154:7218   */\n      tag_271\n        /* \"#utility.yul\":7211:7217   */\n      dup5\n        /* \"#utility.yul\":7154:7218   */\n      tag_137\n      jump\t// in\n    tag_271:\n        /* \"#utility.yul\":7138:7219   */\n      tag_128\n      jump\t// in\n    tag_270:\n        /* \"#utility.yul\":7129:7219   */\n      swap1\n      pop\n        /* \"#utility.yul\":7239:7244   */\n      dup1\n        /* \"#utility.yul\":7268:7274   */\n      dup4\n        /* \"#utility.yul\":7261:7266   */\n      dup3\n        /* \"#utility.yul\":7254:7275   */\n      mstore\n        /* \"#utility.yul\":7302:7306   */\n      0x20\n        /* \"#utility.yul\":7295:7300   */\n      dup3\n        /* \"#utility.yul\":7291:7307   */\n      add\n        /* \"#utility.yul\":7284:7307   */\n      swap1\n      pop\n        /* \"#utility.yul\":7355:7359   */\n      0x20\n        /* \"#utility.yul\":7347:7353   */\n      dup5\n        /* \"#utility.yul\":7343:7360   */\n      mul\n        /* \"#utility.yul\":7335:7341   */\n      dup4\n        /* \"#utility.yul\":7331:7361   */\n      add\n        /* \"#utility.yul\":7384:7387   */\n      dup6\n        /* \"#utility.yul\":7376:7382   */\n      dup2\n        /* \"#utility.yul\":7373:7388   */\n      gt\n        /* \"#utility.yul\":7370:7492   */\n      iszero\n      tag_272\n      jumpi\n        /* \"#utility.yul\":7403:7482   */\n      tag_273\n      tag_138\n      jump\t// in\n    tag_273:\n        /* \"#utility.yul\":7370:7492   */\n    tag_272:\n        /* \"#utility.yul\":7518:7524   */\n      dup4\n        /* \"#utility.yul\":7501:7721   */\n    tag_274:\n        /* \"#utility.yul\":7535:7541   */\n      dup2\n        /* \"#utility.yul\":7530:7533   */\n      dup2\n        /* \"#utility.yul\":7527:7542   */\n      lt\n        /* \"#utility.yul\":7501:7721   */\n      iszero\n      tag_276\n      jumpi\n        /* \"#utility.yul\":7610:7613   */\n      dup1\n        /* \"#utility.yul\":7639:7676   */\n      tag_277\n        /* \"#utility.yul\":7672:7675   */\n      dup9\n        /* \"#utility.yul\":7660:7670   */\n      dup3\n        /* \"#utility.yul\":7639:7676   */\n      tag_114\n      jump\t// in\n    tag_277:\n        /* \"#utility.yul\":7634:7637   */\n      dup5\n        /* \"#utility.yul\":7627:7677   */\n      mstore\n        /* \"#utility.yul\":7706:7710   */\n      0x20\n        /* \"#utility.yul\":7701:7704   */\n      dup5\n        /* \"#utility.yul\":7697:7711   */\n      add\n        /* \"#utility.yul\":7690:7711   */\n      swap4\n      pop\n        /* \"#utility.yul\":7577:7721   */\n      pop\n        /* \"#utility.yul\":7561:7565   */\n      0x20\n        /* \"#utility.yul\":7556:7559   */\n      dup2\n        /* \"#utility.yul\":7552:7566   */\n      add\n        /* \"#utility.yul\":7545:7566   */\n      swap1\n      pop\n        /* \"#utility.yul\":7501:7721   */\n      jump(tag_274)\n    tag_276:\n        /* \"#utility.yul\":7505:7526   */\n      pop\n        /* \"#utility.yul\":7119:7727   */\n      pop\n      pop\n        /* \"#utility.yul\":7017:7727   */\n      swap4\n      swap3\n      pop\n      pop\n      pop\n      jump\t// out\n        /* \"#utility.yul\":7750:8120   */\n    tag_140:\n        /* \"#utility.yul\":7821:7826   */\n      0x00\n        /* \"#utility.yul\":7870:7873   */\n      dup3\n        /* \"#utility.yul\":7863:7867   */\n      0x1f\n        /* \"#utility.yul\":7855:7861   */\n      dup4\n        /* \"#utility.yul\":7851:7868   */\n      add\n        /* \"#utility.yul\":7847:7874   */\n      slt\n        /* \"#utility.yul\":7837:7959   */\n      tag_279\n      jumpi\n        /* \"#utility.yul\":7878:7957   */\n      tag_280\n      tag_130\n      jump\t// in\n    tag_280:\n        /* \"#utility.yul\":7837:7959   */\n    tag_279:\n        /* \"#utility.yul\":7995:8001   */\n      dup2\n        /* \"#utility.yul\":7982:8002   */\n      calldataload\n        /* \"#utility.yul\":8020:8114   */\n      tag_281\n        /* \"#utility.yul\":8110:8113   */\n      dup5\n        /* \"#utility.yul\":8102:8108   */\n      dup3\n        /* \"#utility.yul\":8095:8099   */\n      0x20\n        /* \"#utility.yul\":8087:8093   */\n      dup7\n        /* \"#utility.yul\":8083:8100   */\n      add\n        /* \"#utility.yul\":8020:8114   */\n      tag_139\n      jump\t// in\n    tag_281:\n        /* \"#utility.yul\":8011:8114   */\n      swap2\n      pop\n        /* \"#utility.yul\":7827:8120   */\n      pop\n        /* \"#utility.yul\":7750:8120   */\n      swap3\n      swap2\n      pop\n      pop\n      jump\t// out\n        /* \"#utility.yul\":8126:8234   */\n    tag_141:\n        /* \"#utility.yul\":8208:8209   */\n      0x03\n        /* \"#utility.yul\":8201:8206   */\n      dup2\n        /* \"#utility.yul\":8198:8210   */\n      lt\n        /* \"#utility.yul\":8188:8228   */\n      tag_283\n      jumpi\n        /* \"#utility.yul\":8224:8225   */\n      0x00\n        /* \"#utility.yul\":8221:8222   */\n      dup1\n        /* \"#utility.yul\":8214:8226   */\n      revert\n        /* \"#utility.yul\":8188:8228   */\n    tag_283:\n        /* \"#utility.yul\":8126:8234   */\n      pop\n      jump\t// out\n        /* \"#utility.yul\":8240:8397   */\n    tag_142:\n        /* \"#utility.yul\":8295:8300   */\n      0x00\n        /* \"#utility.yul\":8333:8339   */\n      dup2\n        /* \"#utility.yul\":8320:8340   */\n      calldataload\n        /* \"#utility.yul\":8311:8340   */\n      swap1\n      pop\n        /* \"#utility.yul\":8349:8391   */\n      tag_285\n        /* \"#utility.yul\":8385:8390   */\n      dup2\n        /* \"#utility.yul\":8349:8391   */\n      tag_141\n      jump\t// in\n    tag_285:\n        /* \"#utility.yul\":8240:8397   */\n      swap3\n      swap2\n      pop\n      pop\n      jump\t// out\n        /* \"#utility.yul\":8403:9632   */\n    tag_32:\n        /* \"#utility.yul\":8561:8567   */\n      0x00\n        /* \"#utility.yul\":8569:8575   */\n      dup1\n        /* \"#utility.yul\":8577:8583   */\n      0x00\n        /* \"#utility.yul\":8585:8591   */\n      dup1\n        /* \"#utility.yul\":8634:8637   */\n      0x80\n        /* \"#utility.yul\":8622:8631   */\n      dup6\n        /* \"#utility.yul\":8613:8620   */\n      dup8\n        /* \"#utility.yul\":8609:8632   */\n      sub\n        /* \"#utility.yul\":8605:8638   */\n      slt\n        /* \"#utility.yul\":8602:8722   */\n      iszero\n      tag_287\n      jumpi\n        /* \"#utility.yul\":8641:8720   */\n      tag_288\n      tag_110\n      jump\t// in\n    tag_288:\n        /* \"#utility.yul\":8602:8722   */\n    tag_287:\n        /* \"#utility.yul\":8761:8762   */\n      0x00\n        /* \"#utility.yul\":8786:8857   */\n      tag_289\n        /* \"#utility.yul\":8849:8856   */\n      dup8\n        /* \"#utility.yul\":8840:8846   */\n      dup3\n        /* \"#utility.yul\":8829:8838   */\n      dup9\n        /* \"#utility.yul\":8825:8847   */\n      add\n        /* \"#utility.yul\":8786:8857   */\n      tag_124\n      jump\t// in\n    tag_289:\n        /* \"#utility.yul\":8776:8857   */\n      swap5\n      pop\n        /* \"#utility.yul\":8732:8867   */\n      pop\n        /* \"#utility.yul\":8934:8936   */\n      0x20\n        /* \"#utility.yul\":8923:8932   */\n      dup6\n        /* \"#utility.yul\":8919:8937   */\n      add\n        /* \"#utility.yul\":8906:8938   */\n      calldataload\n        /* \"#utility.yul\":8965:8983   */\n      0xffffffffffffffff\n        /* \"#utility.yul\":8957:8963   */\n      dup2\n        /* \"#utility.yul\":8954:8984   */\n      gt\n        /* \"#utility.yul\":8951:9068   */\n      iszero\n      tag_290\n      jumpi\n        /* \"#utility.yul\":8987:9066   */\n      tag_291\n      tag_111\n      jump\t// in\n    tag_291:\n        /* \"#utility.yul\":8951:9068   */\n    tag_290:\n        /* \"#utility.yul\":9092:9165   */\n      tag_292\n        /* \"#utility.yul\":9157:9164   */\n      dup8\n        /* \"#utility.yul\":9148:9154   */\n      dup3\n        /* \"#utility.yul\":9137:9146   */\n      dup9\n        /* \"#utility.yul\":9133:9155   */\n      add\n        /* \"#utility.yul\":9092:9165   */\n      tag_136\n      jump\t// in\n    tag_292:\n        /* \"#utility.yul\":9082:9165   */\n      swap4\n      pop\n        /* \"#utility.yul\":8877:9175   */\n      pop\n        /* \"#utility.yul\":9242:9244   */\n      0x40\n        /* \"#utility.yul\":9231:9240   */\n      dup6\n        /* \"#utility.yul\":9227:9245   */\n      add\n        /* \"#utility.yul\":9214:9246   */\n      calldataload\n        /* \"#utility.yul\":9273:9291   */\n      0xffffffffffffffff\n        /* \"#utility.yul\":9265:9271   */\n      dup2\n        /* \"#utility.yul\":9262:9292   */\n      gt\n        /* \"#utility.yul\":9259:9376   */\n      iszero\n      tag_293\n      jumpi\n        /* \"#utility.yul\":9295:9374   */\n      tag_294\n      tag_111\n      jump\t// in\n    tag_294:\n        /* \"#utility.yul\":9259:9376   */\n    tag_293:\n        /* \"#utility.yul\":9400:9478   */\n      tag_295\n        /* \"#utility.yul\":9470:9477   */\n      dup8\n        /* \"#utility.yul\":9461:9467   */\n      dup3\n        /* \"#utility.yul\":9450:9459   */\n      dup9\n        /* \"#utility.yul\":9446:9468   */\n      add\n        /* \"#utility.yul\":9400:9478   */\n      tag_140\n      jump\t// in\n    tag_295:\n        /* \"#utility.yul\":9390:9478   */\n      swap3\n      pop\n        /* \"#utility.yul\":9185:9488   */\n      pop\n        /* \"#utility.yul\":9527:9529   */\n      0x60\n        /* \"#utility.yul\":9553:9615   */\n      tag_296\n        /* \"#utility.yul\":9607:9614   */\n      dup8\n        /* \"#utility.yul\":9598:9604   */\n      dup3\n        /* \"#utility.yul\":9587:9596   */\n      dup9\n        /* \"#utility.yul\":9583:9605   */\n      add\n        /* \"#utility.yul\":9553:9615   */\n      tag_142\n      jump\t// in\n    tag_296:\n        /* \"#utility.yul\":9543:9615   */\n      swap2\n      pop\n        /* \"#utility.yul\":9498:9625   */\n      pop\n        /* \"#utility.yul\":8403:9632   */\n      swap3\n      swap6\n      swap2\n      swap5\n      pop\n      swap3\n      pop\n      jump\t// out\n        /* \"#utility.yul\":9638:9887   */\n    tag_143:\n        /* \"#utility.yul\":9713:9717   */\n      0x00\n        /* \"#utility.yul\":9803:9821   */\n      0xffffffffffffffff\n        /* \"#utility.yul\":9795:9801   */\n      dup3\n        /* \"#utility.yul\":9792:9822   */\n      gt\n        /* \"#utility.yul\":9789:9845   */\n      iszero\n      tag_298\n      jumpi\n        /* \"#utility.yul\":9825:9843   */\n      tag_299\n      tag_53\n      jump\t// in\n    tag_299:\n        /* \"#utility.yul\":9789:9845   */\n    tag_298:\n        /* \"#utility.yul\":9875:9879   */\n      0x20\n        /* \"#utility.yul\":9867:9873   */\n      dup3\n        /* \"#utility.yul\":9863:9880   */\n      mul\n        /* \"#utility.yul\":9855:9880   */\n      swap1\n      pop\n        /* \"#utility.yul\":9638:9887   */\n      swap2\n      swap1\n      pop\n      jump\t// out\n        /* \"#utility.yul\":9911:10554   */\n    tag_144:\n        /* \"#utility.yul\":10005:10010   */\n      0x00\n        /* \"#utility.yul\":10030:10109   */\n      tag_301\n        /* \"#utility.yul\":10046:10108   */\n      tag_302\n        /* \"#utility.yul\":10101:10107   */\n      dup5\n        /* \"#utility.yul\":10046:10108   */\n      tag_143\n      jump\t// in\n    tag_302:\n        /* \"#utility.yul\":10030:10109   */\n      tag_128\n      jump\t// in\n    tag_301:\n        /* \"#utility.yul\":10021:10109   */\n      swap1\n      pop\n        /* \"#utility.yul\":10129:10134   */\n      dup1\n        /* \"#utility.yul\":10182:10186   */\n      0x20\n        /* \"#utility.yul\":10174:10180   */\n      dup5\n        /* \"#utility.yul\":10170:10187   */\n      mul\n        /* \"#utility.yul\":10162:10168   */\n      dup4\n        /* \"#utility.yul\":10158:10188   */\n      add\n        /* \"#utility.yul\":10211:10214   */\n      dup6\n        /* \"#utility.yul\":10203:10209   */\n      dup2\n        /* \"#utility.yul\":10200:10215   */\n      gt\n        /* \"#utility.yul\":10197:10319   */\n      iszero\n      tag_303\n      jumpi\n        /* \"#utility.yul\":10230:10309   */\n      tag_304\n      tag_138\n      jump\t// in\n    tag_304:\n        /* \"#utility.yul\":10197:10319   */\n    tag_303:\n        /* \"#utility.yul\":10345:10351   */\n      dup4\n        /* \"#utility.yul\":10328:10548   */\n    tag_305:\n        /* \"#utility.yul\":10362:10368   */\n      dup2\n        /* \"#utility.yul\":10357:10360   */\n      dup2\n        /* \"#utility.yul\":10354:10369   */\n      lt\n        /* \"#utility.yul\":10328:10548   */\n      iszero\n      tag_307\n      jumpi\n        /* \"#utility.yul\":10437:10440   */\n      dup1\n        /* \"#utility.yul\":10466:10503   */\n      tag_308\n        /* \"#utility.yul\":10499:10502   */\n      dup9\n        /* \"#utility.yul\":10487:10497   */\n      dup3\n        /* \"#utility.yul\":10466:10503   */\n      tag_114\n      jump\t// in\n    tag_308:\n        /* \"#utility.yul\":10461:10464   */\n      dup5\n        /* \"#utility.yul\":10454:10504   */\n      mstore\n        /* \"#utility.yul\":10533:10537   */\n      0x20\n        /* \"#utility.yul\":10528:10531   */\n      dup5\n        /* \"#utility.yul\":10524:10538   */\n      add\n        /* \"#utility.yul\":10517:10538   */\n      swap4\n      pop\n        /* \"#utility.yul\":10404:10548   */\n      pop\n        /* \"#utility.yul\":10388:10392   */\n      0x20\n        /* \"#utility.yul\":10383:10386   */\n      dup2\n        /* \"#utility.yul\":10379:10393   */\n      add\n        /* \"#utility.yul\":10372:10393   */\n      swap1\n      pop\n        /* \"#utility.yul\":10328:10548   */\n      jump(tag_305)\n    tag_307:\n        /* \"#utility.yul\":10332:10353   */\n      pop\n        /* \"#utility.yul\":10011:10554   */\n      pop\n      pop\n        /* \"#utility.yul\":9911:10554   */\n      swap4\n      swap3\n      pop\n      pop\n      pop\n      jump\t// out\n        /* \"#utility.yul\":10578:10917   */\n    tag_145:\n        /* \"#utility.yul\":10647:10652   */\n      0x00\n        /* \"#utility.yul\":10696:10699   */\n      dup3\n        /* \"#utility.yul\":10689:10693   */\n      0x1f\n        /* \"#utility.yul\":10681:10687   */\n      dup4\n        /* \"#utility.yul\":10677:10694   */\n      add\n        /* \"#utility.yul\":10673:10700   */\n      slt\n        /* \"#utility.yul\":10663:10785   */\n      tag_310\n      jumpi\n        /* \"#utility.yul\":10704:10783   */\n      tag_311\n      tag_130\n      jump\t// in\n    tag_311:\n        /* \"#utility.yul\":10663:10785   */\n    tag_310:\n        /* \"#utility.yul\":10808:10812   */\n      0x03\n        /* \"#utility.yul\":10830:10911   */\n      tag_312\n        /* \"#utility.yul\":10907:10910   */\n      dup5\n        /* \"#utility.yul\":10899:10905   */\n      dup3\n        /* \"#utility.yul\":10891:10897   */\n      dup6\n        /* \"#utility.yul\":10830:10911   */\n      tag_144\n      jump\t// in\n    tag_312:\n        /* \"#utility.yul\":10821:10911   */\n      swap2\n      pop\n        /* \"#utility.yul\":10653:10917   */\n      pop\n        /* \"#utility.yul\":10578:10917   */\n      swap3\n      swap2\n      pop\n      pop\n      jump\t// out\n        /* \"#utility.yul\":10923:11298   */\n    tag_37:\n        /* \"#utility.yul\":11005:11011   */\n      0x00\n        /* \"#utility.yul\":11054:11056   */\n      0x60\n        /* \"#utility.yul\":11042:11051   */\n      dup3\n        /* \"#utility.yul\":11033:11040   */\n      dup5\n        /* \"#utility.yul\":11029:11052   */\n      sub\n        /* \"#utility.yul\":11025:11057   */\n      slt\n        /* \"#utility.yul\":11022:11141   */\n      iszero\n      tag_314\n      jumpi\n        /* \"#utility.yul\":11060:11139   */\n      tag_315\n      tag_110\n      jump\t// in\n    tag_315:\n        /* \"#utility.yul\":11022:11141   */\n    tag_314:\n        /* \"#utility.yul\":11180:11181   */\n      0x00\n        /* \"#utility.yul\":11205:11281   */\n      tag_316\n        /* \"#utility.yul\":11273:11280   */\n      dup5\n        /* \"#utility.yul\":11264:11270   */\n      dup3\n        /* \"#utility.yul\":11253:11262   */\n      dup6\n        /* \"#utility.yul\":11249:11271   */\n      add\n        /* \"#utility.yul\":11205:11281   */\n      tag_145\n      jump\t// in\n    tag_316:\n        /* \"#utility.yul\":11195:11281   */\n      swap2\n      pop\n        /* \"#utility.yul\":11151:11291   */\n      pop\n        /* \"#utility.yul\":10923:11298   */\n      swap3\n      swap2\n      pop\n      pop\n      jump\t// out\n        /* \"#utility.yul\":11304:11612   */\n    tag_146:\n        /* \"#utility.yul\":11366:11370   */\n      0x00\n        /* \"#utility.yul\":11456:11474   */\n      0xffffffffffffffff\n        /* \"#utility.yul\":11448:11454   */\n      dup3\n        /* \"#utility.yul\":11445:11475   */\n      gt\n        /* \"#utility.yul\":11442:11498   */\n      iszero\n      tag_318\n      jumpi\n        /* \"#utility.yul\":11478:11496   */\n      tag_319\n      tag_53\n      jump\t// in\n    tag_319:\n        /* \"#utility.yul\":11442:11498   */\n    tag_318:\n        /* \"#utility.yul\":11516:11545   */\n      tag_320\n        /* \"#utility.yul\":11538:11544   */\n      dup3\n        /* \"#utility.yul\":11516:11545   */\n      tag_126\n      jump\t// in\n    tag_320:\n        /* \"#utility.yul\":11508:11545   */\n      swap1\n      pop\n        /* \"#utility.yul\":11600:11604   */\n      0x20\n        /* \"#utility.yul\":11594:11598   */\n      dup2\n        /* \"#utility.yul\":11590:11605   */\n      add\n        /* \"#utility.yul\":11582:11605   */\n      swap1\n      pop\n        /* \"#utility.yul\":11304:11612   */\n      swap2\n      swap1\n      pop\n      jump\t// out\n        /* \"#utility.yul\":11618:12043   */\n    tag_147:\n        /* \"#utility.yul\":11696:11701   */\n      0x00\n        /* \"#utility.yul\":11721:11787   */\n      tag_322\n        /* \"#utility.yul\":11737:11786   */\n      tag_323\n        /* \"#utility.yul\":11779:11785   */\n      dup5\n        /* \"#utility.yul\":11737:11786   */\n      tag_146\n      jump\t// in\n    tag_323:\n        /* \"#utility.yul\":11721:11787   */\n      tag_128\n      jump\t// in\n    tag_322:\n        /* \"#utility.yul\":11712:11787   */\n      swap1\n      pop\n        /* \"#utility.yul\":11810:11816   */\n      dup3\n        /* \"#utility.yul\":11803:11808   */\n      dup2\n        /* \"#utility.yul\":11796:11817   */\n      mstore\n        /* \"#utility.yul\":11848:11852   */\n      0x20\n        /* \"#utility.yul\":11841:11846   */\n      dup2\n        /* \"#utility.yul\":11837:11853   */\n      add\n        /* \"#utility.yul\":11886:11889   */\n      dup5\n        /* \"#utility.yul\":11877:11883   */\n      dup5\n        /* \"#utility.yul\":11872:11875   */\n      dup5\n        /* \"#utility.yul\":11868:11884   */\n      add\n        /* \"#utility.yul\":11865:11890   */\n      gt\n        /* \"#utility.yul\":11862:11974   */\n      iszero\n      tag_324\n      jumpi\n        /* \"#utility.yul\":11893:11972   */\n      tag_325\n      tag_131\n      jump\t// in\n    tag_325:\n        /* \"#utility.yul\":11862:11974   */\n    tag_324:\n        /* \"#utility.yul\":11983:12037   */\n      tag_326\n        /* \"#utility.yul\":12030:12036   */\n      dup5\n        /* \"#utility.yul\":12025:12028   */\n      dup3\n        /* \"#utility.yul\":12020:12023   */\n      dup6\n        /* \"#utility.yul\":11983:12037   */\n      tag_133\n      jump\t// in\n    tag_326:\n        /* \"#utility.yul\":11702:12043   */\n      pop\n        /* \"#utility.yul\":11618:12043   */\n      swap4\n      swap3\n      pop\n      pop\n      pop\n      jump\t// out\n        /* \"#utility.yul\":12063:12403   */\n    tag_148:\n        /* \"#utility.yul\":12119:12124   */\n      0x00\n        /* \"#utility.yul\":12168:12171   */\n      dup3\n        /* \"#utility.yul\":12161:12165   */\n      0x1f\n        /* \"#utility.yul\":12153:12159   */\n      dup4\n        /* \"#utility.yul\":12149:12166   */\n      add\n        /* \"#utility.yul\":12145:12172   */\n      slt\n        /* \"#utility.yul\":12135:12257   */\n      tag_328\n      jumpi\n        /* \"#utility.yul\":12176:12255   */\n      tag_329\n      tag_130\n      jump\t// in\n    tag_329:\n        /* \"#utility.yul\":12135:12257   */\n    tag_328:\n        /* \"#utility.yul\":12293:12299   */\n      dup2\n        /* \"#utility.yul\":12280:12300   */\n      calldataload\n        /* \"#utility.yul\":12318:12397   */\n      tag_330\n        /* \"#utility.yul\":12393:12396   */\n      dup5\n        /* \"#utility.yul\":12385:12391   */\n      dup3\n        /* \"#utility.yul\":12378:12382   */\n      0x20\n        /* \"#utility.yul\":12370:12376   */\n      dup7\n        /* \"#utility.yul\":12366:12383   */\n      add\n        /* \"#utility.yul\":12318:12397   */\n      tag_147\n      jump\t// in\n    tag_330:\n        /* \"#utility.yul\":12309:12397   */\n      swap2\n      pop\n        /* \"#utility.yul\":12125:12403   */\n      pop\n        /* \"#utility.yul\":12063:12403   */\n      swap3\n      swap2\n      pop\n      pop\n      jump\t// out\n        /* \"#utility.yul\":12409:13273   */\n    tag_42:\n        /* \"#utility.yul\":12512:12518   */\n      0x00\n        /* \"#utility.yul\":12520:12526   */\n      dup1\n        /* \"#utility.yul\":12569:12571   */\n      0x40\n        /* \"#utility.yul\":12557:12566   */\n      dup4\n        /* \"#utility.yul\":12548:12555   */\n      dup6\n        /* \"#utility.yul\":12544:12567   */\n      sub\n        /* \"#utility.yul\":12540:12572   */\n      slt\n        /* \"#utility.yul\":12537:12656   */\n      iszero\n      tag_332\n      jumpi\n        /* \"#utility.yul\":12575:12654   */\n      tag_333\n      tag_110\n      jump\t// in\n    tag_333:\n        /* \"#utility.yul\":12537:12656   */\n    tag_332:\n        /* \"#utility.yul\":12723:12724   */\n      0x00\n        /* \"#utility.yul\":12712:12721   */\n      dup4\n        /* \"#utility.yul\":12708:12725   */\n      add\n        /* \"#utility.yul\":12695:12726   */\n      calldataload\n        /* \"#utility.yul\":12753:12771   */\n      0xffffffffffffffff\n        /* \"#utility.yul\":12745:12751   */\n      dup2\n        /* \"#utility.yul\":12742:12772   */\n      gt\n        /* \"#utility.yul\":12739:12856   */\n      iszero\n      tag_334\n      jumpi\n        /* \"#utility.yul\":12775:12854   */\n      tag_335\n      tag_111\n      jump\t// in\n    tag_335:\n        /* \"#utility.yul\":12739:12856   */\n    tag_334:\n        /* \"#utility.yul\":12880:12958   */\n      tag_336\n        /* \"#utility.yul\":12950:12957   */\n      dup6\n        /* \"#utility.yul\":12941:12947   */\n      dup3\n        /* \"#utility.yul\":12930:12939   */\n      dup7\n        /* \"#utility.yul\":12926:12948   */\n      add\n        /* \"#utility.yul\":12880:12958   */\n      tag_140\n      jump\t// in\n    tag_336:\n        /* \"#utility.yul\":12870:12958   */\n      swap3\n      pop\n        /* \"#utility.yul\":12666:12968   */\n      pop\n        /* \"#utility.yul\":13035:13037   */\n      0x20\n        /* \"#utility.yul\":13024:13033   */\n      dup4\n        /* \"#utility.yul\":13020:13038   */\n      add\n        /* \"#utility.yul\":13007:13039   */\n      calldataload\n        /* \"#utility.yul\":13066:13084   */\n      0xffffffffffffffff\n        /* \"#utility.yul\":13058:13064   */\n      dup2\n        /* \"#utility.yul\":13055:13085   */\n      gt\n        /* \"#utility.yul\":13052:13169   */\n      iszero\n      tag_337\n      jumpi\n        /* \"#utility.yul\":13088:13167   */\n      tag_338\n      tag_111\n      jump\t// in\n    tag_338:\n        /* \"#utility.yul\":13052:13169   */\n    tag_337:\n        /* \"#utility.yul\":13193:13256   */\n      tag_339\n        /* \"#utility.yul\":13248:13255   */\n      dup6\n        /* \"#utility.yul\":13239:13245   */\n      dup3\n        /* \"#utility.yul\":13228:13237   */\n      dup7\n        /* \"#utility.yul\":13224:13246   */\n      add\n        /* \"#utility.yul\":13193:13256   */\n      tag_148\n      jump\t// in\n    tag_339:\n        /* \"#utility.yul\":13183:13256   */\n      swap2\n      pop\n        /* \"#utility.yul\":12978:13266   */\n      pop\n        /* \"#utility.yul\":12409:13273   */\n      swap3\n      pop\n      swap3\n      swap1\n      pop\n      jump\t// out\n        /* \"#utility.yul\":13279:13459   */\n    tag_57:\n        /* \"#utility.yul\":13327:13404   */\n      0x4e487b7100000000000000000000000000000000000000000000000000000000\n        /* \"#utility.yul\":13324:13325   */\n      0x00\n        /* \"#utility.yul\":13317:13405   */\n      mstore\n        /* \"#utility.yul\":13424:13428   */\n      0x32\n        /* \"#utility.yul\":13421:13422   */\n      0x04\n        /* \"#utility.yul\":13414:13429   */\n      mstore\n        /* \"#utility.yul\":13448:13452   */\n      0x24\n        /* \"#utility.yul\":13445:13446   */\n      0x00\n        /* \"#utility.yul\":13438:13453   */\n      revert\n        /* \"#utility.yul\":13465:13563   */\n    tag_149:\n        /* \"#utility.yul\":13516:13522   */\n      0x00\n        /* \"#utility.yul\":13550:13555   */\n      dup2\n        /* \"#utility.yul\":13544:13556   */\n      mload\n        /* \"#utility.yul\":13534:13556   */\n      swap1\n      pop\n        /* \"#utility.yul\":13465:13563   */\n      swap2\n      swap1\n      pop\n      jump\t// out\n        /* \"#utility.yul\":13569:13716   */\n    tag_150:\n        /* \"#utility.yul\":13670:13681   */\n      0x00\n        /* \"#utility.yul\":13707:13710   */\n      dup2\n        /* \"#utility.yul\":13692:13710   */\n      swap1\n      pop\n        /* \"#utility.yul\":13569:13716   */\n      swap3\n      swap2\n      pop\n      pop\n      jump\t// out\n        /* \"#utility.yul\":13722:13861   */\n    tag_151:\n        /* \"#utility.yul\":13811:13817   */\n      dup3\n        /* \"#utility.yul\":13806:13809   */\n      dup2\n        /* \"#utility.yul\":13801:13804   */\n      dup4\n        /* \"#utility.yul\":13795:13818   */\n      mcopy\n        /* \"#utility.yul\":13852:13853   */\n      0x00\n        /* \"#utility.yul\":13843:13849   */\n      dup4\n        /* \"#utility.yul\":13838:13841   */\n      dup4\n        /* \"#utility.yul\":13834:13850   */\n      add\n        /* \"#utility.yul\":13827:13854   */\n      mstore\n        /* \"#utility.yul\":13722:13861   */\n      pop\n      pop\n      pop\n      jump\t// out\n        /* \"#utility.yul\":13867:14253   */\n    tag_152:\n        /* \"#utility.yul\":13971:13974   */\n      0x00\n        /* \"#utility.yul\":13999:14037   */\n      tag_345\n        /* \"#utility.yul\":14031:14036   */\n      dup3\n        /* \"#utility.yul\":13999:14037   */\n      tag_149\n      jump\t// in\n    tag_345:\n        /* \"#utility.yul\":14053:14141   */\n      tag_346\n        /* \"#utility.yul\":14134:14140   */\n      dup2\n        /* \"#utility.yul\":14129:14132   */\n      dup6\n        /* \"#utility.yul\":14053:14141   */\n      tag_150\n      jump\t// in\n    tag_346:\n        /* \"#utility.yul\":14046:14141   */\n      swap4\n      pop\n        /* \"#utility.yul\":14150:14215   */\n      tag_347\n        /* \"#utility.yul\":14208:14214   */\n      dup2\n        /* \"#utility.yul\":14203:14206   */\n      dup6\n        /* \"#utility.yul\":14196:14200   */\n      0x20\n        /* \"#utility.yul\":14189:14194   */\n      dup7\n        /* \"#utility.yul\":14185:14201   */\n      add\n        /* \"#utility.yul\":14150:14215   */\n      tag_151\n      jump\t// in\n    tag_347:\n        /* \"#utility.yul\":14240:14246   */\n      dup1\n        /* \"#utility.yul\":14235:14238   */\n      dup5\n        /* \"#utility.yul\":14231:14247   */\n      add\n        /* \"#utility.yul\":14224:14247   */\n      swap2\n      pop\n        /* \"#utility.yul\":13975:14253   */\n      pop\n        /* \"#utility.yul\":13867:14253   */\n      swap3\n      swap2\n      pop\n      pop\n      jump\t// out\n        /* \"#utility.yul\":14259:14530   */\n    tag_65:\n        /* \"#utility.yul\":14389:14392   */\n      0x00\n        /* \"#utility.yul\":14411:14504   */\n      tag_349\n        /* \"#utility.yul\":14500:14503   */\n      dup3\n        /* \"#utility.yul\":14491:14497   */\n      dup5\n        /* \"#utility.yul\":14411:14504   */\n      tag_152\n      jump\t// in\n    tag_349:\n        /* \"#utility.yul\":14404:14504   */\n      swap2\n      pop\n        /* \"#utility.yul\":14521:14524   */\n      dup2\n        /* \"#utility.yul\":14514:14524   */\n      swap1\n      pop\n        /* \"#utility.yul\":14259:14530   */\n      swap3\n      swap2\n      pop\n      pop\n      jump\t// out\n        /* \"#utility.yul\":14536:14621   */\n    tag_153:\n        /* \"#utility.yul\":14581:14588   */\n      0x00\n        /* \"#utility.yul\":14610:14615   */\n      dup2\n        /* \"#utility.yul\":14599:14615   */\n      swap1\n      pop\n        /* \"#utility.yul\":14536:14621   */\n      swap2\n      swap1\n      pop\n      jump\t// out\n        /* \"#utility.yul\":14627:14713   */\n    tag_154:\n        /* \"#utility.yul\":14662:14669   */\n      0x00\n        /* \"#utility.yul\":14702:14706   */\n      0xff\n        /* \"#utility.yul\":14695:14700   */\n      dup3\n        /* \"#utility.yul\":14691:14707   */\n      and\n        /* \"#utility.yul\":14680:14707   */\n      swap1\n      pop\n        /* \"#utility.yul\":14627:14713   */\n      swap2\n      swap1\n      pop\n      jump\t// out\n        /* \"#utility.yul\":14719:14779   */\n    tag_155:\n        /* \"#utility.yul\":14747:14750   */\n      0x00\n        /* \"#utility.yul\":14768:14773   */\n      dup2\n        /* \"#utility.yul\":14761:14773   */\n      swap1\n      pop\n        /* \"#utility.yul\":14719:14779   */\n      swap2\n      swap1\n      pop\n      jump\t// out\n        /* \"#utility.yul\":14785:14939   */\n    tag_156:\n        /* \"#utility.yul\":14841:14850   */\n      0x00\n        /* \"#utility.yul\":14874:14933   */\n      tag_354\n        /* \"#utility.yul\":14890:14932   */\n      tag_355\n        /* \"#utility.yul\":14899:14931   */\n      tag_356\n        /* \"#utility.yul\":14925:14930   */\n      dup5\n        /* \"#utility.yul\":14899:14931   */\n      tag_153\n      jump\t// in\n    tag_356:\n        /* \"#utility.yul\":14890:14932   */\n      tag_155\n      jump\t// in\n    tag_355:\n        /* \"#utility.yul\":14874:14933   */\n      tag_154\n      jump\t// in\n    tag_354:\n        /* \"#utility.yul\":14861:14933   */\n      swap1\n      pop\n        /* \"#utility.yul\":14785:14939   */\n      swap2\n      swap1\n      pop\n      jump\t// out\n        /* \"#utility.yul\":14945:15088   */\n    tag_157:\n        /* \"#utility.yul\":15038:15081   */\n      tag_358\n        /* \"#utility.yul\":15075:15080   */\n      dup2\n        /* \"#utility.yul\":15038:15081   */\n      tag_156\n      jump\t// in\n    tag_358:\n        /* \"#utility.yul\":15033:15036   */\n      dup3\n        /* \"#utility.yul\":15026:15082   */\n      mstore\n        /* \"#utility.yul\":14945:15088   */\n      pop\n      pop\n      jump\t// out\n        /* \"#utility.yul\":15094:15179   */\n    tag_158:\n        /* \"#utility.yul\":15139:15146   */\n      0x00\n        /* \"#utility.yul\":15168:15173   */\n      dup2\n        /* \"#utility.yul\":15157:15173   */\n      swap1\n      pop\n        /* \"#utility.yul\":15094:15179   */\n      swap2\n      swap1\n      pop\n      jump\t// out\n        /* \"#utility.yul\":15185:15339   */\n    tag_159:\n        /* \"#utility.yul\":15241:15250   */\n      0x00\n        /* \"#utility.yul\":15274:15333   */\n      tag_361\n        /* \"#utility.yul\":15290:15332   */\n      tag_362\n        /* \"#utility.yul\":15299:15331   */\n      tag_363\n        /* \"#utility.yul\":15325:15330   */\n      dup5\n        /* \"#utility.yul\":15299:15331   */\n      tag_158\n      jump\t// in\n    tag_363:\n        /* \"#utility.yul\":15290:15332   */\n      tag_155\n      jump\t// in\n    tag_362:\n        /* \"#utility.yul\":15274:15333   */\n      tag_154\n      jump\t// in\n    tag_361:\n        /* \"#utility.yul\":15261:15333   */\n      swap1\n      pop\n        /* \"#utility.yul\":15185:15339   */\n      swap2\n      swap1\n      pop\n      jump\t// out\n        /* \"#utility.yul\":15345:15488   */\n    tag_160:\n        /* \"#utility.yul\":15438:15481   */\n      tag_365\n        /* \"#utility.yul\":15475:15480   */\n      dup2\n        /* \"#utility.yul\":15438:15481   */\n      tag_159\n      jump\t// in\n    tag_365:\n        /* \"#utility.yul\":15433:15436   */\n      dup3\n        /* \"#utility.yul\":15426:15482   */\n      mstore\n        /* \"#utility.yul\":15345:15488   */\n      pop\n      pop\n      jump\t// out\n        /* \"#utility.yul\":15494:15850   */\n    tag_70:\n        /* \"#utility.yul\":15627:15631   */\n      0x00\n        /* \"#utility.yul\":15665:15667   */\n      0x40\n        /* \"#utility.yul\":15654:15663   */\n      dup3\n        /* \"#utility.yul\":15650:15668   */\n      add\n        /* \"#utility.yul\":15642:15668   */\n      swap1\n      pop\n        /* \"#utility.yul\":15678:15755   */\n      tag_367\n        /* \"#utility.yul\":15752:15753   */\n      0x00\n        /* \"#utility.yul\":15741:15750   */\n      dup4\n        /* \"#utility.yul\":15737:15754   */\n      add\n        /* \"#utility.yul\":15728:15734   */\n      dup6\n        /* \"#utility.yul\":15678:15755   */\n      tag_157\n      jump\t// in\n    tag_367:\n        /* \"#utility.yul\":15765:15843   */\n      tag_368\n        /* \"#utility.yul\":15839:15841   */\n      0x20\n        /* \"#utility.yul\":15828:15837   */\n      dup4\n        /* \"#utility.yul\":15824:15842   */\n      add\n        /* \"#utility.yul\":15815:15821   */\n      dup5\n        /* \"#utility.yul\":15765:15843   */\n      tag_160\n      jump\t// in\n    tag_368:\n        /* \"#utility.yul\":15494:15850   */\n      swap4\n      swap3\n      pop\n      pop\n      pop\n      jump\t// out\n        /* \"#utility.yul\":15856:15958   */\n    tag_161:\n        /* \"#utility.yul\":15919:15925   */\n      0x00\n        /* \"#utility.yul\":15947:15951   */\n      0x03\n        /* \"#utility.yul\":15937:15951   */\n      swap1\n      pop\n        /* \"#utility.yul\":15856:15958   */\n      swap2\n      swap1\n      pop\n      jump\t// out\n        /* \"#utility.yul\":15964:16105   */\n    tag_162:\n        /* \"#utility.yul\":16059:16070   */\n      0x00\n        /* \"#utility.yul\":16096:16099   */\n      dup2\n        /* \"#utility.yul\":16081:16099   */\n      swap1\n      pop\n        /* \"#utility.yul\":15964:16105   */\n      swap3\n      swap2\n      pop\n      pop\n      jump\t// out\n        /* \"#utility.yul\":16111:16207   */\n    tag_163:\n        /* \"#utility.yul\":16174:16178   */\n      0x00\n        /* \"#utility.yul\":16197:16200   */\n      dup2\n        /* \"#utility.yul\":16189:16200   */\n      swap1\n      pop\n        /* \"#utility.yul\":16111:16207   */\n      swap2\n      swap1\n      pop\n      jump\t// out\n        /* \"#utility.yul\":16213:16315   */\n    tag_164:\n        /* \"#utility.yul\":16286:16308   */\n      tag_373\n        /* \"#utility.yul\":16302:16307   */\n      dup2\n        /* \"#utility.yul\":16286:16308   */\n      tag_154\n      jump\t// in\n    tag_373:\n        /* \"#utility.yul\":16281:16284   */\n      dup3\n        /* \"#utility.yul\":16274:16309   */\n      mstore\n        /* \"#utility.yul\":16213:16315   */\n      pop\n      pop\n      jump\t// out\n        /* \"#utility.yul\":16321:16492   */\n    tag_165:\n        /* \"#utility.yul\":16386:16396   */\n      0x00\n        /* \"#utility.yul\":16407:16449   */\n      tag_375\n        /* \"#utility.yul\":16445:16448   */\n      dup4\n        /* \"#utility.yul\":16437:16443   */\n      dup4\n        /* \"#utility.yul\":16407:16449   */\n      tag_164\n      jump\t// in\n    tag_375:\n        /* \"#utility.yul\":16481:16485   */\n      0x20\n        /* \"#utility.yul\":16476:16479   */\n      dup4\n        /* \"#utility.yul\":16472:16486   */\n      add\n        /* \"#utility.yul\":16458:16486   */\n      swap1\n      pop\n        /* \"#utility.yul\":16321:16492   */\n      swap3\n      swap2\n      pop\n      pop\n      jump\t// out\n        /* \"#utility.yul\":16498:16607   */\n    tag_166:\n        /* \"#utility.yul\":16564:16568   */\n      0x00\n        /* \"#utility.yul\":16596:16600   */\n      0x20\n        /* \"#utility.yul\":16591:16594   */\n      dup3\n        /* \"#utility.yul\":16587:16601   */\n      add\n        /* \"#utility.yul\":16579:16601   */\n      swap1\n      pop\n        /* \"#utility.yul\":16498:16607   */\n      swap2\n      swap1\n      pop\n      jump\t// out\n        /* \"#utility.yul\":16641:17319   */\n    tag_167:\n        /* \"#utility.yul\":16773:16823   */\n      tag_378\n        /* \"#utility.yul\":16817:16822   */\n      dup2\n        /* \"#utility.yul\":16773:16823   */\n      tag_161\n      jump\t// in\n    tag_378:\n        /* \"#utility.yul\":16839:16921   */\n      tag_379\n        /* \"#utility.yul\":16914:16920   */\n      dup2\n        /* \"#utility.yul\":16909:16912   */\n      dup5\n        /* \"#utility.yul\":16839:16921   */\n      tag_162\n      jump\t// in\n    tag_379:\n        /* \"#utility.yul\":16832:16921   */\n      swap3\n      pop\n        /* \"#utility.yul\":16945:16997   */\n      tag_380\n        /* \"#utility.yul\":16991:16996   */\n      dup3\n        /* \"#utility.yul\":16945:16997   */\n      tag_163\n      jump\t// in\n    tag_380:\n        /* \"#utility.yul\":17020:17027   */\n      dup1\n        /* \"#utility.yul\":17051:17052   */\n      0x00\n        /* \"#utility.yul\":17036:17312   */\n    tag_381:\n        /* \"#utility.yul\":17061:17067   */\n      dup4\n        /* \"#utility.yul\":17058:17059   */\n      dup2\n        /* \"#utility.yul\":17055:17068   */\n      lt\n        /* \"#utility.yul\":17036:17312   */\n      iszero\n      tag_383\n      jumpi\n        /* \"#utility.yul\":17137:17143   */\n      dup2\n        /* \"#utility.yul\":17131:17144   */\n      mload\n        /* \"#utility.yul\":17164:17223   */\n      tag_384\n        /* \"#utility.yul\":17219:17222   */\n      dup8\n        /* \"#utility.yul\":17204:17217   */\n      dup3\n        /* \"#utility.yul\":17164:17223   */\n      tag_165\n      jump\t// in\n    tag_384:\n        /* \"#utility.yul\":17157:17223   */\n      swap7\n      pop\n        /* \"#utility.yul\":17246:17302   */\n      tag_385\n        /* \"#utility.yul\":17295:17301   */\n      dup4\n        /* \"#utility.yul\":17246:17302   */\n      tag_166\n      jump\t// in\n    tag_385:\n        /* \"#utility.yul\":17236:17302   */\n      swap3\n      pop\n        /* \"#utility.yul\":17096:17312   */\n      pop\n        /* \"#utility.yul\":17083:17084   */\n      0x01\n        /* \"#utility.yul\":17080:17081   */\n      dup2\n        /* \"#utility.yul\":17076:17085   */\n      add\n        /* \"#utility.yul\":17071:17085   */\n      swap1\n      pop\n        /* \"#utility.yul\":17036:17312   */\n      jump(tag_381)\n    tag_383:\n        /* \"#utility.yul\":17040:17054   */\n      pop\n        /* \"#utility.yul\":16749:17319   */\n      pop\n      pop\n      pop\n        /* \"#utility.yul\":16641:17319   */\n      pop\n      pop\n      jump\t// out\n        /* \"#utility.yul\":17325:17631   */\n    tag_76:\n        /* \"#utility.yul\":17460:17464   */\n      0x00\n        /* \"#utility.yul\":17498:17500   */\n      0x60\n        /* \"#utility.yul\":17487:17496   */\n      dup3\n        /* \"#utility.yul\":17483:17501   */\n      add\n        /* \"#utility.yul\":17475:17501   */\n      swap1\n      pop\n        /* \"#utility.yul\":17511:17624   */\n      tag_387\n        /* \"#utility.yul\":17621:17622   */\n      0x00\n        /* \"#utility.yul\":17610:17619   */\n      dup4\n        /* \"#utility.yul\":17606:17623   */\n      add\n        /* \"#utility.yul\":17597:17603   */\n      dup5\n        /* \"#utility.yul\":17511:17624   */\n      tag_167\n      jump\t// in\n    tag_387:\n        /* \"#utility.yul\":17325:17631   */\n      swap3\n      swap2\n      pop\n      pop\n      jump\t// out\n        /* \"#utility.yul\":17637:17751   */\n    tag_168:\n        /* \"#utility.yul\":17704:17710   */\n      0x00\n        /* \"#utility.yul\":17738:17743   */\n      dup2\n        /* \"#utility.yul\":17732:17744   */\n      mload\n        /* \"#utility.yul\":17722:17744   */\n      swap1\n      pop\n        /* \"#utility.yul\":17637:17751   */\n      swap2\n      swap1\n      pop\n      jump\t// out\n        /* \"#utility.yul\":17757:17941   */\n    tag_169:\n        /* \"#utility.yul\":17856:17867   */\n      0x00\n        /* \"#utility.yul\":17890:17896   */\n      dup3\n        /* \"#utility.yul\":17885:17888   */\n      dup3\n        /* \"#utility.yul\":17878:17897   */\n      mstore\n        /* \"#utility.yul\":17930:17934   */\n      0x20\n        /* \"#utility.yul\":17925:17928   */\n      dup3\n        /* \"#utility.yul\":17921:17935   */\n      add\n        /* \"#utility.yul\":17906:17935   */\n      swap1\n      pop\n        /* \"#utility.yul\":17757:17941   */\n      swap3\n      swap2\n      pop\n      pop\n      jump\t// out\n        /* \"#utility.yul\":17947:18079   */\n    tag_170:\n        /* \"#utility.yul\":18014:18018   */\n      0x00\n        /* \"#utility.yul\":18037:18040   */\n      dup2\n        /* \"#utility.yul\":18029:18040   */\n      swap1\n      pop\n        /* \"#utility.yul\":18067:18071   */\n      0x20\n        /* \"#utility.yul\":18062:18065   */\n      dup3\n        /* \"#utility.yul\":18058:18072   */\n      add\n        /* \"#utility.yul\":18050:18072   */\n      swap1\n      pop\n        /* \"#utility.yul\":17947:18079   */\n      swap2\n      swap1\n      pop\n      jump\t// out\n        /* \"#utility.yul\":18085:18193   */\n    tag_171:\n        /* \"#utility.yul\":18162:18186   */\n      tag_392\n        /* \"#utility.yul\":18180:18185   */\n      dup2\n        /* \"#utility.yul\":18162:18186   */\n      tag_112\n      jump\t// in\n    tag_392:\n        /* \"#utility.yul\":18157:18160   */\n      dup3\n        /* \"#utility.yul\":18150:18187   */\n      mstore\n        /* \"#utility.yul\":18085:18193   */\n      pop\n      pop\n      jump\t// out\n        /* \"#utility.yul\":18199:18378   */\n    tag_172:\n        /* \"#utility.yul\":18268:18278   */\n      0x00\n        /* \"#utility.yul\":18289:18335   */\n      tag_394\n        /* \"#utility.yul\":18331:18334   */\n      dup4\n        /* \"#utility.yul\":18323:18329   */\n      dup4\n        /* \"#utility.yul\":18289:18335   */\n      tag_171\n      jump\t// in\n    tag_394:\n        /* \"#utility.yul\":18367:18371   */\n      0x20\n        /* \"#utility.yul\":18362:18365   */\n      dup4\n        /* \"#utility.yul\":18358:18372   */\n      add\n        /* \"#utility.yul\":18344:18372   */\n      swap1\n      pop\n        /* \"#utility.yul\":18199:18378   */\n      swap3\n      swap2\n      pop\n      pop\n      jump\t// out\n        /* \"#utility.yul\":18384:18497   */\n    tag_173:\n        /* \"#utility.yul\":18454:18458   */\n      0x00\n        /* \"#utility.yul\":18486:18490   */\n      0x20\n        /* \"#utility.yul\":18481:18484   */\n      dup3\n        /* \"#utility.yul\":18477:18491   */\n      add\n        /* \"#utility.yul\":18469:18491   */\n      swap1\n      pop\n        /* \"#utility.yul\":18384:18497   */\n      swap2\n      swap1\n      pop\n      jump\t// out\n        /* \"#utility.yul\":18533:19265   */\n    tag_174:\n        /* \"#utility.yul\":18652:18655   */\n      0x00\n        /* \"#utility.yul\":18681:18735   */\n      tag_397\n        /* \"#utility.yul\":18729:18734   */\n      dup3\n        /* \"#utility.yul\":18681:18735   */\n      tag_168\n      jump\t// in\n    tag_397:\n        /* \"#utility.yul\":18751:18837   */\n      tag_398\n        /* \"#utility.yul\":18830:18836   */\n      dup2\n        /* \"#utility.yul\":18825:18828   */\n      dup6\n        /* \"#utility.yul\":18751:18837   */\n      tag_169\n      jump\t// in\n    tag_398:\n        /* \"#utility.yul\":18744:18837   */\n      swap4\n      pop\n        /* \"#utility.yul\":18861:18917   */\n      tag_399\n        /* \"#utility.yul\":18911:18916   */\n      dup4\n        /* \"#utility.yul\":18861:18917   */\n      tag_170\n      jump\t// in\n    tag_399:\n        /* \"#utility.yul\":18940:18947   */\n      dup1\n        /* \"#utility.yul\":18971:18972   */\n      0x00\n        /* \"#utility.yul\":18956:19240   */\n    tag_400:\n        /* \"#utility.yul\":18981:18987   */\n      dup4\n        /* \"#utility.yul\":18978:18979   */\n      dup2\n        /* \"#utility.yul\":18975:18988   */\n      lt\n        /* \"#utility.yul\":18956:19240   */\n      iszero\n      tag_402\n      jumpi\n        /* \"#utility.yul\":19057:19063   */\n      dup2\n        /* \"#utility.yul\":19051:19064   */\n      mload\n        /* \"#utility.yul\":19084:19147   */\n      tag_403\n        /* \"#utility.yul\":19143:19146   */\n      dup9\n        /* \"#utility.yul\":19128:19141   */\n      dup3\n        /* \"#utility.yul\":19084:19147   */\n      tag_172\n      jump\t// in\n    tag_403:\n        /* \"#utility.yul\":19077:19147   */\n      swap8\n      pop\n        /* \"#utility.yul\":19170:19230   */\n      tag_404\n        /* \"#utility.yul\":19223:19229   */\n      dup4\n        /* \"#utility.yul\":19170:19230   */\n      tag_173\n      jump\t// in\n    tag_404:\n        /* \"#utility.yul\":19160:19230   */\n      swap3\n      pop\n        /* \"#utility.yul\":19016:19240   */\n      pop\n        /* \"#utility.yul\":19003:19004   */\n      0x01\n        /* \"#utility.yul\":19000:19001   */\n      dup2\n        /* \"#utility.yul\":18996:19005   */\n      add\n        /* \"#utility.yul\":18991:19005   */\n      swap1\n      pop\n        /* \"#utility.yul\":18956:19240   */\n      jump(tag_400)\n    tag_402:\n        /* \"#utility.yul\":18960:18974   */\n      pop\n        /* \"#utility.yul\":19256:19259   */\n      dup6\n        /* \"#utility.yul\":19249:19259   */\n      swap4\n      pop\n        /* \"#utility.yul\":18657:19265   */\n      pop\n      pop\n      pop\n        /* \"#utility.yul\":18533:19265   */\n      swap3\n      swap2\n      pop\n      pop\n      jump\t// out\n        /* \"#utility.yul\":19271:19440   */\n    tag_175:\n        /* \"#utility.yul\":19355:19366   */\n      0x00\n        /* \"#utility.yul\":19389:19395   */\n      dup3\n        /* \"#utility.yul\":19384:19387   */\n      dup3\n        /* \"#utility.yul\":19377:19396   */\n      mstore\n        /* \"#utility.yul\":19429:19433   */\n      0x20\n        /* \"#utility.yul\":19424:19427   */\n      dup3\n        /* \"#utility.yul\":19420:19434   */\n      add\n        /* \"#utility.yul\":19405:19434   */\n      swap1\n      pop\n        /* \"#utility.yul\":19271:19440   */\n      swap3\n      swap2\n      pop\n      pop\n      jump\t// out\n        /* \"#utility.yul\":19446:19599   */\n    tag_176:\n        /* \"#utility.yul\":19586:19591   */\n      0x6162630000000000000000000000000000000000000000000000000000000000\n        /* \"#utility.yul\":19582:19583   */\n      0x00\n        /* \"#utility.yul\":19574:19580   */\n      dup3\n        /* \"#utility.yul\":19570:19584   */\n      add\n        /* \"#utility.yul\":19563:19592   */\n      mstore\n        /* \"#utility.yul\":19446:19599   */\n      pop\n      jump\t// out\n        /* \"#utility.yul\":19605:19970   */\n    tag_177:\n        /* \"#utility.yul\":19747:19750   */\n      0x00\n        /* \"#utility.yul\":19768:19834   */\n      tag_408\n        /* \"#utility.yul\":19832:19833   */\n      0x03\n        /* \"#utility.yul\":19827:19830   */\n      dup4\n        /* \"#utility.yul\":19768:19834   */\n      tag_175\n      jump\t// in\n    tag_408:\n        /* \"#utility.yul\":19761:19834   */\n      swap2\n      pop\n        /* \"#utility.yul\":19843:19936   */\n      tag_409\n        /* \"#utility.yul\":19932:19935   */\n      dup3\n        /* \"#utility.yul\":19843:19936   */\n      tag_176\n      jump\t// in\n    tag_409:\n        /* \"#utility.yul\":19961:19963   */\n      0x20\n        /* \"#utility.yul\":19956:19959   */\n      dup3\n        /* \"#utility.yul\":19952:19964   */\n      add\n        /* \"#utility.yul\":19945:19964   */\n      swap1\n      pop\n        /* \"#utility.yul\":19605:19970   */\n      swap2\n      swap1\n      pop\n      jump\t// out\n        /* \"#utility.yul\":19976:20656   */\n    tag_82:\n        /* \"#utility.yul\":20220:20224   */\n      0x00\n        /* \"#utility.yul\":20258:20260   */\n      0x40\n        /* \"#utility.yul\":20247:20256   */\n      dup3\n        /* \"#utility.yul\":20243:20261   */\n      add\n        /* \"#utility.yul\":20235:20261   */\n      swap1\n      pop\n        /* \"#utility.yul\":20307:20316   */\n      dup2\n        /* \"#utility.yul\":20301:20305   */\n      dup2\n        /* \"#utility.yul\":20297:20317   */\n      sub\n        /* \"#utility.yul\":20293:20294   */\n      0x00\n        /* \"#utility.yul\":20282:20291   */\n      dup4\n        /* \"#utility.yul\":20278:20295   */\n      add\n        /* \"#utility.yul\":20271:20318   */\n      mstore\n        /* \"#utility.yul\":20335:20443   */\n      tag_411\n        /* \"#utility.yul\":20438:20442   */\n      dup2\n        /* \"#utility.yul\":20429:20435   */\n      dup5\n        /* \"#utility.yul\":20335:20443   */\n      tag_174\n      jump\t// in\n    tag_411:\n        /* \"#utility.yul\":20327:20443   */\n      swap1\n      pop\n        /* \"#utility.yul\":20490:20499   */\n      dup2\n        /* \"#utility.yul\":20484:20488   */\n      dup2\n        /* \"#utility.yul\":20480:20500   */\n      sub\n        /* \"#utility.yul\":20475:20477   */\n      0x20\n        /* \"#utility.yul\":20464:20473   */\n      dup4\n        /* \"#utility.yul\":20460:20478   */\n      add\n        /* \"#utility.yul\":20453:20501   */\n      mstore\n        /* \"#utility.yul\":20518:20649   */\n      tag_412\n        /* \"#utility.yul\":20644:20648   */\n      dup2\n        /* \"#utility.yul\":20518:20649   */\n      tag_177\n      jump\t// in\n    tag_412:\n        /* \"#utility.yul\":20510:20649   */\n      swap1\n      pop\n        /* \"#utility.yul\":19976:20656   */\n      swap3\n      swap2\n      pop\n      pop\n      jump\t// out\n        /* \"#utility.yul\":20662:20780   */\n    tag_178:\n        /* \"#utility.yul\":20749:20773   */\n      tag_414\n        /* \"#utility.yul\":20767:20772   */\n      dup2\n        /* \"#utility.yul\":20749:20773   */\n      tag_119\n      jump\t// in\n    tag_414:\n        /* \"#utility.yul\":20744:20747   */\n      dup3\n        /* \"#utility.yul\":20737:20774   */\n      mstore\n        /* \"#utility.yul\":20662:20780   */\n      pop\n      pop\n      jump\t// out\n        /* \"#utility.yul\":20786:20944   */\n    tag_179:\n        /* \"#utility.yul\":20859:20870   */\n      0x00\n        /* \"#utility.yul\":20893:20899   */\n      dup3\n        /* \"#utility.yul\":20888:20891   */\n      dup3\n        /* \"#utility.yul\":20881:20900   */\n      mstore\n        /* \"#utility.yul\":20933:20937   */\n      0x20\n        /* \"#utility.yul\":20928:20931   */\n      dup3\n        /* \"#utility.yul\":20924:20938   */\n      add\n        /* \"#utility.yul\":20909:20938   */\n      swap1\n      pop\n        /* \"#utility.yul\":20786:20944   */\n      swap3\n      swap2\n      pop\n      pop\n      jump\t// out\n        /* \"#utility.yul\":20950:21303   */\n    tag_180:\n        /* \"#utility.yul\":21026:21029   */\n      0x00\n        /* \"#utility.yul\":21054:21092   */\n      tag_417\n        /* \"#utility.yul\":21086:21091   */\n      dup3\n        /* \"#utility.yul\":21054:21092   */\n      tag_149\n      jump\t// in\n    tag_417:\n        /* \"#utility.yul\":21108:21168   */\n      tag_418\n        /* \"#utility.yul\":21161:21167   */\n      dup2\n        /* \"#utility.yul\":21156:21159   */\n      dup6\n        /* \"#utility.yul\":21108:21168   */\n      tag_179\n      jump\t// in\n    tag_418:\n        /* \"#utility.yul\":21101:21168   */\n      swap4\n      pop\n        /* \"#utility.yul\":21177:21242   */\n      tag_419\n        /* \"#utility.yul\":21235:21241   */\n      dup2\n        /* \"#utility.yul\":21230:21233   */\n      dup6\n        /* \"#utility.yul\":21223:21227   */\n      0x20\n        /* \"#utility.yul\":21216:21221   */\n      dup7\n        /* \"#utility.yul\":21212:21228   */\n      add\n        /* \"#utility.yul\":21177:21242   */\n      tag_151\n      jump\t// in\n    tag_419:\n        /* \"#utility.yul\":21267:21296   */\n      tag_420\n        /* \"#utility.yul\":21289:21295   */\n      dup2\n        /* \"#utility.yul\":21267:21296   */\n      tag_126\n      jump\t// in\n    tag_420:\n        /* \"#utility.yul\":21262:21265   */\n      dup5\n        /* \"#utility.yul\":21258:21297   */\n      add\n        /* \"#utility.yul\":21251:21297   */\n      swap2\n      pop\n        /* \"#utility.yul\":21030:21303   */\n      pop\n        /* \"#utility.yul\":20950:21303   */\n      swap3\n      swap2\n      pop\n      pop\n      jump\t// out\n        /* \"#utility.yul\":21361:21954   */\n    tag_181:\n        /* \"#utility.yul\":21470:21473   */\n      0x00\n        /* \"#utility.yul\":21506:21510   */\n      0x40\n        /* \"#utility.yul\":21501:21504   */\n      dup4\n        /* \"#utility.yul\":21497:21511   */\n      add\n        /* \"#utility.yul\":21592:21596   */\n      0x00\n        /* \"#utility.yul\":21585:21590   */\n      dup4\n        /* \"#utility.yul\":21581:21597   */\n      add\n        /* \"#utility.yul\":21575:21598   */\n      mload\n        /* \"#utility.yul\":21611:21674   */\n      tag_422\n        /* \"#utility.yul\":21668:21672   */\n      0x00\n        /* \"#utility.yul\":21663:21666   */\n      dup7\n        /* \"#utility.yul\":21659:21673   */\n      add\n        /* \"#utility.yul\":21645:21657   */\n      dup3\n        /* \"#utility.yul\":21611:21674   */\n      tag_171\n      jump\t// in\n    tag_422:\n        /* \"#utility.yul\":21521:21684   */\n      pop\n        /* \"#utility.yul\":21766:21770   */\n      0x20\n        /* \"#utility.yul\":21759:21764   */\n      dup4\n        /* \"#utility.yul\":21755:21771   */\n      add\n        /* \"#utility.yul\":21749:21772   */\n      mload\n        /* \"#utility.yul\":21819:21822   */\n      dup5\n        /* \"#utility.yul\":21813:21817   */\n      dup3\n        /* \"#utility.yul\":21809:21823   */\n      sub\n        /* \"#utility.yul\":21802:21806   */\n      0x20\n        /* \"#utility.yul\":21797:21800   */\n      dup7\n        /* \"#utility.yul\":21793:21807   */\n      add\n        /* \"#utility.yul\":21786:21824   */\n      mstore\n        /* \"#utility.yul\":21845:21916   */\n      tag_423\n        /* \"#utility.yul\":21911:21915   */\n      dup3\n        /* \"#utility.yul\":21897:21909   */\n      dup3\n        /* \"#utility.yul\":21845:21916   */\n      tag_180\n      jump\t// in\n    tag_423:\n        /* \"#utility.yul\":21837:21916   */\n      swap2\n      pop\n        /* \"#utility.yul\":21694:21927   */\n      pop\n        /* \"#utility.yul\":21944:21948   */\n      dup1\n        /* \"#utility.yul\":21937:21948   */\n      swap2\n      pop\n        /* \"#utility.yul\":21475:21954   */\n      pop\n        /* \"#utility.yul\":21361:21954   */\n      swap3\n      swap2\n      pop\n      pop\n      jump\t// out\n        /* \"#utility.yul\":21960:22807   */\n    tag_88:\n        /* \"#utility.yul\":22233:22237   */\n      0x00\n        /* \"#utility.yul\":22271:22274   */\n      0x80\n        /* \"#utility.yul\":22260:22269   */\n      dup3\n        /* \"#utility.yul\":22256:22275   */\n      add\n        /* \"#utility.yul\":22248:22275   */\n      swap1\n      pop\n        /* \"#utility.yul\":22285:22356   */\n      tag_425\n        /* \"#utility.yul\":22353:22354   */\n      0x00\n        /* \"#utility.yul\":22342:22351   */\n      dup4\n        /* \"#utility.yul\":22338:22355   */\n      add\n        /* \"#utility.yul\":22329:22335   */\n      dup8\n        /* \"#utility.yul\":22285:22356   */\n      tag_178\n      jump\t// in\n    tag_425:\n        /* \"#utility.yul\":22403:22412   */\n      dup2\n        /* \"#utility.yul\":22397:22401   */\n      dup2\n        /* \"#utility.yul\":22393:22413   */\n      sub\n        /* \"#utility.yul\":22388:22390   */\n      0x20\n        /* \"#utility.yul\":22377:22386   */\n      dup4\n        /* \"#utility.yul\":22373:22391   */\n      add\n        /* \"#utility.yul\":22366:22414   */\n      mstore\n        /* \"#utility.yul\":22431:22529   */\n      tag_426\n        /* \"#utility.yul\":22524:22528   */\n      dup2\n        /* \"#utility.yul\":22515:22521   */\n      dup7\n        /* \"#utility.yul\":22431:22529   */\n      tag_181\n      jump\t// in\n    tag_426:\n        /* \"#utility.yul\":22423:22529   */\n      swap1\n      pop\n        /* \"#utility.yul\":22576:22585   */\n      dup2\n        /* \"#utility.yul\":22570:22574   */\n      dup2\n        /* \"#utility.yul\":22566:22586   */\n      sub\n        /* \"#utility.yul\":22561:22563   */\n      0x40\n        /* \"#utility.yul\":22550:22559   */\n      dup4\n        /* \"#utility.yul\":22546:22564   */\n      add\n        /* \"#utility.yul\":22539:22587   */\n      mstore\n        /* \"#utility.yul\":22604:22712   */\n      tag_427\n        /* \"#utility.yul\":22707:22711   */\n      dup2\n        /* \"#utility.yul\":22698:22704   */\n      dup6\n        /* \"#utility.yul\":22604:22712   */\n      tag_174\n      jump\t// in\n    tag_427:\n        /* \"#utility.yul\":22596:22712   */\n      swap1\n      pop\n        /* \"#utility.yul\":22722:22800   */\n      tag_428\n        /* \"#utility.yul\":22796:22798   */\n      0x60\n        /* \"#utility.yul\":22785:22794   */\n      dup4\n        /* \"#utility.yul\":22781:22799   */\n      add\n        /* \"#utility.yul\":22772:22778   */\n      dup5\n        /* \"#utility.yul\":22722:22800   */\n      tag_157\n      jump\t// in\n    tag_428:\n        /* \"#utility.yul\":21960:22807   */\n      swap6\n      swap5\n      pop\n      pop\n      pop\n      pop\n      pop\n      jump\t// out\n        /* \"#utility.yul\":22813:22981   */\n    tag_182:\n        /* \"#utility.yul\":22896:22907   */\n      0x00\n        /* \"#utility.yul\":22930:22936   */\n      dup3\n        /* \"#utility.yul\":22925:22928   */\n      dup3\n        /* \"#utility.yul\":22918:22937   */\n      mstore\n        /* \"#utility.yul\":22970:22974   */\n      0x20\n        /* \"#utility.yul\":22965:22968   */\n      dup3\n        /* \"#utility.yul\":22961:22975   */\n      add\n        /* \"#utility.yul\":22946:22975   */\n      swap1\n      pop\n        /* \"#utility.yul\":22813:22981   */\n      swap3\n      swap2\n      pop\n      pop\n      jump\t// out\n        /* \"#utility.yul\":23009:23323   */\n    tag_183:\n        /* \"#utility.yul\":23105:23108   */\n      0x00\n        /* \"#utility.yul\":23126:23196   */\n      tag_431\n        /* \"#utility.yul\":23189:23195   */\n      dup4\n        /* \"#utility.yul\":23184:23187   */\n      dup6\n        /* \"#utility.yul\":23126:23196   */\n      tag_182\n      jump\t// in\n    tag_431:\n        /* \"#utility.yul\":23119:23196   */\n      swap4\n      pop\n        /* \"#utility.yul\":23206:23262   */\n      tag_432\n        /* \"#utility.yul\":23255:23261   */\n      dup4\n        /* \"#utility.yul\":23250:23253   */\n      dup6\n        /* \"#utility.yul\":23243:23248   */\n      dup5\n        /* \"#utility.yul\":23206:23262   */\n      tag_133\n      jump\t// in\n    tag_432:\n        /* \"#utility.yul\":23287:23316   */\n      tag_433\n        /* \"#utility.yul\":23309:23315   */\n      dup4\n        /* \"#utility.yul\":23287:23316   */\n      tag_126\n      jump\t// in\n    tag_433:\n        /* \"#utility.yul\":23282:23285   */\n      dup5\n        /* \"#utility.yul\":23278:23317   */\n      add\n        /* \"#utility.yul\":23271:23317   */\n      swap1\n      pop\n        /* \"#utility.yul\":23009:23323   */\n      swap4\n      swap3\n      pop\n      pop\n      pop\n      jump\t// out\n        /* \"#utility.yul\":23329:23658   */\n    tag_100:\n        /* \"#utility.yul\":23450:23454   */\n      0x00\n        /* \"#utility.yul\":23488:23490   */\n      0x20\n        /* \"#utility.yul\":23477:23486   */\n      dup3\n        /* \"#utility.yul\":23473:23491   */\n      add\n        /* \"#utility.yul\":23465:23491   */\n      swap1\n      pop\n        /* \"#utility.yul\":23537:23546   */\n      dup2\n        /* \"#utility.yul\":23531:23535   */\n      dup2\n        /* \"#utility.yul\":23527:23547   */\n      sub\n        /* \"#utility.yul\":23523:23524   */\n      0x00\n        /* \"#utility.yul\":23512:23521   */\n      dup4\n        /* \"#utility.yul\":23508:23525   */\n      add\n        /* \"#utility.yul\":23501:23548   */\n      mstore\n        /* \"#utility.yul\":23565:23651   */\n      tag_435\n        /* \"#utility.yul\":23646:23650   */\n      dup2\n        /* \"#utility.yul\":23637:23643   */\n      dup5\n        /* \"#utility.yul\":23629:23635   */\n      dup7\n        /* \"#utility.yul\":23565:23651   */\n      tag_183\n      jump\t// in\n    tag_435:\n        /* \"#utility.yul\":23557:23651   */\n      swap1\n      pop\n        /* \"#utility.yul\":23329:23658   */\n      swap4\n      swap3\n      pop\n      pop\n      pop\n      jump\t// out\n\n    auxdata: 0xa2646970667358221220c98ee97875a515498eb22ba2a28e189ea76089c3b4f6168ac8073a34e26421b064736f6c634300081a0033\n}\n",
				"bytecode": {
					"linkReferences": {},
					"object": "6080604052348015600e575f80fd5b506115068061001c5f395ff3fe608060405234801561000f575f80fd5b5060043610610086575f3560e01c80636a627842116100595780636a62784214610100578063e355b0ce1461011c578063ead6b8bd1461014c578063f0ca01de1461017c57610086565b8063038179361461008a578063046dab16146100a85780633ec37834146100c657806359ebea23146100f6575b5f80fd5b6100926101ac565b60405161009f919061099e565b60405180910390f35b6100b0610211565b6040516100bd919061099e565b60405180910390f35b6100e060048036038101906100db9190610a30565b610238565b6040516100ed919061099e565b60405180910390f35b6100fe6102a0565b005b61011a60048036038101906101159190610ac8565b6107d6565b005b61013660048036038101906101319190610dc2565b610812565b604051610143919061099e565b60405180910390f35b61016660048036038101906101619190610f0c565b61087c565b604051610173919061099e565b60405180910390f35b61019660048036038101906101919190610fd5565b6108e3565b6040516101a3919061099e565b60405180910390f35b5f7f87c76683e354abe8640b03c72d02c9175d9a00a6c0101d5bc4be081b9b8199eb630381793660e01b6040516101e3919061099e565b60405180910390a17f038179367d802aca924f17568b786520678fa7955b6cd468a00dd90b7cfbab40905090565b5f7f6a627842f752de95745ef8f3ca67858982b5f585d752f8163e5855050041cb3c905090565b5f7f87c76683e354abe8640b03c72d02c9175d9a00a6c0101d5bc4be081b9b8199eb633ec3783460e01b60405161026f919061099e565b60405180910390a17f3ec3783488bfc90ed98dc398cd67f30f42b252c8ce7d59a4dce63a149c452548905092915050565b5f600367ffffffffffffffff8111156102bc576102bb610b42565b5b6040519080825280602002602001820160405280156102ea5781602001602082028036833780820191505090505b5090506001815f815181106103025761030161104b565b5b6020026020010181815250506002816001815181106103245761032361104b565b5b6020026020010181815250506003816002815181106103465761034561104b565b5b60200260200101818152505061035a61094b565b6001815f0181815250506040518060400160405280600681526020017f307861306231000000000000000000000000000000000000000000000000000081525081602001819052505f803073ffffffffffffffffffffffffffffffffffffffff1663038179366040516024016040516020818303038152906040529060e01b6020820180517bffffffffffffffffffffffffffffffffffffffffffffffffffffffff838183161783525050505060405161041491906110ca565b5f604051808303815f865af19150503d805f811461044d576040519150601f19603f3d011682016040523d82523d5f602084013e610452565b606091505b50915091505f803073ffffffffffffffffffffffffffffffffffffffff16633ec3783460015f604051602401610489929190611167565b6040516020818303038152906040529060e01b6020820180517bffffffffffffffffffffffffffffffffffffffffffffffffffffffff83818316178352505050506040516104d791906110ca565b5f604051808303815f865af19150503d805f8114610510576040519150601f19603f3d011682016040523d82523d5f602084013e610515565b606091505b50915091505f803073ffffffffffffffffffffffffffffffffffffffff1663ead6b8bd6040518060600160405280600160ff168152602001600260ff168152602001600360ff1681525060405160240161056f9190611233565b6040516020818303038152906040529060e01b6020820180517bffffffffffffffffffffffffffffffffffffffffffffffffffffffff83818316178352505050506040516105bd91906110ca565b5f604051808303815f865af19150503d805f81146105f6576040519150601f19603f3d011682016040523d82523d5f602084013e6105fb565b606091505b50915091505f803073ffffffffffffffffffffffffffffffffffffffff1663f0ca01de8b60405160240161062f919061135d565b6040516020818303038152906040529060e01b6020820180517bffffffffffffffffffffffffffffffffffffffffffffffffffffffff838183161783525050505060405161067d91906110ca565b5f604051808303815f865af19150503d805f81146106b6576040519150601f19603f3d011682016040523d82523d5f602084013e6106bb565b606091505b50915091505f803073ffffffffffffffffffffffffffffffffffffffff1663e355b0ce739d7f74d0c41e726ec95884e0e97fa6129e3b5e998d8f600160405160240161070a9493929190611421565b6040516020818303038152906040529060e01b6020820180517bffffffffffffffffffffffffffffffffffffffffffffffffffffffff838183161783525050505060405161075891906110ca565b5f604051808303815f865af19150503d805f8114610791576040519150601f19603f3d011682016040523d82523d5f602084013e610796565b606091505b50915091508980156107a55750875b80156107ae5750855b80156107b75750835b80156107c05750815b6107c8575f80fd5b505050505050505050505050565b7fafabcf2dd47e06a477a89e49c03f8ebe8e0a7e94f775b25bbb24227c9d0110b25f366040516108079291906114ae565b60405180910390a150565b5f7f87c76683e354abe8640b03c72d02c9175d9a00a6c0101d5bc4be081b9b8199eb63e355b0ce60e01b604051610849919061099e565b60405180910390a17fe355b0ceecdc5a85bc460808aed3b4d8eaa7935dbf79d2db6ffcf71e5c3525769050949350505050565b5f7f87c76683e354abe8640b03c72d02c9175d9a00a6c0101d5bc4be081b9b8199eb63ead6b8bd60e01b6040516108b3919061099e565b60405180910390a17fead6b8bdece33532847146a6fe63967e794ef7c18f3b888ae6fb3aebb4ef1b959050919050565b5f7f87c76683e354abe8640b03c72d02c9175d9a00a6c0101d5bc4be081b9b8199eb63f0ca01de60e01b60405161091a919061099e565b60405180910390a17ff0ca01de95639524000d6ff4e9309b96c7f67f7961bf24b33f8b20e85f6ad977905092915050565b60405180604001604052805f8152602001606081525090565b5f7fffffffff0000000000000000000000000000000000000000000000000000000082169050919050565b61099881610964565b82525050565b5f6020820190506109b15f83018461098f565b92915050565b5f604051905090565b5f80fd5b5f80fd5b5f819050919050565b6109da816109c8565b81146109e4575f80fd5b50565b5f813590506109f5816109d1565b92915050565b5f8115159050919050565b610a0f816109fb565b8114610a19575f80fd5b50565b5f81359050610a2a81610a06565b92915050565b5f8060408385031215610a4657610a456109c0565b5b5f610a53858286016109e7565b9250506020610a6485828601610a1c565b9150509250929050565b5f73ffffffffffffffffffffffffffffffffffffffff82169050919050565b5f610a9782610a6e565b9050919050565b610aa781610a8d565b8114610ab1575f80fd5b50565b5f81359050610ac281610a9e565b92915050565b5f60208284031215610add57610adc6109c0565b5b5f610aea84828501610ab4565b91505092915050565b5f610afd82610a8d565b9050919050565b610b0d81610af3565b8114610b17575f80fd5b50565b5f81359050610b2881610b04565b92915050565b5f80fd5b5f601f19601f8301169050919050565b7f4e487b71000000000000000000000000000000000000000000000000000000005f52604160045260245ffd5b610b7882610b32565b810181811067ffffffffffffffff82111715610b9757610b96610b42565b5b80604052505050565b5f610ba96109b7565b9050610bb58282610b6f565b919050565b5f80fd5b5f80fd5b5f80fd5b5f67ffffffffffffffff821115610be057610bdf610b42565b5b610be982610b32565b9050602081019050919050565b828183375f83830152505050565b5f610c16610c1184610bc6565b610ba0565b905082815260208101848484011115610c3257610c31610bc2565b5b610c3d848285610bf6565b509392505050565b5f82601f830112610c5957610c58610bbe565b5b8135610c69848260208601610c04565b91505092915050565b5f60408284031215610c8757610c86610b2e565b5b610c916040610ba0565b90505f610ca0848285016109e7565b5f83015250602082013567ffffffffffffffff811115610cc357610cc2610bba565b5b610ccf84828501610c45565b60208301525092915050565b5f67ffffffffffffffff821115610cf557610cf4610b42565b5b602082029050602081019050919050565b5f80fd5b5f610d1c610d1784610cdb565b610ba0565b90508083825260208201905060208402830185811115610d3f57610d3e610d06565b5b835b81811015610d685780610d5488826109e7565b845260208401935050602081019050610d41565b5050509392505050565b5f82601f830112610d8657610d85610bbe565b5b8135610d96848260208601610d0a565b91505092915050565b60038110610dab575f80fd5b50565b5f81359050610dbc81610d9f565b92915050565b5f805f8060808587031215610dda57610dd96109c0565b5b5f610de787828801610b1a565b945050602085013567ffffffffffffffff811115610e0857610e076109c4565b5b610e1487828801610c72565b935050604085013567ffffffffffffffff811115610e3557610e346109c4565b5b610e4187828801610d72565b9250506060610e5287828801610dae565b91505092959194509250565b5f67ffffffffffffffff821115610e7857610e77610b42565b5b602082029050919050565b5f610e95610e9084610e5e565b610ba0565b90508060208402830185811115610eaf57610eae610d06565b5b835b81811015610ed85780610ec488826109e7565b845260208401935050602081019050610eb1565b5050509392505050565b5f82601f830112610ef657610ef5610bbe565b5b6003610f03848285610e83565b91505092915050565b5f60608284031215610f2157610f206109c0565b5b5f610f2e84828501610ee2565b91505092915050565b5f67ffffffffffffffff821115610f5157610f50610b42565b5b610f5a82610b32565b9050602081019050919050565b5f610f79610f7484610f37565b610ba0565b905082815260208101848484011115610f9557610f94610bc2565b5b610fa0848285610bf6565b509392505050565b5f82601f830112610fbc57610fbb610bbe565b5b8135610fcc848260208601610f67565b91505092915050565b5f8060408385031215610feb57610fea6109c0565b5b5f83013567ffffffffffffffff811115611008576110076109c4565b5b61101485828601610d72565b925050602083013567ffffffffffffffff811115611035576110346109c4565b5b61104185828601610fa8565b9150509250929050565b7f4e487b71000000000000000000000000000000000000000000000000000000005f52603260045260245ffd5b5f81519050919050565b5f81905092915050565b8281835e5f83830152505050565b5f6110a482611078565b6110ae8185611082565b93506110be81856020860161108c565b80840191505092915050565b5f6110d5828461109a565b915081905092915050565b5f819050919050565b5f60ff82169050919050565b5f819050919050565b5f61111861111361110e846110e0565b6110f5565b6110e9565b9050919050565b611128816110fe565b82525050565b5f819050919050565b5f61115161114c6111478461112e565b6110f5565b6110e9565b9050919050565b61116181611137565b82525050565b5f60408201905061117a5f83018561111f565b6111876020830184611158565b9392505050565b5f60039050919050565b5f81905092915050565b5f819050919050565b6111b4816110e9565b82525050565b5f6111c583836111ab565b60208301905092915050565b5f602082019050919050565b6111e68161118e565b6111f08184611198565b92506111fb826111a2565b805f5b8381101561122b57815161121287826111ba565b965061121d836111d1565b9250506001810190506111fe565b505050505050565b5f6060820190506112465f8301846111dd565b92915050565b5f81519050919050565b5f82825260208201905092915050565b5f819050602082019050919050565b61127e816109c8565b82525050565b5f61128f8383611275565b60208301905092915050565b5f602082019050919050565b5f6112b18261124c565b6112bb8185611256565b93506112c683611266565b805f5b838110156112f65781516112dd8882611284565b97506112e88361129b565b9250506001810190506112c9565b5085935050505092915050565b5f82825260208201905092915050565b7f61626300000000000000000000000000000000000000000000000000000000005f82015250565b5f611347600383611303565b915061135282611313565b602082019050919050565b5f6040820190508181035f83015261137581846112a7565b905081810360208301526113888161133b565b905092915050565b61139981610a8d565b82525050565b5f82825260208201905092915050565b5f6113b982611078565b6113c3818561139f565b93506113d381856020860161108c565b6113dc81610b32565b840191505092915050565b5f604083015f8301516113fc5f860182611275565b506020830151848203602086015261141482826113af565b9150508091505092915050565b5f6080820190506114345f830187611390565b818103602083015261144681866113e7565b9050818103604083015261145a81856112a7565b9050611469606083018461111f565b95945050505050565b5f82825260208201905092915050565b5f61148d8385611472565b935061149a838584610bf6565b6114a383610b32565b840190509392505050565b5f6020820190508181035f8301526114c7818486611482565b9050939250505056fea2646970667358221220c98ee97875a515498eb22ba2a28e189ea76089c3b4f6168ac8073a34e26421b064736f6c634300081a0033",
					"opcodes": "PUSH1 0x80 PUSH1 0x40 MSTORE CALLVALUE DUP1 ISZERO PUSH1 0xE JUMPI PUSH0 DUP1 REVERT JUMPDEST POP PUSH2 0x1506 DUP1 PUSH2 0x1C PUSH0 CODECOPY PUSH0 RETURN INVALID PUSH1 0x80 PUSH1 0x40 MSTORE CALLVALUE DUP1 ISZERO PUSH2 0xF JUMPI PUSH0 DUP1 REVERT JUMPDEST POP PUSH1 0x4 CALLDATASIZE LT PUSH2 0x86 JUMPI PUSH0 CALLDATALOAD PUSH1 0xE0 SHR DUP1 PUSH4 0x6A627842 GT PUSH2 0x59 JUMPI DUP1 PUSH4 0x6A627842 EQ PUSH2 0x100 JUMPI DUP1 PUSH4 0xE355B0CE EQ PUSH2 0x11C JUMPI DUP1 PUSH4 0xEAD6B8BD EQ PUSH2 0x14C JUMPI DUP1 PUSH4 0xF0CA01DE EQ PUSH2 0x17C JUMPI PUSH2 0x86 JUMP JUMPDEST DUP1 PUSH4 0x3817936 EQ PUSH2 0x8A JUMPI DUP1 PUSH4 0x46DAB16 EQ PUSH2 0xA8 JUMPI DUP1 PUSH4 0x3EC37834 EQ PUSH2 0xC6 JUMPI DUP1 PUSH4 0x59EBEA23 EQ PUSH2 0xF6 JUMPI JUMPDEST PUSH0 DUP1 REVERT JUMPDEST PUSH2 0x92 PUSH2 0x1AC JUMP JUMPDEST PUSH1 0x40 MLOAD PUSH2 0x9F SWAP2 SWAP1 PUSH2 0x99E JUMP JUMPDEST PUSH1 0x40 MLOAD DUP1 SWAP2 SUB SWAP1 RETURN JUMPDEST PUSH2 0xB0 PUSH2 0x211 JUMP JUMPDEST PUSH1 0x40 MLOAD PUSH2 0xBD SWAP2 SWAP1 PUSH2 0x99E JUMP JUMPDEST PUSH1 0x40 MLOAD DUP1 SWAP2 SUB SWAP1 RETURN JUMPDEST PUSH2 0xE0 PUSH1 0x4 DUP1 CALLDATASIZE SUB DUP2 ADD SWAP1 PUSH2 0xDB SWAP2 SWAP1 PUSH2 0xA30 JUMP JUMPDEST PUSH2 0x238 JUMP JUMPDEST PUSH1 0x40 MLOAD PUSH2 0xED SWAP2 SWAP1 PUSH2 0x99E JUMP JUMPDEST PUSH1 0x40 MLOAD DUP1 SWAP2 SUB SWAP1 RETURN JUMPDEST PUSH2 0xFE PUSH2 0x2A0 JUMP JUMPDEST STOP JUMPDEST PUSH2 0x11A PUSH1 0x4 DUP1 CALLDATASIZE SUB DUP2 ADD SWAP1 PUSH2 0x115 SWAP2 SWAP1 PUSH2 0xAC8 JUMP JUMPDEST PUSH2 0x7D6 JUMP JUMPDEST STOP JUMPDEST PUSH2 0x136 PUSH1 0x4 DUP1 CALLDATASIZE SUB DUP2 ADD SWAP1 PUSH2 0x131 SWAP2 SWAP1 PUSH2 0xDC2 JUMP JUMPDEST PUSH2 0x812 JUMP JUMPDEST PUSH1 0x40 MLOAD PUSH2 0x143 SWAP2 SWAP1 PUSH2 0x99E JUMP JUMPDEST PUSH1 0x40 MLOAD DUP1 SWAP2 SUB SWAP1 RETURN JUMPDEST PUSH2 0x166 PUSH1 0x4 DUP1 CALLDATASIZE SUB DUP2 ADD SWAP1 PUSH2 0x161 SWAP2 SWAP1 PUSH2 0xF0C JUMP JUMPDEST PUSH2 0x87C JUMP JUMPDEST PUSH1 0x40 MLOAD PUSH2 0x173 SWAP2 SWAP1 PUSH2 0x99E JUMP JUMPDEST PUSH1 0x40 MLOAD DUP1 SWAP2 SUB SWAP1 RETURN JUMPDEST PUSH2 0x196 PUSH1 0x4 DUP1 CALLDATASIZE SUB DUP2 ADD SWAP1 PUSH2 0x191 SWAP2 SWAP1 PUSH2 0xFD5 JUMP JUMPDEST PUSH2 0x8E3 JUMP JUMPDEST PUSH1 0x40 MLOAD PUSH2 0x1A3 SWAP2 SWAP1 PUSH2 0x99E JUMP JUMPDEST PUSH1 0x40 MLOAD DUP1 SWAP2 SUB SWAP1 RETURN JUMPDEST PUSH0 PUSH32 0x87C76683E354ABE8640B03C72D02C9175D9A00A6C0101D5BC4BE081B9B8199EB PUSH4 0x3817936 PUSH1 0xE0 SHL PUSH1 0x40 MLOAD PUSH2 0x1E3 SWAP2 SWAP1 PUSH2 0x99E JUMP JUMPDEST PUSH1 0x40 MLOAD DUP1 SWAP2 SUB SWAP1 LOG1 PUSH32 0x38179367D802ACA924F17568B786520678FA7955B6CD468A00DD90B7CFBAB40 SWAP1 POP SWAP1 JUMP JUMPDEST PUSH0 PUSH32 0x6A627842F752DE95745EF8F3CA67858982B5F585D752F8163E5855050041CB3C SWAP1 POP SWAP1 JUMP JUMPDEST PUSH0 PUSH32 0x87C76683E354ABE8640B03C72D02C9175D9A00A6C0101D5BC4BE081B9B8199EB PUSH4 0x3EC37834 PUSH1 0xE0 SHL PUSH1 0x40 MLOAD PUSH2 0x26F SWAP2 SWAP1 PUSH2 0x99E JUMP JUMPDEST PUSH1 0x40 MLOAD DUP1 SWAP2 SUB SWAP1 LOG1 PUSH32 0x3EC3783488BFC90ED98DC398CD67F30F42B252C8CE7D59A4DCE63A149C452548 SWAP1 POP SWAP3 SWAP2 POP POP JUMP JUMPDEST PUSH0 PUSH1 0x3 PUSH8 0xFFFFFFFFFFFFFFFF DUP2 GT ISZERO PUSH2 0x2BC JUMPI PUSH2 0x2BB PUSH2 0xB42 JUMP JUMPDEST JUMPDEST PUSH1 0x40 MLOAD SWAP1 DUP1 DUP3 MSTORE DUP1 PUSH1 0x20 MUL PUSH1 0x20 ADD DUP3 ADD PUSH1 0x40 MSTORE DUP1 ISZERO PUSH2 0x2EA JUMPI DUP2 PUSH1 0x20 ADD PUSH1 0x20 DUP3 MUL DUP1 CALLDATASIZE DUP4 CALLDATACOPY DUP1 DUP3 ADD SWAP2 POP POP SWAP1 POP JUMPDEST POP SWAP1 POP PUSH1 0x1 DUP2 PUSH0 DUP2 MLOAD DUP2 LT PUSH2 0x302 JUMPI PUSH2 0x301 PUSH2 0x104B JUMP JUMPDEST JUMPDEST PUSH1 0x20 MUL PUSH1 0x20 ADD ADD DUP2 DUP2 MSTORE POP POP PUSH1 0x2 DUP2 PUSH1 0x1 DUP2 MLOAD DUP2 LT PUSH2 0x324 JUMPI PUSH2 0x323 PUSH2 0x104B JUMP JUMPDEST JUMPDEST PUSH1 0x20 MUL PUSH1 0x20 ADD ADD DUP2 DUP2 MSTORE POP POP PUSH1 0x3 DUP2 PUSH1 0x2 DUP2 MLOAD DUP2 LT PUSH2 0x346 JUMPI PUSH2 0x345 PUSH2 0x104B JUMP JUMPDEST JUMPDEST PUSH1 0x20 MUL PUSH1 0x20 ADD ADD DUP2 DUP2 MSTORE POP POP PUSH2 0x35A PUSH2 0x94B JUMP JUMPDEST PUSH1 0x1 DUP2 PUSH0 ADD DUP2 DUP2 MSTORE POP POP PUSH1 0x40 MLOAD DUP1 PUSH1 0x40 ADD PUSH1 0x40 MSTORE DUP1 PUSH1 0x6 DUP2 MSTORE PUSH1 0x20 ADD PUSH32 0x3078613062310000000000000000000000000000000000000000000000000000 DUP2 MSTORE POP DUP2 PUSH1 0x20 ADD DUP2 SWAP1 MSTORE POP PUSH0 DUP1 ADDRESS PUSH20 0xFFFFFFFFFFFFFFFFFFFFFFFFFFFFFFFFFFFFFFFF AND PUSH4 0x3817936 PUSH1 0x40 MLOAD PUSH1 0x24 ADD PUSH1 0x40 MLOAD PUSH1 0x20 DUP2 DUP4 SUB SUB DUP2 MSTORE SWAP1 PUSH1 0x40 MSTORE SWAP1 PUSH1 0xE0 SHL PUSH1 0x20 DUP3 ADD DUP1 MLOAD PUSH28 0xFFFFFFFFFFFFFFFFFFFFFFFFFFFFFFFFFFFFFFFFFFFFFFFFFFFFFFFF DUP4 DUP2 DUP4 AND OR DUP4 MSTORE POP POP POP POP PUSH1 0x40 MLOAD PUSH2 0x414 SWAP2 SWAP1 PUSH2 0x10CA JUMP JUMPDEST PUSH0 PUSH1 0x40 MLOAD DUP1 DUP4 SUB DUP2 PUSH0 DUP7 GAS CALL SWAP2 POP POP RETURNDATASIZE DUP1 PUSH0 DUP2 EQ PUSH2 0x44D JUMPI PUSH1 0x40 MLOAD SWAP2 POP PUSH1 0x1F NOT PUSH1 0x3F RETURNDATASIZE ADD AND DUP3 ADD PUSH1 0x40 MSTORE RETURNDATASIZE DUP3 MSTORE RETURNDATASIZE PUSH0 PUSH1 0x20 DUP5 ADD RETURNDATACOPY PUSH2 0x452 JUMP JUMPDEST PUSH1 0x60 SWAP2 POP JUMPDEST POP SWAP2 POP SWAP2 POP PUSH0 DUP1 ADDRESS PUSH20 0xFFFFFFFFFFFFFFFFFFFFFFFFFFFFFFFFFFFFFFFF AND PUSH4 0x3EC37834 PUSH1 0x1 PUSH0 PUSH1 0x40 MLOAD PUSH1 0x24 ADD PUSH2 0x489 SWAP3 SWAP2 SWAP1 PUSH2 0x1167 JUMP JUMPDEST PUSH1 0x40 MLOAD PUSH1 0x20 DUP2 DUP4 SUB SUB DUP2 MSTORE SWAP1 PUSH1 0x40 MSTORE SWAP1 PUSH1 0xE0 SHL PUSH1 0x20 DUP3 ADD DUP1 MLOAD PUSH28 0xFFFFFFFFFFFFFFFFFFFFFFFFFFFFFFFFFFFFFFFFFFFFFFFFFFFFFFFF DUP4 DUP2 DUP4 AND OR DUP4 MSTORE POP POP POP POP PUSH1 0x40 MLOAD PUSH2 0x4D7 SWAP2 SWAP1 PUSH2 0x10CA JUMP JUMPDEST PUSH0 PUSH1 0x40 MLOAD DUP1 DUP4 SUB DUP2 PUSH0 DUP7 GAS CALL SWAP2 POP POP RETURNDATASIZE DUP1 PUSH0 DUP2 EQ PUSH2 0x510 JUMPI PUSH1 0x40 MLOAD SWAP2 POP PUSH1 0x1F NOT PUSH1 0x3F RETURNDATASIZE ADD AND DUP3 ADD PUSH1 0x40 MSTORE RETURNDATASIZE DUP3 MSTORE RETURNDATASIZE PUSH0 PUSH1 0x20 DUP5 ADD RETURNDATACOPY PUSH2 0x515 JUMP JUMPDEST PUSH1 0x60 SWAP2 POP JUMPDEST POP SWAP2 POP SWAP2 POP PUSH0 DUP1 ADDRESS PUSH20 0xFFFFFFFFFFFFFFFFFFFFFFFFFFFFFFFFFFFFFFFF AND PUSH4 0xEAD6B8BD PUSH1 0x40 MLOAD DUP1 PUSH1 0x60 ADD PUSH1 0x40 MSTORE DUP1 PUSH1 0x1 PUSH1 0xFF AND DUP2 MSTORE PUSH1 0x20 ADD PUSH1 0x2 PUSH1 0xFF AND DUP2 MSTORE PUSH1 0x20 ADD PUSH1 0x3 PUSH1 0xFF AND DUP2 MSTORE POP PUSH1 0x40 MLOAD PUSH1 0x24 ADD PUSH2 0x56F SWAP2 SWAP1 PUSH2 0x1233 JUMP JUMPDEST PUSH1 0x40 MLOAD PUSH1 0x20 DUP2 DUP4 SUB SUB DUP2 MSTORE SWAP1 PUSH1 0x40 MSTORE SWAP1 PUSH1 0xE0 SHL PUSH1 0x20 DUP3 ADD DUP1 MLOAD PUSH28 0xFFFFFFFFFFFFFFFFFFFFFFFFFFFFFFFFFFFFFFFFFFFFFFFFFFFFFFFF DUP4 DUP2 DUP4 AND OR DUP4 MSTORE POP POP POP POP PUSH1 0x40 MLOAD PUSH2 0x5BD SWAP2 SWAP1 PUSH2 0x10CA JUMP JUMPDEST PUSH0 PUSH1 0x40 MLOAD DUP1 DUP4 SUB DUP2 PUSH0 DUP7 GAS CALL SWAP2 POP POP RETURNDATASIZE DUP1 PUSH0 DUP2 EQ PUSH2 0x5F6 JUMPI PUSH1 0x40 MLOAD SWAP2 POP PUSH1 0x1F NOT PUSH1 0x3F RETURNDATASIZE ADD AND DUP3 ADD PUSH1 0x40 MSTORE RETURNDATASIZE DUP3 MSTORE RETURNDATASIZE PUSH0 PUSH1 0x20 DUP5 ADD RETURNDATACOPY PUSH2 0x5FB JUMP JUMPDEST PUSH1 0x60 SWAP2 POP JUMPDEST POP SWAP2 POP SWAP2 POP PUSH0 DUP1 ADDRESS PUSH20 0xFFFFFFFFFFFFFFFFFFFFFFFFFFFFFFFFFFFFFFFF AND PUSH4 0xF0CA01DE DUP12 PUSH1 0x40 MLOAD PUSH1 0x24 ADD PUSH2 0x62F SWAP2 SWAP1 PUSH2 0x135D JUMP JUMPDEST PUSH1 0x40 MLOAD PUSH1 0x20 DUP2 DUP4 SUB SUB DUP2 MSTORE SWAP1 PUSH1 0x40 MSTORE SWAP1 PUSH1 0xE0 SHL PUSH1 0x20 DUP3 ADD DUP1 MLOAD PUSH28 0xFFFFFFFFFFFFFFFFFFFFFFFFFFFFFFFFFFFFFFFFFFFFFFFFFFFFFFFF DUP4 DUP2 DUP4 AND OR DUP4 MSTORE POP POP POP POP PUSH1 0x40 MLOAD PUSH2 0x67D SWAP2 SWAP1 PUSH2 0x10CA JUMP JUMPDEST PUSH0 PUSH1 0x40 MLOAD DUP1 DUP4 SUB DUP2 PUSH0 DUP7 GAS CALL SWAP2 POP POP RETURNDATASIZE DUP1 PUSH0 DUP2 EQ PUSH2 0x6B6 JUMPI PUSH1 0x40 MLOAD SWAP2 POP PUSH1 0x1F NOT PUSH1 0x3F RETURNDATASIZE ADD AND DUP3 ADD PUSH1 0x40 MSTORE RETURNDATASIZE DUP3 MSTORE RETURNDATASIZE PUSH0 PUSH1 0x20 DUP5 ADD RETURNDATACOPY PUSH2 0x6BB JUMP JUMPDEST PUSH1 0x60 SWAP2 POP JUMPDEST POP SWAP2 POP SWAP2 POP PUSH0 DUP1 ADDRESS PUSH20 0xFFFFFFFFFFFFFFFFFFFFFFFFFFFFFFFFFFFFFFFF AND PUSH4 0xE355B0CE PUSH20 0x9D7F74D0C41E726EC95884E0E97FA6129E3B5E99 DUP14 DUP16 PUSH1 0x1 PUSH1 0x40 MLOAD PUSH1 0x24 ADD PUSH2 0x70A SWAP5 SWAP4 SWAP3 SWAP2 SWAP1 PUSH2 0x1421 JUMP JUMPDEST PUSH1 0x40 MLOAD PUSH1 0x20 DUP2 DUP4 SUB SUB DUP2 MSTORE SWAP1 PUSH1 0x40 MSTORE SWAP1 PUSH1 0xE0 SHL PUSH1 0x20 DUP3 ADD DUP1 MLOAD PUSH28 0xFFFFFFFFFFFFFFFFFFFFFFFFFFFFFFFFFFFFFFFFFFFFFFFFFFFFFFFF DUP4 DUP2 DUP4 AND OR DUP4 MSTORE POP POP POP POP PUSH1 0x40 MLOAD PUSH2 0x758 SWAP2 SWAP1 PUSH2 0x10CA JUMP JUMPDEST PUSH0 PUSH1 0x40 MLOAD DUP1 DUP4 SUB DUP2 PUSH0 DUP7 GAS CALL SWAP2 POP POP RETURNDATASIZE DUP1 PUSH0 DUP2 EQ PUSH2 0x791 JUMPI PUSH1 0x40 MLOAD SWAP2 POP PUSH1 0x1F NOT PUSH1 0x3F RETURNDATASIZE ADD AND DUP3 ADD PUSH1 0x40 MSTORE RETURNDATASIZE DUP3 MSTORE RETURNDATASIZE PUSH0 PUSH1 0x20 DUP5 ADD RETURNDATACOPY PUSH2 0x796 JUMP JUMPDEST PUSH1 0x60 SWAP2 POP JUMPDEST POP SWAP2 POP SWAP2 POP DUP10 DUP1 ISZERO PUSH2 0x7A5 JUMPI POP DUP8 JUMPDEST DUP1 ISZERO PUSH2 0x7AE JUMPI POP DUP6 JUMPDEST DUP1 ISZERO PUSH2 0x7B7 JUMPI POP DUP4 JUMPDEST DUP1 ISZERO PUSH2 0x7C0 JUMPI POP DUP2 JUMPDEST PUSH2 0x7C8 JUMPI PUSH0 DUP1 REVERT JUMPDEST POP POP POP POP POP POP POP POP POP POP POP POP JUMP JUMPDEST PUSH32 0xAFABCF2DD47E06A477A89E49C03F8EBE8E0A7E94F775B25BBB24227C9D0110B2 PUSH0 CALLDATASIZE PUSH1 0x40 MLOAD PUSH2 0x807 SWAP3 SWAP2 SWAP1 PUSH2 0x14AE JUMP JUMPDEST PUSH1 0x40 MLOAD DUP1 SWAP2 SUB SWAP1 LOG1 POP JUMP JUMPDEST PUSH0 PUSH32 0x87C76683E354ABE8640B03C72D02C9175D9A00A6C0101D5BC4BE081B9B8199EB PUSH4 0xE355B0CE PUSH1 0xE0 SHL PUSH1 0x40 MLOAD PUSH2 0x849 SWAP2 SWAP1 PUSH2 0x99E JUMP JUMPDEST PUSH1 0x40 MLOAD DUP1 SWAP2 SUB SWAP1 LOG1 PUSH32 0xE355B0CEECDC5A85BC460808AED3B4D8EAA7935DBF79D2DB6FFCF71E5C352576 SWAP1 POP SWAP5 SWAP4 POP POP POP POP JUMP JUMPDEST PUSH0 PUSH32 0x87C76683E354ABE8640B03C72D02C9175D9A00A6C0101D5BC4BE081B9B8199EB PUSH4 0xEAD6B8BD PUSH1 0xE0 SHL PUSH1 0x40 MLOAD PUSH2 0x8B3 SWAP2 SWAP1 PUSH2 0x99E JUMP JUMPDEST PUSH1 0x40 MLOAD DUP1 SWAP2 SUB SWAP1 LOG1 PUSH32 0xEAD6B8BDECE33532847146A6FE63967E794EF7C18F3B888AE6FB3AEBB4EF1B95 SWAP1 POP SWAP2 SWAP1 POP JUMP JUMPDEST PUSH0 PUSH32 0x87C76683E354ABE8640B03C72D02C9175D9A00A6C0101D5BC4BE081B9B8199EB PUSH4 0xF0CA01DE PUSH1 0xE0 SHL PUSH1 0x40 MLOAD PUSH2 0x91A SWAP2 SWAP1 PUSH2 0x99E JUMP JUMPDEST PUSH1 0x40 MLOAD DUP1 SWAP2 SUB SWAP1 LOG1 PUSH32 0xF0CA01DE95639524000D6FF4E9309B96C7F67F7961BF24B33F8B20E85F6AD977 SWAP1 POP SWAP3 SWAP2 POP POP JUMP JUMPDEST PUSH1 0x40 MLOAD DUP1 PUSH1 0x40 ADD PUSH1 0x40 MSTORE DUP1 PUSH0 DUP2 MSTORE PUSH1 0x20 ADD PUSH1 0x60 DUP2 MSTORE POP SWAP1 JUMP JUMPDEST PUSH0 PUSH32 0xFFFFFFFF00000000000000000000000000000000000000000000000000000000 DUP3 AND SWAP1 POP SWAP2 SWAP1 POP JUMP JUMPDEST PUSH2 0x998 DUP2 PUSH2 0x964 JUMP JUMPDEST DUP3 MSTORE POP POP JUMP JUMPDEST PUSH0 PUSH1 0x20 DUP3 ADD SWAP1 POP PUSH2 0x9B1 PUSH0 DUP4 ADD DUP5 PUSH2 0x98F JUMP JUMPDEST SWAP3 SWAP2 POP POP JUMP JUMPDEST PUSH0 PUSH1 0x40 MLOAD SWAP1 POP SWAP1 JUMP JUMPDEST PUSH0 DUP1 REVERT JUMPDEST PUSH0 DUP1 REVERT JUMPDEST PUSH0 DUP2 SWAP1 POP SWAP2 SWAP1 POP JUMP JUMPDEST PUSH2 0x9DA DUP2 PUSH2 0x9C8 JUMP JUMPDEST DUP2 EQ PUSH2 0x9E4 JUMPI PUSH0 DUP1 REVERT JUMPDEST POP JUMP JUMPDEST PUSH0 DUP2 CALLDATALOAD SWAP1 POP PUSH2 0x9F5 DUP2 PUSH2 0x9D1 JUMP JUMPDEST SWAP3 SWAP2 POP POP JUMP JUMPDEST PUSH0 DUP2 ISZERO ISZERO SWAP1 POP SWAP2 SWAP1 POP JUMP JUMPDEST PUSH2 0xA0F DUP2 PUSH2 0x9FB JUMP JUMPDEST DUP2 EQ PUSH2 0xA19 JUMPI PUSH0 DUP1 REVERT JUMPDEST POP JUMP JUMPDEST PUSH0 DUP2 CALLDATALOAD SWAP1 POP PUSH2 0xA2A DUP2 PUSH2 0xA06 JUMP JUMPDEST SWAP3 SWAP2 POP POP JUMP JUMPDEST PUSH0 DUP1 PUSH1 0x40 DUP4 DUP6 SUB SLT ISZERO PUSH2 0xA46 JUMPI PUSH2 0xA45 PUSH2 0x9C0 JUMP JUMPDEST JUMPDEST PUSH0 PUSH2 0xA53 DUP6 DUP3 DUP7 ADD PUSH2 0x9E7 JUMP JUMPDEST SWAP3 POP POP PUSH1 0x20 PUSH2 0xA64 DUP6 DUP3 DUP7 ADD PUSH2 0xA1C JUMP JUMPDEST SWAP2 POP POP SWAP3 POP SWAP3 SWAP1 POP JUMP JUMPDEST PUSH0 PUSH20 0xFFFFFFFFFFFFFFFFFFFFFFFFFFFFFFFFFFFFFFFF DUP3 AND SWAP1 POP SWAP2 SWAP1 POP JUMP JUMPDEST PUSH0 PUSH2 0xA97 DUP3 PUSH2 0xA6E JUMP JUMPDEST SWAP1 POP SWAP2 SWAP1 POP JUMP JUMPDEST PUSH2 0xAA7 DUP2 PUSH2 0xA8D JUMP JUMPDEST DUP2 EQ PUSH2 0xAB1 JUMPI PUSH0 DUP1 REVERT JUMPDEST POP JUMP JUMPDEST PUSH0 DUP2 CALLDATALOAD SWAP1 POP PUSH2 0xAC2 DUP2 PUSH2 0xA9E JUMP JUMPDEST SWAP3 SWAP2 POP POP JUMP JUMPDEST PUSH0 PUSH1 0x20 DUP3 DUP5 SUB SLT ISZERO PUSH2 0xADD JUMPI PUSH2 0xADC PUSH2 0x9C0 JUMP JUMPDEST JUMPDEST PUSH0 PUSH2 0xAEA DUP5 DUP3 DUP6 ADD PUSH2 0xAB4 JUMP JUMPDEST SWAP2 POP POP SWAP3 SWAP2 POP POP JUMP JUMPDEST PUSH0 PUSH2 0xAFD DUP3 PUSH2 0xA8D JUMP JUMPDEST SWAP1 POP SWAP2 SWAP1 POP JUMP JUMPDEST PUSH2 0xB0D DUP2 PUSH2 0xAF3 JUMP JUMPDEST DUP2 EQ PUSH2 0xB17 JUMPI PUSH0 DUP1 REVERT JUMPDEST POP JUMP JUMPDEST PUSH0 DUP2 CALLDATALOAD SWAP1 POP PUSH2 0xB28 DUP2 PUSH2 0xB04 JUMP JUMPDEST SWAP3 SWAP2 POP POP JUMP JUMPDEST PUSH0 DUP1 REVERT JUMPDEST PUSH0 PUSH1 0x1F NOT PUSH1 0x1F DUP4 ADD AND SWAP1 POP SWAP2 SWAP1 POP JUMP JUMPDEST PUSH32 0x4E487B7100000000000000000000000000000000000000000000000000000000 PUSH0 MSTORE PUSH1 0x41 PUSH1 0x4 MSTORE PUSH1 0x24 PUSH0 REVERT JUMPDEST PUSH2 0xB78 DUP3 PUSH2 0xB32 JUMP JUMPDEST DUP2 ADD DUP2 DUP2 LT PUSH8 0xFFFFFFFFFFFFFFFF DUP3 GT OR ISZERO PUSH2 0xB97 JUMPI PUSH2 0xB96 PUSH2 0xB42 JUMP JUMPDEST JUMPDEST DUP1 PUSH1 0x40 MSTORE POP POP POP JUMP JUMPDEST PUSH0 PUSH2 0xBA9 PUSH2 0x9B7 JUMP JUMPDEST SWAP1 POP PUSH2 0xBB5 DUP3 DUP3 PUSH2 0xB6F JUMP JUMPDEST SWAP2 SWAP1 POP JUMP JUMPDEST PUSH0 DUP1 REVERT JUMPDEST PUSH0 DUP1 REVERT JUMPDEST PUSH0 DUP1 REVERT JUMPDEST PUSH0 PUSH8 0xFFFFFFFFFFFFFFFF DUP3 GT ISZERO PUSH2 0xBE0 JUMPI PUSH2 0xBDF PUSH2 0xB42 JUMP JUMPDEST JUMPDEST PUSH2 0xBE9 DUP3 PUSH2 0xB32 JUMP JUMPDEST SWAP1 POP PUSH1 0x20 DUP2 ADD SWAP1 POP SWAP2 SWAP1 POP JUMP JUMPDEST DUP3 DUP2 DUP4 CALLDATACOPY PUSH0 DUP4 DUP4 ADD MSTORE POP POP POP JUMP JUMPDEST PUSH0 PUSH2 0xC16 PUSH2 0xC11 DUP5 PUSH2 0xBC6 JUMP JUMPDEST PUSH2 0xBA0 JUMP JUMPDEST SWAP1 POP DUP3 DUP2 MSTORE PUSH1 0x20 DUP2 ADD DUP5 DUP5 DUP5 ADD GT ISZERO PUSH2 0xC32 JUMPI PUSH2 0xC31 PUSH2 0xBC2 JUMP JUMPDEST JUMPDEST PUSH2 0xC3D DUP5 DUP3 DUP6 PUSH2 0xBF6 JUMP JUMPDEST POP SWAP4 SWAP3 POP POP POP JUMP JUMPDEST PUSH0 DUP3 PUSH1 0x1F DUP4 ADD SLT PUSH2 0xC59 JUMPI PUSH2 0xC58 PUSH2 0xBBE JUMP JUMPDEST JUMPDEST DUP2 CALLDATALOAD PUSH2 0xC69 DUP5 DUP3 PUSH1 0x20 DUP7 ADD PUSH2 0xC04 JUMP JUMPDEST SWAP2 POP POP SWAP3 SWAP2 POP POP JUMP JUMPDEST PUSH0 PUSH1 0x40 DUP3 DUP5 SUB SLT ISZERO PUSH2 0xC87 JUMPI PUSH2 0xC86 PUSH2 0xB2E JUMP JUMPDEST JUMPDEST PUSH2 0xC91 PUSH1 0x40 PUSH2 0xBA0 JUMP JUMPDEST SWAP1 POP PUSH0 PUSH2 0xCA0 DUP5 DUP3 DUP6 ADD PUSH2 0x9E7 JUMP JUMPDEST PUSH0 DUP4 ADD MSTORE POP PUSH1 0x20 DUP3 ADD CALLDATALOAD PUSH8 0xFFFFFFFFFFFFFFFF DUP2 GT ISZERO PUSH2 0xCC3 JUMPI PUSH2 0xCC2 PUSH2 0xBBA JUMP JUMPDEST JUMPDEST PUSH2 0xCCF DUP5 DUP3 DUP6 ADD PUSH2 0xC45 JUMP JUMPDEST PUSH1 0x20 DUP4 ADD MSTORE POP SWAP3 SWAP2 POP POP JUMP JUMPDEST PUSH0 PUSH8 0xFFFFFFFFFFFFFFFF DUP3 GT ISZERO PUSH2 0xCF5 JUMPI PUSH2 0xCF4 PUSH2 0xB42 JUMP JUMPDEST JUMPDEST PUSH1 0x20 DUP3 MUL SWAP1 POP PUSH1 0x20 DUP2 ADD SWAP1 POP SWAP2 SWAP1 POP JUMP JUMPDEST PUSH0 DUP1 REVERT JUMPDEST PUSH0 PUSH2 0xD1C PUSH2 0xD17 DUP5 PUSH2 0xCDB JUMP JUMPDEST PUSH2 0xBA0 JUMP JUMPDEST SWAP1 POP DUP1 DUP4 DUP3 MSTORE PUSH1 0x20 DUP3 ADD SWAP1 POP PUSH1 0x20 DUP5 MUL DUP4 ADD DUP6 DUP2 GT ISZERO PUSH2 0xD3F JUMPI PUSH2 0xD3E PUSH2 0xD06 JUMP JUMPDEST JUMPDEST DUP4 JUMPDEST DUP2 DUP2 LT ISZERO PUSH2 0xD68 JUMPI DUP1 PUSH2 0xD54 DUP9 DUP3 PUSH2 0x9E7 JUMP JUMPDEST DUP5 MSTORE PUSH1 0x20 DUP5 ADD SWAP4 POP POP PUSH1 0x20 DUP2 ADD SWAP1 POP PUSH2 0xD41 JUMP JUMPDEST POP POP POP SWAP4 SWAP3 POP POP POP JUMP JUMPDEST PUSH0 DUP3 PUSH1 0x1F DUP4 ADD SLT PUSH2 0xD86 JUMPI PUSH2 0xD85 PUSH2 0xBBE JUMP JUMPDEST JUMPDEST DUP2 CALLDATALOAD PUSH2 0xD96 DUP5 DUP3 PUSH1 0x20 DUP7 ADD PUSH2 0xD0A JUMP JUMPDEST SWAP2 POP POP SWAP3 SWAP2 POP POP JUMP JUMPDEST PUSH1 0x3 DUP2 LT PUSH2 0xDAB JUMPI PUSH0 DUP1 REVERT JUMPDEST POP JUMP JUMPDEST PUSH0 DUP2 CALLDATALOAD SWAP1 POP PUSH2 0xDBC DUP2 PUSH2 0xD9F JUMP JUMPDEST SWAP3 SWAP2 POP POP JUMP JUMPDEST PUSH0 DUP1 PUSH0 DUP1 PUSH1 0x80 DUP6 DUP8 SUB SLT ISZERO PUSH2 0xDDA JUMPI PUSH2 0xDD9 PUSH2 0x9C0 JUMP JUMPDEST JUMPDEST PUSH0 PUSH2 0xDE7 DUP8 DUP3 DUP9 ADD PUSH2 0xB1A JUMP JUMPDEST SWAP5 POP POP PUSH1 0x20 DUP6 ADD CALLDATALOAD PUSH8 0xFFFFFFFFFFFFFFFF DUP2 GT ISZERO PUSH2 0xE08 JUMPI PUSH2 0xE07 PUSH2 0x9C4 JUMP JUMPDEST JUMPDEST PUSH2 0xE14 DUP8 DUP3 DUP9 ADD PUSH2 0xC72 JUMP JUMPDEST SWAP4 POP POP PUSH1 0x40 DUP6 ADD CALLDATALOAD PUSH8 0xFFFFFFFFFFFFFFFF DUP2 GT ISZERO PUSH2 0xE35 JUMPI PUSH2 0xE34 PUSH2 0x9C4 JUMP JUMPDEST JUMPDEST PUSH2 0xE41 DUP8 DUP3 DUP9 ADD PUSH2 0xD72 JUMP JUMPDEST SWAP3 POP POP PUSH1 0x60 PUSH2 0xE52 DUP8 DUP3 DUP9 ADD PUSH2 0xDAE JUMP JUMPDEST SWAP2 POP POP SWAP3 SWAP6 SWAP2 SWAP5 POP SWAP3 POP JUMP JUMPDEST PUSH0 PUSH8 0xFFFFFFFFFFFFFFFF DUP3 GT ISZERO PUSH2 0xE78 JUMPI PUSH2 0xE77 PUSH2 0xB42 JUMP JUMPDEST JUMPDEST PUSH1 0x20 DUP3 MUL SWAP1 POP SWAP2 SWAP1 POP JUMP JUMPDEST PUSH0 PUSH2 0xE95 PUSH2 0xE90 DUP5 PUSH2 0xE5E JUMP JUMPDEST PUSH2 0xBA0 JUMP JUMPDEST SWAP1 POP DUP1 PUSH1 0x20 DUP5 MUL DUP4 ADD DUP6 DUP2 GT ISZERO PUSH2 0xEAF JUMPI PUSH2 0xEAE PUSH2 0xD06 JUMP JUMPDEST JUMPDEST DUP4 JUMPDEST DUP2 DUP2 LT ISZERO PUSH2 0xED8 JUMPI DUP1 PUSH2 0xEC4 DUP9 DUP3 PUSH2 0x9E7 JUMP JUMPDEST DUP5 MSTORE PUSH1 0x20 DUP5 ADD SWAP4 POP POP PUSH1 0x20 DUP2 ADD SWAP1 POP PUSH2 0xEB1 JUMP JUMPDEST POP POP POP SWAP4 SWAP3 POP POP POP JUMP JUMPDEST PUSH0 DUP3 PUSH1 0x1F DUP4 ADD SLT PUSH2 0xEF6 JUMPI PUSH2 0xEF5 PUSH2 0xBBE JUMP JUMPDEST JUMPDEST PUSH1 0x3 PUSH2 0xF03 DUP5 DUP3 DUP6 PUSH2 0xE83 JUMP JUMPDEST SWAP2 POP POP SWAP3 SWAP2 POP POP JUMP JUMPDEST PUSH0 PUSH1 0x60 DUP3 DUP5 SUB SLT ISZERO PUSH2 0xF21 JUMPI PUSH2 0xF20 PUSH2 0x9C0 JUMP JUMPDEST JUMPDEST PUSH0 PUSH2 0xF2E DUP5 DUP3 DUP6 ADD PUSH2 0xEE2 JUMP JUMPDEST SWAP2 POP POP SWAP3 SWAP2 POP POP JUMP JUMPDEST PUSH0 PUSH8 0xFFFFFFFFFFFFFFFF DUP3 GT ISZERO PUSH2 0xF51 JUMPI PUSH2 0xF50 PUSH2 0xB42 JUMP JUMPDEST JUMPDEST PUSH2 0xF5A DUP3 PUSH2 0xB32 JUMP JUMPDEST SWAP1 POP PUSH1 0x20 DUP2 ADD SWAP1 POP SWAP2 SWAP1 POP JUMP JUMPDEST PUSH0 PUSH2 0xF79 PUSH2 0xF74 DUP5 PUSH2 0xF37 JUMP JUMPDEST PUSH2 0xBA0 JUMP JUMPDEST SWAP1 POP DUP3 DUP2 MSTORE PUSH1 0x20 DUP2 ADD DUP5 DUP5 DUP5 ADD GT ISZERO PUSH2 0xF95 JUMPI PUSH2 0xF94 PUSH2 0xBC2 JUMP JUMPDEST JUMPDEST PUSH2 0xFA0 DUP5 DUP3 DUP6 PUSH2 0xBF6 JUMP JUMPDEST POP SWAP4 SWAP3 POP POP POP JUMP JUMPDEST PUSH0 DUP3 PUSH1 0x1F DUP4 ADD SLT PUSH2 0xFBC JUMPI PUSH2 0xFBB PUSH2 0xBBE JUMP JUMPDEST JUMPDEST DUP2 CALLDATALOAD PUSH2 0xFCC DUP5 DUP3 PUSH1 0x20 DUP7 ADD PUSH2 0xF67 JUMP JUMPDEST SWAP2 POP POP SWAP3 SWAP2 POP POP JUMP JUMPDEST PUSH0 DUP1 PUSH1 0x40 DUP4 DUP6 SUB SLT ISZERO PUSH2 0xFEB JUMPI PUSH2 0xFEA PUSH2 0x9C0 JUMP JUMPDEST JUMPDEST PUSH0 DUP4 ADD CALLDATALOAD PUSH8 0xFFFFFFFFFFFFFFFF DUP2 GT ISZERO PUSH2 0x1008 JUMPI PUSH2 0x1007 PUSH2 0x9C4 JUMP JUMPDEST JUMPDEST PUSH2 0x1014 DUP6 DUP3 DUP7 ADD PUSH2 0xD72 JUMP JUMPDEST SWAP3 POP POP PUSH1 0x20 DUP4 ADD CALLDATALOAD PUSH8 0xFFFFFFFFFFFFFFFF DUP2 GT ISZERO PUSH2 0x1035 JUMPI PUSH2 0x1034 PUSH2 0x9C4 JUMP JUMPDEST JUMPDEST PUSH2 0x1041 DUP6 DUP3 DUP7 ADD PUSH2 0xFA8 JUMP JUMPDEST SWAP2 POP POP SWAP3 POP SWAP3 SWAP1 POP JUMP JUMPDEST PUSH32 0x4E487B7100000000000000000000000000000000000000000000000000000000 PUSH0 MSTORE PUSH1 0x32 PUSH1 0x4 MSTORE PUSH1 0x24 PUSH0 REVERT JUMPDEST PUSH0 DUP2 MLOAD SWAP1 POP SWAP2 SWAP1 POP JUMP JUMPDEST PUSH0 DUP2 SWAP1 POP SWAP3 SWAP2 POP POP JUMP JUMPDEST DUP3 DUP2 DUP4 MCOPY PUSH0 DUP4 DUP4 ADD MSTORE POP POP POP JUMP JUMPDEST PUSH0 PUSH2 0x10A4 DUP3 PUSH2 0x1078 JUMP JUMPDEST PUSH2 0x10AE DUP2 DUP6 PUSH2 0x1082 JUMP JUMPDEST SWAP4 POP PUSH2 0x10BE DUP2 DUP6 PUSH1 0x20 DUP7 ADD PUSH2 0x108C JUMP JUMPDEST DUP1 DUP5 ADD SWAP2 POP POP SWAP3 SWAP2 POP POP JUMP JUMPDEST PUSH0 PUSH2 0x10D5 DUP3 DUP5 PUSH2 0x109A JUMP JUMPDEST SWAP2 POP DUP2 SWAP1 POP SWAP3 SWAP2 POP POP JUMP JUMPDEST PUSH0 DUP2 SWAP1 POP SWAP2 SWAP1 POP JUMP JUMPDEST PUSH0 PUSH1 0xFF DUP3 AND SWAP1 POP SWAP2 SWAP1 POP JUMP JUMPDEST PUSH0 DUP2 SWAP1 POP SWAP2 SWAP1 POP JUMP JUMPDEST PUSH0 PUSH2 0x1118 PUSH2 0x1113 PUSH2 0x110E DUP5 PUSH2 0x10E0 JUMP JUMPDEST PUSH2 0x10F5 JUMP JUMPDEST PUSH2 0x10E9 JUMP JUMPDEST SWAP1 POP SWAP2 SWAP1 POP JUMP JUMPDEST PUSH2 0x1128 DUP2 PUSH2 0x10FE JUMP JUMPDEST DUP3 MSTORE POP POP JUMP JUMPDEST PUSH0 DUP2 SWAP1 POP SWAP2 SWAP1 POP JUMP JUMPDEST PUSH0 PUSH2 0x1151 PUSH2 0x114C PUSH2 0x1147 DUP5 PUSH2 0x112E JUMP JUMPDEST PUSH2 0x10F5 JUMP JUMPDEST PUSH2 0x10E9 JUMP JUMPDEST SWAP1 POP SWAP2 SWAP1 POP JUMP JUMPDEST PUSH2 0x1161 DUP2 PUSH2 0x1137 JUMP JUMPDEST DUP3 MSTORE POP POP JUMP JUMPDEST PUSH0 PUSH1 0x40 DUP3 ADD SWAP1 POP PUSH2 0x117A PUSH0 DUP4 ADD DUP6 PUSH2 0x111F JUMP JUMPDEST PUSH2 0x1187 PUSH1 0x20 DUP4 ADD DUP5 PUSH2 0x1158 JUMP JUMPDEST SWAP4 SWAP3 POP POP POP JUMP JUMPDEST PUSH0 PUSH1 0x3 SWAP1 POP SWAP2 SWAP1 POP JUMP JUMPDEST PUSH0 DUP2 SWAP1 POP SWAP3 SWAP2 POP POP JUMP JUMPDEST PUSH0 DUP2 SWAP1 POP SWAP2 SWAP1 POP JUMP JUMPDEST PUSH2 0x11B4 DUP2 PUSH2 0x10E9 JUMP JUMPDEST DUP3 MSTORE POP POP JUMP JUMPDEST PUSH0 PUSH2 0x11C5 DUP4 DUP4 PUSH2 0x11AB JUMP JUMPDEST PUSH1 0x20 DUP4 ADD SWAP1 POP SWAP3 SWAP2 POP POP JUMP JUMPDEST PUSH0 PUSH1 0x20 DUP3 ADD SWAP1 POP SWAP2 SWAP1 POP JUMP JUMPDEST PUSH2 0x11E6 DUP2 PUSH2 0x118E JUMP JUMPDEST PUSH2 0x11F0 DUP2 DUP5 PUSH2 0x1198 JUMP JUMPDEST SWAP3 POP PUSH2 0x11FB DUP3 PUSH2 0x11A2 JUMP JUMPDEST DUP1 PUSH0 JUMPDEST DUP4 DUP2 LT ISZERO PUSH2 0x122B JUMPI DUP2 MLOAD PUSH2 0x1212 DUP8 DUP3 PUSH2 0x11BA JUMP JUMPDEST SWAP7 POP PUSH2 0x121D DUP4 PUSH2 0x11D1 JUMP JUMPDEST SWAP3 POP POP PUSH1 0x1 DUP2 ADD SWAP1 POP PUSH2 0x11FE JUMP JUMPDEST POP POP POP POP POP POP JUMP JUMPDEST PUSH0 PUSH1 0x60 DUP3 ADD SWAP1 POP PUSH2 0x1246 PUSH0 DUP4 ADD DUP5 PUSH2 0x11DD JUMP JUMPDEST SWAP3 SWAP2 POP POP JUMP JUMPDEST PUSH0 DUP2 MLOAD SWAP1 POP SWAP2 SWAP1 POP JUMP JUMPDEST PUSH0 DUP3 DUP3 MSTORE PUSH1 0x20 DUP3 ADD SWAP1 POP SWAP3 SWAP2 POP POP JUMP JUMPDEST PUSH0 DUP2 SWAP1 POP PUSH1 0x20 DUP3 ADD SWAP1 POP SWAP2 SWAP1 POP JUMP JUMPDEST PUSH2 0x127E DUP2 PUSH2 0x9C8 JUMP JUMPDEST DUP3 MSTORE POP POP JUMP JUMPDEST PUSH0 PUSH2 0x128F DUP4 DUP4 PUSH2 0x1275 JUMP JUMPDEST PUSH1 0x20 DUP4 ADD SWAP1 POP SWAP3 SWAP2 POP POP JUMP JUMPDEST PUSH0 PUSH1 0x20 DUP3 ADD SWAP1 POP SWAP2 SWAP1 POP JUMP JUMPDEST PUSH0 PUSH2 0x12B1 DUP3 PUSH2 0x124C JUMP JUMPDEST PUSH2 0x12BB DUP2 DUP6 PUSH2 0x1256 JUMP JUMPDEST SWAP4 POP PUSH2 0x12C6 DUP4 PUSH2 0x1266 JUMP JUMPDEST DUP1 PUSH0 JUMPDEST DUP4 DUP2 LT ISZERO PUSH2 0x12F6 JUMPI DUP2 MLOAD PUSH2 0x12DD DUP9 DUP3 PUSH2 0x1284 JUMP JUMPDEST SWAP8 POP PUSH2 0x12E8 DUP4 PUSH2 0x129B JUMP JUMPDEST SWAP3 POP POP PUSH1 0x1 DUP2 ADD SWAP1 POP PUSH2 0x12C9 JUMP JUMPDEST POP DUP6 SWAP4 POP POP POP POP SWAP3 SWAP2 POP POP JUMP JUMPDEST PUSH0 DUP3 DUP3 MSTORE PUSH1 0x20 DUP3 ADD SWAP1 POP SWAP3 SWAP2 POP POP JUMP JUMPDEST PUSH32 0x6162630000000000000000000000000000000000000000000000000000000000 PUSH0 DUP3 ADD MSTORE POP JUMP JUMPDEST PUSH0 PUSH2 0x1347 PUSH1 0x3 DUP4 PUSH2 0x1303 JUMP JUMPDEST SWAP2 POP PUSH2 0x1352 DUP3 PUSH2 0x1313 JUMP JUMPDEST PUSH1 0x20 DUP3 ADD SWAP1 POP SWAP2 SWAP1 POP JUMP JUMPDEST PUSH0 PUSH1 0x40 DUP3 ADD SWAP1 POP DUP2 DUP2 SUB PUSH0 DUP4 ADD MSTORE PUSH2 0x1375 DUP2 DUP5 PUSH2 0x12A7 JUMP JUMPDEST SWAP1 POP DUP2 DUP2 SUB PUSH1 0x20 DUP4 ADD MSTORE PUSH2 0x1388 DUP2 PUSH2 0x133B JUMP JUMPDEST SWAP1 POP SWAP3 SWAP2 POP POP JUMP JUMPDEST PUSH2 0x1399 DUP2 PUSH2 0xA8D JUMP JUMPDEST DUP3 MSTORE POP POP JUMP JUMPDEST PUSH0 DUP3 DUP3 MSTORE PUSH1 0x20 DUP3 ADD SWAP1 POP SWAP3 SWAP2 POP POP JUMP JUMPDEST PUSH0 PUSH2 0x13B9 DUP3 PUSH2 0x1078 JUMP JUMPDEST PUSH2 0x13C3 DUP2 DUP6 PUSH2 0x139F JUMP JUMPDEST SWAP4 POP PUSH2 0x13D3 DUP2 DUP6 PUSH1 0x20 DUP7 ADD PUSH2 0x108C JUMP JUMPDEST PUSH2 0x13DC DUP2 PUSH2 0xB32 JUMP JUMPDEST DUP5 ADD SWAP2 POP POP SWAP3 SWAP2 POP POP JUMP JUMPDEST PUSH0 PUSH1 0x40 DUP4 ADD PUSH0 DUP4 ADD MLOAD PUSH2 0x13FC PUSH0 DUP7 ADD DUP3 PUSH2 0x1275 JUMP JUMPDEST POP PUSH1 0x20 DUP4 ADD MLOAD DUP5 DUP3 SUB PUSH1 0x20 DUP7 ADD MSTORE PUSH2 0x1414 DUP3 DUP3 PUSH2 0x13AF JUMP JUMPDEST SWAP2 POP POP DUP1 SWAP2 POP POP SWAP3 SWAP2 POP POP JUMP JUMPDEST PUSH0 PUSH1 0x80 DUP3 ADD SWAP1 POP PUSH2 0x1434 PUSH0 DUP4 ADD DUP8 PUSH2 0x1390 JUMP JUMPDEST DUP2 DUP2 SUB PUSH1 0x20 DUP4 ADD MSTORE PUSH2 0x1446 DUP2 DUP7 PUSH2 0x13E7 JUMP JUMPDEST SWAP1 POP DUP2 DUP2 SUB PUSH1 0x40 DUP4 ADD MSTORE PUSH2 0x145A DUP2 DUP6 PUSH2 0x12A7 JUMP JUMPDEST SWAP1 POP PUSH2 0x1469 PUSH1 0x60 DUP4 ADD DUP5 PUSH2 0x111F JUMP JUMPDEST SWAP6 SWAP5 POP POP POP POP POP JUMP JUMPDEST PUSH0 DUP3 DUP3 MSTORE PUSH1 0x20 DUP3 ADD SWAP1 POP SWAP3 SWAP2 POP POP JUMP JUMPDEST PUSH0 PUSH2 0x148D DUP4 DUP6 PUSH2 0x1472 JUMP JUMPDEST SWAP4 POP PUSH2 0x149A DUP4 DUP6 DUP5 PUSH2 0xBF6 JUMP JUMPDEST PUSH2 0x14A3 DUP4 PUSH2 0xB32 JUMP JUMPDEST DUP5 ADD SWAP1 POP SWAP4 SWAP3 POP POP POP JUMP JUMPDEST PUSH0 PUSH1 0x20 DUP3 ADD SWAP1 POP DUP2 DUP2 SUB PUSH0 DUP4 ADD MSTORE PUSH2 0x14C7 DUP2 DUP5 DUP7 PUSH2 0x1482 JUMP JUMPDEST SWAP1 POP SWAP4 SWAP3 POP POP POP JUMP INVALID LOG2 PUSH5 0x6970667358 0x22 SLT KECCAK256 0xC9 DUP15 0xE9 PUSH25 0x75A515498EB22BA2A28E189EA76089C3B4F6168AC8073A34E2 PUSH5 0x21B064736F PUSH13 0x634300081A0033000000000000 "
				},
				"gasEstimates": {
					"creation": {
						"codeDepositCost": "1076400",
						"executionCost": "1118",
						"totalCost": "1077518"
					},
					"external": {
						"callWithSignature()": "infinite",
						"elementaryParamSelector(uint256,bool)": "infinite",
						"fixedSizeParamSelector(uint256[3])": "infinite",
						"mappingParamSelector(address,(uint256,bytes),uint256[],uint8)": "infinite",
						"mint(address)": "infinite",
						"mintSelector()": "361",
						"nonFixedSizeParamSelector(uint256[],string)": "infinite",
						"nonParamSelector()": "infinite"
					}
				},
				"methodIdentifiers": {
					"callWithSignature()": "59ebea23",
					"elementaryParamSelector(uint256,bool)": "3ec37834",
					"fixedSizeParamSelector(uint256[3])": "ead6b8bd",
					"mappingParamSelector(address,(uint256,bytes),uint256[],uint8)": "e355b0ce",
					"mint(address)": "6a627842",
					"mintSelector()": "046dab16",
					"nonFixedSizeParamSelector(uint256[],string)": "f0ca01de",
					"nonParamSelector()": "03817936"
				}
			},
			"storageLayout": {
				"storage": [],
				"types": null
			},
			"userdoc": {
				"kind": "user",
				"methods": {},
				"version": 1
			}
		}
	}
}